{
	"data": {
		"bytecode": {
			"linkReferences": {},
			"object": "6101a060405234801561001157600080fd5b506040516157aa3803806157aa83398101604081905261003091610317565b80620334506969e10de76676d080000082604051806040016040528060048152602001630aa88aa960e31b81525080604051806040016040528060018152602001603160f81b815250836040518060400160405280601381526020017f596f7520446963652c20596f7520486f75736500000000000000000000000000815250604051806040016040528060048152602001630aa88aa960e31b81525081600c90816100dc91906103e8565b50600d6100e982826103e8565b5050506001600160a01b03811661011b57604051631e4fbdf760e01b8152600060048201526024015b60405180910390fd5b61012481610254565b5061013082600f6102a6565b6101205261013f8160106102a6565b61014052815160208084019190912060e052815190820120610100524660a0526101cc60e05161010051604080517f8b73c3c69bb8fe3d512ecc4cf759cc79239f7b179b0ffacaa9a75d522b39400f60208201529081019290925260608201524660808201523060a082015260009060c00160405160208183030381529060405280519060200120905090565b60805250503060c05250506001600160401b03909116610160526001600160601b0316610180525050601280546001600160a01b031916738cc9c2e145d3aa946502964b1b69ce3cd066a9c71790557e6a94d74f430000000000000000000000000000000000008ac7230489e800006000556001805463ffffffff19166108fc17905561051a565b600e80546001600160a01b038381166001600160a01b0319831681179093556040519116919082907f8be0079c531659141344cd1fd0a4f28419497f9722a3daafe3b4186f6b6457e090600090a35050565b60006020835110156102c2576102bb836102d9565b90506102d3565b816102cd84826103e8565b5060ff90505b92915050565b600080829050601f81511115610304578260405163305a27a960e01b815260040161011291906104a7565b805161030f826104f6565b179392505050565b60006020828403121561032957600080fd5b81516001600160a01b038116811461034057600080fd5b9392505050565b634e487b7160e01b600052604160045260246000fd5b600181811c9082168061037157607f821691505b60208210810361039157634e487b7160e01b600052602260045260246000fd5b50919050565b601f8211156103e3576000816000526020600020601f850160051c810160208610156103c05750805b601f850160051c820191505b818110156103df578281556001016103cc565b5050505b505050565b81516001600160401b0381111561040157610401610347565b6104158161040f845461035d565b84610397565b602080601f83116001811461044a57600084156104325750858301515b600019600386901b1c1916600185901b1785556103df565b600085815260208120601f198616915b828110156104795788860151825594840194600190910190840161045a565b50858210156104975787850151600019600388901b60f8161c191681555b5050505050600190811b01905550565b60006020808352835180602085015260005b818110156104d5578581018301518582016040015282016104b9565b506000604082860101526040601f19601f8301168501019250505092915050565b805160208083015191908110156103915760001960209190910360031b1b16919050565b60805160a05160c05160e05161010051610120516101405161016051610180516151e86105c2600039600081816104e901528181612c5c0152818161302e01528181613de60152818161472701526147b90152600081816104b7015281816121d501528181612c270152613ac7015260006137750152600061374801526000613626015260006135fe0152600061355901526000613583015260006135ad01526151e86000f3fe6080604052600436106102385760003560e01c806375f8300e11610138578063d505accf116100b0578063ed042c9b1161007f578063f516ec9f11610064578063f516ec9f14610826578063fe585b7f14610846578063ff2d9665146108595761025d565b8063ed042c9b146107e6578063f2fde38b146108065761025d565b8063d505accf14610733578063d7194ccb14610753578063db006a7514610773578063dd62ed3e146107935761025d565b806389b94cca1161010757806395d89b41116100ec57806395d89b41146106de578063a9059cbb146106f3578063b63bdd54146107135761025d565b806389b94cca146106865780638da5cb5b146106b35761025d565b806375f8300e146105d157806379cc67901461061e5780637ecebe001461063e57806384b0196e1461065e5761025d565b8063419bbb76116101cb5780636142b0271161019a5780636bd50cef1161017f5780636bd50cef1461049557806370a0823114610579578063715018a6146105bc5761025d565b80636142b02714610455578063621ad856146104825761025d565b8063419bbb761461039657806342966c68146103b65780634bd8ec5e146103d657806359328401146103f65761025d565b80631865c57d116102075780631865c57d146102f557806323b872dd14610345578063313ce567146103655780633644e515146103815761025d565b806306fdde0314610266578063095ea7b3146102915780631333db2e146102c157806318160ddd146102d65761025d565b3661025d5761025b335b61024b34610879565b6000671bc16d674ec800006108d4565b005b61025b33610242565b34801561027257600080fd5b5061027b610eab565b6040516102889190614885565b60405180910390f35b34801561029d57600080fd5b506102b16102ac3660046148c1565b610f3d565b6040519015158152602001610288565b3480156102cd57600080fd5b5061025b610f57565b3480156102e257600080fd5b50600b545b604051908152602001610288565b34801561030157600080fd5b5061030a611071565b604080519889526020890197909752958701949094526060860192909252608085015260a084015260c083015260e082015261010001610288565b34801561035157600080fd5b506102b16103603660046148eb565b6110f3565b34801561037157600080fd5b5060405160128152602001610288565b34801561038d57600080fd5b506102e7611119565b3480156103a257600080fd5b5061025b6103b1366004614943565b611128565b3480156103c257600080fd5b5061025b6103d136600461495e565b611344565b3480156103e257600080fd5b5061025b6103f1366004614977565b611351565b34801561040257600080fd5b50610440610411366004614977565b73ffffffffffffffffffffffffffffffffffffffff166000908152600860205260409020600181015490549091565b60408051928352602083019190915201610288565b34801561046157600080fd5b506104756104703660046149ba565b61140b565b6040516102889190614b8a565b61025b610490366004614943565b6119c5565b3480156104a157600080fd5b506000546001546040805167ffffffffffffffff7f0000000000000000000000000000000000000000000000000000000000000000811682526bffffffffffffffffffffffff7f000000000000000000000000000000000000000000000000000000000000000081166020840152808616938301939093526c0100000000000000000000000085049092166060820152780100000000000000000000000000000000000000000000000090930416608083015263ffffffff811660a083015260ff6401000000009091041660c082015260e001610288565b34801561058557600080fd5b506102e7610594366004614977565b73ffffffffffffffffffffffffffffffffffffffff1660009081526009602052604090205490565b3480156105c857600080fd5b5061025b6119da565b3480156105dd57600080fd5b506105f9738cc9c2e145d3aa946502964b1b69ce3cd066a9c781565b60405173ffffffffffffffffffffffffffffffffffffffff9091168152602001610288565b34801561062a57600080fd5b5061025b6106393660046148c1565b6119ee565b34801561064a57600080fd5b506102e7610659366004614977565b611a03565b34801561066a57600080fd5b50610673611a2e565b6040516102889796959493929190614bcd565b34801561069257600080fd5b506106a66106a1366004614c8f565b611a90565b6040516102889190614caa565b3480156106bf57600080fd5b50600e5473ffffffffffffffffffffffffffffffffffffffff166105f9565b3480156106ea57600080fd5b5061027b611c8a565b3480156106ff57600080fd5b506102b161070e3660046148c1565b611c99565b34801561071f57600080fd5b5061025b61072e3660046148c1565b611ca7565b34801561073f57600080fd5b5061025b61074e366004614cca565b611d63565b34801561075f57600080fd5b5061025b61076e366004614c8f565b611f10565b34801561077f57600080fd5b5061025b61078e36600461495e565b612189565b34801561079f57600080fd5b506102e76107ae366004614d34565b73ffffffffffffffffffffffffffffffffffffffff9182166000908152600a6020908152604080832093909416825291909152205490565b3480156107f257600080fd5b50610475610801366004614d67565b612344565b34801561081257600080fd5b5061025b610821366004614977565b612928565b34801561083257600080fd5b5061025b610841366004614dbb565b612989565b61025b610854366004614e2b565b612cf8565b34801561086557600080fd5b506104756108743660046149ba565b612d88565b60006bffffffffffffffffffffffff8211156108d0576040517f6dfcc65000000000000000000000000000000000000000000000000000000000815260606004820152602481018390526044015b60405180910390fd5b5090565b6002805467ffffffffffffffff808216600101167fffffffffffffffffffffffffffffffffffffffffffffffff0000000000000000909116811790915560006109256109208685612d96565b610879565b90506bffffffffffffffffffffffff8116156109535761095386826bffffffffffffffffffffffff16612e3b565b600061098a866bffffffffffffffffffffffff16866bffffffffffffffffffffffff16866bffffffffffffffffffffffff16612e97565b90506000600760008567ffffffffffffffff1667ffffffffffffffff1681526020019081526020016000209050438160000160186101000a81548167ffffffffffffffff021916908367ffffffffffffffff160217905550838160020160186101000a81548167ffffffffffffffff021916908367ffffffffffffffff160217905550878160030160006101000a81548173ffffffffffffffffffffffffffffffffffffffff021916908373ffffffffffffffffffffffffffffffffffffffff160217905550868160000160006101000a8154816bffffffffffffffffffffffff02191690836bffffffffffffffffffffffff16021790555060008054906101000a90046bffffffffffffffffffffffff1681600001600c6101000a8154816bffffffffffffffffffffffff02191690836bffffffffffffffffffffffff160217905550858160010160006101000a8154816bffffffffffffffffffffffff02191690836bffffffffffffffffffffffff1602179055508481600101600c6101000a8154816bffffffffffffffffffffffff02191690836bffffffffffffffffffffffff160217905550828160020160006101000a8154816bffffffffffffffffffffffff02191690836bffffffffffffffffffffffff1602179055506000600c9054906101000a90046bffffffffffffffffffffffff1681600201600c6101000a8154816bffffffffffffffffffffffff02191690836bffffffffffffffffffffffff160217905550600060189054906101000a900467ffffffffffffffff168160010160186101000a81548167ffffffffffffffff021916908367ffffffffffffffff160217905550600160ff168160030160186101000a81548163ffffffff021916908363ffffffff160217905550818160030160146101000a81548163ffffffff021916908363ffffffff160217905550600860008973ffffffffffffffffffffffffffffffffffffffff1673ffffffffffffffffffffffffffffffffffffffff1681526020019081526020016000206000018490806001815401808255809150506001900390600052602060002090600491828204019190066008029091909190916101000a81548167ffffffffffffffff021916908367ffffffffffffffff1602179055508367ffffffffffffffff168873ffffffffffffffffffffffffffffffffffffffff167feb87ffbe69be596530037de78d6a6ca3317c12ce908c3c46e9cfa526531a177e89898988886001604051806060016040528060008054906101000a90046bffffffffffffffffffffffff166bffffffffffffffffffffffff1681526020016000600c9054906101000a90046bffffffffffffffffffffffff166bffffffffffffffffffffffff168152602001600060189054906101000a900467ffffffffffffffff1667ffffffffffffffff16815250604051610e2e97969594939291906bffffffffffffffffffffffff9788168152958716602080880191909152948716604080880191909152938716606087015263ffffffff92909216608086015260ff1660a08501528051851660c08501529182015190931660e08301529091015167ffffffffffffffff166101008201526101200190565b60405180910390a360008263ffffffff1611610e7857600480546bffffffffffffffffffffffff888116909101909155600580549189169091019055610e7381612f2f565b610ea1565b610e8284876130f5565b600380546bffffffffffffffffffffffff8916019055610ea18461330b565b5050505050505050565b6060600c8054610eba90614e55565b80601f0160208091040260200160405190810160405280929190818152602001828054610ee690614e55565b8015610f335780601f10610f0857610100808354040283529160200191610f33565b820191906000526020600020905b815481529060010190602001808311610f1657829003601f168201915b5050505050905090565b600033610f4b8185856133b8565b60019150505b92915050565b336000908152600860205260408120600101549003610f7257565b3360009081526008602052604081206001018054908290556006805491928392610f9d908490614ed7565b9091555050604080513381526020810183905281517f87e12c2565042763daa6bf5842ed2b6447f17f7e28f9a4905fe3959581396ead929181900390910190a1604051600090339083908381818185875af1925050503d806000811461101f576040519150601f19603f3d011682016040523d82523d6000602084013e611024565b606091505b505090508061106d576006546040517fcf4791810000000000000000000000000000000000000000000000000000000081526004810191909152602481018390526044016108c7565b5050565b600080600080600080600080600260009054906101000a900467ffffffffffffffff16600354600454600554600654476110cd3073ffffffffffffffffffffffffffffffffffffffff1660009081526009602052604090205490565b600b5467ffffffffffffffff9097169f959e50939c50919a509850965094509092509050565b6000336111018582856133c5565b61110c858585613494565b60019150505b9392505050565b600061112361353f565b905090565b60015465010000000000900473ffffffffffffffffffffffffffffffffffffffff16611180576040517fe6c4247b00000000000000000000000000000000000000000000000000000000815260040160405180910390fd5b806bffffffffffffffffffffffff1660045410156111e257600480546040517fcf479181000000000000000000000000000000000000000000000000000000008152918201526bffffffffffffffffffffffff821660248201526044016108c7565b806bffffffffffffffffffffffff16600460008282546112029190614ed7565b9091555050600154604080513381526501000000000090920473ffffffffffffffffffffffffffffffffffffffff1660208301526bffffffffffffffffffffffff83168282015260006060830152517f31a8092046a766d50c60467d927f8769a20162fd47024a64bb365aac647eb0df9181900360800190a160015460405160009165010000000000900473ffffffffffffffffffffffffffffffffffffffff16906bffffffffffffffffffffffff8416908381818185875af1925050503d80600081146112ec576040519150601f19603f3d011682016040523d82523d6000602084013e6112f1565b606091505b505090508061106d57600480546040517fcf479181000000000000000000000000000000000000000000000000000000008152918201526bffffffffffffffffffffffff831660248201526044016108c7565b61134e3382612e3b565b50565b611359613677565b600154604080513381526501000000000090920473ffffffffffffffffffffffffffffffffffffffff9081166020840152831682820152517f876ff6de70ea9815b366b60a114b80fdfbc06357da850cb734024fb7927f8b039181900360600190a16001805473ffffffffffffffffffffffffffffffffffffffff90921665010000000000027fffffffffffffff0000000000000000000000000000000000000000ffffffffff909216919091179055565b60025460609067ffffffffffffffff90811690600090861682116114e65760408051600080825260208201909252906114dc565b6114c9604080516101a081018252600080825260208083018290528284018290526060808401839052608080850184905260a0850184905260c0850184905260e08501849052610100850184905261012085018490526101408501849052610160850184905285519081018652838152918201839052938101829052928301529061018082015290565b81526020019060019003908161143f5790505b5092505050611112565b67ffffffffffffffff82166114fb8688614f19565b67ffffffffffffffff16111561151257508061151f565b61151c8587614f19565b90505b6115298682614f41565b67ffffffffffffffff1667ffffffffffffffff81111561154b5761154b614eea565b60405190808252806020026020018201604052801561160657816020015b6115f3604080516101a081018252600080825260208083018290528284018290526060808401839052608080850184905260a0850184905260c0850184905260e08501849052610100850184905261012085018490526101408501849052610160850184905285519081018652838152918201839052938101829052928301529061018082015290565b8152602001906001900390816115695790505b50925083156117e857855b8167ffffffffffffffff168167ffffffffffffffff1610156117e257600061163a826001614f19565b67ffffffffffffffff80821660009081526007602090815260409182902082516101a08101845281546bffffffffffffffffffffffff80821683526c0100000000000000000000000080830482168487015278010000000000000000000000000000000000000000000000009283900488168488015260018501548083166060808701919091528282048416608080880191909152918590048a1660a0870152600287015480851660c0880152928304841660e087015291849004909816610100850152600385015473ffffffffffffffffffffffffffffffffffffffff811661012086015263ffffffff740100000000000000000000000000000000000000008204811661014087015293900483166101608501528651978801875260048501549283168852640100000000830482169588019590955270010000000000000000000000000000000090910481169486019490945260059091015490921690830152610180810191909152909150856117b48a85614f41565b67ffffffffffffffff16815181106117ce576117ce614f62565b602090810291909101015250600101611611565b506119bc565b855b8167ffffffffffffffff168167ffffffffffffffff1610156119ba5760006118128285614f41565b67ffffffffffffffff80821660009081526007602090815260409182902082516101a08101845281546bffffffffffffffffffffffff80821683526c0100000000000000000000000080830482168487015278010000000000000000000000000000000000000000000000009283900488168488015260018501548083166060808701919091528282048416608080880191909152918590048a1660a0870152600287015480851660c0880152928304841660e087015291849004909816610100850152600385015473ffffffffffffffffffffffffffffffffffffffff811661012086015263ffffffff7401000000000000000000000000000000000000000082048116610140870152939004831661016085015286519788018752600485015492831688526401000000008304821695880195909552700100000000000000000000000000000000909104811694860194909452600590910154909216908301526101808101919091529091508561198c8a85614f41565b67ffffffffffffffff16815181106119a6576119a6614f62565b6020908102919091010152506001016117ea565b505b50509392505050565b61134e336119d234610879565b6000846108d4565b6119e2613677565b6119ec60006136ca565b565b6119f98233836133c5565b61106d8282612e3b565b73ffffffffffffffffffffffffffffffffffffffff8116600090815260116020526040812054610f51565b600060608060008060006060611a42613741565b611a4a61376e565b604080516000808252602082019092527f0f000000000000000000000000000000000000000000000000000000000000009b939a50919850469750309650945092509050565b611b1a604080516101a081018252600080825260208083018290528284018290526060808401839052608080850184905260a0850184905260c0850184905260e08501849052610100850184905261012085018490526101408501849052610160850184905285519081018652838152918201839052938101829052928301529061018082015290565b5067ffffffffffffffff90811660009081526007602090815260409182902082516101a08101845281546bffffffffffffffffffffffff80821683526c0100000000000000000000000080830482168487015278010000000000000000000000000000000000000000000000009283900488168488015260018501548083166060808701919091528282048416608080880191909152918590048a1660a0870152600287015480851660c0880152928304841660e087015291849004909816610100850152600385015473ffffffffffffffffffffffffffffffffffffffff811661012086015263ffffffff74010000000000000000000000000000000000000000820481166101408701529390048316610160850152865197880187526004850154928316885264010000000083048216958801959095527001000000000000000000000000000000009091048116948601949094526005909101549092169083015261018081019190915290565b6060600d8054610eba90614e55565b600033610f4b818585613494565b611caf613677565b73ffffffffffffffffffffffffffffffffffffffff8216611cfc576040517fe6c4247b00000000000000000000000000000000000000000000000000000000815260040160405180910390fd5b6040805133815273ffffffffffffffffffffffffffffffffffffffff841660208201526000818301526060810183905290517f31a8092046a766d50c60467d927f8769a20162fd47024a64bb365aac647eb0df9181900360800190a161106d308383613494565b83421115611da0576040517f62791302000000000000000000000000000000000000000000000000000000008152600481018590526024016108c7565b60007f6e71edae12b1b97f4d1f60370fef10105fa2faae0126114a169c64845d6126c9888888611dfa8c73ffffffffffffffffffffffffffffffffffffffff16600090815260116020526040902080546001810190915590565b60408051602081019690965273ffffffffffffffffffffffffffffffffffffffff94851690860152929091166060840152608083015260a082015260c0810186905260e0016040516020818303038152906040528051906020012090506000611e628261379b565b90506000611e72828787876137e3565b90508973ffffffffffffffffffffffffffffffffffffffff168173ffffffffffffffffffffffffffffffffffffffff1614611ef9576040517f4b800e4600000000000000000000000000000000000000000000000000000000815273ffffffffffffffffffffffffffffffffffffffff80831660048301528b1660248201526044016108c7565b611f048a8a8a6133b8565b50505050505050505050565b67ffffffffffffffff81166000908152600760205260409020600381015473ffffffffffffffffffffffffffffffffffffffff163373ffffffffffffffffffffffffffffffffffffffff1614611fc65760038101546040517f4adf9acd00000000000000000000000000000000000000000000000000000000815267ffffffffffffffff8416600482015233602482015273ffffffffffffffffffffffffffffffffffffffff90911660448201526064016108c7565b600381015463ffffffff780100000000000000000000000000000000000000000000000090910416600114612033576040517f2bc45a4800000000000000000000000000000000000000000000000000000000815267ffffffffffffffff831660048201526024016108c7565b61203c81613811565b61207e576040517fa05db59300000000000000000000000000000000000000000000000000000000815267ffffffffffffffff831660048201526024016108c7565b600381810180547fffffffff00000000ffffffffffffffffffffffffffffffffffffffffffffffff167808000000000000000000000000000000000000000000000000179055815481546bffffffffffffffffffffffff90911691906000906120e8908490614ed7565b909155505080546005820180547fffffffffffffffffffffffffffffffffffffffff000000000000000000000000166bffffffffffffffffffffffff90921691909117905567ffffffffffffffff8216600090815260076020526040902061214f9061385e565b600381015481546121849173ffffffffffffffffffffffffffffffffffffffff16906bffffffffffffffffffffffff1661397f565b505050565b806000036121945750565b600061219f600b5490565b826005546121ad9190614f91565b6121b79190614fd7565b600154909150600090612216906121f990640100000000900460ff167f0000000000000000000000000000000000000000000000000000000000000000615012565b600254612210919067ffffffffffffffff16614f19565b83613ac2565b905060006122248284614ed7565b90507f76cd0cedf979345ca241ce6de696a520a8efc860c6c10d9db2a7953307c237fc336040805173ffffffffffffffffffffffffffffffffffffffff9092168252602082018790528101859052606081018490526080810183905260a00160405180910390a1806005600082825461229d9190614ed7565b909155506122ad90503385612e3b565b604051600090339083908381818185875af1925050503d80600081146122ef576040519150601f19603f3d011682016040523d82523d6000602084013e6122f4565b606091505b505090508061233d576005546040517fcf4791810000000000000000000000000000000000000000000000000000000081526004810191909152602481018390526044016108c7565b5050505050565b73ffffffffffffffffffffffffffffffffffffffff841660009081526008602052604081205460609167ffffffffffffffff8616821161243b576040805160008082526020820190925290612431565b61241e604080516101a081018252600080825260208083018290528284018290526060808401839052608080850184905260a0850184905260c0850184905260e08501849052610100850184905261012085018490526101408501849052610160850184905285519081018652838152918201839052938101829052928301529061018082015290565b8152602001906001900390816123945790505b5092505050612920565b816124468688614f19565b67ffffffffffffffff16111561245d575080612474565b6124678587614f19565b67ffffffffffffffff1690505b61248867ffffffffffffffff871682614ed7565b67ffffffffffffffff8111156124a0576124a0614eea565b60405190808252806020026020018201604052801561255b57816020015b612548604080516101a081018252600080825260208083018290528284018290526060808401839052608080850184905260a0850184905260c0850184905260e08501849052610100850184905261012085018490526101408501849052610160850184905285519081018652838152918201839052938101829052928301529061018082015290565b8152602001906001900390816124be5790505b509250831561273e57855b818167ffffffffffffffff161015612738576000612585826001614f19565b67ffffffffffffffff80821660009081526007602090815260409182902082516101a08101845281546bffffffffffffffffffffffff80821683526c0100000000000000000000000080830482168487015278010000000000000000000000000000000000000000000000009283900488168488015260018501548083166060808701919091528282048416608080880191909152918590048a1660a0870152600287015480851660c0880152928304841660e087015291849004909816610100850152600385015473ffffffffffffffffffffffffffffffffffffffff811661012086015263ffffffff740100000000000000000000000000000000000000008204811661014087015293900483166101608501528651978801875260048501549283168852640100000000830482169588019590955270010000000000000000000000000000000090910481169486019490945260059091015490921690830152610180810191909152909150856126ff8a85614f41565b67ffffffffffffffff168151811061271957612719614f62565b60200260200101819052505080806127309061503e565b915050612566565b5061291d565b855b818167ffffffffffffffff16101561291b57600061276867ffffffffffffffff831685614ed7565b67ffffffffffffffff80821660009081526007602090815260409182902082516101a08101845281546bffffffffffffffffffffffff80821683526c0100000000000000000000000080830482168487015278010000000000000000000000000000000000000000000000009283900488168488015260018501548083166060808701919091528282048416608080880191909152918590048a1660a0870152600287015480851660c0880152928304841660e087015291849004909816610100850152600385015473ffffffffffffffffffffffffffffffffffffffff811661012086015263ffffffff740100000000000000000000000000000000000000008204811661014087015293900483166101608501528651978801875260048501549283168852640100000000830482169588019590955270010000000000000000000000000000000090910481169486019490945260059091015490921690830152610180810191909152909150856128e28a85614f41565b67ffffffffffffffff16815181106128fc576128fc614f62565b60200260200101819052505080806129139061503e565b915050612740565b505b50505b949350505050565b612930613677565b73ffffffffffffffffffffffffffffffffffffffff8116612980576040517f1e4fbdf7000000000000000000000000000000000000000000000000000000008152600060048201526024016108c7565b61134e816136ca565b612991613677565b6702c68af0bb14000067ffffffffffffffff84161115612a0d576040517f08c379a000000000000000000000000000000000000000000000000000000000815260206004820152600160248201527f310000000000000000000000000000000000000000000000000000000000000060448201526064016108c7565b6611c37937e0800067ffffffffffffffff84161015612a88576040517f08c379a000000000000000000000000000000000000000000000000000000000815260206004820152600160248201527f320000000000000000000000000000000000000000000000000000000000000060448201526064016108c7565b60015460ff64010000000090910481169082161015612b03576040517f08c379a000000000000000000000000000000000000000000000000000000000815260206004820152600160248201527f330000000000000000000000000000000000000000000000000000000000000060448201526064016108c7565b600080546bffffffffffffffffffffffff8781167fffffffffffffffff000000000000000000000000000000000000000000000000909216919091176c01000000000000000000000000918716919091021777ffffffffffffffffffffffffffffffffffffffffffffffff16780100000000000000000000000000000000000000000000000067ffffffffffffffff8616021790556001805463ffffffff84167fffffffffffffffffffffffffffffffffffffffffffffffffffffff00000000009091161764010000000060ff8416021790557f1e18870fa6dcb675bbb26e264aeb27803736955e55186eba839862691393d94d336000546001546040805173ffffffffffffffffffffffffffffffffffffffff909416845267ffffffffffffffff7f0000000000000000000000000000000000000000000000000000000000000000811660208601526bffffffffffffffffffffffff7f000000000000000000000000000000000000000000000000000000000000000081169286019290925281841660608601526c0100000000000000000000000084049091166080850152780100000000000000000000000000000000000000000000000090920490911660a083015263ffffffff811660c0830152640100000000900460ff1660e08201526101000160405180910390a15050505050565b600080612d0434610879565b6000549091506bffffffffffffffffffffffff90811690841610612d3a576000546bffffffffffffffffffffffff169150612d3e565b8291505b6000826bffffffffffffffffffffffff16826bffffffffffffffffffffffff161015612d6f57509050806000612d7c565b612d798383615065565b90505b61233d338285886108d4565b606061292033858585612344565b6000683635c9adc5dea000006bffffffffffffffffffffffff831611612dbe57506000610f51565b600554600003612dd357600b545b9050610f51565b690de0b6b3a76400000000600554612deb9190614f91565b600b54612e0f683635c9adc5dea000006bffffffffffffffffffffffff8616614ed7565b612e27906bffffffffffffffffffffffff8716614f91565b612e319190614f91565b6111129190614fd7565b73ffffffffffffffffffffffffffffffffffffffff8216612e8b576040517f96c6fd1e000000000000000000000000000000000000000000000000000000008152600060048201526024016108c7565b61106d82600083613b21565b600080612ea48585613ccc565b9050808511612eb7576000915050611112565b690de0b6b3a76400000000831115612ed3576000915050611112565b82600003612ee75762010000915050611112565b8085036000848702690de0b6b3a76400000000830281612f0957612f09614fa8565b04905062010000811115612f2557620100009350505050611112565b9695505050505050565b6003810180547fffffffff00000000ffffffffffffffffffffffffffffffffffffffffffffffff167804000000000000000000000000000000000000000000000000179055805460018201546002830154670de0b6b3a76400006bffffffffffffffffffffffff80851667ffffffffffffffff7801000000000000000000000000000000000000000000000000909504949094168402919091046c01000000000000000000000000928390048216929094041601919091019081116130ec576002820154600090613070907801000000000000000000000000000000000000000000000000900467ffffffffffffffff16670de0b6b3a76400006130617f00000000000000000000000000000000000000000000000000000000000000006bffffffffffffffffffffffff1686614f91565b61306b9190614fd7565b613ac2565b6004840180547fffffffff000000000000000000000000ffffffffffffffffffffffffffffffff167001000000000000000000000000000000006bffffffffffffffffffffffff841602179055905080156130ea5760038301546130ea9073ffffffffffffffffffffffffffffffffffffffff1682613d69565b505b61106d8261385e565b6000546bffffffffffffffffffffffff80831691161161318b57600480546bffffffffffffffffffffffff838116918201909255600080546040805167ffffffffffffffff88168152919094166020820152928301919091526060820181905260808201527fc90468505eb2131f45874a6543cc8f26cdcf8665051cf5307268576b7d543b419060a00160405180910390a15050565b6000546005546bffffffffffffffffffffffff918216839003918216101561323657600580546bffffffffffffffffffffffff83811691829003909255600480548585018416019055600080546040805167ffffffffffffffff891681529185166020830152938616818501526060810192909252608082015290517fc90468505eb2131f45874a6543cc8f26cdcf8665051cf5307268576b7d543b419181900360a00190a1505050565b6000826bffffffffffffffffffffffff166000036132715760005461326a9085906bffffffffffffffffffffffff16613dc5565b905061329b565b600480546bffffffffffffffffffffffff8581169091019091556132989085908416613dc5565b90505b6000546040805167ffffffffffffffff871681526bffffffffffffffffffffffff928316602082015285831681830152918416606083015260808201839052517fc90468505eb2131f45874a6543cc8f26cdcf8665051cf5307268576b7d543b419181900360a00190a150505050565b33321461331757600080fd5b601254604080517f3b3dca76000000000000000000000000000000000000000000000000000000008152905160009273ffffffffffffffffffffffffffffffffffffffff1691633b3dca76916004808301926020929190829003018187875af1158015613388573d6000803e3d6000fd5b505050506040513d601f19601f820116820180604052508101906133ac919061508a565b905061106d8282613e18565b6121848383836001613f3c565b73ffffffffffffffffffffffffffffffffffffffff8381166000908152600a60209081526040808320938616835292905220547fffffffffffffffffffffffffffffffffffffffffffffffffffffffffffffffff811461348e578181101561347f576040517ffb8f41b200000000000000000000000000000000000000000000000000000000815273ffffffffffffffffffffffffffffffffffffffff8416600482015260248101829052604481018390526064016108c7565b61348e84848484036000613f3c565b50505050565b73ffffffffffffffffffffffffffffffffffffffff83166134e4576040517f96c6fd1e000000000000000000000000000000000000000000000000000000008152600060048201526024016108c7565b73ffffffffffffffffffffffffffffffffffffffff8216613534576040517fec442f05000000000000000000000000000000000000000000000000000000008152600060048201526024016108c7565b612184838383613b21565b60003073ffffffffffffffffffffffffffffffffffffffff7f0000000000000000000000000000000000000000000000000000000000000000161480156135a557507f000000000000000000000000000000000000000000000000000000000000000046145b156135cf57507f000000000000000000000000000000000000000000000000000000000000000090565b611123604080517f8b73c3c69bb8fe3d512ecc4cf759cc79239f7b179b0ffacaa9a75d522b39400f60208201527f0000000000000000000000000000000000000000000000000000000000000000918101919091527f000000000000000000000000000000000000000000000000000000000000000060608201524660808201523060a082015260009060c00160405160208183030381529060405280519060200120905090565b600e5473ffffffffffffffffffffffffffffffffffffffff1633146119ec576040517f118cdaa70000000000000000000000000000000000000000000000000000000081523360048201526024016108c7565b600e805473ffffffffffffffffffffffffffffffffffffffff8381167fffffffffffffffffffffffff0000000000000000000000000000000000000000831681179093556040519116919082907f8be0079c531659141344cd1fd0a4f28419497f9722a3daafe3b4186f6b6457e090600090a35050565b60606111237f0000000000000000000000000000000000000000000000000000000000000000600f614084565b60606111237f00000000000000000000000000000000000000000000000000000000000000006010614084565b6000610f516137a861353f565b836040517f19010000000000000000000000000000000000000000000000000000000000008152600281019290925260228201526042902090565b6000806000806137f588888888614128565b9250925092506138058282614222565b50909695505050505050565b600060c8825461384791907801000000000000000000000000000000000000000000000000900467ffffffffffffffff166150a3565b43101561385657506000919050565b506001919050565b600381015460028201548254600184015460408051606081018252600554815273ffffffffffffffffffffffffffffffffffffffff861660008181526009602090815293902054780100000000000000000000000000000000000000000000000080890463ffffffff9081169991890467ffffffffffffffff169893977f39cbf4a209b014b16bd16f4ed617501f2df769e4a480d974457b24e172e756ed976bffffffffffffffffffffffff91821697828216976c010000000000000000000000009092048316969290921694740100000000000000000000000000000000000000009094049092169260048d019291820190815260200161395f600b5490565b905260405161397497969594939291906150b6565b60405180910390a450565b600154604051600091829173ffffffffffffffffffffffffffffffffffffffff86169163ffffffff1690859084818181858888f193505050503d80600081146139e4576040519150601f19603f3d011682016040523d82523d6000602084013e6139e9565b606091505b5050905080610f4b5773ffffffffffffffffffffffffffffffffffffffff8416600090815260086020526040902060010154613a269084906150a3565b73ffffffffffffffffffffffffffffffffffffffff851660009081526008602052604081206001019190915560068054859290613a649084906150a3565b90915550506040805173ffffffffffffffffffffffffffffffffffffffff86168152602081018590527f9cd50c4ae1f9e1e6fe910dd37ba6a6b9fcc5f9d9caba92513fe2f4aed5aff5a6910160405180910390a16000915050610f51565b6000807f000000000000000000000000000000000000000000000000000000000000000067ffffffffffffffff166001850367ffffffffffffffff1681613b0b57613b0b614fa8565b0467ffffffffffffffff169290921c9392505050565b73ffffffffffffffffffffffffffffffffffffffff8316613b595780600b6000828254613b4e91906150a3565b90915550613c0b9050565b73ffffffffffffffffffffffffffffffffffffffff831660009081526009602052604090205481811015613bdf576040517fe450d38c00000000000000000000000000000000000000000000000000000000815273ffffffffffffffffffffffffffffffffffffffff8516600482015260248101829052604481018390526064016108c7565b73ffffffffffffffffffffffffffffffffffffffff841660009081526009602052604090209082900390555b73ffffffffffffffffffffffffffffffffffffffff8216613c3457600b80548290039055613c60565b73ffffffffffffffffffffffffffffffffffffffff821660009081526009602052604090208054820190555b8173ffffffffffffffffffffffffffffffffffffffff168373ffffffffffffffffffffffffffffffffffffffff167fddf252ad1be2c89b69c2b068fc378daa952ba7f163c4a11628f55a4df523b3ef83604051613cbf91815260200190565b60405180910390a3505050565b6000805481906bffffffffffffffffffffffff16831015613d0157506000546bffffffffffffffffffffffff16829003613d05565b5060005b600054670de0b6b3a764000067ffffffffffffffff780100000000000000000000000000000000000000000000000083041695909502949094046c010000000000000000000000009094046bffffffffffffffffffffffff16019290920192915050565b73ffffffffffffffffffffffffffffffffffffffff8216613db9576040517fec442f05000000000000000000000000000000000000000000000000000000008152600060048201526024016108c7565b61106d60008383613b21565b6000613e0c83670de0b6b3a76400006130616bffffffffffffffffffffffff7f00000000000000000000000000000000000000000000000000000000000000001686614f91565b9050610f513082613d69565b67ffffffffffffffff821660009081526007602052604090206003015463ffffffff780100000000000000000000000000000000000000000000000090910416600114613e63575050565b67ffffffffffffffff8216600090815260076020526040902080546003546bffffffffffffffffffffffff90911690811115613ea157613ea1615154565b600380546bffffffffffffffffffffffff83169081900382556005805490910190556004830180547fffffffffffffffffffffffffffffffffffffffffffffffffffffffff000000001661ffff861660010163ffffffff8181169283179093559285015474010000000000000000000000000000000000000000900490911610613f3357613f2e83614326565b61233d565b61233d836145a0565b73ffffffffffffffffffffffffffffffffffffffff8416613f8c576040517fe602df05000000000000000000000000000000000000000000000000000000008152600060048201526024016108c7565b73ffffffffffffffffffffffffffffffffffffffff8316613fdc576040517f94280d62000000000000000000000000000000000000000000000000000000008152600060048201526024016108c7565b73ffffffffffffffffffffffffffffffffffffffff8085166000908152600a60209081526040808320938716835292905220829055801561348e578273ffffffffffffffffffffffffffffffffffffffff168473ffffffffffffffffffffffffffffffffffffffff167f8c5be1e5ebec7d5bd14f71427d1e84f3dd0314c0f7b2291e5b200ac8c7c3b9258460405161407691815260200190565b60405180910390a350505050565b606060ff831461409757612dcc83614665565b8180546140a390614e55565b80601f01602080910402602001604051908101604052809291908181526020018280546140cf90614e55565b801561411c5780601f106140f15761010080835404028352916020019161411c565b820191906000526020600020905b8154815290600101906020018083116140ff57829003601f168201915b50505050509050610f51565b600080807f7fffffffffffffffffffffffffffffff5d576e7357a4501ddfe92f46681b20a08411156141635750600091506003905082614218565b604080516000808252602082018084528a905260ff891692820192909252606081018790526080810186905260019060a0016020604051602081039080840390855afa1580156141b7573d6000803e3d6000fd5b50506040517fffffffffffffffffffffffffffffffffffffffffffffffffffffffffffffffe0015191505073ffffffffffffffffffffffffffffffffffffffff811661420e57506000925060019150829050614218565b9250600091508190505b9450945094915050565b600082600381111561423657614236615183565b0361423f575050565b600182600381111561425357614253615183565b0361428a576040517ff645eedf00000000000000000000000000000000000000000000000000000000815260040160405180910390fd5b600282600381111561429e5761429e615183565b036142d8576040517ffce698f7000000000000000000000000000000000000000000000000000000008152600481018290526024016108c7565b60038260038111156142ec576142ec615183565b0361106d576040517fd78bce0c000000000000000000000000000000000000000000000000000000008152600481018290526024016108c7565b6003810180547fffffffff00000000ffffffffffffffffffffffffffffffffffffffffffffffff16780200000000000000000000000000000000000000000000000017905560018101548154600091670de0b6b3a7640000916c010000000000000000000000009091046bffffffffffffffffffffffff90811691160204905060006143b1836146a4565b90506143bd3082613d69565b60055482101561443f576005805483900390556004830180547fffffffffffffffffffffffffffffffff000000000000000000000000ffffffff166401000000006bffffffffffffffffffffffff85160217905561441a8361385e565b600383015461348e9073ffffffffffffffffffffffffffffffffffffffff168361397f565b8254600580546bffffffffffffffffffffffff928316908190039091556002850154600186015491926000926144ae927801000000000000000000000000000000000000000000000000900467ffffffffffffffff169185916c01000000000000000000000000900416614750565b60038601549091506144d69073ffffffffffffffffffffffffffffffffffffffff1682613d69565b6004850180547fffffffff000000000000000000000000ffffffffffffffffffffffffffffffff167001000000000000000000000000000000006bffffffffffffffffffffffff84811691909102919091179091556005860180547fffffffffffffffffffffffffffffffffffffffff000000000000000000000000169184169190911790556145658561385e565b60038501546145989073ffffffffffffffffffffffffffffffffffffffff166bffffffffffffffffffffffff841661397f565b505050505050565b6003810180547fffffffff00000000ffffffffffffffffffffffffffffffffffffffffffffffff16780400000000000000000000000000000000000000000000000017905560006145f0826146a4565b6004830180547fffffffff000000000000000000000000ffffffffffffffffffffffffffffffff167001000000000000000000000000000000006bffffffffffffffffffffffff84160217905560038301549091506130ec9073ffffffffffffffffffffffffffffffffffffffff1682613d69565b60606000614672836147e0565b604080516020808252818301909252919250600091906020820181803683375050509182525060208101929092525090565b805460018201546002830154600092670de0b6b3a76400006bffffffffffffffffffffffff80831667ffffffffffffffff7801000000000000000000000000000000000000000000000000968790048116919091028390046c010000000000000000000000008087048416950483169490940193909301946111129404909216917f00000000000000000000000000000000000000000000000000000000000000001684025b04613ac2565b6000670de0b6b3a7640000821161476957506000611112565b7ffffffffffffffffffffffffffffffffffffffffffffffffff21f494c589c000082016000670de0b6b3a7640000858302049050612f2586670de0b6b3a76400006bffffffffffffffffffffffff7f000000000000000000000000000000000000000000000000000000000000000016840261474a565b600060ff8216601f811115610f51576040517fb3512b0c00000000000000000000000000000000000000000000000000000000815260040160405180910390fd5b6000815180845260005b818110156148475760208185018101518683018201520161482b565b5060006020828601015260207fffffffffffffffffffffffffffffffffffffffffffffffffffffffffffffffe0601f83011685010191505092915050565b6020815260006111126020830184614821565b803573ffffffffffffffffffffffffffffffffffffffff811681146148bc57600080fd5b919050565b600080604083850312156148d457600080fd5b6148dd83614898565b946020939093013593505050565b60008060006060848603121561490057600080fd5b61490984614898565b925061491760208501614898565b9150604084013590509250925092565b80356bffffffffffffffffffffffff811681146148bc57600080fd5b60006020828403121561495557600080fd5b61111282614927565b60006020828403121561497057600080fd5b5035919050565b60006020828403121561498957600080fd5b61111282614898565b803567ffffffffffffffff811681146148bc57600080fd5b803580151581146148bc57600080fd5b6000806000606084860312156149cf57600080fd5b6149d884614992565b92506149e660208501614992565b91506149f4604085016149aa565b90509250925092565b80516bffffffffffffffffffffffff1682526020810151614a2e60208401826bffffffffffffffffffffffff169052565b506040810151614a4a604084018267ffffffffffffffff169052565b506060810151614a6a60608401826bffffffffffffffffffffffff169052565b506080810151614a8a60808401826bffffffffffffffffffffffff169052565b5060a0810151614aa660a084018267ffffffffffffffff169052565b5060c0810151614ac660c08401826bffffffffffffffffffffffff169052565b5060e0810151614ae660e08401826bffffffffffffffffffffffff169052565b506101008181015167ffffffffffffffff16908301526101208082015173ffffffffffffffffffffffffffffffffffffffff16908301526101408082015163ffffffff90811691840191909152610160808301518216908401526101808083015180519092168185015260208201516bffffffffffffffffffffffff9081166101a0860152604083015181166101c08601526060830151166101e08501529061348e565b6020808252825182820181905260009190848201906040850190845b8181101561380557614bb98385516149fd565b928401926102009290920191600101614ba6565b7fff00000000000000000000000000000000000000000000000000000000000000881681526000602060e06020840152614c0a60e084018a614821565b8381036040850152614c1c818a614821565b6060850189905273ffffffffffffffffffffffffffffffffffffffff8816608086015260a0850187905284810360c08601528551808252602080880193509091019060005b81811015614c7d57835183529284019291840191600101614c61565b50909c9b505050505050505050505050565b600060208284031215614ca157600080fd5b61111282614992565b6102008101610f5182846149fd565b803560ff811681146148bc57600080fd5b600080600080600080600060e0888a031215614ce557600080fd5b614cee88614898565b9650614cfc60208901614898565b95506040880135945060608801359350614d1860808901614cb9565b925060a0880135915060c0880135905092959891949750929550565b60008060408385031215614d4757600080fd5b614d5083614898565b9150614d5e60208401614898565b90509250929050565b60008060008060808587031215614d7d57600080fd5b614d8685614898565b9350614d9460208601614992565b9250614da260408601614992565b9150614db0606086016149aa565b905092959194509250565b600080600080600060a08688031215614dd357600080fd5b614ddc86614927565b9450614dea60208701614927565b9350614df860408701614992565b9250606086013563ffffffff81168114614e1157600080fd5b9150614e1f60808701614cb9565b90509295509295909350565b60008060408385031215614e3e57600080fd5b614e4783614927565b9150614d5e60208401614927565b600181811c90821680614e6957607f821691505b602082108103614ea2577f4e487b7100000000000000000000000000000000000000000000000000000000600052602260045260246000fd5b50919050565b7f4e487b7100000000000000000000000000000000000000000000000000000000600052601160045260246000fd5b81810381811115610f5157610f51614ea8565b7f4e487b7100000000000000000000000000000000000000000000000000000000600052604160045260246000fd5b67ffffffffffffffff818116838216019080821115614f3a57614f3a614ea8565b5092915050565b67ffffffffffffffff828116828216039080821115614f3a57614f3a614ea8565b7f4e487b7100000000000000000000000000000000000000000000000000000000600052603260045260246000fd5b8082028115828204841417610f5157610f51614ea8565b7f4e487b7100000000000000000000000000000000000000000000000000000000600052601260045260246000fd5b60008261500d577f4e487b7100000000000000000000000000000000000000000000000000000000600052601260045260246000fd5b500490565b67ffffffffffffffff81811683821602808216919082811461503657615036614ea8565b505092915050565b600067ffffffffffffffff80831681810361505b5761505b614ea8565b6001019392505050565b6bffffffffffffffffffffffff828116828216039080821115614f3a57614f3a614ea8565b60006020828403121561509c57600080fd5b5051919050565b80820180821115610f5157610f51614ea8565b6000610180820190506bffffffffffffffffffffffff808a16835280891660208401528088166040840152808716606084015263ffffffff8087166080850152855481811660a0860152828160201c1660c0860152828160801c1660e0860152505080600186015416610100840152506151486101208301848051825260208082015190830152604090810151910152565b98975050505050505050565b7f4e487b7100000000000000000000000000000000000000000000000000000000600052600160045260246000fd5b7f4e487b7100000000000000000000000000000000000000000000000000000000600052602160045260246000fdfea2646970667358221220aef385f3f1c986c608672ee02620ecbb027da0c80f229202ef69e28f9b05973864736f6c63430008190033",
			"opcodes": "PUSH2 0x1A0 PUSH1 0x40 MSTORE CALLVALUE DUP1 ISZERO PUSH2 0x11 JUMPI PUSH1 0x0 DUP1 REVERT JUMPDEST POP PUSH1 0x40 MLOAD PUSH2 0x57AA CODESIZE SUB DUP1 PUSH2 0x57AA DUP4 CODECOPY DUP2 ADD PUSH1 0x40 DUP2 SWAP1 MSTORE PUSH2 0x30 SWAP2 PUSH2 0x317 JUMP JUMPDEST DUP1 PUSH3 0x33450 PUSH10 0x69E10DE76676D0800000 DUP3 PUSH1 0x40 MLOAD DUP1 PUSH1 0x40 ADD PUSH1 0x40 MSTORE DUP1 PUSH1 0x4 DUP2 MSTORE PUSH1 0x20 ADD PUSH4 0xAA88AA9 PUSH1 0xE3 SHL DUP2 MSTORE POP DUP1 PUSH1 0x40 MLOAD DUP1 PUSH1 0x40 ADD PUSH1 0x40 MSTORE DUP1 PUSH1 0x1 DUP2 MSTORE PUSH1 0x20 ADD PUSH1 0x31 PUSH1 0xF8 SHL DUP2 MSTORE POP DUP4 PUSH1 0x40 MLOAD DUP1 PUSH1 0x40 ADD PUSH1 0x40 MSTORE DUP1 PUSH1 0x13 DUP2 MSTORE PUSH1 0x20 ADD PUSH32 0x596F7520446963652C20596F7520486F75736500000000000000000000000000 DUP2 MSTORE POP PUSH1 0x40 MLOAD DUP1 PUSH1 0x40 ADD PUSH1 0x40 MSTORE DUP1 PUSH1 0x4 DUP2 MSTORE PUSH1 0x20 ADD PUSH4 0xAA88AA9 PUSH1 0xE3 SHL DUP2 MSTORE POP DUP2 PUSH1 0xC SWAP1 DUP2 PUSH2 0xDC SWAP2 SWAP1 PUSH2 0x3E8 JUMP JUMPDEST POP PUSH1 0xD PUSH2 0xE9 DUP3 DUP3 PUSH2 0x3E8 JUMP JUMPDEST POP POP POP PUSH1 0x1 PUSH1 0x1 PUSH1 0xA0 SHL SUB DUP2 AND PUSH2 0x11B JUMPI PUSH1 0x40 MLOAD PUSH4 0x1E4FBDF7 PUSH1 0xE0 SHL DUP2 MSTORE PUSH1 0x0 PUSH1 0x4 DUP3 ADD MSTORE PUSH1 0x24 ADD JUMPDEST PUSH1 0x40 MLOAD DUP1 SWAP2 SUB SWAP1 REVERT JUMPDEST PUSH2 0x124 DUP2 PUSH2 0x254 JUMP JUMPDEST POP PUSH2 0x130 DUP3 PUSH1 0xF PUSH2 0x2A6 JUMP JUMPDEST PUSH2 0x120 MSTORE PUSH2 0x13F DUP2 PUSH1 0x10 PUSH2 0x2A6 JUMP JUMPDEST PUSH2 0x140 MSTORE DUP2 MLOAD PUSH1 0x20 DUP1 DUP5 ADD SWAP2 SWAP1 SWAP2 KECCAK256 PUSH1 0xE0 MSTORE DUP2 MLOAD SWAP1 DUP3 ADD KECCAK256 PUSH2 0x100 MSTORE CHAINID PUSH1 0xA0 MSTORE PUSH2 0x1CC PUSH1 0xE0 MLOAD PUSH2 0x100 MLOAD PUSH1 0x40 DUP1 MLOAD PUSH32 0x8B73C3C69BB8FE3D512ECC4CF759CC79239F7B179B0FFACAA9A75D522B39400F PUSH1 0x20 DUP3 ADD MSTORE SWAP1 DUP2 ADD SWAP3 SWAP1 SWAP3 MSTORE PUSH1 0x60 DUP3 ADD MSTORE CHAINID PUSH1 0x80 DUP3 ADD MSTORE ADDRESS PUSH1 0xA0 DUP3 ADD MSTORE PUSH1 0x0 SWAP1 PUSH1 0xC0 ADD PUSH1 0x40 MLOAD PUSH1 0x20 DUP2 DUP4 SUB SUB DUP2 MSTORE SWAP1 PUSH1 0x40 MSTORE DUP1 MLOAD SWAP1 PUSH1 0x20 ADD KECCAK256 SWAP1 POP SWAP1 JUMP JUMPDEST PUSH1 0x80 MSTORE POP POP ADDRESS PUSH1 0xC0 MSTORE POP POP PUSH1 0x1 PUSH1 0x1 PUSH1 0x40 SHL SUB SWAP1 SWAP2 AND PUSH2 0x160 MSTORE PUSH1 0x1 PUSH1 0x1 PUSH1 0x60 SHL SUB AND PUSH2 0x180 MSTORE POP POP PUSH1 0x12 DUP1 SLOAD PUSH1 0x1 PUSH1 0x1 PUSH1 0xA0 SHL SUB NOT AND PUSH20 0x8CC9C2E145D3AA946502964B1B69CE3CD066A9C7 OR SWAP1 SSTORE PUSH31 0x6A94D74F430000000000000000000000000000000000008AC7230489E80000 PUSH1 0x0 SSTORE PUSH1 0x1 DUP1 SLOAD PUSH4 0xFFFFFFFF NOT AND PUSH2 0x8FC OR SWAP1 SSTORE PUSH2 0x51A JUMP JUMPDEST PUSH1 0xE DUP1 SLOAD PUSH1 0x1 PUSH1 0x1 PUSH1 0xA0 SHL SUB DUP4 DUP2 AND PUSH1 0x1 PUSH1 0x1 PUSH1 0xA0 SHL SUB NOT DUP4 AND DUP2 OR SWAP1 SWAP4 SSTORE PUSH1 0x40 MLOAD SWAP2 AND SWAP2 SWAP1 DUP3 SWAP1 PUSH32 0x8BE0079C531659141344CD1FD0A4F28419497F9722A3DAAFE3B4186F6B6457E0 SWAP1 PUSH1 0x0 SWAP1 LOG3 POP POP JUMP JUMPDEST PUSH1 0x0 PUSH1 0x20 DUP4 MLOAD LT ISZERO PUSH2 0x2C2 JUMPI PUSH2 0x2BB DUP4 PUSH2 0x2D9 JUMP JUMPDEST SWAP1 POP PUSH2 0x2D3 JUMP JUMPDEST DUP2 PUSH2 0x2CD DUP5 DUP3 PUSH2 0x3E8 JUMP JUMPDEST POP PUSH1 0xFF SWAP1 POP JUMPDEST SWAP3 SWAP2 POP POP JUMP JUMPDEST PUSH1 0x0 DUP1 DUP3 SWAP1 POP PUSH1 0x1F DUP2 MLOAD GT ISZERO PUSH2 0x304 JUMPI DUP3 PUSH1 0x40 MLOAD PUSH4 0x305A27A9 PUSH1 0xE0 SHL DUP2 MSTORE PUSH1 0x4 ADD PUSH2 0x112 SWAP2 SWAP1 PUSH2 0x4A7 JUMP JUMPDEST DUP1 MLOAD PUSH2 0x30F DUP3 PUSH2 0x4F6 JUMP JUMPDEST OR SWAP4 SWAP3 POP POP POP JUMP JUMPDEST PUSH1 0x0 PUSH1 0x20 DUP3 DUP5 SUB SLT ISZERO PUSH2 0x329 JUMPI PUSH1 0x0 DUP1 REVERT JUMPDEST DUP2 MLOAD PUSH1 0x1 PUSH1 0x1 PUSH1 0xA0 SHL SUB DUP2 AND DUP2 EQ PUSH2 0x340 JUMPI PUSH1 0x0 DUP1 REVERT JUMPDEST SWAP4 SWAP3 POP POP POP JUMP JUMPDEST PUSH4 0x4E487B71 PUSH1 0xE0 SHL PUSH1 0x0 MSTORE PUSH1 0x41 PUSH1 0x4 MSTORE PUSH1 0x24 PUSH1 0x0 REVERT JUMPDEST PUSH1 0x1 DUP2 DUP2 SHR SWAP1 DUP3 AND DUP1 PUSH2 0x371 JUMPI PUSH1 0x7F DUP3 AND SWAP2 POP JUMPDEST PUSH1 0x20 DUP3 LT DUP2 SUB PUSH2 0x391 JUMPI PUSH4 0x4E487B71 PUSH1 0xE0 SHL PUSH1 0x0 MSTORE PUSH1 0x22 PUSH1 0x4 MSTORE PUSH1 0x24 PUSH1 0x0 REVERT JUMPDEST POP SWAP2 SWAP1 POP JUMP JUMPDEST PUSH1 0x1F DUP3 GT ISZERO PUSH2 0x3E3 JUMPI PUSH1 0x0 DUP2 PUSH1 0x0 MSTORE PUSH1 0x20 PUSH1 0x0 KECCAK256 PUSH1 0x1F DUP6 ADD PUSH1 0x5 SHR DUP2 ADD PUSH1 0x20 DUP7 LT ISZERO PUSH2 0x3C0 JUMPI POP DUP1 JUMPDEST PUSH1 0x1F DUP6 ADD PUSH1 0x5 SHR DUP3 ADD SWAP2 POP JUMPDEST DUP2 DUP2 LT ISZERO PUSH2 0x3DF JUMPI DUP3 DUP2 SSTORE PUSH1 0x1 ADD PUSH2 0x3CC JUMP JUMPDEST POP POP POP JUMPDEST POP POP POP JUMP JUMPDEST DUP2 MLOAD PUSH1 0x1 PUSH1 0x1 PUSH1 0x40 SHL SUB DUP2 GT ISZERO PUSH2 0x401 JUMPI PUSH2 0x401 PUSH2 0x347 JUMP JUMPDEST PUSH2 0x415 DUP2 PUSH2 0x40F DUP5 SLOAD PUSH2 0x35D JUMP JUMPDEST DUP5 PUSH2 0x397 JUMP JUMPDEST PUSH1 0x20 DUP1 PUSH1 0x1F DUP4 GT PUSH1 0x1 DUP2 EQ PUSH2 0x44A JUMPI PUSH1 0x0 DUP5 ISZERO PUSH2 0x432 JUMPI POP DUP6 DUP4 ADD MLOAD JUMPDEST PUSH1 0x0 NOT PUSH1 0x3 DUP7 SWAP1 SHL SHR NOT AND PUSH1 0x1 DUP6 SWAP1 SHL OR DUP6 SSTORE PUSH2 0x3DF JUMP JUMPDEST PUSH1 0x0 DUP6 DUP2 MSTORE PUSH1 0x20 DUP2 KECCAK256 PUSH1 0x1F NOT DUP7 AND SWAP2 JUMPDEST DUP3 DUP2 LT ISZERO PUSH2 0x479 JUMPI DUP9 DUP7 ADD MLOAD DUP3 SSTORE SWAP5 DUP5 ADD SWAP5 PUSH1 0x1 SWAP1 SWAP2 ADD SWAP1 DUP5 ADD PUSH2 0x45A JUMP JUMPDEST POP DUP6 DUP3 LT ISZERO PUSH2 0x497 JUMPI DUP8 DUP6 ADD MLOAD PUSH1 0x0 NOT PUSH1 0x3 DUP9 SWAP1 SHL PUSH1 0xF8 AND SHR NOT AND DUP2 SSTORE JUMPDEST POP POP POP POP POP PUSH1 0x1 SWAP1 DUP2 SHL ADD SWAP1 SSTORE POP JUMP JUMPDEST PUSH1 0x0 PUSH1 0x20 DUP1 DUP4 MSTORE DUP4 MLOAD DUP1 PUSH1 0x20 DUP6 ADD MSTORE PUSH1 0x0 JUMPDEST DUP2 DUP2 LT ISZERO PUSH2 0x4D5 JUMPI DUP6 DUP2 ADD DUP4 ADD MLOAD DUP6 DUP3 ADD PUSH1 0x40 ADD MSTORE DUP3 ADD PUSH2 0x4B9 JUMP JUMPDEST POP PUSH1 0x0 PUSH1 0x40 DUP3 DUP7 ADD ADD MSTORE PUSH1 0x40 PUSH1 0x1F NOT PUSH1 0x1F DUP4 ADD AND DUP6 ADD ADD SWAP3 POP POP POP SWAP3 SWAP2 POP POP JUMP JUMPDEST DUP1 MLOAD PUSH1 0x20 DUP1 DUP4 ADD MLOAD SWAP2 SWAP1 DUP2 LT ISZERO PUSH2 0x391 JUMPI PUSH1 0x0 NOT PUSH1 0x20 SWAP2 SWAP1 SWAP2 SUB PUSH1 0x3 SHL SHL AND SWAP2 SWAP1 POP JUMP JUMPDEST PUSH1 0x80 MLOAD PUSH1 0xA0 MLOAD PUSH1 0xC0 MLOAD PUSH1 0xE0 MLOAD PUSH2 0x100 MLOAD PUSH2 0x120 MLOAD PUSH2 0x140 MLOAD PUSH2 0x160 MLOAD PUSH2 0x180 MLOAD PUSH2 0x51E8 PUSH2 0x5C2 PUSH1 0x0 CODECOPY PUSH1 0x0 DUP2 DUP2 PUSH2 0x4E9 ADD MSTORE DUP2 DUP2 PUSH2 0x2C5C ADD MSTORE DUP2 DUP2 PUSH2 0x302E ADD MSTORE DUP2 DUP2 PUSH2 0x3DE6 ADD MSTORE DUP2 DUP2 PUSH2 0x4727 ADD MSTORE PUSH2 0x47B9 ADD MSTORE PUSH1 0x0 DUP2 DUP2 PUSH2 0x4B7 ADD MSTORE DUP2 DUP2 PUSH2 0x21D5 ADD MSTORE DUP2 DUP2 PUSH2 0x2C27 ADD MSTORE PUSH2 0x3AC7 ADD MSTORE PUSH1 0x0 PUSH2 0x3775 ADD MSTORE PUSH1 0x0 PUSH2 0x3748 ADD MSTORE PUSH1 0x0 PUSH2 0x3626 ADD MSTORE PUSH1 0x0 PUSH2 0x35FE ADD MSTORE PUSH1 0x0 PUSH2 0x3559 ADD MSTORE PUSH1 0x0 PUSH2 0x3583 ADD MSTORE PUSH1 0x0 PUSH2 0x35AD ADD MSTORE PUSH2 0x51E8 PUSH1 0x0 RETURN INVALID PUSH1 0x80 PUSH1 0x40 MSTORE PUSH1 0x4 CALLDATASIZE LT PUSH2 0x238 JUMPI PUSH1 0x0 CALLDATALOAD PUSH1 0xE0 SHR DUP1 PUSH4 0x75F8300E GT PUSH2 0x138 JUMPI DUP1 PUSH4 0xD505ACCF GT PUSH2 0xB0 JUMPI DUP1 PUSH4 0xED042C9B GT PUSH2 0x7F JUMPI DUP1 PUSH4 0xF516EC9F GT PUSH2 0x64 JUMPI DUP1 PUSH4 0xF516EC9F EQ PUSH2 0x826 JUMPI DUP1 PUSH4 0xFE585B7F EQ PUSH2 0x846 JUMPI DUP1 PUSH4 0xFF2D9665 EQ PUSH2 0x859 JUMPI PUSH2 0x25D JUMP JUMPDEST DUP1 PUSH4 0xED042C9B EQ PUSH2 0x7E6 JUMPI DUP1 PUSH4 0xF2FDE38B EQ PUSH2 0x806 JUMPI PUSH2 0x25D JUMP JUMPDEST DUP1 PUSH4 0xD505ACCF EQ PUSH2 0x733 JUMPI DUP1 PUSH4 0xD7194CCB EQ PUSH2 0x753 JUMPI DUP1 PUSH4 0xDB006A75 EQ PUSH2 0x773 JUMPI DUP1 PUSH4 0xDD62ED3E EQ PUSH2 0x793 JUMPI PUSH2 0x25D JUMP JUMPDEST DUP1 PUSH4 0x89B94CCA GT PUSH2 0x107 JUMPI DUP1 PUSH4 0x95D89B41 GT PUSH2 0xEC JUMPI DUP1 PUSH4 0x95D89B41 EQ PUSH2 0x6DE JUMPI DUP1 PUSH4 0xA9059CBB EQ PUSH2 0x6F3 JUMPI DUP1 PUSH4 0xB63BDD54 EQ PUSH2 0x713 JUMPI PUSH2 0x25D JUMP JUMPDEST DUP1 PUSH4 0x89B94CCA EQ PUSH2 0x686 JUMPI DUP1 PUSH4 0x8DA5CB5B EQ PUSH2 0x6B3 JUMPI PUSH2 0x25D JUMP JUMPDEST DUP1 PUSH4 0x75F8300E EQ PUSH2 0x5D1 JUMPI DUP1 PUSH4 0x79CC6790 EQ PUSH2 0x61E JUMPI DUP1 PUSH4 0x7ECEBE00 EQ PUSH2 0x63E JUMPI DUP1 PUSH4 0x84B0196E EQ PUSH2 0x65E JUMPI PUSH2 0x25D JUMP JUMPDEST DUP1 PUSH4 0x419BBB76 GT PUSH2 0x1CB JUMPI DUP1 PUSH4 0x6142B027 GT PUSH2 0x19A JUMPI DUP1 PUSH4 0x6BD50CEF GT PUSH2 0x17F JUMPI DUP1 PUSH4 0x6BD50CEF EQ PUSH2 0x495 JUMPI DUP1 PUSH4 0x70A08231 EQ PUSH2 0x579 JUMPI DUP1 PUSH4 0x715018A6 EQ PUSH2 0x5BC JUMPI PUSH2 0x25D JUMP JUMPDEST DUP1 PUSH4 0x6142B027 EQ PUSH2 0x455 JUMPI DUP1 PUSH4 0x621AD856 EQ PUSH2 0x482 JUMPI PUSH2 0x25D JUMP JUMPDEST DUP1 PUSH4 0x419BBB76 EQ PUSH2 0x396 JUMPI DUP1 PUSH4 0x42966C68 EQ PUSH2 0x3B6 JUMPI DUP1 PUSH4 0x4BD8EC5E EQ PUSH2 0x3D6 JUMPI DUP1 PUSH4 0x59328401 EQ PUSH2 0x3F6 JUMPI PUSH2 0x25D JUMP JUMPDEST DUP1 PUSH4 0x1865C57D GT PUSH2 0x207 JUMPI DUP1 PUSH4 0x1865C57D EQ PUSH2 0x2F5 JUMPI DUP1 PUSH4 0x23B872DD EQ PUSH2 0x345 JUMPI DUP1 PUSH4 0x313CE567 EQ PUSH2 0x365 JUMPI DUP1 PUSH4 0x3644E515 EQ PUSH2 0x381 JUMPI PUSH2 0x25D JUMP JUMPDEST DUP1 PUSH4 0x6FDDE03 EQ PUSH2 0x266 JUMPI DUP1 PUSH4 0x95EA7B3 EQ PUSH2 0x291 JUMPI DUP1 PUSH4 0x1333DB2E EQ PUSH2 0x2C1 JUMPI DUP1 PUSH4 0x18160DDD EQ PUSH2 0x2D6 JUMPI PUSH2 0x25D JUMP JUMPDEST CALLDATASIZE PUSH2 0x25D JUMPI PUSH2 0x25B CALLER JUMPDEST PUSH2 0x24B CALLVALUE PUSH2 0x879 JUMP JUMPDEST PUSH1 0x0 PUSH8 0x1BC16D674EC80000 PUSH2 0x8D4 JUMP JUMPDEST STOP JUMPDEST PUSH2 0x25B CALLER PUSH2 0x242 JUMP JUMPDEST CALLVALUE DUP1 ISZERO PUSH2 0x272 JUMPI PUSH1 0x0 DUP1 REVERT JUMPDEST POP PUSH2 0x27B PUSH2 0xEAB JUMP JUMPDEST PUSH1 0x40 MLOAD PUSH2 0x288 SWAP2 SWAP1 PUSH2 0x4885 JUMP JUMPDEST PUSH1 0x40 MLOAD DUP1 SWAP2 SUB SWAP1 RETURN JUMPDEST CALLVALUE DUP1 ISZERO PUSH2 0x29D JUMPI PUSH1 0x0 DUP1 REVERT JUMPDEST POP PUSH2 0x2B1 PUSH2 0x2AC CALLDATASIZE PUSH1 0x4 PUSH2 0x48C1 JUMP JUMPDEST PUSH2 0xF3D JUMP JUMPDEST PUSH1 0x40 MLOAD SWAP1 ISZERO ISZERO DUP2 MSTORE PUSH1 0x20 ADD PUSH2 0x288 JUMP JUMPDEST CALLVALUE DUP1 ISZERO PUSH2 0x2CD JUMPI PUSH1 0x0 DUP1 REVERT JUMPDEST POP PUSH2 0x25B PUSH2 0xF57 JUMP JUMPDEST CALLVALUE DUP1 ISZERO PUSH2 0x2E2 JUMPI PUSH1 0x0 DUP1 REVERT JUMPDEST POP PUSH1 0xB SLOAD JUMPDEST PUSH1 0x40 MLOAD SWAP1 DUP2 MSTORE PUSH1 0x20 ADD PUSH2 0x288 JUMP JUMPDEST CALLVALUE DUP1 ISZERO PUSH2 0x301 JUMPI PUSH1 0x0 DUP1 REVERT JUMPDEST POP PUSH2 0x30A PUSH2 0x1071 JUMP JUMPDEST PUSH1 0x40 DUP1 MLOAD SWAP9 DUP10 MSTORE PUSH1 0x20 DUP10 ADD SWAP8 SWAP1 SWAP8 MSTORE SWAP6 DUP8 ADD SWAP5 SWAP1 SWAP5 MSTORE PUSH1 0x60 DUP7 ADD SWAP3 SWAP1 SWAP3 MSTORE PUSH1 0x80 DUP6 ADD MSTORE PUSH1 0xA0 DUP5 ADD MSTORE PUSH1 0xC0 DUP4 ADD MSTORE PUSH1 0xE0 DUP3 ADD MSTORE PUSH2 0x100 ADD PUSH2 0x288 JUMP JUMPDEST CALLVALUE DUP1 ISZERO PUSH2 0x351 JUMPI PUSH1 0x0 DUP1 REVERT JUMPDEST POP PUSH2 0x2B1 PUSH2 0x360 CALLDATASIZE PUSH1 0x4 PUSH2 0x48EB JUMP JUMPDEST PUSH2 0x10F3 JUMP JUMPDEST CALLVALUE DUP1 ISZERO PUSH2 0x371 JUMPI PUSH1 0x0 DUP1 REVERT JUMPDEST POP PUSH1 0x40 MLOAD PUSH1 0x12 DUP2 MSTORE PUSH1 0x20 ADD PUSH2 0x288 JUMP JUMPDEST CALLVALUE DUP1 ISZERO PUSH2 0x38D JUMPI PUSH1 0x0 DUP1 REVERT JUMPDEST POP PUSH2 0x2E7 PUSH2 0x1119 JUMP JUMPDEST CALLVALUE DUP1 ISZERO PUSH2 0x3A2 JUMPI PUSH1 0x0 DUP1 REVERT JUMPDEST POP PUSH2 0x25B PUSH2 0x3B1 CALLDATASIZE PUSH1 0x4 PUSH2 0x4943 JUMP JUMPDEST PUSH2 0x1128 JUMP JUMPDEST CALLVALUE DUP1 ISZERO PUSH2 0x3C2 JUMPI PUSH1 0x0 DUP1 REVERT JUMPDEST POP PUSH2 0x25B PUSH2 0x3D1 CALLDATASIZE PUSH1 0x4 PUSH2 0x495E JUMP JUMPDEST PUSH2 0x1344 JUMP JUMPDEST CALLVALUE DUP1 ISZERO PUSH2 0x3E2 JUMPI PUSH1 0x0 DUP1 REVERT JUMPDEST POP PUSH2 0x25B PUSH2 0x3F1 CALLDATASIZE PUSH1 0x4 PUSH2 0x4977 JUMP JUMPDEST PUSH2 0x1351 JUMP JUMPDEST CALLVALUE DUP1 ISZERO PUSH2 0x402 JUMPI PUSH1 0x0 DUP1 REVERT JUMPDEST POP PUSH2 0x440 PUSH2 0x411 CALLDATASIZE PUSH1 0x4 PUSH2 0x4977 JUMP JUMPDEST PUSH20 0xFFFFFFFFFFFFFFFFFFFFFFFFFFFFFFFFFFFFFFFF AND PUSH1 0x0 SWAP1 DUP2 MSTORE PUSH1 0x8 PUSH1 0x20 MSTORE PUSH1 0x40 SWAP1 KECCAK256 PUSH1 0x1 DUP2 ADD SLOAD SWAP1 SLOAD SWAP1 SWAP2 JUMP JUMPDEST PUSH1 0x40 DUP1 MLOAD SWAP3 DUP4 MSTORE PUSH1 0x20 DUP4 ADD SWAP2 SWAP1 SWAP2 MSTORE ADD PUSH2 0x288 JUMP JUMPDEST CALLVALUE DUP1 ISZERO PUSH2 0x461 JUMPI PUSH1 0x0 DUP1 REVERT JUMPDEST POP PUSH2 0x475 PUSH2 0x470 CALLDATASIZE PUSH1 0x4 PUSH2 0x49BA JUMP JUMPDEST PUSH2 0x140B JUMP JUMPDEST PUSH1 0x40 MLOAD PUSH2 0x288 SWAP2 SWAP1 PUSH2 0x4B8A JUMP JUMPDEST PUSH2 0x25B PUSH2 0x490 CALLDATASIZE PUSH1 0x4 PUSH2 0x4943 JUMP JUMPDEST PUSH2 0x19C5 JUMP JUMPDEST CALLVALUE DUP1 ISZERO PUSH2 0x4A1 JUMPI PUSH1 0x0 DUP1 REVERT JUMPDEST POP PUSH1 0x0 SLOAD PUSH1 0x1 SLOAD PUSH1 0x40 DUP1 MLOAD PUSH8 0xFFFFFFFFFFFFFFFF PUSH32 0x0 DUP2 AND DUP3 MSTORE PUSH12 0xFFFFFFFFFFFFFFFFFFFFFFFF PUSH32 0x0 DUP2 AND PUSH1 0x20 DUP5 ADD MSTORE DUP1 DUP7 AND SWAP4 DUP4 ADD SWAP4 SWAP1 SWAP4 MSTORE PUSH13 0x1000000000000000000000000 DUP6 DIV SWAP1 SWAP3 AND PUSH1 0x60 DUP3 ADD MSTORE PUSH25 0x1000000000000000000000000000000000000000000000000 SWAP1 SWAP4 DIV AND PUSH1 0x80 DUP4 ADD MSTORE PUSH4 0xFFFFFFFF DUP2 AND PUSH1 0xA0 DUP4 ADD MSTORE PUSH1 0xFF PUSH5 0x100000000 SWAP1 SWAP2 DIV AND PUSH1 0xC0 DUP3 ADD MSTORE PUSH1 0xE0 ADD PUSH2 0x288 JUMP JUMPDEST CALLVALUE DUP1 ISZERO PUSH2 0x585 JUMPI PUSH1 0x0 DUP1 REVERT JUMPDEST POP PUSH2 0x2E7 PUSH2 0x594 CALLDATASIZE PUSH1 0x4 PUSH2 0x4977 JUMP JUMPDEST PUSH20 0xFFFFFFFFFFFFFFFFFFFFFFFFFFFFFFFFFFFFFFFF AND PUSH1 0x0 SWAP1 DUP2 MSTORE PUSH1 0x9 PUSH1 0x20 MSTORE PUSH1 0x40 SWAP1 KECCAK256 SLOAD SWAP1 JUMP JUMPDEST CALLVALUE DUP1 ISZERO PUSH2 0x5C8 JUMPI PUSH1 0x0 DUP1 REVERT JUMPDEST POP PUSH2 0x25B PUSH2 0x19DA JUMP JUMPDEST CALLVALUE DUP1 ISZERO PUSH2 0x5DD JUMPI PUSH1 0x0 DUP1 REVERT JUMPDEST POP PUSH2 0x5F9 PUSH20 0x8CC9C2E145D3AA946502964B1B69CE3CD066A9C7 DUP2 JUMP JUMPDEST PUSH1 0x40 MLOAD PUSH20 0xFFFFFFFFFFFFFFFFFFFFFFFFFFFFFFFFFFFFFFFF SWAP1 SWAP2 AND DUP2 MSTORE PUSH1 0x20 ADD PUSH2 0x288 JUMP JUMPDEST CALLVALUE DUP1 ISZERO PUSH2 0x62A JUMPI PUSH1 0x0 DUP1 REVERT JUMPDEST POP PUSH2 0x25B PUSH2 0x639 CALLDATASIZE PUSH1 0x4 PUSH2 0x48C1 JUMP JUMPDEST PUSH2 0x19EE JUMP JUMPDEST CALLVALUE DUP1 ISZERO PUSH2 0x64A JUMPI PUSH1 0x0 DUP1 REVERT JUMPDEST POP PUSH2 0x2E7 PUSH2 0x659 CALLDATASIZE PUSH1 0x4 PUSH2 0x4977 JUMP JUMPDEST PUSH2 0x1A03 JUMP JUMPDEST CALLVALUE DUP1 ISZERO PUSH2 0x66A JUMPI PUSH1 0x0 DUP1 REVERT JUMPDEST POP PUSH2 0x673 PUSH2 0x1A2E JUMP JUMPDEST PUSH1 0x40 MLOAD PUSH2 0x288 SWAP8 SWAP7 SWAP6 SWAP5 SWAP4 SWAP3 SWAP2 SWAP1 PUSH2 0x4BCD JUMP JUMPDEST CALLVALUE DUP1 ISZERO PUSH2 0x692 JUMPI PUSH1 0x0 DUP1 REVERT JUMPDEST POP PUSH2 0x6A6 PUSH2 0x6A1 CALLDATASIZE PUSH1 0x4 PUSH2 0x4C8F JUMP JUMPDEST PUSH2 0x1A90 JUMP JUMPDEST PUSH1 0x40 MLOAD PUSH2 0x288 SWAP2 SWAP1 PUSH2 0x4CAA JUMP JUMPDEST CALLVALUE DUP1 ISZERO PUSH2 0x6BF JUMPI PUSH1 0x0 DUP1 REVERT JUMPDEST POP PUSH1 0xE SLOAD PUSH20 0xFFFFFFFFFFFFFFFFFFFFFFFFFFFFFFFFFFFFFFFF AND PUSH2 0x5F9 JUMP JUMPDEST CALLVALUE DUP1 ISZERO PUSH2 0x6EA JUMPI PUSH1 0x0 DUP1 REVERT JUMPDEST POP PUSH2 0x27B PUSH2 0x1C8A JUMP JUMPDEST CALLVALUE DUP1 ISZERO PUSH2 0x6FF JUMPI PUSH1 0x0 DUP1 REVERT JUMPDEST POP PUSH2 0x2B1 PUSH2 0x70E CALLDATASIZE PUSH1 0x4 PUSH2 0x48C1 JUMP JUMPDEST PUSH2 0x1C99 JUMP JUMPDEST CALLVALUE DUP1 ISZERO PUSH2 0x71F JUMPI PUSH1 0x0 DUP1 REVERT JUMPDEST POP PUSH2 0x25B PUSH2 0x72E CALLDATASIZE PUSH1 0x4 PUSH2 0x48C1 JUMP JUMPDEST PUSH2 0x1CA7 JUMP JUMPDEST CALLVALUE DUP1 ISZERO PUSH2 0x73F JUMPI PUSH1 0x0 DUP1 REVERT JUMPDEST POP PUSH2 0x25B PUSH2 0x74E CALLDATASIZE PUSH1 0x4 PUSH2 0x4CCA JUMP JUMPDEST PUSH2 0x1D63 JUMP JUMPDEST CALLVALUE DUP1 ISZERO PUSH2 0x75F JUMPI PUSH1 0x0 DUP1 REVERT JUMPDEST POP PUSH2 0x25B PUSH2 0x76E CALLDATASIZE PUSH1 0x4 PUSH2 0x4C8F JUMP JUMPDEST PUSH2 0x1F10 JUMP JUMPDEST CALLVALUE DUP1 ISZERO PUSH2 0x77F JUMPI PUSH1 0x0 DUP1 REVERT JUMPDEST POP PUSH2 0x25B PUSH2 0x78E CALLDATASIZE PUSH1 0x4 PUSH2 0x495E JUMP JUMPDEST PUSH2 0x2189 JUMP JUMPDEST CALLVALUE DUP1 ISZERO PUSH2 0x79F JUMPI PUSH1 0x0 DUP1 REVERT JUMPDEST POP PUSH2 0x2E7 PUSH2 0x7AE CALLDATASIZE PUSH1 0x4 PUSH2 0x4D34 JUMP JUMPDEST PUSH20 0xFFFFFFFFFFFFFFFFFFFFFFFFFFFFFFFFFFFFFFFF SWAP2 DUP3 AND PUSH1 0x0 SWAP1 DUP2 MSTORE PUSH1 0xA PUSH1 0x20 SWAP1 DUP2 MSTORE PUSH1 0x40 DUP1 DUP4 KECCAK256 SWAP4 SWAP1 SWAP5 AND DUP3 MSTORE SWAP2 SWAP1 SWAP2 MSTORE KECCAK256 SLOAD SWAP1 JUMP JUMPDEST CALLVALUE DUP1 ISZERO PUSH2 0x7F2 JUMPI PUSH1 0x0 DUP1 REVERT JUMPDEST POP PUSH2 0x475 PUSH2 0x801 CALLDATASIZE PUSH1 0x4 PUSH2 0x4D67 JUMP JUMPDEST PUSH2 0x2344 JUMP JUMPDEST CALLVALUE DUP1 ISZERO PUSH2 0x812 JUMPI PUSH1 0x0 DUP1 REVERT JUMPDEST POP PUSH2 0x25B PUSH2 0x821 CALLDATASIZE PUSH1 0x4 PUSH2 0x4977 JUMP JUMPDEST PUSH2 0x2928 JUMP JUMPDEST CALLVALUE DUP1 ISZERO PUSH2 0x832 JUMPI PUSH1 0x0 DUP1 REVERT JUMPDEST POP PUSH2 0x25B PUSH2 0x841 CALLDATASIZE PUSH1 0x4 PUSH2 0x4DBB JUMP JUMPDEST PUSH2 0x2989 JUMP JUMPDEST PUSH2 0x25B PUSH2 0x854 CALLDATASIZE PUSH1 0x4 PUSH2 0x4E2B JUMP JUMPDEST PUSH2 0x2CF8 JUMP JUMPDEST CALLVALUE DUP1 ISZERO PUSH2 0x865 JUMPI PUSH1 0x0 DUP1 REVERT JUMPDEST POP PUSH2 0x475 PUSH2 0x874 CALLDATASIZE PUSH1 0x4 PUSH2 0x49BA JUMP JUMPDEST PUSH2 0x2D88 JUMP JUMPDEST PUSH1 0x0 PUSH12 0xFFFFFFFFFFFFFFFFFFFFFFFF DUP3 GT ISZERO PUSH2 0x8D0 JUMPI PUSH1 0x40 MLOAD PUSH32 0x6DFCC65000000000000000000000000000000000000000000000000000000000 DUP2 MSTORE PUSH1 0x60 PUSH1 0x4 DUP3 ADD MSTORE PUSH1 0x24 DUP2 ADD DUP4 SWAP1 MSTORE PUSH1 0x44 ADD JUMPDEST PUSH1 0x40 MLOAD DUP1 SWAP2 SUB SWAP1 REVERT JUMPDEST POP SWAP1 JUMP JUMPDEST PUSH1 0x2 DUP1 SLOAD PUSH8 0xFFFFFFFFFFFFFFFF DUP1 DUP3 AND PUSH1 0x1 ADD AND PUSH32 0xFFFFFFFFFFFFFFFFFFFFFFFFFFFFFFFFFFFFFFFFFFFFFFFF0000000000000000 SWAP1 SWAP2 AND DUP2 OR SWAP1 SWAP2 SSTORE PUSH1 0x0 PUSH2 0x925 PUSH2 0x920 DUP7 DUP6 PUSH2 0x2D96 JUMP JUMPDEST PUSH2 0x879 JUMP JUMPDEST SWAP1 POP PUSH12 0xFFFFFFFFFFFFFFFFFFFFFFFF DUP2 AND ISZERO PUSH2 0x953 JUMPI PUSH2 0x953 DUP7 DUP3 PUSH12 0xFFFFFFFFFFFFFFFFFFFFFFFF AND PUSH2 0x2E3B JUMP JUMPDEST PUSH1 0x0 PUSH2 0x98A DUP7 PUSH12 0xFFFFFFFFFFFFFFFFFFFFFFFF AND DUP7 PUSH12 0xFFFFFFFFFFFFFFFFFFFFFFFF AND DUP7 PUSH12 0xFFFFFFFFFFFFFFFFFFFFFFFF AND PUSH2 0x2E97 JUMP JUMPDEST SWAP1 POP PUSH1 0x0 PUSH1 0x7 PUSH1 0x0 DUP6 PUSH8 0xFFFFFFFFFFFFFFFF AND PUSH8 0xFFFFFFFFFFFFFFFF AND DUP2 MSTORE PUSH1 0x20 ADD SWAP1 DUP2 MSTORE PUSH1 0x20 ADD PUSH1 0x0 KECCAK256 SWAP1 POP NUMBER DUP2 PUSH1 0x0 ADD PUSH1 0x18 PUSH2 0x100 EXP DUP2 SLOAD DUP2 PUSH8 0xFFFFFFFFFFFFFFFF MUL NOT AND SWAP1 DUP4 PUSH8 0xFFFFFFFFFFFFFFFF AND MUL OR SWAP1 SSTORE POP DUP4 DUP2 PUSH1 0x2 ADD PUSH1 0x18 PUSH2 0x100 EXP DUP2 SLOAD DUP2 PUSH8 0xFFFFFFFFFFFFFFFF MUL NOT AND SWAP1 DUP4 PUSH8 0xFFFFFFFFFFFFFFFF AND MUL OR SWAP1 SSTORE POP DUP8 DUP2 PUSH1 0x3 ADD PUSH1 0x0 PUSH2 0x100 EXP DUP2 SLOAD DUP2 PUSH20 0xFFFFFFFFFFFFFFFFFFFFFFFFFFFFFFFFFFFFFFFF MUL NOT AND SWAP1 DUP4 PUSH20 0xFFFFFFFFFFFFFFFFFFFFFFFFFFFFFFFFFFFFFFFF AND MUL OR SWAP1 SSTORE POP DUP7 DUP2 PUSH1 0x0 ADD PUSH1 0x0 PUSH2 0x100 EXP DUP2 SLOAD DUP2 PUSH12 0xFFFFFFFFFFFFFFFFFFFFFFFF MUL NOT AND SWAP1 DUP4 PUSH12 0xFFFFFFFFFFFFFFFFFFFFFFFF AND MUL OR SWAP1 SSTORE POP PUSH1 0x0 DUP1 SLOAD SWAP1 PUSH2 0x100 EXP SWAP1 DIV PUSH12 0xFFFFFFFFFFFFFFFFFFFFFFFF AND DUP2 PUSH1 0x0 ADD PUSH1 0xC PUSH2 0x100 EXP DUP2 SLOAD DUP2 PUSH12 0xFFFFFFFFFFFFFFFFFFFFFFFF MUL NOT AND SWAP1 DUP4 PUSH12 0xFFFFFFFFFFFFFFFFFFFFFFFF AND MUL OR SWAP1 SSTORE POP DUP6 DUP2 PUSH1 0x1 ADD PUSH1 0x0 PUSH2 0x100 EXP DUP2 SLOAD DUP2 PUSH12 0xFFFFFFFFFFFFFFFFFFFFFFFF MUL NOT AND SWAP1 DUP4 PUSH12 0xFFFFFFFFFFFFFFFFFFFFFFFF AND MUL OR SWAP1 SSTORE POP DUP5 DUP2 PUSH1 0x1 ADD PUSH1 0xC PUSH2 0x100 EXP DUP2 SLOAD DUP2 PUSH12 0xFFFFFFFFFFFFFFFFFFFFFFFF MUL NOT AND SWAP1 DUP4 PUSH12 0xFFFFFFFFFFFFFFFFFFFFFFFF AND MUL OR SWAP1 SSTORE POP DUP3 DUP2 PUSH1 0x2 ADD PUSH1 0x0 PUSH2 0x100 EXP DUP2 SLOAD DUP2 PUSH12 0xFFFFFFFFFFFFFFFFFFFFFFFF MUL NOT AND SWAP1 DUP4 PUSH12 0xFFFFFFFFFFFFFFFFFFFFFFFF AND MUL OR SWAP1 SSTORE POP PUSH1 0x0 PUSH1 0xC SWAP1 SLOAD SWAP1 PUSH2 0x100 EXP SWAP1 DIV PUSH12 0xFFFFFFFFFFFFFFFFFFFFFFFF AND DUP2 PUSH1 0x2 ADD PUSH1 0xC PUSH2 0x100 EXP DUP2 SLOAD DUP2 PUSH12 0xFFFFFFFFFFFFFFFFFFFFFFFF MUL NOT AND SWAP1 DUP4 PUSH12 0xFFFFFFFFFFFFFFFFFFFFFFFF AND MUL OR SWAP1 SSTORE POP PUSH1 0x0 PUSH1 0x18 SWAP1 SLOAD SWAP1 PUSH2 0x100 EXP SWAP1 DIV PUSH8 0xFFFFFFFFFFFFFFFF AND DUP2 PUSH1 0x1 ADD PUSH1 0x18 PUSH2 0x100 EXP DUP2 SLOAD DUP2 PUSH8 0xFFFFFFFFFFFFFFFF MUL NOT AND SWAP1 DUP4 PUSH8 0xFFFFFFFFFFFFFFFF AND MUL OR SWAP1 SSTORE POP PUSH1 0x1 PUSH1 0xFF AND DUP2 PUSH1 0x3 ADD PUSH1 0x18 PUSH2 0x100 EXP DUP2 SLOAD DUP2 PUSH4 0xFFFFFFFF MUL NOT AND SWAP1 DUP4 PUSH4 0xFFFFFFFF AND MUL OR SWAP1 SSTORE POP DUP2 DUP2 PUSH1 0x3 ADD PUSH1 0x14 PUSH2 0x100 EXP DUP2 SLOAD DUP2 PUSH4 0xFFFFFFFF MUL NOT AND SWAP1 DUP4 PUSH4 0xFFFFFFFF AND MUL OR SWAP1 SSTORE POP PUSH1 0x8 PUSH1 0x0 DUP10 PUSH20 0xFFFFFFFFFFFFFFFFFFFFFFFFFFFFFFFFFFFFFFFF AND PUSH20 0xFFFFFFFFFFFFFFFFFFFFFFFFFFFFFFFFFFFFFFFF AND DUP2 MSTORE PUSH1 0x20 ADD SWAP1 DUP2 MSTORE PUSH1 0x20 ADD PUSH1 0x0 KECCAK256 PUSH1 0x0 ADD DUP5 SWAP1 DUP1 PUSH1 0x1 DUP2 SLOAD ADD DUP1 DUP3 SSTORE DUP1 SWAP2 POP POP PUSH1 0x1 SWAP1 SUB SWAP1 PUSH1 0x0 MSTORE PUSH1 0x20 PUSH1 0x0 KECCAK256 SWAP1 PUSH1 0x4 SWAP2 DUP3 DUP3 DIV ADD SWAP2 SWAP1 MOD PUSH1 0x8 MUL SWAP1 SWAP2 SWAP1 SWAP2 SWAP1 SWAP2 PUSH2 0x100 EXP DUP2 SLOAD DUP2 PUSH8 0xFFFFFFFFFFFFFFFF MUL NOT AND SWAP1 DUP4 PUSH8 0xFFFFFFFFFFFFFFFF AND MUL OR SWAP1 SSTORE POP DUP4 PUSH8 0xFFFFFFFFFFFFFFFF AND DUP9 PUSH20 0xFFFFFFFFFFFFFFFFFFFFFFFFFFFFFFFFFFFFFFFF AND PUSH32 0xEB87FFBE69BE596530037DE78D6A6CA3317C12CE908C3C46E9CFA526531A177E DUP10 DUP10 DUP10 DUP9 DUP9 PUSH1 0x1 PUSH1 0x40 MLOAD DUP1 PUSH1 0x60 ADD PUSH1 0x40 MSTORE DUP1 PUSH1 0x0 DUP1 SLOAD SWAP1 PUSH2 0x100 EXP SWAP1 DIV PUSH12 0xFFFFFFFFFFFFFFFFFFFFFFFF AND PUSH12 0xFFFFFFFFFFFFFFFFFFFFFFFF AND DUP2 MSTORE PUSH1 0x20 ADD PUSH1 0x0 PUSH1 0xC SWAP1 SLOAD SWAP1 PUSH2 0x100 EXP SWAP1 DIV PUSH12 0xFFFFFFFFFFFFFFFFFFFFFFFF AND PUSH12 0xFFFFFFFFFFFFFFFFFFFFFFFF AND DUP2 MSTORE PUSH1 0x20 ADD PUSH1 0x0 PUSH1 0x18 SWAP1 SLOAD SWAP1 PUSH2 0x100 EXP SWAP1 DIV PUSH8 0xFFFFFFFFFFFFFFFF AND PUSH8 0xFFFFFFFFFFFFFFFF AND DUP2 MSTORE POP PUSH1 0x40 MLOAD PUSH2 0xE2E SWAP8 SWAP7 SWAP6 SWAP5 SWAP4 SWAP3 SWAP2 SWAP1 PUSH12 0xFFFFFFFFFFFFFFFFFFFFFFFF SWAP8 DUP9 AND DUP2 MSTORE SWAP6 DUP8 AND PUSH1 0x20 DUP1 DUP9 ADD SWAP2 SWAP1 SWAP2 MSTORE SWAP5 DUP8 AND PUSH1 0x40 DUP1 DUP9 ADD SWAP2 SWAP1 SWAP2 MSTORE SWAP4 DUP8 AND PUSH1 0x60 DUP8 ADD MSTORE PUSH4 0xFFFFFFFF SWAP3 SWAP1 SWAP3 AND PUSH1 0x80 DUP7 ADD MSTORE PUSH1 0xFF AND PUSH1 0xA0 DUP6 ADD MSTORE DUP1 MLOAD DUP6 AND PUSH1 0xC0 DUP6 ADD MSTORE SWAP2 DUP3 ADD MLOAD SWAP1 SWAP4 AND PUSH1 0xE0 DUP4 ADD MSTORE SWAP1 SWAP2 ADD MLOAD PUSH8 0xFFFFFFFFFFFFFFFF AND PUSH2 0x100 DUP3 ADD MSTORE PUSH2 0x120 ADD SWAP1 JUMP JUMPDEST PUSH1 0x40 MLOAD DUP1 SWAP2 SUB SWAP1 LOG3 PUSH1 0x0 DUP3 PUSH4 0xFFFFFFFF AND GT PUSH2 0xE78 JUMPI PUSH1 0x4 DUP1 SLOAD PUSH12 0xFFFFFFFFFFFFFFFFFFFFFFFF DUP9 DUP2 AND SWAP1 SWAP2 ADD SWAP1 SWAP2 SSTORE PUSH1 0x5 DUP1 SLOAD SWAP2 DUP10 AND SWAP1 SWAP2 ADD SWAP1 SSTORE PUSH2 0xE73 DUP2 PUSH2 0x2F2F JUMP JUMPDEST PUSH2 0xEA1 JUMP JUMPDEST PUSH2 0xE82 DUP5 DUP8 PUSH2 0x30F5 JUMP JUMPDEST PUSH1 0x3 DUP1 SLOAD PUSH12 0xFFFFFFFFFFFFFFFFFFFFFFFF DUP10 AND ADD SWAP1 SSTORE PUSH2 0xEA1 DUP5 PUSH2 0x330B JUMP JUMPDEST POP POP POP POP POP POP POP POP JUMP JUMPDEST PUSH1 0x60 PUSH1 0xC DUP1 SLOAD PUSH2 0xEBA SWAP1 PUSH2 0x4E55 JUMP JUMPDEST DUP1 PUSH1 0x1F ADD PUSH1 0x20 DUP1 SWAP2 DIV MUL PUSH1 0x20 ADD PUSH1 0x40 MLOAD SWAP1 DUP2 ADD PUSH1 0x40 MSTORE DUP1 SWAP3 SWAP2 SWAP1 DUP2 DUP2 MSTORE PUSH1 0x20 ADD DUP3 DUP1 SLOAD PUSH2 0xEE6 SWAP1 PUSH2 0x4E55 JUMP JUMPDEST DUP1 ISZERO PUSH2 0xF33 JUMPI DUP1 PUSH1 0x1F LT PUSH2 0xF08 JUMPI PUSH2 0x100 DUP1 DUP4 SLOAD DIV MUL DUP4 MSTORE SWAP2 PUSH1 0x20 ADD SWAP2 PUSH2 0xF33 JUMP JUMPDEST DUP3 ADD SWAP2 SWAP1 PUSH1 0x0 MSTORE PUSH1 0x20 PUSH1 0x0 KECCAK256 SWAP1 JUMPDEST DUP2 SLOAD DUP2 MSTORE SWAP1 PUSH1 0x1 ADD SWAP1 PUSH1 0x20 ADD DUP1 DUP4 GT PUSH2 0xF16 JUMPI DUP3 SWAP1 SUB PUSH1 0x1F AND DUP3 ADD SWAP2 JUMPDEST POP POP POP POP POP SWAP1 POP SWAP1 JUMP JUMPDEST PUSH1 0x0 CALLER PUSH2 0xF4B DUP2 DUP6 DUP6 PUSH2 0x33B8 JUMP JUMPDEST PUSH1 0x1 SWAP2 POP POP JUMPDEST SWAP3 SWAP2 POP POP JUMP JUMPDEST CALLER PUSH1 0x0 SWAP1 DUP2 MSTORE PUSH1 0x8 PUSH1 0x20 MSTORE PUSH1 0x40 DUP2 KECCAK256 PUSH1 0x1 ADD SLOAD SWAP1 SUB PUSH2 0xF72 JUMPI JUMP JUMPDEST CALLER PUSH1 0x0 SWAP1 DUP2 MSTORE PUSH1 0x8 PUSH1 0x20 MSTORE PUSH1 0x40 DUP2 KECCAK256 PUSH1 0x1 ADD DUP1 SLOAD SWAP1 DUP3 SWAP1 SSTORE PUSH1 0x6 DUP1 SLOAD SWAP2 SWAP3 DUP4 SWAP3 PUSH2 0xF9D SWAP1 DUP5 SWAP1 PUSH2 0x4ED7 JUMP JUMPDEST SWAP1 SWAP2 SSTORE POP POP PUSH1 0x40 DUP1 MLOAD CALLER DUP2 MSTORE PUSH1 0x20 DUP2 ADD DUP4 SWAP1 MSTORE DUP2 MLOAD PUSH32 0x87E12C2565042763DAA6BF5842ED2B6447F17F7E28F9A4905FE3959581396EAD SWAP3 SWAP2 DUP2 SWAP1 SUB SWAP1 SWAP2 ADD SWAP1 LOG1 PUSH1 0x40 MLOAD PUSH1 0x0 SWAP1 CALLER SWAP1 DUP4 SWAP1 DUP4 DUP2 DUP2 DUP2 DUP6 DUP8 GAS CALL SWAP3 POP POP POP RETURNDATASIZE DUP1 PUSH1 0x0 DUP2 EQ PUSH2 0x101F JUMPI PUSH1 0x40 MLOAD SWAP2 POP PUSH1 0x1F NOT PUSH1 0x3F RETURNDATASIZE ADD AND DUP3 ADD PUSH1 0x40 MSTORE RETURNDATASIZE DUP3 MSTORE RETURNDATASIZE PUSH1 0x0 PUSH1 0x20 DUP5 ADD RETURNDATACOPY PUSH2 0x1024 JUMP JUMPDEST PUSH1 0x60 SWAP2 POP JUMPDEST POP POP SWAP1 POP DUP1 PUSH2 0x106D JUMPI PUSH1 0x6 SLOAD PUSH1 0x40 MLOAD PUSH32 0xCF47918100000000000000000000000000000000000000000000000000000000 DUP2 MSTORE PUSH1 0x4 DUP2 ADD SWAP2 SWAP1 SWAP2 MSTORE PUSH1 0x24 DUP2 ADD DUP4 SWAP1 MSTORE PUSH1 0x44 ADD PUSH2 0x8C7 JUMP JUMPDEST POP POP JUMP JUMPDEST PUSH1 0x0 DUP1 PUSH1 0x0 DUP1 PUSH1 0x0 DUP1 PUSH1 0x0 DUP1 PUSH1 0x2 PUSH1 0x0 SWAP1 SLOAD SWAP1 PUSH2 0x100 EXP SWAP1 DIV PUSH8 0xFFFFFFFFFFFFFFFF AND PUSH1 0x3 SLOAD PUSH1 0x4 SLOAD PUSH1 0x5 SLOAD PUSH1 0x6 SLOAD SELFBALANCE PUSH2 0x10CD ADDRESS PUSH20 0xFFFFFFFFFFFFFFFFFFFFFFFFFFFFFFFFFFFFFFFF AND PUSH1 0x0 SWAP1 DUP2 MSTORE PUSH1 0x9 PUSH1 0x20 MSTORE PUSH1 0x40 SWAP1 KECCAK256 SLOAD SWAP1 JUMP JUMPDEST PUSH1 0xB SLOAD PUSH8 0xFFFFFFFFFFFFFFFF SWAP1 SWAP8 AND SWAP16 SWAP6 SWAP15 POP SWAP4 SWAP13 POP SWAP2 SWAP11 POP SWAP9 POP SWAP7 POP SWAP5 POP SWAP1 SWAP3 POP SWAP1 POP JUMP JUMPDEST PUSH1 0x0 CALLER PUSH2 0x1101 DUP6 DUP3 DUP6 PUSH2 0x33C5 JUMP JUMPDEST PUSH2 0x110C DUP6 DUP6 DUP6 PUSH2 0x3494 JUMP JUMPDEST PUSH1 0x1 SWAP2 POP POP JUMPDEST SWAP4 SWAP3 POP POP POP JUMP JUMPDEST PUSH1 0x0 PUSH2 0x1123 PUSH2 0x353F JUMP JUMPDEST SWAP1 POP SWAP1 JUMP JUMPDEST PUSH1 0x1 SLOAD PUSH6 0x10000000000 SWAP1 DIV PUSH20 0xFFFFFFFFFFFFFFFFFFFFFFFFFFFFFFFFFFFFFFFF AND PUSH2 0x1180 JUMPI PUSH1 0x40 MLOAD PUSH32 0xE6C4247B00000000000000000000000000000000000000000000000000000000 DUP2 MSTORE PUSH1 0x4 ADD PUSH1 0x40 MLOAD DUP1 SWAP2 SUB SWAP1 REVERT JUMPDEST DUP1 PUSH12 0xFFFFFFFFFFFFFFFFFFFFFFFF AND PUSH1 0x4 SLOAD LT ISZERO PUSH2 0x11E2 JUMPI PUSH1 0x4 DUP1 SLOAD PUSH1 0x40 MLOAD PUSH32 0xCF47918100000000000000000000000000000000000000000000000000000000 DUP2 MSTORE SWAP2 DUP3 ADD MSTORE PUSH12 0xFFFFFFFFFFFFFFFFFFFFFFFF DUP3 AND PUSH1 0x24 DUP3 ADD MSTORE PUSH1 0x44 ADD PUSH2 0x8C7 JUMP JUMPDEST DUP1 PUSH12 0xFFFFFFFFFFFFFFFFFFFFFFFF AND PUSH1 0x4 PUSH1 0x0 DUP3 DUP3 SLOAD PUSH2 0x1202 SWAP2 SWAP1 PUSH2 0x4ED7 JUMP JUMPDEST SWAP1 SWAP2 SSTORE POP POP PUSH1 0x1 SLOAD PUSH1 0x40 DUP1 MLOAD CALLER DUP2 MSTORE PUSH6 0x10000000000 SWAP1 SWAP3 DIV PUSH20 0xFFFFFFFFFFFFFFFFFFFFFFFFFFFFFFFFFFFFFFFF AND PUSH1 0x20 DUP4 ADD MSTORE PUSH12 0xFFFFFFFFFFFFFFFFFFFFFFFF DUP4 AND DUP3 DUP3 ADD MSTORE PUSH1 0x0 PUSH1 0x60 DUP4 ADD MSTORE MLOAD PUSH32 0x31A8092046A766D50C60467D927F8769A20162FD47024A64BB365AAC647EB0DF SWAP2 DUP2 SWAP1 SUB PUSH1 0x80 ADD SWAP1 LOG1 PUSH1 0x1 SLOAD PUSH1 0x40 MLOAD PUSH1 0x0 SWAP2 PUSH6 0x10000000000 SWAP1 DIV PUSH20 0xFFFFFFFFFFFFFFFFFFFFFFFFFFFFFFFFFFFFFFFF AND SWAP1 PUSH12 0xFFFFFFFFFFFFFFFFFFFFFFFF DUP5 AND SWAP1 DUP4 DUP2 DUP2 DUP2 DUP6 DUP8 GAS CALL SWAP3 POP POP POP RETURNDATASIZE DUP1 PUSH1 0x0 DUP2 EQ PUSH2 0x12EC JUMPI PUSH1 0x40 MLOAD SWAP2 POP PUSH1 0x1F NOT PUSH1 0x3F RETURNDATASIZE ADD AND DUP3 ADD PUSH1 0x40 MSTORE RETURNDATASIZE DUP3 MSTORE RETURNDATASIZE PUSH1 0x0 PUSH1 0x20 DUP5 ADD RETURNDATACOPY PUSH2 0x12F1 JUMP JUMPDEST PUSH1 0x60 SWAP2 POP JUMPDEST POP POP SWAP1 POP DUP1 PUSH2 0x106D JUMPI PUSH1 0x4 DUP1 SLOAD PUSH1 0x40 MLOAD PUSH32 0xCF47918100000000000000000000000000000000000000000000000000000000 DUP2 MSTORE SWAP2 DUP3 ADD MSTORE PUSH12 0xFFFFFFFFFFFFFFFFFFFFFFFF DUP4 AND PUSH1 0x24 DUP3 ADD MSTORE PUSH1 0x44 ADD PUSH2 0x8C7 JUMP JUMPDEST PUSH2 0x134E CALLER DUP3 PUSH2 0x2E3B JUMP JUMPDEST POP JUMP JUMPDEST PUSH2 0x1359 PUSH2 0x3677 JUMP JUMPDEST PUSH1 0x1 SLOAD PUSH1 0x40 DUP1 MLOAD CALLER DUP2 MSTORE PUSH6 0x10000000000 SWAP1 SWAP3 DIV PUSH20 0xFFFFFFFFFFFFFFFFFFFFFFFFFFFFFFFFFFFFFFFF SWAP1 DUP2 AND PUSH1 0x20 DUP5 ADD MSTORE DUP4 AND DUP3 DUP3 ADD MSTORE MLOAD PUSH32 0x876FF6DE70EA9815B366B60A114B80FDFBC06357DA850CB734024FB7927F8B03 SWAP2 DUP2 SWAP1 SUB PUSH1 0x60 ADD SWAP1 LOG1 PUSH1 0x1 DUP1 SLOAD PUSH20 0xFFFFFFFFFFFFFFFFFFFFFFFFFFFFFFFFFFFFFFFF SWAP1 SWAP3 AND PUSH6 0x10000000000 MUL PUSH32 0xFFFFFFFFFFFFFF0000000000000000000000000000000000000000FFFFFFFFFF SWAP1 SWAP3 AND SWAP2 SWAP1 SWAP2 OR SWAP1 SSTORE JUMP JUMPDEST PUSH1 0x2 SLOAD PUSH1 0x60 SWAP1 PUSH8 0xFFFFFFFFFFFFFFFF SWAP1 DUP2 AND SWAP1 PUSH1 0x0 SWAP1 DUP7 AND DUP3 GT PUSH2 0x14E6 JUMPI PUSH1 0x40 DUP1 MLOAD PUSH1 0x0 DUP1 DUP3 MSTORE PUSH1 0x20 DUP3 ADD SWAP1 SWAP3 MSTORE SWAP1 PUSH2 0x14DC JUMP JUMPDEST PUSH2 0x14C9 PUSH1 0x40 DUP1 MLOAD PUSH2 0x1A0 DUP2 ADD DUP3 MSTORE PUSH1 0x0 DUP1 DUP3 MSTORE PUSH1 0x20 DUP1 DUP4 ADD DUP3 SWAP1 MSTORE DUP3 DUP5 ADD DUP3 SWAP1 MSTORE PUSH1 0x60 DUP1 DUP5 ADD DUP4 SWAP1 MSTORE PUSH1 0x80 DUP1 DUP6 ADD DUP5 SWAP1 MSTORE PUSH1 0xA0 DUP6 ADD DUP5 SWAP1 MSTORE PUSH1 0xC0 DUP6 ADD DUP5 SWAP1 MSTORE PUSH1 0xE0 DUP6 ADD DUP5 SWAP1 MSTORE PUSH2 0x100 DUP6 ADD DUP5 SWAP1 MSTORE PUSH2 0x120 DUP6 ADD DUP5 SWAP1 MSTORE PUSH2 0x140 DUP6 ADD DUP5 SWAP1 MSTORE PUSH2 0x160 DUP6 ADD DUP5 SWAP1 MSTORE DUP6 MLOAD SWAP1 DUP2 ADD DUP7 MSTORE DUP4 DUP2 MSTORE SWAP2 DUP3 ADD DUP4 SWAP1 MSTORE SWAP4 DUP2 ADD DUP3 SWAP1 MSTORE SWAP3 DUP4 ADD MSTORE SWAP1 PUSH2 0x180 DUP3 ADD MSTORE SWAP1 JUMP JUMPDEST DUP2 MSTORE PUSH1 0x20 ADD SWAP1 PUSH1 0x1 SWAP1 SUB SWAP1 DUP2 PUSH2 0x143F JUMPI SWAP1 POP JUMPDEST POP SWAP3 POP POP POP PUSH2 0x1112 JUMP JUMPDEST PUSH8 0xFFFFFFFFFFFFFFFF DUP3 AND PUSH2 0x14FB DUP7 DUP9 PUSH2 0x4F19 JUMP JUMPDEST PUSH8 0xFFFFFFFFFFFFFFFF AND GT ISZERO PUSH2 0x1512 JUMPI POP DUP1 PUSH2 0x151F JUMP JUMPDEST PUSH2 0x151C DUP6 DUP8 PUSH2 0x4F19 JUMP JUMPDEST SWAP1 POP JUMPDEST PUSH2 0x1529 DUP7 DUP3 PUSH2 0x4F41 JUMP JUMPDEST PUSH8 0xFFFFFFFFFFFFFFFF AND PUSH8 0xFFFFFFFFFFFFFFFF DUP2 GT ISZERO PUSH2 0x154B JUMPI PUSH2 0x154B PUSH2 0x4EEA JUMP JUMPDEST PUSH1 0x40 MLOAD SWAP1 DUP1 DUP3 MSTORE DUP1 PUSH1 0x20 MUL PUSH1 0x20 ADD DUP3 ADD PUSH1 0x40 MSTORE DUP1 ISZERO PUSH2 0x1606 JUMPI DUP2 PUSH1 0x20 ADD JUMPDEST PUSH2 0x15F3 PUSH1 0x40 DUP1 MLOAD PUSH2 0x1A0 DUP2 ADD DUP3 MSTORE PUSH1 0x0 DUP1 DUP3 MSTORE PUSH1 0x20 DUP1 DUP4 ADD DUP3 SWAP1 MSTORE DUP3 DUP5 ADD DUP3 SWAP1 MSTORE PUSH1 0x60 DUP1 DUP5 ADD DUP4 SWAP1 MSTORE PUSH1 0x80 DUP1 DUP6 ADD DUP5 SWAP1 MSTORE PUSH1 0xA0 DUP6 ADD DUP5 SWAP1 MSTORE PUSH1 0xC0 DUP6 ADD DUP5 SWAP1 MSTORE PUSH1 0xE0 DUP6 ADD DUP5 SWAP1 MSTORE PUSH2 0x100 DUP6 ADD DUP5 SWAP1 MSTORE PUSH2 0x120 DUP6 ADD DUP5 SWAP1 MSTORE PUSH2 0x140 DUP6 ADD DUP5 SWAP1 MSTORE PUSH2 0x160 DUP6 ADD DUP5 SWAP1 MSTORE DUP6 MLOAD SWAP1 DUP2 ADD DUP7 MSTORE DUP4 DUP2 MSTORE SWAP2 DUP3 ADD DUP4 SWAP1 MSTORE SWAP4 DUP2 ADD DUP3 SWAP1 MSTORE SWAP3 DUP4 ADD MSTORE SWAP1 PUSH2 0x180 DUP3 ADD MSTORE SWAP1 JUMP JUMPDEST DUP2 MSTORE PUSH1 0x20 ADD SWAP1 PUSH1 0x1 SWAP1 SUB SWAP1 DUP2 PUSH2 0x1569 JUMPI SWAP1 POP JUMPDEST POP SWAP3 POP DUP4 ISZERO PUSH2 0x17E8 JUMPI DUP6 JUMPDEST DUP2 PUSH8 0xFFFFFFFFFFFFFFFF AND DUP2 PUSH8 0xFFFFFFFFFFFFFFFF AND LT ISZERO PUSH2 0x17E2 JUMPI PUSH1 0x0 PUSH2 0x163A DUP3 PUSH1 0x1 PUSH2 0x4F19 JUMP JUMPDEST PUSH8 0xFFFFFFFFFFFFFFFF DUP1 DUP3 AND PUSH1 0x0 SWAP1 DUP2 MSTORE PUSH1 0x7 PUSH1 0x20 SWAP1 DUP2 MSTORE PUSH1 0x40 SWAP2 DUP3 SWAP1 KECCAK256 DUP3 MLOAD PUSH2 0x1A0 DUP2 ADD DUP5 MSTORE DUP2 SLOAD PUSH12 0xFFFFFFFFFFFFFFFFFFFFFFFF DUP1 DUP3 AND DUP4 MSTORE PUSH13 0x1000000000000000000000000 DUP1 DUP4 DIV DUP3 AND DUP5 DUP8 ADD MSTORE PUSH25 0x1000000000000000000000000000000000000000000000000 SWAP3 DUP4 SWAP1 DIV DUP9 AND DUP5 DUP9 ADD MSTORE PUSH1 0x1 DUP6 ADD SLOAD DUP1 DUP4 AND PUSH1 0x60 DUP1 DUP8 ADD SWAP2 SWAP1 SWAP2 MSTORE DUP3 DUP3 DIV DUP5 AND PUSH1 0x80 DUP1 DUP9 ADD SWAP2 SWAP1 SWAP2 MSTORE SWAP2 DUP6 SWAP1 DIV DUP11 AND PUSH1 0xA0 DUP8 ADD MSTORE PUSH1 0x2 DUP8 ADD SLOAD DUP1 DUP6 AND PUSH1 0xC0 DUP9 ADD MSTORE SWAP3 DUP4 DIV DUP5 AND PUSH1 0xE0 DUP8 ADD MSTORE SWAP2 DUP5 SWAP1 DIV SWAP1 SWAP9 AND PUSH2 0x100 DUP6 ADD MSTORE PUSH1 0x3 DUP6 ADD SLOAD PUSH20 0xFFFFFFFFFFFFFFFFFFFFFFFFFFFFFFFFFFFFFFFF DUP2 AND PUSH2 0x120 DUP7 ADD MSTORE PUSH4 0xFFFFFFFF PUSH21 0x10000000000000000000000000000000000000000 DUP3 DIV DUP2 AND PUSH2 0x140 DUP8 ADD MSTORE SWAP4 SWAP1 DIV DUP4 AND PUSH2 0x160 DUP6 ADD MSTORE DUP7 MLOAD SWAP8 DUP9 ADD DUP8 MSTORE PUSH1 0x4 DUP6 ADD SLOAD SWAP3 DUP4 AND DUP9 MSTORE PUSH5 0x100000000 DUP4 DIV DUP3 AND SWAP6 DUP9 ADD SWAP6 SWAP1 SWAP6 MSTORE PUSH17 0x100000000000000000000000000000000 SWAP1 SWAP2 DIV DUP2 AND SWAP5 DUP7 ADD SWAP5 SWAP1 SWAP5 MSTORE PUSH1 0x5 SWAP1 SWAP2 ADD SLOAD SWAP1 SWAP3 AND SWAP1 DUP4 ADD MSTORE PUSH2 0x180 DUP2 ADD SWAP2 SWAP1 SWAP2 MSTORE SWAP1 SWAP2 POP DUP6 PUSH2 0x17B4 DUP11 DUP6 PUSH2 0x4F41 JUMP JUMPDEST PUSH8 0xFFFFFFFFFFFFFFFF AND DUP2 MLOAD DUP2 LT PUSH2 0x17CE JUMPI PUSH2 0x17CE PUSH2 0x4F62 JUMP JUMPDEST PUSH1 0x20 SWAP1 DUP2 MUL SWAP2 SWAP1 SWAP2 ADD ADD MSTORE POP PUSH1 0x1 ADD PUSH2 0x1611 JUMP JUMPDEST POP PUSH2 0x19BC JUMP JUMPDEST DUP6 JUMPDEST DUP2 PUSH8 0xFFFFFFFFFFFFFFFF AND DUP2 PUSH8 0xFFFFFFFFFFFFFFFF AND LT ISZERO PUSH2 0x19BA JUMPI PUSH1 0x0 PUSH2 0x1812 DUP3 DUP6 PUSH2 0x4F41 JUMP JUMPDEST PUSH8 0xFFFFFFFFFFFFFFFF DUP1 DUP3 AND PUSH1 0x0 SWAP1 DUP2 MSTORE PUSH1 0x7 PUSH1 0x20 SWAP1 DUP2 MSTORE PUSH1 0x40 SWAP2 DUP3 SWAP1 KECCAK256 DUP3 MLOAD PUSH2 0x1A0 DUP2 ADD DUP5 MSTORE DUP2 SLOAD PUSH12 0xFFFFFFFFFFFFFFFFFFFFFFFF DUP1 DUP3 AND DUP4 MSTORE PUSH13 0x1000000000000000000000000 DUP1 DUP4 DIV DUP3 AND DUP5 DUP8 ADD MSTORE PUSH25 0x1000000000000000000000000000000000000000000000000 SWAP3 DUP4 SWAP1 DIV DUP9 AND DUP5 DUP9 ADD MSTORE PUSH1 0x1 DUP6 ADD SLOAD DUP1 DUP4 AND PUSH1 0x60 DUP1 DUP8 ADD SWAP2 SWAP1 SWAP2 MSTORE DUP3 DUP3 DIV DUP5 AND PUSH1 0x80 DUP1 DUP9 ADD SWAP2 SWAP1 SWAP2 MSTORE SWAP2 DUP6 SWAP1 DIV DUP11 AND PUSH1 0xA0 DUP8 ADD MSTORE PUSH1 0x2 DUP8 ADD SLOAD DUP1 DUP6 AND PUSH1 0xC0 DUP9 ADD MSTORE SWAP3 DUP4 DIV DUP5 AND PUSH1 0xE0 DUP8 ADD MSTORE SWAP2 DUP5 SWAP1 DIV SWAP1 SWAP9 AND PUSH2 0x100 DUP6 ADD MSTORE PUSH1 0x3 DUP6 ADD SLOAD PUSH20 0xFFFFFFFFFFFFFFFFFFFFFFFFFFFFFFFFFFFFFFFF DUP2 AND PUSH2 0x120 DUP7 ADD MSTORE PUSH4 0xFFFFFFFF PUSH21 0x10000000000000000000000000000000000000000 DUP3 DIV DUP2 AND PUSH2 0x140 DUP8 ADD MSTORE SWAP4 SWAP1 DIV DUP4 AND PUSH2 0x160 DUP6 ADD MSTORE DUP7 MLOAD SWAP8 DUP9 ADD DUP8 MSTORE PUSH1 0x4 DUP6 ADD SLOAD SWAP3 DUP4 AND DUP9 MSTORE PUSH5 0x100000000 DUP4 DIV DUP3 AND SWAP6 DUP9 ADD SWAP6 SWAP1 SWAP6 MSTORE PUSH17 0x100000000000000000000000000000000 SWAP1 SWAP2 DIV DUP2 AND SWAP5 DUP7 ADD SWAP5 SWAP1 SWAP5 MSTORE PUSH1 0x5 SWAP1 SWAP2 ADD SLOAD SWAP1 SWAP3 AND SWAP1 DUP4 ADD MSTORE PUSH2 0x180 DUP2 ADD SWAP2 SWAP1 SWAP2 MSTORE SWAP1 SWAP2 POP DUP6 PUSH2 0x198C DUP11 DUP6 PUSH2 0x4F41 JUMP JUMPDEST PUSH8 0xFFFFFFFFFFFFFFFF AND DUP2 MLOAD DUP2 LT PUSH2 0x19A6 JUMPI PUSH2 0x19A6 PUSH2 0x4F62 JUMP JUMPDEST PUSH1 0x20 SWAP1 DUP2 MUL SWAP2 SWAP1 SWAP2 ADD ADD MSTORE POP PUSH1 0x1 ADD PUSH2 0x17EA JUMP JUMPDEST POP JUMPDEST POP POP SWAP4 SWAP3 POP POP POP JUMP JUMPDEST PUSH2 0x134E CALLER PUSH2 0x19D2 CALLVALUE PUSH2 0x879 JUMP JUMPDEST PUSH1 0x0 DUP5 PUSH2 0x8D4 JUMP JUMPDEST PUSH2 0x19E2 PUSH2 0x3677 JUMP JUMPDEST PUSH2 0x19EC PUSH1 0x0 PUSH2 0x36CA JUMP JUMPDEST JUMP JUMPDEST PUSH2 0x19F9 DUP3 CALLER DUP4 PUSH2 0x33C5 JUMP JUMPDEST PUSH2 0x106D DUP3 DUP3 PUSH2 0x2E3B JUMP JUMPDEST PUSH20 0xFFFFFFFFFFFFFFFFFFFFFFFFFFFFFFFFFFFFFFFF DUP2 AND PUSH1 0x0 SWAP1 DUP2 MSTORE PUSH1 0x11 PUSH1 0x20 MSTORE PUSH1 0x40 DUP2 KECCAK256 SLOAD PUSH2 0xF51 JUMP JUMPDEST PUSH1 0x0 PUSH1 0x60 DUP1 PUSH1 0x0 DUP1 PUSH1 0x0 PUSH1 0x60 PUSH2 0x1A42 PUSH2 0x3741 JUMP JUMPDEST PUSH2 0x1A4A PUSH2 0x376E JUMP JUMPDEST PUSH1 0x40 DUP1 MLOAD PUSH1 0x0 DUP1 DUP3 MSTORE PUSH1 0x20 DUP3 ADD SWAP1 SWAP3 MSTORE PUSH32 0xF00000000000000000000000000000000000000000000000000000000000000 SWAP12 SWAP4 SWAP11 POP SWAP2 SWAP9 POP CHAINID SWAP8 POP ADDRESS SWAP7 POP SWAP5 POP SWAP3 POP SWAP1 POP JUMP JUMPDEST PUSH2 0x1B1A PUSH1 0x40 DUP1 MLOAD PUSH2 0x1A0 DUP2 ADD DUP3 MSTORE PUSH1 0x0 DUP1 DUP3 MSTORE PUSH1 0x20 DUP1 DUP4 ADD DUP3 SWAP1 MSTORE DUP3 DUP5 ADD DUP3 SWAP1 MSTORE PUSH1 0x60 DUP1 DUP5 ADD DUP4 SWAP1 MSTORE PUSH1 0x80 DUP1 DUP6 ADD DUP5 SWAP1 MSTORE PUSH1 0xA0 DUP6 ADD DUP5 SWAP1 MSTORE PUSH1 0xC0 DUP6 ADD DUP5 SWAP1 MSTORE PUSH1 0xE0 DUP6 ADD DUP5 SWAP1 MSTORE PUSH2 0x100 DUP6 ADD DUP5 SWAP1 MSTORE PUSH2 0x120 DUP6 ADD DUP5 SWAP1 MSTORE PUSH2 0x140 DUP6 ADD DUP5 SWAP1 MSTORE PUSH2 0x160 DUP6 ADD DUP5 SWAP1 MSTORE DUP6 MLOAD SWAP1 DUP2 ADD DUP7 MSTORE DUP4 DUP2 MSTORE SWAP2 DUP3 ADD DUP4 SWAP1 MSTORE SWAP4 DUP2 ADD DUP3 SWAP1 MSTORE SWAP3 DUP4 ADD MSTORE SWAP1 PUSH2 0x180 DUP3 ADD MSTORE SWAP1 JUMP JUMPDEST POP PUSH8 0xFFFFFFFFFFFFFFFF SWAP1 DUP2 AND PUSH1 0x0 SWAP1 DUP2 MSTORE PUSH1 0x7 PUSH1 0x20 SWAP1 DUP2 MSTORE PUSH1 0x40 SWAP2 DUP3 SWAP1 KECCAK256 DUP3 MLOAD PUSH2 0x1A0 DUP2 ADD DUP5 MSTORE DUP2 SLOAD PUSH12 0xFFFFFFFFFFFFFFFFFFFFFFFF DUP1 DUP3 AND DUP4 MSTORE PUSH13 0x1000000000000000000000000 DUP1 DUP4 DIV DUP3 AND DUP5 DUP8 ADD MSTORE PUSH25 0x1000000000000000000000000000000000000000000000000 SWAP3 DUP4 SWAP1 DIV DUP9 AND DUP5 DUP9 ADD MSTORE PUSH1 0x1 DUP6 ADD SLOAD DUP1 DUP4 AND PUSH1 0x60 DUP1 DUP8 ADD SWAP2 SWAP1 SWAP2 MSTORE DUP3 DUP3 DIV DUP5 AND PUSH1 0x80 DUP1 DUP9 ADD SWAP2 SWAP1 SWAP2 MSTORE SWAP2 DUP6 SWAP1 DIV DUP11 AND PUSH1 0xA0 DUP8 ADD MSTORE PUSH1 0x2 DUP8 ADD SLOAD DUP1 DUP6 AND PUSH1 0xC0 DUP9 ADD MSTORE SWAP3 DUP4 DIV DUP5 AND PUSH1 0xE0 DUP8 ADD MSTORE SWAP2 DUP5 SWAP1 DIV SWAP1 SWAP9 AND PUSH2 0x100 DUP6 ADD MSTORE PUSH1 0x3 DUP6 ADD SLOAD PUSH20 0xFFFFFFFFFFFFFFFFFFFFFFFFFFFFFFFFFFFFFFFF DUP2 AND PUSH2 0x120 DUP7 ADD MSTORE PUSH4 0xFFFFFFFF PUSH21 0x10000000000000000000000000000000000000000 DUP3 DIV DUP2 AND PUSH2 0x140 DUP8 ADD MSTORE SWAP4 SWAP1 DIV DUP4 AND PUSH2 0x160 DUP6 ADD MSTORE DUP7 MLOAD SWAP8 DUP9 ADD DUP8 MSTORE PUSH1 0x4 DUP6 ADD SLOAD SWAP3 DUP4 AND DUP9 MSTORE PUSH5 0x100000000 DUP4 DIV DUP3 AND SWAP6 DUP9 ADD SWAP6 SWAP1 SWAP6 MSTORE PUSH17 0x100000000000000000000000000000000 SWAP1 SWAP2 DIV DUP2 AND SWAP5 DUP7 ADD SWAP5 SWAP1 SWAP5 MSTORE PUSH1 0x5 SWAP1 SWAP2 ADD SLOAD SWAP1 SWAP3 AND SWAP1 DUP4 ADD MSTORE PUSH2 0x180 DUP2 ADD SWAP2 SWAP1 SWAP2 MSTORE SWAP1 JUMP JUMPDEST PUSH1 0x60 PUSH1 0xD DUP1 SLOAD PUSH2 0xEBA SWAP1 PUSH2 0x4E55 JUMP JUMPDEST PUSH1 0x0 CALLER PUSH2 0xF4B DUP2 DUP6 DUP6 PUSH2 0x3494 JUMP JUMPDEST PUSH2 0x1CAF PUSH2 0x3677 JUMP JUMPDEST PUSH20 0xFFFFFFFFFFFFFFFFFFFFFFFFFFFFFFFFFFFFFFFF DUP3 AND PUSH2 0x1CFC JUMPI PUSH1 0x40 MLOAD PUSH32 0xE6C4247B00000000000000000000000000000000000000000000000000000000 DUP2 MSTORE PUSH1 0x4 ADD PUSH1 0x40 MLOAD DUP1 SWAP2 SUB SWAP1 REVERT JUMPDEST PUSH1 0x40 DUP1 MLOAD CALLER DUP2 MSTORE PUSH20 0xFFFFFFFFFFFFFFFFFFFFFFFFFFFFFFFFFFFFFFFF DUP5 AND PUSH1 0x20 DUP3 ADD MSTORE PUSH1 0x0 DUP2 DUP4 ADD MSTORE PUSH1 0x60 DUP2 ADD DUP4 SWAP1 MSTORE SWAP1 MLOAD PUSH32 0x31A8092046A766D50C60467D927F8769A20162FD47024A64BB365AAC647EB0DF SWAP2 DUP2 SWAP1 SUB PUSH1 0x80 ADD SWAP1 LOG1 PUSH2 0x106D ADDRESS DUP4 DUP4 PUSH2 0x3494 JUMP JUMPDEST DUP4 TIMESTAMP GT ISZERO PUSH2 0x1DA0 JUMPI PUSH1 0x40 MLOAD PUSH32 0x6279130200000000000000000000000000000000000000000000000000000000 DUP2 MSTORE PUSH1 0x4 DUP2 ADD DUP6 SWAP1 MSTORE PUSH1 0x24 ADD PUSH2 0x8C7 JUMP JUMPDEST PUSH1 0x0 PUSH32 0x6E71EDAE12B1B97F4D1F60370FEF10105FA2FAAE0126114A169C64845D6126C9 DUP9 DUP9 DUP9 PUSH2 0x1DFA DUP13 PUSH20 0xFFFFFFFFFFFFFFFFFFFFFFFFFFFFFFFFFFFFFFFF AND PUSH1 0x0 SWAP1 DUP2 MSTORE PUSH1 0x11 PUSH1 0x20 MSTORE PUSH1 0x40 SWAP1 KECCAK256 DUP1 SLOAD PUSH1 0x1 DUP2 ADD SWAP1 SWAP2 SSTORE SWAP1 JUMP JUMPDEST PUSH1 0x40 DUP1 MLOAD PUSH1 0x20 DUP2 ADD SWAP7 SWAP1 SWAP7 MSTORE PUSH20 0xFFFFFFFFFFFFFFFFFFFFFFFFFFFFFFFFFFFFFFFF SWAP5 DUP6 AND SWAP1 DUP7 ADD MSTORE SWAP3 SWAP1 SWAP2 AND PUSH1 0x60 DUP5 ADD MSTORE PUSH1 0x80 DUP4 ADD MSTORE PUSH1 0xA0 DUP3 ADD MSTORE PUSH1 0xC0 DUP2 ADD DUP7 SWAP1 MSTORE PUSH1 0xE0 ADD PUSH1 0x40 MLOAD PUSH1 0x20 DUP2 DUP4 SUB SUB DUP2 MSTORE SWAP1 PUSH1 0x40 MSTORE DUP1 MLOAD SWAP1 PUSH1 0x20 ADD KECCAK256 SWAP1 POP PUSH1 0x0 PUSH2 0x1E62 DUP3 PUSH2 0x379B JUMP JUMPDEST SWAP1 POP PUSH1 0x0 PUSH2 0x1E72 DUP3 DUP8 DUP8 DUP8 PUSH2 0x37E3 JUMP JUMPDEST SWAP1 POP DUP10 PUSH20 0xFFFFFFFFFFFFFFFFFFFFFFFFFFFFFFFFFFFFFFFF AND DUP2 PUSH20 0xFFFFFFFFFFFFFFFFFFFFFFFFFFFFFFFFFFFFFFFF AND EQ PUSH2 0x1EF9 JUMPI PUSH1 0x40 MLOAD PUSH32 0x4B800E4600000000000000000000000000000000000000000000000000000000 DUP2 MSTORE PUSH20 0xFFFFFFFFFFFFFFFFFFFFFFFFFFFFFFFFFFFFFFFF DUP1 DUP4 AND PUSH1 0x4 DUP4 ADD MSTORE DUP12 AND PUSH1 0x24 DUP3 ADD MSTORE PUSH1 0x44 ADD PUSH2 0x8C7 JUMP JUMPDEST PUSH2 0x1F04 DUP11 DUP11 DUP11 PUSH2 0x33B8 JUMP JUMPDEST POP POP POP POP POP POP POP POP POP POP JUMP JUMPDEST PUSH8 0xFFFFFFFFFFFFFFFF DUP2 AND PUSH1 0x0 SWAP1 DUP2 MSTORE PUSH1 0x7 PUSH1 0x20 MSTORE PUSH1 0x40 SWAP1 KECCAK256 PUSH1 0x3 DUP2 ADD SLOAD PUSH20 0xFFFFFFFFFFFFFFFFFFFFFFFFFFFFFFFFFFFFFFFF AND CALLER PUSH20 0xFFFFFFFFFFFFFFFFFFFFFFFFFFFFFFFFFFFFFFFF AND EQ PUSH2 0x1FC6 JUMPI PUSH1 0x3 DUP2 ADD SLOAD PUSH1 0x40 MLOAD PUSH32 0x4ADF9ACD00000000000000000000000000000000000000000000000000000000 DUP2 MSTORE PUSH8 0xFFFFFFFFFFFFFFFF DUP5 AND PUSH1 0x4 DUP3 ADD MSTORE CALLER PUSH1 0x24 DUP3 ADD MSTORE PUSH20 0xFFFFFFFFFFFFFFFFFFFFFFFFFFFFFFFFFFFFFFFF SWAP1 SWAP2 AND PUSH1 0x44 DUP3 ADD MSTORE PUSH1 0x64 ADD PUSH2 0x8C7 JUMP JUMPDEST PUSH1 0x3 DUP2 ADD SLOAD PUSH4 0xFFFFFFFF PUSH25 0x1000000000000000000000000000000000000000000000000 SWAP1 SWAP2 DIV AND PUSH1 0x1 EQ PUSH2 0x2033 JUMPI PUSH1 0x40 MLOAD PUSH32 0x2BC45A4800000000000000000000000000000000000000000000000000000000 DUP2 MSTORE PUSH8 0xFFFFFFFFFFFFFFFF DUP4 AND PUSH1 0x4 DUP3 ADD MSTORE PUSH1 0x24 ADD PUSH2 0x8C7 JUMP JUMPDEST PUSH2 0x203C DUP2 PUSH2 0x3811 JUMP JUMPDEST PUSH2 0x207E JUMPI PUSH1 0x40 MLOAD PUSH32 0xA05DB59300000000000000000000000000000000000000000000000000000000 DUP2 MSTORE PUSH8 0xFFFFFFFFFFFFFFFF DUP4 AND PUSH1 0x4 DUP3 ADD MSTORE PUSH1 0x24 ADD PUSH2 0x8C7 JUMP JUMPDEST PUSH1 0x3 DUP2 DUP2 ADD DUP1 SLOAD PUSH32 0xFFFFFFFF00000000FFFFFFFFFFFFFFFFFFFFFFFFFFFFFFFFFFFFFFFFFFFFFFFF AND PUSH25 0x8000000000000000000000000000000000000000000000000 OR SWAP1 SSTORE DUP2 SLOAD DUP2 SLOAD PUSH12 0xFFFFFFFFFFFFFFFFFFFFFFFF SWAP1 SWAP2 AND SWAP2 SWAP1 PUSH1 0x0 SWAP1 PUSH2 0x20E8 SWAP1 DUP5 SWAP1 PUSH2 0x4ED7 JUMP JUMPDEST SWAP1 SWAP2 SSTORE POP POP DUP1 SLOAD PUSH1 0x5 DUP3 ADD DUP1 SLOAD PUSH32 0xFFFFFFFFFFFFFFFFFFFFFFFFFFFFFFFFFFFFFFFF000000000000000000000000 AND PUSH12 0xFFFFFFFFFFFFFFFFFFFFFFFF SWAP1 SWAP3 AND SWAP2 SWAP1 SWAP2 OR SWAP1 SSTORE PUSH8 0xFFFFFFFFFFFFFFFF DUP3 AND PUSH1 0x0 SWAP1 DUP2 MSTORE PUSH1 0x7 PUSH1 0x20 MSTORE PUSH1 0x40 SWAP1 KECCAK256 PUSH2 0x214F SWAP1 PUSH2 0x385E JUMP JUMPDEST PUSH1 0x3 DUP2 ADD SLOAD DUP2 SLOAD PUSH2 0x2184 SWAP2 PUSH20 0xFFFFFFFFFFFFFFFFFFFFFFFFFFFFFFFFFFFFFFFF AND SWAP1 PUSH12 0xFFFFFFFFFFFFFFFFFFFFFFFF AND PUSH2 0x397F JUMP JUMPDEST POP POP POP JUMP JUMPDEST DUP1 PUSH1 0x0 SUB PUSH2 0x2194 JUMPI POP JUMP JUMPDEST PUSH1 0x0 PUSH2 0x219F PUSH1 0xB SLOAD SWAP1 JUMP JUMPDEST DUP3 PUSH1 0x5 SLOAD PUSH2 0x21AD SWAP2 SWAP1 PUSH2 0x4F91 JUMP JUMPDEST PUSH2 0x21B7 SWAP2 SWAP1 PUSH2 0x4FD7 JUMP JUMPDEST PUSH1 0x1 SLOAD SWAP1 SWAP2 POP PUSH1 0x0 SWAP1 PUSH2 0x2216 SWAP1 PUSH2 0x21F9 SWAP1 PUSH5 0x100000000 SWAP1 DIV PUSH1 0xFF AND PUSH32 0x0 PUSH2 0x5012 JUMP JUMPDEST PUSH1 0x2 SLOAD PUSH2 0x2210 SWAP2 SWAP1 PUSH8 0xFFFFFFFFFFFFFFFF AND PUSH2 0x4F19 JUMP JUMPDEST DUP4 PUSH2 0x3AC2 JUMP JUMPDEST SWAP1 POP PUSH1 0x0 PUSH2 0x2224 DUP3 DUP5 PUSH2 0x4ED7 JUMP JUMPDEST SWAP1 POP PUSH32 0x76CD0CEDF979345CA241CE6DE696A520A8EFC860C6C10D9DB2A7953307C237FC CALLER PUSH1 0x40 DUP1 MLOAD PUSH20 0xFFFFFFFFFFFFFFFFFFFFFFFFFFFFFFFFFFFFFFFF SWAP1 SWAP3 AND DUP3 MSTORE PUSH1 0x20 DUP3 ADD DUP8 SWAP1 MSTORE DUP2 ADD DUP6 SWAP1 MSTORE PUSH1 0x60 DUP2 ADD DUP5 SWAP1 MSTORE PUSH1 0x80 DUP2 ADD DUP4 SWAP1 MSTORE PUSH1 0xA0 ADD PUSH1 0x40 MLOAD DUP1 SWAP2 SUB SWAP1 LOG1 DUP1 PUSH1 0x5 PUSH1 0x0 DUP3 DUP3 SLOAD PUSH2 0x229D SWAP2 SWAP1 PUSH2 0x4ED7 JUMP JUMPDEST SWAP1 SWAP2 SSTORE POP PUSH2 0x22AD SWAP1 POP CALLER DUP6 PUSH2 0x2E3B JUMP JUMPDEST PUSH1 0x40 MLOAD PUSH1 0x0 SWAP1 CALLER SWAP1 DUP4 SWAP1 DUP4 DUP2 DUP2 DUP2 DUP6 DUP8 GAS CALL SWAP3 POP POP POP RETURNDATASIZE DUP1 PUSH1 0x0 DUP2 EQ PUSH2 0x22EF JUMPI PUSH1 0x40 MLOAD SWAP2 POP PUSH1 0x1F NOT PUSH1 0x3F RETURNDATASIZE ADD AND DUP3 ADD PUSH1 0x40 MSTORE RETURNDATASIZE DUP3 MSTORE RETURNDATASIZE PUSH1 0x0 PUSH1 0x20 DUP5 ADD RETURNDATACOPY PUSH2 0x22F4 JUMP JUMPDEST PUSH1 0x60 SWAP2 POP JUMPDEST POP POP SWAP1 POP DUP1 PUSH2 0x233D JUMPI PUSH1 0x5 SLOAD PUSH1 0x40 MLOAD PUSH32 0xCF47918100000000000000000000000000000000000000000000000000000000 DUP2 MSTORE PUSH1 0x4 DUP2 ADD SWAP2 SWAP1 SWAP2 MSTORE PUSH1 0x24 DUP2 ADD DUP4 SWAP1 MSTORE PUSH1 0x44 ADD PUSH2 0x8C7 JUMP JUMPDEST POP POP POP POP POP JUMP JUMPDEST PUSH20 0xFFFFFFFFFFFFFFFFFFFFFFFFFFFFFFFFFFFFFFFF DUP5 AND PUSH1 0x0 SWAP1 DUP2 MSTORE PUSH1 0x8 PUSH1 0x20 MSTORE PUSH1 0x40 DUP2 KECCAK256 SLOAD PUSH1 0x60 SWAP2 PUSH8 0xFFFFFFFFFFFFFFFF DUP7 AND DUP3 GT PUSH2 0x243B JUMPI PUSH1 0x40 DUP1 MLOAD PUSH1 0x0 DUP1 DUP3 MSTORE PUSH1 0x20 DUP3 ADD SWAP1 SWAP3 MSTORE SWAP1 PUSH2 0x2431 JUMP JUMPDEST PUSH2 0x241E PUSH1 0x40 DUP1 MLOAD PUSH2 0x1A0 DUP2 ADD DUP3 MSTORE PUSH1 0x0 DUP1 DUP3 MSTORE PUSH1 0x20 DUP1 DUP4 ADD DUP3 SWAP1 MSTORE DUP3 DUP5 ADD DUP3 SWAP1 MSTORE PUSH1 0x60 DUP1 DUP5 ADD DUP4 SWAP1 MSTORE PUSH1 0x80 DUP1 DUP6 ADD DUP5 SWAP1 MSTORE PUSH1 0xA0 DUP6 ADD DUP5 SWAP1 MSTORE PUSH1 0xC0 DUP6 ADD DUP5 SWAP1 MSTORE PUSH1 0xE0 DUP6 ADD DUP5 SWAP1 MSTORE PUSH2 0x100 DUP6 ADD DUP5 SWAP1 MSTORE PUSH2 0x120 DUP6 ADD DUP5 SWAP1 MSTORE PUSH2 0x140 DUP6 ADD DUP5 SWAP1 MSTORE PUSH2 0x160 DUP6 ADD DUP5 SWAP1 MSTORE DUP6 MLOAD SWAP1 DUP2 ADD DUP7 MSTORE DUP4 DUP2 MSTORE SWAP2 DUP3 ADD DUP4 SWAP1 MSTORE SWAP4 DUP2 ADD DUP3 SWAP1 MSTORE SWAP3 DUP4 ADD MSTORE SWAP1 PUSH2 0x180 DUP3 ADD MSTORE SWAP1 JUMP JUMPDEST DUP2 MSTORE PUSH1 0x20 ADD SWAP1 PUSH1 0x1 SWAP1 SUB SWAP1 DUP2 PUSH2 0x2394 JUMPI SWAP1 POP JUMPDEST POP SWAP3 POP POP POP PUSH2 0x2920 JUMP JUMPDEST DUP2 PUSH2 0x2446 DUP7 DUP9 PUSH2 0x4F19 JUMP JUMPDEST PUSH8 0xFFFFFFFFFFFFFFFF AND GT ISZERO PUSH2 0x245D JUMPI POP DUP1 PUSH2 0x2474 JUMP JUMPDEST PUSH2 0x2467 DUP6 DUP8 PUSH2 0x4F19 JUMP JUMPDEST PUSH8 0xFFFFFFFFFFFFFFFF AND SWAP1 POP JUMPDEST PUSH2 0x2488 PUSH8 0xFFFFFFFFFFFFFFFF DUP8 AND DUP3 PUSH2 0x4ED7 JUMP JUMPDEST PUSH8 0xFFFFFFFFFFFFFFFF DUP2 GT ISZERO PUSH2 0x24A0 JUMPI PUSH2 0x24A0 PUSH2 0x4EEA JUMP JUMPDEST PUSH1 0x40 MLOAD SWAP1 DUP1 DUP3 MSTORE DUP1 PUSH1 0x20 MUL PUSH1 0x20 ADD DUP3 ADD PUSH1 0x40 MSTORE DUP1 ISZERO PUSH2 0x255B JUMPI DUP2 PUSH1 0x20 ADD JUMPDEST PUSH2 0x2548 PUSH1 0x40 DUP1 MLOAD PUSH2 0x1A0 DUP2 ADD DUP3 MSTORE PUSH1 0x0 DUP1 DUP3 MSTORE PUSH1 0x20 DUP1 DUP4 ADD DUP3 SWAP1 MSTORE DUP3 DUP5 ADD DUP3 SWAP1 MSTORE PUSH1 0x60 DUP1 DUP5 ADD DUP4 SWAP1 MSTORE PUSH1 0x80 DUP1 DUP6 ADD DUP5 SWAP1 MSTORE PUSH1 0xA0 DUP6 ADD DUP5 SWAP1 MSTORE PUSH1 0xC0 DUP6 ADD DUP5 SWAP1 MSTORE PUSH1 0xE0 DUP6 ADD DUP5 SWAP1 MSTORE PUSH2 0x100 DUP6 ADD DUP5 SWAP1 MSTORE PUSH2 0x120 DUP6 ADD DUP5 SWAP1 MSTORE PUSH2 0x140 DUP6 ADD DUP5 SWAP1 MSTORE PUSH2 0x160 DUP6 ADD DUP5 SWAP1 MSTORE DUP6 MLOAD SWAP1 DUP2 ADD DUP7 MSTORE DUP4 DUP2 MSTORE SWAP2 DUP3 ADD DUP4 SWAP1 MSTORE SWAP4 DUP2 ADD DUP3 SWAP1 MSTORE SWAP3 DUP4 ADD MSTORE SWAP1 PUSH2 0x180 DUP3 ADD MSTORE SWAP1 JUMP JUMPDEST DUP2 MSTORE PUSH1 0x20 ADD SWAP1 PUSH1 0x1 SWAP1 SUB SWAP1 DUP2 PUSH2 0x24BE JUMPI SWAP1 POP JUMPDEST POP SWAP3 POP DUP4 ISZERO PUSH2 0x273E JUMPI DUP6 JUMPDEST DUP2 DUP2 PUSH8 0xFFFFFFFFFFFFFFFF AND LT ISZERO PUSH2 0x2738 JUMPI PUSH1 0x0 PUSH2 0x2585 DUP3 PUSH1 0x1 PUSH2 0x4F19 JUMP JUMPDEST PUSH8 0xFFFFFFFFFFFFFFFF DUP1 DUP3 AND PUSH1 0x0 SWAP1 DUP2 MSTORE PUSH1 0x7 PUSH1 0x20 SWAP1 DUP2 MSTORE PUSH1 0x40 SWAP2 DUP3 SWAP1 KECCAK256 DUP3 MLOAD PUSH2 0x1A0 DUP2 ADD DUP5 MSTORE DUP2 SLOAD PUSH12 0xFFFFFFFFFFFFFFFFFFFFFFFF DUP1 DUP3 AND DUP4 MSTORE PUSH13 0x1000000000000000000000000 DUP1 DUP4 DIV DUP3 AND DUP5 DUP8 ADD MSTORE PUSH25 0x1000000000000000000000000000000000000000000000000 SWAP3 DUP4 SWAP1 DIV DUP9 AND DUP5 DUP9 ADD MSTORE PUSH1 0x1 DUP6 ADD SLOAD DUP1 DUP4 AND PUSH1 0x60 DUP1 DUP8 ADD SWAP2 SWAP1 SWAP2 MSTORE DUP3 DUP3 DIV DUP5 AND PUSH1 0x80 DUP1 DUP9 ADD SWAP2 SWAP1 SWAP2 MSTORE SWAP2 DUP6 SWAP1 DIV DUP11 AND PUSH1 0xA0 DUP8 ADD MSTORE PUSH1 0x2 DUP8 ADD SLOAD DUP1 DUP6 AND PUSH1 0xC0 DUP9 ADD MSTORE SWAP3 DUP4 DIV DUP5 AND PUSH1 0xE0 DUP8 ADD MSTORE SWAP2 DUP5 SWAP1 DIV SWAP1 SWAP9 AND PUSH2 0x100 DUP6 ADD MSTORE PUSH1 0x3 DUP6 ADD SLOAD PUSH20 0xFFFFFFFFFFFFFFFFFFFFFFFFFFFFFFFFFFFFFFFF DUP2 AND PUSH2 0x120 DUP7 ADD MSTORE PUSH4 0xFFFFFFFF PUSH21 0x10000000000000000000000000000000000000000 DUP3 DIV DUP2 AND PUSH2 0x140 DUP8 ADD MSTORE SWAP4 SWAP1 DIV DUP4 AND PUSH2 0x160 DUP6 ADD MSTORE DUP7 MLOAD SWAP8 DUP9 ADD DUP8 MSTORE PUSH1 0x4 DUP6 ADD SLOAD SWAP3 DUP4 AND DUP9 MSTORE PUSH5 0x100000000 DUP4 DIV DUP3 AND SWAP6 DUP9 ADD SWAP6 SWAP1 SWAP6 MSTORE PUSH17 0x100000000000000000000000000000000 SWAP1 SWAP2 DIV DUP2 AND SWAP5 DUP7 ADD SWAP5 SWAP1 SWAP5 MSTORE PUSH1 0x5 SWAP1 SWAP2 ADD SLOAD SWAP1 SWAP3 AND SWAP1 DUP4 ADD MSTORE PUSH2 0x180 DUP2 ADD SWAP2 SWAP1 SWAP2 MSTORE SWAP1 SWAP2 POP DUP6 PUSH2 0x26FF DUP11 DUP6 PUSH2 0x4F41 JUMP JUMPDEST PUSH8 0xFFFFFFFFFFFFFFFF AND DUP2 MLOAD DUP2 LT PUSH2 0x2719 JUMPI PUSH2 0x2719 PUSH2 0x4F62 JUMP JUMPDEST PUSH1 0x20 MUL PUSH1 0x20 ADD ADD DUP2 SWAP1 MSTORE POP POP DUP1 DUP1 PUSH2 0x2730 SWAP1 PUSH2 0x503E JUMP JUMPDEST SWAP2 POP POP PUSH2 0x2566 JUMP JUMPDEST POP PUSH2 0x291D JUMP JUMPDEST DUP6 JUMPDEST DUP2 DUP2 PUSH8 0xFFFFFFFFFFFFFFFF AND LT ISZERO PUSH2 0x291B JUMPI PUSH1 0x0 PUSH2 0x2768 PUSH8 0xFFFFFFFFFFFFFFFF DUP4 AND DUP6 PUSH2 0x4ED7 JUMP JUMPDEST PUSH8 0xFFFFFFFFFFFFFFFF DUP1 DUP3 AND PUSH1 0x0 SWAP1 DUP2 MSTORE PUSH1 0x7 PUSH1 0x20 SWAP1 DUP2 MSTORE PUSH1 0x40 SWAP2 DUP3 SWAP1 KECCAK256 DUP3 MLOAD PUSH2 0x1A0 DUP2 ADD DUP5 MSTORE DUP2 SLOAD PUSH12 0xFFFFFFFFFFFFFFFFFFFFFFFF DUP1 DUP3 AND DUP4 MSTORE PUSH13 0x1000000000000000000000000 DUP1 DUP4 DIV DUP3 AND DUP5 DUP8 ADD MSTORE PUSH25 0x1000000000000000000000000000000000000000000000000 SWAP3 DUP4 SWAP1 DIV DUP9 AND DUP5 DUP9 ADD MSTORE PUSH1 0x1 DUP6 ADD SLOAD DUP1 DUP4 AND PUSH1 0x60 DUP1 DUP8 ADD SWAP2 SWAP1 SWAP2 MSTORE DUP3 DUP3 DIV DUP5 AND PUSH1 0x80 DUP1 DUP9 ADD SWAP2 SWAP1 SWAP2 MSTORE SWAP2 DUP6 SWAP1 DIV DUP11 AND PUSH1 0xA0 DUP8 ADD MSTORE PUSH1 0x2 DUP8 ADD SLOAD DUP1 DUP6 AND PUSH1 0xC0 DUP9 ADD MSTORE SWAP3 DUP4 DIV DUP5 AND PUSH1 0xE0 DUP8 ADD MSTORE SWAP2 DUP5 SWAP1 DIV SWAP1 SWAP9 AND PUSH2 0x100 DUP6 ADD MSTORE PUSH1 0x3 DUP6 ADD SLOAD PUSH20 0xFFFFFFFFFFFFFFFFFFFFFFFFFFFFFFFFFFFFFFFF DUP2 AND PUSH2 0x120 DUP7 ADD MSTORE PUSH4 0xFFFFFFFF PUSH21 0x10000000000000000000000000000000000000000 DUP3 DIV DUP2 AND PUSH2 0x140 DUP8 ADD MSTORE SWAP4 SWAP1 DIV DUP4 AND PUSH2 0x160 DUP6 ADD MSTORE DUP7 MLOAD SWAP8 DUP9 ADD DUP8 MSTORE PUSH1 0x4 DUP6 ADD SLOAD SWAP3 DUP4 AND DUP9 MSTORE PUSH5 0x100000000 DUP4 DIV DUP3 AND SWAP6 DUP9 ADD SWAP6 SWAP1 SWAP6 MSTORE PUSH17 0x100000000000000000000000000000000 SWAP1 SWAP2 DIV DUP2 AND SWAP5 DUP7 ADD SWAP5 SWAP1 SWAP5 MSTORE PUSH1 0x5 SWAP1 SWAP2 ADD SLOAD SWAP1 SWAP3 AND SWAP1 DUP4 ADD MSTORE PUSH2 0x180 DUP2 ADD SWAP2 SWAP1 SWAP2 MSTORE SWAP1 SWAP2 POP DUP6 PUSH2 0x28E2 DUP11 DUP6 PUSH2 0x4F41 JUMP JUMPDEST PUSH8 0xFFFFFFFFFFFFFFFF AND DUP2 MLOAD DUP2 LT PUSH2 0x28FC JUMPI PUSH2 0x28FC PUSH2 0x4F62 JUMP JUMPDEST PUSH1 0x20 MUL PUSH1 0x20 ADD ADD DUP2 SWAP1 MSTORE POP POP DUP1 DUP1 PUSH2 0x2913 SWAP1 PUSH2 0x503E JUMP JUMPDEST SWAP2 POP POP PUSH2 0x2740 JUMP JUMPDEST POP JUMPDEST POP POP JUMPDEST SWAP5 SWAP4 POP POP POP POP JUMP JUMPDEST PUSH2 0x2930 PUSH2 0x3677 JUMP JUMPDEST PUSH20 0xFFFFFFFFFFFFFFFFFFFFFFFFFFFFFFFFFFFFFFFF DUP2 AND PUSH2 0x2980 JUMPI PUSH1 0x40 MLOAD PUSH32 0x1E4FBDF700000000000000000000000000000000000000000000000000000000 DUP2 MSTORE PUSH1 0x0 PUSH1 0x4 DUP3 ADD MSTORE PUSH1 0x24 ADD PUSH2 0x8C7 JUMP JUMPDEST PUSH2 0x134E DUP2 PUSH2 0x36CA JUMP JUMPDEST PUSH2 0x2991 PUSH2 0x3677 JUMP JUMPDEST PUSH8 0x2C68AF0BB140000 PUSH8 0xFFFFFFFFFFFFFFFF DUP5 AND GT ISZERO PUSH2 0x2A0D JUMPI PUSH1 0x40 MLOAD PUSH32 0x8C379A000000000000000000000000000000000000000000000000000000000 DUP2 MSTORE PUSH1 0x20 PUSH1 0x4 DUP3 ADD MSTORE PUSH1 0x1 PUSH1 0x24 DUP3 ADD MSTORE PUSH32 0x3100000000000000000000000000000000000000000000000000000000000000 PUSH1 0x44 DUP3 ADD MSTORE PUSH1 0x64 ADD PUSH2 0x8C7 JUMP JUMPDEST PUSH7 0x11C37937E08000 PUSH8 0xFFFFFFFFFFFFFFFF DUP5 AND LT ISZERO PUSH2 0x2A88 JUMPI PUSH1 0x40 MLOAD PUSH32 0x8C379A000000000000000000000000000000000000000000000000000000000 DUP2 MSTORE PUSH1 0x20 PUSH1 0x4 DUP3 ADD MSTORE PUSH1 0x1 PUSH1 0x24 DUP3 ADD MSTORE PUSH32 0x3200000000000000000000000000000000000000000000000000000000000000 PUSH1 0x44 DUP3 ADD MSTORE PUSH1 0x64 ADD PUSH2 0x8C7 JUMP JUMPDEST PUSH1 0x1 SLOAD PUSH1 0xFF PUSH5 0x100000000 SWAP1 SWAP2 DIV DUP2 AND SWAP1 DUP3 AND LT ISZERO PUSH2 0x2B03 JUMPI PUSH1 0x40 MLOAD PUSH32 0x8C379A000000000000000000000000000000000000000000000000000000000 DUP2 MSTORE PUSH1 0x20 PUSH1 0x4 DUP3 ADD MSTORE PUSH1 0x1 PUSH1 0x24 DUP3 ADD MSTORE PUSH32 0x3300000000000000000000000000000000000000000000000000000000000000 PUSH1 0x44 DUP3 ADD MSTORE PUSH1 0x64 ADD PUSH2 0x8C7 JUMP JUMPDEST PUSH1 0x0 DUP1 SLOAD PUSH12 0xFFFFFFFFFFFFFFFFFFFFFFFF DUP8 DUP2 AND PUSH32 0xFFFFFFFFFFFFFFFF000000000000000000000000000000000000000000000000 SWAP1 SWAP3 AND SWAP2 SWAP1 SWAP2 OR PUSH13 0x1000000000000000000000000 SWAP2 DUP8 AND SWAP2 SWAP1 SWAP2 MUL OR PUSH24 0xFFFFFFFFFFFFFFFFFFFFFFFFFFFFFFFFFFFFFFFFFFFFFFFF AND PUSH25 0x1000000000000000000000000000000000000000000000000 PUSH8 0xFFFFFFFFFFFFFFFF DUP7 AND MUL OR SWAP1 SSTORE PUSH1 0x1 DUP1 SLOAD PUSH4 0xFFFFFFFF DUP5 AND PUSH32 0xFFFFFFFFFFFFFFFFFFFFFFFFFFFFFFFFFFFFFFFFFFFFFFFFFFFFFF0000000000 SWAP1 SWAP2 AND OR PUSH5 0x100000000 PUSH1 0xFF DUP5 AND MUL OR SWAP1 SSTORE PUSH32 0x1E18870FA6DCB675BBB26E264AEB27803736955E55186EBA839862691393D94D CALLER PUSH1 0x0 SLOAD PUSH1 0x1 SLOAD PUSH1 0x40 DUP1 MLOAD PUSH20 0xFFFFFFFFFFFFFFFFFFFFFFFFFFFFFFFFFFFFFFFF SWAP1 SWAP5 AND DUP5 MSTORE PUSH8 0xFFFFFFFFFFFFFFFF PUSH32 0x0 DUP2 AND PUSH1 0x20 DUP7 ADD MSTORE PUSH12 0xFFFFFFFFFFFFFFFFFFFFFFFF PUSH32 0x0 DUP2 AND SWAP3 DUP7 ADD SWAP3 SWAP1 SWAP3 MSTORE DUP2 DUP5 AND PUSH1 0x60 DUP7 ADD MSTORE PUSH13 0x1000000000000000000000000 DUP5 DIV SWAP1 SWAP2 AND PUSH1 0x80 DUP6 ADD MSTORE PUSH25 0x1000000000000000000000000000000000000000000000000 SWAP1 SWAP3 DIV SWAP1 SWAP2 AND PUSH1 0xA0 DUP4 ADD MSTORE PUSH4 0xFFFFFFFF DUP2 AND PUSH1 0xC0 DUP4 ADD MSTORE PUSH5 0x100000000 SWAP1 DIV PUSH1 0xFF AND PUSH1 0xE0 DUP3 ADD MSTORE PUSH2 0x100 ADD PUSH1 0x40 MLOAD DUP1 SWAP2 SUB SWAP1 LOG1 POP POP POP POP POP JUMP JUMPDEST PUSH1 0x0 DUP1 PUSH2 0x2D04 CALLVALUE PUSH2 0x879 JUMP JUMPDEST PUSH1 0x0 SLOAD SWAP1 SWAP2 POP PUSH12 0xFFFFFFFFFFFFFFFFFFFFFFFF SWAP1 DUP2 AND SWAP1 DUP5 AND LT PUSH2 0x2D3A JUMPI PUSH1 0x0 SLOAD PUSH12 0xFFFFFFFFFFFFFFFFFFFFFFFF AND SWAP2 POP PUSH2 0x2D3E JUMP JUMPDEST DUP3 SWAP2 POP JUMPDEST PUSH1 0x0 DUP3 PUSH12 0xFFFFFFFFFFFFFFFFFFFFFFFF AND DUP3 PUSH12 0xFFFFFFFFFFFFFFFFFFFFFFFF AND LT ISZERO PUSH2 0x2D6F JUMPI POP SWAP1 POP DUP1 PUSH1 0x0 PUSH2 0x2D7C JUMP JUMPDEST PUSH2 0x2D79 DUP4 DUP4 PUSH2 0x5065 JUMP JUMPDEST SWAP1 POP JUMPDEST PUSH2 0x233D CALLER DUP3 DUP6 DUP9 PUSH2 0x8D4 JUMP JUMPDEST PUSH1 0x60 PUSH2 0x2920 CALLER DUP6 DUP6 DUP6 PUSH2 0x2344 JUMP JUMPDEST PUSH1 0x0 PUSH9 0x3635C9ADC5DEA00000 PUSH12 0xFFFFFFFFFFFFFFFFFFFFFFFF DUP4 AND GT PUSH2 0x2DBE JUMPI POP PUSH1 0x0 PUSH2 0xF51 JUMP JUMPDEST PUSH1 0x5 SLOAD PUSH1 0x0 SUB PUSH2 0x2DD3 JUMPI PUSH1 0xB SLOAD JUMPDEST SWAP1 POP PUSH2 0xF51 JUMP JUMPDEST PUSH10 0xDE0B6B3A76400000000 PUSH1 0x5 SLOAD PUSH2 0x2DEB SWAP2 SWAP1 PUSH2 0x4F91 JUMP JUMPDEST PUSH1 0xB SLOAD PUSH2 0x2E0F PUSH9 0x3635C9ADC5DEA00000 PUSH12 0xFFFFFFFFFFFFFFFFFFFFFFFF DUP7 AND PUSH2 0x4ED7 JUMP JUMPDEST PUSH2 0x2E27 SWAP1 PUSH12 0xFFFFFFFFFFFFFFFFFFFFFFFF DUP8 AND PUSH2 0x4F91 JUMP JUMPDEST PUSH2 0x2E31 SWAP2 SWAP1 PUSH2 0x4F91 JUMP JUMPDEST PUSH2 0x1112 SWAP2 SWAP1 PUSH2 0x4FD7 JUMP JUMPDEST PUSH20 0xFFFFFFFFFFFFFFFFFFFFFFFFFFFFFFFFFFFFFFFF DUP3 AND PUSH2 0x2E8B JUMPI PUSH1 0x40 MLOAD PUSH32 0x96C6FD1E00000000000000000000000000000000000000000000000000000000 DUP2 MSTORE PUSH1 0x0 PUSH1 0x4 DUP3 ADD MSTORE PUSH1 0x24 ADD PUSH2 0x8C7 JUMP JUMPDEST PUSH2 0x106D DUP3 PUSH1 0x0 DUP4 PUSH2 0x3B21 JUMP JUMPDEST PUSH1 0x0 DUP1 PUSH2 0x2EA4 DUP6 DUP6 PUSH2 0x3CCC JUMP JUMPDEST SWAP1 POP DUP1 DUP6 GT PUSH2 0x2EB7 JUMPI PUSH1 0x0 SWAP2 POP POP PUSH2 0x1112 JUMP JUMPDEST PUSH10 0xDE0B6B3A76400000000 DUP4 GT ISZERO PUSH2 0x2ED3 JUMPI PUSH1 0x0 SWAP2 POP POP PUSH2 0x1112 JUMP JUMPDEST DUP3 PUSH1 0x0 SUB PUSH2 0x2EE7 JUMPI PUSH3 0x10000 SWAP2 POP POP PUSH2 0x1112 JUMP JUMPDEST DUP1 DUP6 SUB PUSH1 0x0 DUP5 DUP8 MUL PUSH10 0xDE0B6B3A76400000000 DUP4 MUL DUP2 PUSH2 0x2F09 JUMPI PUSH2 0x2F09 PUSH2 0x4FA8 JUMP JUMPDEST DIV SWAP1 POP PUSH3 0x10000 DUP2 GT ISZERO PUSH2 0x2F25 JUMPI PUSH3 0x10000 SWAP4 POP POP POP POP PUSH2 0x1112 JUMP JUMPDEST SWAP7 SWAP6 POP POP POP POP POP POP JUMP JUMPDEST PUSH1 0x3 DUP2 ADD DUP1 SLOAD PUSH32 0xFFFFFFFF00000000FFFFFFFFFFFFFFFFFFFFFFFFFFFFFFFFFFFFFFFFFFFFFFFF AND PUSH25 0x4000000000000000000000000000000000000000000000000 OR SWAP1 SSTORE DUP1 SLOAD PUSH1 0x1 DUP3 ADD SLOAD PUSH1 0x2 DUP4 ADD SLOAD PUSH8 0xDE0B6B3A7640000 PUSH12 0xFFFFFFFFFFFFFFFFFFFFFFFF DUP1 DUP6 AND PUSH8 0xFFFFFFFFFFFFFFFF PUSH25 0x1000000000000000000000000000000000000000000000000 SWAP1 SWAP6 DIV SWAP5 SWAP1 SWAP5 AND DUP5 MUL SWAP2 SWAP1 SWAP2 DIV PUSH13 0x1000000000000000000000000 SWAP3 DUP4 SWAP1 DIV DUP3 AND SWAP3 SWAP1 SWAP5 DIV AND ADD SWAP2 SWAP1 SWAP2 ADD SWAP1 DUP2 GT PUSH2 0x30EC JUMPI PUSH1 0x2 DUP3 ADD SLOAD PUSH1 0x0 SWAP1 PUSH2 0x3070 SWAP1 PUSH25 0x1000000000000000000000000000000000000000000000000 SWAP1 DIV PUSH8 0xFFFFFFFFFFFFFFFF AND PUSH8 0xDE0B6B3A7640000 PUSH2 0x3061 PUSH32 0x0 PUSH12 0xFFFFFFFFFFFFFFFFFFFFFFFF AND DUP7 PUSH2 0x4F91 JUMP JUMPDEST PUSH2 0x306B SWAP2 SWAP1 PUSH2 0x4FD7 JUMP JUMPDEST PUSH2 0x3AC2 JUMP JUMPDEST PUSH1 0x4 DUP5 ADD DUP1 SLOAD PUSH32 0xFFFFFFFF000000000000000000000000FFFFFFFFFFFFFFFFFFFFFFFFFFFFFFFF AND PUSH17 0x100000000000000000000000000000000 PUSH12 0xFFFFFFFFFFFFFFFFFFFFFFFF DUP5 AND MUL OR SWAP1 SSTORE SWAP1 POP DUP1 ISZERO PUSH2 0x30EA JUMPI PUSH1 0x3 DUP4 ADD SLOAD PUSH2 0x30EA SWAP1 PUSH20 0xFFFFFFFFFFFFFFFFFFFFFFFFFFFFFFFFFFFFFFFF AND DUP3 PUSH2 0x3D69 JUMP JUMPDEST POP JUMPDEST PUSH2 0x106D DUP3 PUSH2 0x385E JUMP JUMPDEST PUSH1 0x0 SLOAD PUSH12 0xFFFFFFFFFFFFFFFFFFFFFFFF DUP1 DUP4 AND SWAP2 AND GT PUSH2 0x318B JUMPI PUSH1 0x4 DUP1 SLOAD PUSH12 0xFFFFFFFFFFFFFFFFFFFFFFFF DUP4 DUP2 AND SWAP2 DUP3 ADD SWAP1 SWAP3 SSTORE PUSH1 0x0 DUP1 SLOAD PUSH1 0x40 DUP1 MLOAD PUSH8 0xFFFFFFFFFFFFFFFF DUP9 AND DUP2 MSTORE SWAP2 SWAP1 SWAP5 AND PUSH1 0x20 DUP3 ADD MSTORE SWAP3 DUP4 ADD SWAP2 SWAP1 SWAP2 MSTORE PUSH1 0x60 DUP3 ADD DUP2 SWAP1 MSTORE PUSH1 0x80 DUP3 ADD MSTORE PUSH32 0xC90468505EB2131F45874A6543CC8F26CDCF8665051CF5307268576B7D543B41 SWAP1 PUSH1 0xA0 ADD PUSH1 0x40 MLOAD DUP1 SWAP2 SUB SWAP1 LOG1 POP POP JUMP JUMPDEST PUSH1 0x0 SLOAD PUSH1 0x5 SLOAD PUSH12 0xFFFFFFFFFFFFFFFFFFFFFFFF SWAP2 DUP3 AND DUP4 SWAP1 SUB SWAP2 DUP3 AND LT ISZERO PUSH2 0x3236 JUMPI PUSH1 0x5 DUP1 SLOAD PUSH12 0xFFFFFFFFFFFFFFFFFFFFFFFF DUP4 DUP2 AND SWAP2 DUP3 SWAP1 SUB SWAP1 SWAP3 SSTORE PUSH1 0x4 DUP1 SLOAD DUP6 DUP6 ADD DUP5 AND ADD SWAP1 SSTORE PUSH1 0x0 DUP1 SLOAD PUSH1 0x40 DUP1 MLOAD PUSH8 0xFFFFFFFFFFFFFFFF DUP10 AND DUP2 MSTORE SWAP2 DUP6 AND PUSH1 0x20 DUP4 ADD MSTORE SWAP4 DUP7 AND DUP2 DUP6 ADD MSTORE PUSH1 0x60 DUP2 ADD SWAP3 SWAP1 SWAP3 MSTORE PUSH1 0x80 DUP3 ADD MSTORE SWAP1 MLOAD PUSH32 0xC90468505EB2131F45874A6543CC8F26CDCF8665051CF5307268576B7D543B41 SWAP2 DUP2 SWAP1 SUB PUSH1 0xA0 ADD SWAP1 LOG1 POP POP POP JUMP JUMPDEST PUSH1 0x0 DUP3 PUSH12 0xFFFFFFFFFFFFFFFFFFFFFFFF AND PUSH1 0x0 SUB PUSH2 0x3271 JUMPI PUSH1 0x0 SLOAD PUSH2 0x326A SWAP1 DUP6 SWAP1 PUSH12 0xFFFFFFFFFFFFFFFFFFFFFFFF AND PUSH2 0x3DC5 JUMP JUMPDEST SWAP1 POP PUSH2 0x329B JUMP JUMPDEST PUSH1 0x4 DUP1 SLOAD PUSH12 0xFFFFFFFFFFFFFFFFFFFFFFFF DUP6 DUP2 AND SWAP1 SWAP2 ADD SWAP1 SWAP2 SSTORE PUSH2 0x3298 SWAP1 DUP6 SWAP1 DUP5 AND PUSH2 0x3DC5 JUMP JUMPDEST SWAP1 POP JUMPDEST PUSH1 0x0 SLOAD PUSH1 0x40 DUP1 MLOAD PUSH8 0xFFFFFFFFFFFFFFFF DUP8 AND DUP2 MSTORE PUSH12 0xFFFFFFFFFFFFFFFFFFFFFFFF SWAP3 DUP4 AND PUSH1 0x20 DUP3 ADD MSTORE DUP6 DUP4 AND DUP2 DUP4 ADD MSTORE SWAP2 DUP5 AND PUSH1 0x60 DUP4 ADD MSTORE PUSH1 0x80 DUP3 ADD DUP4 SWAP1 MSTORE MLOAD PUSH32 0xC90468505EB2131F45874A6543CC8F26CDCF8665051CF5307268576B7D543B41 SWAP2 DUP2 SWAP1 SUB PUSH1 0xA0 ADD SWAP1 LOG1 POP POP POP POP JUMP JUMPDEST CALLER ORIGIN EQ PUSH2 0x3317 JUMPI PUSH1 0x0 DUP1 REVERT JUMPDEST PUSH1 0x12 SLOAD PUSH1 0x40 DUP1 MLOAD PUSH32 0x3B3DCA7600000000000000000000000000000000000000000000000000000000 DUP2 MSTORE SWAP1 MLOAD PUSH1 0x0 SWAP3 PUSH20 0xFFFFFFFFFFFFFFFFFFFFFFFFFFFFFFFFFFFFFFFF AND SWAP2 PUSH4 0x3B3DCA76 SWAP2 PUSH1 0x4 DUP1 DUP4 ADD SWAP3 PUSH1 0x20 SWAP3 SWAP2 SWAP1 DUP3 SWAP1 SUB ADD DUP2 DUP8 DUP8 GAS CALL ISZERO DUP1 ISZERO PUSH2 0x3388 JUMPI RETURNDATASIZE PUSH1 0x0 DUP1 RETURNDATACOPY RETURNDATASIZE PUSH1 0x0 REVERT JUMPDEST POP POP POP POP PUSH1 0x40 MLOAD RETURNDATASIZE PUSH1 0x1F NOT PUSH1 0x1F DUP3 ADD AND DUP3 ADD DUP1 PUSH1 0x40 MSTORE POP DUP2 ADD SWAP1 PUSH2 0x33AC SWAP2 SWAP1 PUSH2 0x508A JUMP JUMPDEST SWAP1 POP PUSH2 0x106D DUP3 DUP3 PUSH2 0x3E18 JUMP JUMPDEST PUSH2 0x2184 DUP4 DUP4 DUP4 PUSH1 0x1 PUSH2 0x3F3C JUMP JUMPDEST PUSH20 0xFFFFFFFFFFFFFFFFFFFFFFFFFFFFFFFFFFFFFFFF DUP4 DUP2 AND PUSH1 0x0 SWAP1 DUP2 MSTORE PUSH1 0xA PUSH1 0x20 SWAP1 DUP2 MSTORE PUSH1 0x40 DUP1 DUP4 KECCAK256 SWAP4 DUP7 AND DUP4 MSTORE SWAP3 SWAP1 MSTORE KECCAK256 SLOAD PUSH32 0xFFFFFFFFFFFFFFFFFFFFFFFFFFFFFFFFFFFFFFFFFFFFFFFFFFFFFFFFFFFFFFFF DUP2 EQ PUSH2 0x348E JUMPI DUP2 DUP2 LT ISZERO PUSH2 0x347F JUMPI PUSH1 0x40 MLOAD PUSH32 0xFB8F41B200000000000000000000000000000000000000000000000000000000 DUP2 MSTORE PUSH20 0xFFFFFFFFFFFFFFFFFFFFFFFFFFFFFFFFFFFFFFFF DUP5 AND PUSH1 0x4 DUP3 ADD MSTORE PUSH1 0x24 DUP2 ADD DUP3 SWAP1 MSTORE PUSH1 0x44 DUP2 ADD DUP4 SWAP1 MSTORE PUSH1 0x64 ADD PUSH2 0x8C7 JUMP JUMPDEST PUSH2 0x348E DUP5 DUP5 DUP5 DUP5 SUB PUSH1 0x0 PUSH2 0x3F3C JUMP JUMPDEST POP POP POP POP JUMP JUMPDEST PUSH20 0xFFFFFFFFFFFFFFFFFFFFFFFFFFFFFFFFFFFFFFFF DUP4 AND PUSH2 0x34E4 JUMPI PUSH1 0x40 MLOAD PUSH32 0x96C6FD1E00000000000000000000000000000000000000000000000000000000 DUP2 MSTORE PUSH1 0x0 PUSH1 0x4 DUP3 ADD MSTORE PUSH1 0x24 ADD PUSH2 0x8C7 JUMP JUMPDEST PUSH20 0xFFFFFFFFFFFFFFFFFFFFFFFFFFFFFFFFFFFFFFFF DUP3 AND PUSH2 0x3534 JUMPI PUSH1 0x40 MLOAD PUSH32 0xEC442F0500000000000000000000000000000000000000000000000000000000 DUP2 MSTORE PUSH1 0x0 PUSH1 0x4 DUP3 ADD MSTORE PUSH1 0x24 ADD PUSH2 0x8C7 JUMP JUMPDEST PUSH2 0x2184 DUP4 DUP4 DUP4 PUSH2 0x3B21 JUMP JUMPDEST PUSH1 0x0 ADDRESS PUSH20 0xFFFFFFFFFFFFFFFFFFFFFFFFFFFFFFFFFFFFFFFF PUSH32 0x0 AND EQ DUP1 ISZERO PUSH2 0x35A5 JUMPI POP PUSH32 0x0 CHAINID EQ JUMPDEST ISZERO PUSH2 0x35CF JUMPI POP PUSH32 0x0 SWAP1 JUMP JUMPDEST PUSH2 0x1123 PUSH1 0x40 DUP1 MLOAD PUSH32 0x8B73C3C69BB8FE3D512ECC4CF759CC79239F7B179B0FFACAA9A75D522B39400F PUSH1 0x20 DUP3 ADD MSTORE PUSH32 0x0 SWAP2 DUP2 ADD SWAP2 SWAP1 SWAP2 MSTORE PUSH32 0x0 PUSH1 0x60 DUP3 ADD MSTORE CHAINID PUSH1 0x80 DUP3 ADD MSTORE ADDRESS PUSH1 0xA0 DUP3 ADD MSTORE PUSH1 0x0 SWAP1 PUSH1 0xC0 ADD PUSH1 0x40 MLOAD PUSH1 0x20 DUP2 DUP4 SUB SUB DUP2 MSTORE SWAP1 PUSH1 0x40 MSTORE DUP1 MLOAD SWAP1 PUSH1 0x20 ADD KECCAK256 SWAP1 POP SWAP1 JUMP JUMPDEST PUSH1 0xE SLOAD PUSH20 0xFFFFFFFFFFFFFFFFFFFFFFFFFFFFFFFFFFFFFFFF AND CALLER EQ PUSH2 0x19EC JUMPI PUSH1 0x40 MLOAD PUSH32 0x118CDAA700000000000000000000000000000000000000000000000000000000 DUP2 MSTORE CALLER PUSH1 0x4 DUP3 ADD MSTORE PUSH1 0x24 ADD PUSH2 0x8C7 JUMP JUMPDEST PUSH1 0xE DUP1 SLOAD PUSH20 0xFFFFFFFFFFFFFFFFFFFFFFFFFFFFFFFFFFFFFFFF DUP4 DUP2 AND PUSH32 0xFFFFFFFFFFFFFFFFFFFFFFFF0000000000000000000000000000000000000000 DUP4 AND DUP2 OR SWAP1 SWAP4 SSTORE PUSH1 0x40 MLOAD SWAP2 AND SWAP2 SWAP1 DUP3 SWAP1 PUSH32 0x8BE0079C531659141344CD1FD0A4F28419497F9722A3DAAFE3B4186F6B6457E0 SWAP1 PUSH1 0x0 SWAP1 LOG3 POP POP JUMP JUMPDEST PUSH1 0x60 PUSH2 0x1123 PUSH32 0x0 PUSH1 0xF PUSH2 0x4084 JUMP JUMPDEST PUSH1 0x60 PUSH2 0x1123 PUSH32 0x0 PUSH1 0x10 PUSH2 0x4084 JUMP JUMPDEST PUSH1 0x0 PUSH2 0xF51 PUSH2 0x37A8 PUSH2 0x353F JUMP JUMPDEST DUP4 PUSH1 0x40 MLOAD PUSH32 0x1901000000000000000000000000000000000000000000000000000000000000 DUP2 MSTORE PUSH1 0x2 DUP2 ADD SWAP3 SWAP1 SWAP3 MSTORE PUSH1 0x22 DUP3 ADD MSTORE PUSH1 0x42 SWAP1 KECCAK256 SWAP1 JUMP JUMPDEST PUSH1 0x0 DUP1 PUSH1 0x0 DUP1 PUSH2 0x37F5 DUP9 DUP9 DUP9 DUP9 PUSH2 0x4128 JUMP JUMPDEST SWAP3 POP SWAP3 POP SWAP3 POP PUSH2 0x3805 DUP3 DUP3 PUSH2 0x4222 JUMP JUMPDEST POP SWAP1 SWAP7 SWAP6 POP POP POP POP POP POP JUMP JUMPDEST PUSH1 0x0 PUSH1 0xC8 DUP3 SLOAD PUSH2 0x3847 SWAP2 SWAP1 PUSH25 0x1000000000000000000000000000000000000000000000000 SWAP1 DIV PUSH8 0xFFFFFFFFFFFFFFFF AND PUSH2 0x50A3 JUMP JUMPDEST NUMBER LT ISZERO PUSH2 0x3856 JUMPI POP PUSH1 0x0 SWAP2 SWAP1 POP JUMP JUMPDEST POP PUSH1 0x1 SWAP2 SWAP1 POP JUMP JUMPDEST PUSH1 0x3 DUP2 ADD SLOAD PUSH1 0x2 DUP3 ADD SLOAD DUP3 SLOAD PUSH1 0x1 DUP5 ADD SLOAD PUSH1 0x40 DUP1 MLOAD PUSH1 0x60 DUP2 ADD DUP3 MSTORE PUSH1 0x5 SLOAD DUP2 MSTORE PUSH20 0xFFFFFFFFFFFFFFFFFFFFFFFFFFFFFFFFFFFFFFFF DUP7 AND PUSH1 0x0 DUP2 DUP2 MSTORE PUSH1 0x9 PUSH1 0x20 SWAP1 DUP2 MSTORE SWAP4 SWAP1 KECCAK256 SLOAD PUSH25 0x1000000000000000000000000000000000000000000000000 DUP1 DUP10 DIV PUSH4 0xFFFFFFFF SWAP1 DUP2 AND SWAP10 SWAP2 DUP10 DIV PUSH8 0xFFFFFFFFFFFFFFFF AND SWAP9 SWAP4 SWAP8 PUSH32 0x39CBF4A209B014B16BD16F4ED617501F2DF769E4A480D974457B24E172E756ED SWAP8 PUSH12 0xFFFFFFFFFFFFFFFFFFFFFFFF SWAP2 DUP3 AND SWAP8 DUP3 DUP3 AND SWAP8 PUSH13 0x1000000000000000000000000 SWAP1 SWAP3 DIV DUP4 AND SWAP7 SWAP3 SWAP1 SWAP3 AND SWAP5 PUSH21 0x10000000000000000000000000000000000000000 SWAP1 SWAP5 DIV SWAP1 SWAP3 AND SWAP3 PUSH1 0x4 DUP14 ADD SWAP3 SWAP2 DUP3 ADD SWAP1 DUP2 MSTORE PUSH1 0x20 ADD PUSH2 0x395F PUSH1 0xB SLOAD SWAP1 JUMP JUMPDEST SWAP1 MSTORE PUSH1 0x40 MLOAD PUSH2 0x3974 SWAP8 SWAP7 SWAP6 SWAP5 SWAP4 SWAP3 SWAP2 SWAP1 PUSH2 0x50B6 JUMP JUMPDEST PUSH1 0x40 MLOAD DUP1 SWAP2 SUB SWAP1 LOG4 POP JUMP JUMPDEST PUSH1 0x1 SLOAD PUSH1 0x40 MLOAD PUSH1 0x0 SWAP2 DUP3 SWAP2 PUSH20 0xFFFFFFFFFFFFFFFFFFFFFFFFFFFFFFFFFFFFFFFF DUP7 AND SWAP2 PUSH4 0xFFFFFFFF AND SWAP1 DUP6 SWAP1 DUP5 DUP2 DUP2 DUP2 DUP6 DUP9 DUP9 CALL SWAP4 POP POP POP POP RETURNDATASIZE DUP1 PUSH1 0x0 DUP2 EQ PUSH2 0x39E4 JUMPI PUSH1 0x40 MLOAD SWAP2 POP PUSH1 0x1F NOT PUSH1 0x3F RETURNDATASIZE ADD AND DUP3 ADD PUSH1 0x40 MSTORE RETURNDATASIZE DUP3 MSTORE RETURNDATASIZE PUSH1 0x0 PUSH1 0x20 DUP5 ADD RETURNDATACOPY PUSH2 0x39E9 JUMP JUMPDEST PUSH1 0x60 SWAP2 POP JUMPDEST POP POP SWAP1 POP DUP1 PUSH2 0xF4B JUMPI PUSH20 0xFFFFFFFFFFFFFFFFFFFFFFFFFFFFFFFFFFFFFFFF DUP5 AND PUSH1 0x0 SWAP1 DUP2 MSTORE PUSH1 0x8 PUSH1 0x20 MSTORE PUSH1 0x40 SWAP1 KECCAK256 PUSH1 0x1 ADD SLOAD PUSH2 0x3A26 SWAP1 DUP5 SWAP1 PUSH2 0x50A3 JUMP JUMPDEST PUSH20 0xFFFFFFFFFFFFFFFFFFFFFFFFFFFFFFFFFFFFFFFF DUP6 AND PUSH1 0x0 SWAP1 DUP2 MSTORE PUSH1 0x8 PUSH1 0x20 MSTORE PUSH1 0x40 DUP2 KECCAK256 PUSH1 0x1 ADD SWAP2 SWAP1 SWAP2 SSTORE PUSH1 0x6 DUP1 SLOAD DUP6 SWAP3 SWAP1 PUSH2 0x3A64 SWAP1 DUP5 SWAP1 PUSH2 0x50A3 JUMP JUMPDEST SWAP1 SWAP2 SSTORE POP POP PUSH1 0x40 DUP1 MLOAD PUSH20 0xFFFFFFFFFFFFFFFFFFFFFFFFFFFFFFFFFFFFFFFF DUP7 AND DUP2 MSTORE PUSH1 0x20 DUP2 ADD DUP6 SWAP1 MSTORE PUSH32 0x9CD50C4AE1F9E1E6FE910DD37BA6A6B9FCC5F9D9CABA92513FE2F4AED5AFF5A6 SWAP2 ADD PUSH1 0x40 MLOAD DUP1 SWAP2 SUB SWAP1 LOG1 PUSH1 0x0 SWAP2 POP POP PUSH2 0xF51 JUMP JUMPDEST PUSH1 0x0 DUP1 PUSH32 0x0 PUSH8 0xFFFFFFFFFFFFFFFF AND PUSH1 0x1 DUP6 SUB PUSH8 0xFFFFFFFFFFFFFFFF AND DUP2 PUSH2 0x3B0B JUMPI PUSH2 0x3B0B PUSH2 0x4FA8 JUMP JUMPDEST DIV PUSH8 0xFFFFFFFFFFFFFFFF AND SWAP3 SWAP1 SWAP3 SHR SWAP4 SWAP3 POP POP POP JUMP JUMPDEST PUSH20 0xFFFFFFFFFFFFFFFFFFFFFFFFFFFFFFFFFFFFFFFF DUP4 AND PUSH2 0x3B59 JUMPI DUP1 PUSH1 0xB PUSH1 0x0 DUP3 DUP3 SLOAD PUSH2 0x3B4E SWAP2 SWAP1 PUSH2 0x50A3 JUMP JUMPDEST SWAP1 SWAP2 SSTORE POP PUSH2 0x3C0B SWAP1 POP JUMP JUMPDEST PUSH20 0xFFFFFFFFFFFFFFFFFFFFFFFFFFFFFFFFFFFFFFFF DUP4 AND PUSH1 0x0 SWAP1 DUP2 MSTORE PUSH1 0x9 PUSH1 0x20 MSTORE PUSH1 0x40 SWAP1 KECCAK256 SLOAD DUP2 DUP2 LT ISZERO PUSH2 0x3BDF JUMPI PUSH1 0x40 MLOAD PUSH32 0xE450D38C00000000000000000000000000000000000000000000000000000000 DUP2 MSTORE PUSH20 0xFFFFFFFFFFFFFFFFFFFFFFFFFFFFFFFFFFFFFFFF DUP6 AND PUSH1 0x4 DUP3 ADD MSTORE PUSH1 0x24 DUP2 ADD DUP3 SWAP1 MSTORE PUSH1 0x44 DUP2 ADD DUP4 SWAP1 MSTORE PUSH1 0x64 ADD PUSH2 0x8C7 JUMP JUMPDEST PUSH20 0xFFFFFFFFFFFFFFFFFFFFFFFFFFFFFFFFFFFFFFFF DUP5 AND PUSH1 0x0 SWAP1 DUP2 MSTORE PUSH1 0x9 PUSH1 0x20 MSTORE PUSH1 0x40 SWAP1 KECCAK256 SWAP1 DUP3 SWAP1 SUB SWAP1 SSTORE JUMPDEST PUSH20 0xFFFFFFFFFFFFFFFFFFFFFFFFFFFFFFFFFFFFFFFF DUP3 AND PUSH2 0x3C34 JUMPI PUSH1 0xB DUP1 SLOAD DUP3 SWAP1 SUB SWAP1 SSTORE PUSH2 0x3C60 JUMP JUMPDEST PUSH20 0xFFFFFFFFFFFFFFFFFFFFFFFFFFFFFFFFFFFFFFFF DUP3 AND PUSH1 0x0 SWAP1 DUP2 MSTORE PUSH1 0x9 PUSH1 0x20 MSTORE PUSH1 0x40 SWAP1 KECCAK256 DUP1 SLOAD DUP3 ADD SWAP1 SSTORE JUMPDEST DUP2 PUSH20 0xFFFFFFFFFFFFFFFFFFFFFFFFFFFFFFFFFFFFFFFF AND DUP4 PUSH20 0xFFFFFFFFFFFFFFFFFFFFFFFFFFFFFFFFFFFFFFFF AND PUSH32 0xDDF252AD1BE2C89B69C2B068FC378DAA952BA7F163C4A11628F55A4DF523B3EF DUP4 PUSH1 0x40 MLOAD PUSH2 0x3CBF SWAP2 DUP2 MSTORE PUSH1 0x20 ADD SWAP1 JUMP JUMPDEST PUSH1 0x40 MLOAD DUP1 SWAP2 SUB SWAP1 LOG3 POP POP POP JUMP JUMPDEST PUSH1 0x0 DUP1 SLOAD DUP2 SWAP1 PUSH12 0xFFFFFFFFFFFFFFFFFFFFFFFF AND DUP4 LT ISZERO PUSH2 0x3D01 JUMPI POP PUSH1 0x0 SLOAD PUSH12 0xFFFFFFFFFFFFFFFFFFFFFFFF AND DUP3 SWAP1 SUB PUSH2 0x3D05 JUMP JUMPDEST POP PUSH1 0x0 JUMPDEST PUSH1 0x0 SLOAD PUSH8 0xDE0B6B3A7640000 PUSH8 0xFFFFFFFFFFFFFFFF PUSH25 0x1000000000000000000000000000000000000000000000000 DUP4 DIV AND SWAP6 SWAP1 SWAP6 MUL SWAP5 SWAP1 SWAP5 DIV PUSH13 0x1000000000000000000000000 SWAP1 SWAP5 DIV PUSH12 0xFFFFFFFFFFFFFFFFFFFFFFFF AND ADD SWAP3 SWAP1 SWAP3 ADD SWAP3 SWAP2 POP POP JUMP JUMPDEST PUSH20 0xFFFFFFFFFFFFFFFFFFFFFFFFFFFFFFFFFFFFFFFF DUP3 AND PUSH2 0x3DB9 JUMPI PUSH1 0x40 MLOAD PUSH32 0xEC442F0500000000000000000000000000000000000000000000000000000000 DUP2 MSTORE PUSH1 0x0 PUSH1 0x4 DUP3 ADD MSTORE PUSH1 0x24 ADD PUSH2 0x8C7 JUMP JUMPDEST PUSH2 0x106D PUSH1 0x0 DUP4 DUP4 PUSH2 0x3B21 JUMP JUMPDEST PUSH1 0x0 PUSH2 0x3E0C DUP4 PUSH8 0xDE0B6B3A7640000 PUSH2 0x3061 PUSH12 0xFFFFFFFFFFFFFFFFFFFFFFFF PUSH32 0x0 AND DUP7 PUSH2 0x4F91 JUMP JUMPDEST SWAP1 POP PUSH2 0xF51 ADDRESS DUP3 PUSH2 0x3D69 JUMP JUMPDEST PUSH8 0xFFFFFFFFFFFFFFFF DUP3 AND PUSH1 0x0 SWAP1 DUP2 MSTORE PUSH1 0x7 PUSH1 0x20 MSTORE PUSH1 0x40 SWAP1 KECCAK256 PUSH1 0x3 ADD SLOAD PUSH4 0xFFFFFFFF PUSH25 0x1000000000000000000000000000000000000000000000000 SWAP1 SWAP2 DIV AND PUSH1 0x1 EQ PUSH2 0x3E63 JUMPI POP POP JUMP JUMPDEST PUSH8 0xFFFFFFFFFFFFFFFF DUP3 AND PUSH1 0x0 SWAP1 DUP2 MSTORE PUSH1 0x7 PUSH1 0x20 MSTORE PUSH1 0x40 SWAP1 KECCAK256 DUP1 SLOAD PUSH1 0x3 SLOAD PUSH12 0xFFFFFFFFFFFFFFFFFFFFFFFF SWAP1 SWAP2 AND SWAP1 DUP2 GT ISZERO PUSH2 0x3EA1 JUMPI PUSH2 0x3EA1 PUSH2 0x5154 JUMP JUMPDEST PUSH1 0x3 DUP1 SLOAD PUSH12 0xFFFFFFFFFFFFFFFFFFFFFFFF DUP4 AND SWAP1 DUP2 SWAP1 SUB DUP3 SSTORE PUSH1 0x5 DUP1 SLOAD SWAP1 SWAP2 ADD SWAP1 SSTORE PUSH1 0x4 DUP4 ADD DUP1 SLOAD PUSH32 0xFFFFFFFFFFFFFFFFFFFFFFFFFFFFFFFFFFFFFFFFFFFFFFFFFFFFFFFF00000000 AND PUSH2 0xFFFF DUP7 AND PUSH1 0x1 ADD PUSH4 0xFFFFFFFF DUP2 DUP2 AND SWAP3 DUP4 OR SWAP1 SWAP4 SSTORE SWAP3 DUP6 ADD SLOAD PUSH21 0x10000000000000000000000000000000000000000 SWAP1 DIV SWAP1 SWAP2 AND LT PUSH2 0x3F33 JUMPI PUSH2 0x3F2E DUP4 PUSH2 0x4326 JUMP JUMPDEST PUSH2 0x233D JUMP JUMPDEST PUSH2 0x233D DUP4 PUSH2 0x45A0 JUMP JUMPDEST PUSH20 0xFFFFFFFFFFFFFFFFFFFFFFFFFFFFFFFFFFFFFFFF DUP5 AND PUSH2 0x3F8C JUMPI PUSH1 0x40 MLOAD PUSH32 0xE602DF0500000000000000000000000000000000000000000000000000000000 DUP2 MSTORE PUSH1 0x0 PUSH1 0x4 DUP3 ADD MSTORE PUSH1 0x24 ADD PUSH2 0x8C7 JUMP JUMPDEST PUSH20 0xFFFFFFFFFFFFFFFFFFFFFFFFFFFFFFFFFFFFFFFF DUP4 AND PUSH2 0x3FDC JUMPI PUSH1 0x40 MLOAD PUSH32 0x94280D6200000000000000000000000000000000000000000000000000000000 DUP2 MSTORE PUSH1 0x0 PUSH1 0x4 DUP3 ADD MSTORE PUSH1 0x24 ADD PUSH2 0x8C7 JUMP JUMPDEST PUSH20 0xFFFFFFFFFFFFFFFFFFFFFFFFFFFFFFFFFFFFFFFF DUP1 DUP6 AND PUSH1 0x0 SWAP1 DUP2 MSTORE PUSH1 0xA PUSH1 0x20 SWAP1 DUP2 MSTORE PUSH1 0x40 DUP1 DUP4 KECCAK256 SWAP4 DUP8 AND DUP4 MSTORE SWAP3 SWAP1 MSTORE KECCAK256 DUP3 SWAP1 SSTORE DUP1 ISZERO PUSH2 0x348E JUMPI DUP3 PUSH20 0xFFFFFFFFFFFFFFFFFFFFFFFFFFFFFFFFFFFFFFFF AND DUP5 PUSH20 0xFFFFFFFFFFFFFFFFFFFFFFFFFFFFFFFFFFFFFFFF AND PUSH32 0x8C5BE1E5EBEC7D5BD14F71427D1E84F3DD0314C0F7B2291E5B200AC8C7C3B925 DUP5 PUSH1 0x40 MLOAD PUSH2 0x4076 SWAP2 DUP2 MSTORE PUSH1 0x20 ADD SWAP1 JUMP JUMPDEST PUSH1 0x40 MLOAD DUP1 SWAP2 SUB SWAP1 LOG3 POP POP POP POP JUMP JUMPDEST PUSH1 0x60 PUSH1 0xFF DUP4 EQ PUSH2 0x4097 JUMPI PUSH2 0x2DCC DUP4 PUSH2 0x4665 JUMP JUMPDEST DUP2 DUP1 SLOAD PUSH2 0x40A3 SWAP1 PUSH2 0x4E55 JUMP JUMPDEST DUP1 PUSH1 0x1F ADD PUSH1 0x20 DUP1 SWAP2 DIV MUL PUSH1 0x20 ADD PUSH1 0x40 MLOAD SWAP1 DUP2 ADD PUSH1 0x40 MSTORE DUP1 SWAP3 SWAP2 SWAP1 DUP2 DUP2 MSTORE PUSH1 0x20 ADD DUP3 DUP1 SLOAD PUSH2 0x40CF SWAP1 PUSH2 0x4E55 JUMP JUMPDEST DUP1 ISZERO PUSH2 0x411C JUMPI DUP1 PUSH1 0x1F LT PUSH2 0x40F1 JUMPI PUSH2 0x100 DUP1 DUP4 SLOAD DIV MUL DUP4 MSTORE SWAP2 PUSH1 0x20 ADD SWAP2 PUSH2 0x411C JUMP JUMPDEST DUP3 ADD SWAP2 SWAP1 PUSH1 0x0 MSTORE PUSH1 0x20 PUSH1 0x0 KECCAK256 SWAP1 JUMPDEST DUP2 SLOAD DUP2 MSTORE SWAP1 PUSH1 0x1 ADD SWAP1 PUSH1 0x20 ADD DUP1 DUP4 GT PUSH2 0x40FF JUMPI DUP3 SWAP1 SUB PUSH1 0x1F AND DUP3 ADD SWAP2 JUMPDEST POP POP POP POP POP SWAP1 POP PUSH2 0xF51 JUMP JUMPDEST PUSH1 0x0 DUP1 DUP1 PUSH32 0x7FFFFFFFFFFFFFFFFFFFFFFFFFFFFFFF5D576E7357A4501DDFE92F46681B20A0 DUP5 GT ISZERO PUSH2 0x4163 JUMPI POP PUSH1 0x0 SWAP2 POP PUSH1 0x3 SWAP1 POP DUP3 PUSH2 0x4218 JUMP JUMPDEST PUSH1 0x40 DUP1 MLOAD PUSH1 0x0 DUP1 DUP3 MSTORE PUSH1 0x20 DUP3 ADD DUP1 DUP5 MSTORE DUP11 SWAP1 MSTORE PUSH1 0xFF DUP10 AND SWAP3 DUP3 ADD SWAP3 SWAP1 SWAP3 MSTORE PUSH1 0x60 DUP2 ADD DUP8 SWAP1 MSTORE PUSH1 0x80 DUP2 ADD DUP7 SWAP1 MSTORE PUSH1 0x1 SWAP1 PUSH1 0xA0 ADD PUSH1 0x20 PUSH1 0x40 MLOAD PUSH1 0x20 DUP2 SUB SWAP1 DUP1 DUP5 SUB SWAP1 DUP6 GAS STATICCALL ISZERO DUP1 ISZERO PUSH2 0x41B7 JUMPI RETURNDATASIZE PUSH1 0x0 DUP1 RETURNDATACOPY RETURNDATASIZE PUSH1 0x0 REVERT JUMPDEST POP POP PUSH1 0x40 MLOAD PUSH32 0xFFFFFFFFFFFFFFFFFFFFFFFFFFFFFFFFFFFFFFFFFFFFFFFFFFFFFFFFFFFFFFE0 ADD MLOAD SWAP2 POP POP PUSH20 0xFFFFFFFFFFFFFFFFFFFFFFFFFFFFFFFFFFFFFFFF DUP2 AND PUSH2 0x420E JUMPI POP PUSH1 0x0 SWAP3 POP PUSH1 0x1 SWAP2 POP DUP3 SWAP1 POP PUSH2 0x4218 JUMP JUMPDEST SWAP3 POP PUSH1 0x0 SWAP2 POP DUP2 SWAP1 POP JUMPDEST SWAP5 POP SWAP5 POP SWAP5 SWAP2 POP POP JUMP JUMPDEST PUSH1 0x0 DUP3 PUSH1 0x3 DUP2 GT ISZERO PUSH2 0x4236 JUMPI PUSH2 0x4236 PUSH2 0x5183 JUMP JUMPDEST SUB PUSH2 0x423F JUMPI POP POP JUMP JUMPDEST PUSH1 0x1 DUP3 PUSH1 0x3 DUP2 GT ISZERO PUSH2 0x4253 JUMPI PUSH2 0x4253 PUSH2 0x5183 JUMP JUMPDEST SUB PUSH2 0x428A JUMPI PUSH1 0x40 MLOAD PUSH32 0xF645EEDF00000000000000000000000000000000000000000000000000000000 DUP2 MSTORE PUSH1 0x4 ADD PUSH1 0x40 MLOAD DUP1 SWAP2 SUB SWAP1 REVERT JUMPDEST PUSH1 0x2 DUP3 PUSH1 0x3 DUP2 GT ISZERO PUSH2 0x429E JUMPI PUSH2 0x429E PUSH2 0x5183 JUMP JUMPDEST SUB PUSH2 0x42D8 JUMPI PUSH1 0x40 MLOAD PUSH32 0xFCE698F700000000000000000000000000000000000000000000000000000000 DUP2 MSTORE PUSH1 0x4 DUP2 ADD DUP3 SWAP1 MSTORE PUSH1 0x24 ADD PUSH2 0x8C7 JUMP JUMPDEST PUSH1 0x3 DUP3 PUSH1 0x3 DUP2 GT ISZERO PUSH2 0x42EC JUMPI PUSH2 0x42EC PUSH2 0x5183 JUMP JUMPDEST SUB PUSH2 0x106D JUMPI PUSH1 0x40 MLOAD PUSH32 0xD78BCE0C00000000000000000000000000000000000000000000000000000000 DUP2 MSTORE PUSH1 0x4 DUP2 ADD DUP3 SWAP1 MSTORE PUSH1 0x24 ADD PUSH2 0x8C7 JUMP JUMPDEST PUSH1 0x3 DUP2 ADD DUP1 SLOAD PUSH32 0xFFFFFFFF00000000FFFFFFFFFFFFFFFFFFFFFFFFFFFFFFFFFFFFFFFFFFFFFFFF AND PUSH25 0x2000000000000000000000000000000000000000000000000 OR SWAP1 SSTORE PUSH1 0x1 DUP2 ADD SLOAD DUP2 SLOAD PUSH1 0x0 SWAP2 PUSH8 0xDE0B6B3A7640000 SWAP2 PUSH13 0x1000000000000000000000000 SWAP1 SWAP2 DIV PUSH12 0xFFFFFFFFFFFFFFFFFFFFFFFF SWAP1 DUP2 AND SWAP2 AND MUL DIV SWAP1 POP PUSH1 0x0 PUSH2 0x43B1 DUP4 PUSH2 0x46A4 JUMP JUMPDEST SWAP1 POP PUSH2 0x43BD ADDRESS DUP3 PUSH2 0x3D69 JUMP JUMPDEST PUSH1 0x5 SLOAD DUP3 LT ISZERO PUSH2 0x443F JUMPI PUSH1 0x5 DUP1 SLOAD DUP4 SWAP1 SUB SWAP1 SSTORE PUSH1 0x4 DUP4 ADD DUP1 SLOAD PUSH32 0xFFFFFFFFFFFFFFFFFFFFFFFFFFFFFFFF000000000000000000000000FFFFFFFF AND PUSH5 0x100000000 PUSH12 0xFFFFFFFFFFFFFFFFFFFFFFFF DUP6 AND MUL OR SWAP1 SSTORE PUSH2 0x441A DUP4 PUSH2 0x385E JUMP JUMPDEST PUSH1 0x3 DUP4 ADD SLOAD PUSH2 0x348E SWAP1 PUSH20 0xFFFFFFFFFFFFFFFFFFFFFFFFFFFFFFFFFFFFFFFF AND DUP4 PUSH2 0x397F JUMP JUMPDEST DUP3 SLOAD PUSH1 0x5 DUP1 SLOAD PUSH12 0xFFFFFFFFFFFFFFFFFFFFFFFF SWAP3 DUP4 AND SWAP1 DUP2 SWAP1 SUB SWAP1 SWAP2 SSTORE PUSH1 0x2 DUP6 ADD SLOAD PUSH1 0x1 DUP7 ADD SLOAD SWAP2 SWAP3 PUSH1 0x0 SWAP3 PUSH2 0x44AE SWAP3 PUSH25 0x1000000000000000000000000000000000000000000000000 SWAP1 DIV PUSH8 0xFFFFFFFFFFFFFFFF AND SWAP2 DUP6 SWAP2 PUSH13 0x1000000000000000000000000 SWAP1 DIV AND PUSH2 0x4750 JUMP JUMPDEST PUSH1 0x3 DUP7 ADD SLOAD SWAP1 SWAP2 POP PUSH2 0x44D6 SWAP1 PUSH20 0xFFFFFFFFFFFFFFFFFFFFFFFFFFFFFFFFFFFFFFFF AND DUP3 PUSH2 0x3D69 JUMP JUMPDEST PUSH1 0x4 DUP6 ADD DUP1 SLOAD PUSH32 0xFFFFFFFF000000000000000000000000FFFFFFFFFFFFFFFFFFFFFFFFFFFFFFFF AND PUSH17 0x100000000000000000000000000000000 PUSH12 0xFFFFFFFFFFFFFFFFFFFFFFFF DUP5 DUP2 AND SWAP2 SWAP1 SWAP2 MUL SWAP2 SWAP1 SWAP2 OR SWAP1 SWAP2 SSTORE PUSH1 0x5 DUP7 ADD DUP1 SLOAD PUSH32 0xFFFFFFFFFFFFFFFFFFFFFFFFFFFFFFFFFFFFFFFF000000000000000000000000 AND SWAP2 DUP5 AND SWAP2 SWAP1 SWAP2 OR SWAP1 SSTORE PUSH2 0x4565 DUP6 PUSH2 0x385E JUMP JUMPDEST PUSH1 0x3 DUP6 ADD SLOAD PUSH2 0x4598 SWAP1 PUSH20 0xFFFFFFFFFFFFFFFFFFFFFFFFFFFFFFFFFFFFFFFF AND PUSH12 0xFFFFFFFFFFFFFFFFFFFFFFFF DUP5 AND PUSH2 0x397F JUMP JUMPDEST POP POP POP POP POP POP JUMP JUMPDEST PUSH1 0x3 DUP2 ADD DUP1 SLOAD PUSH32 0xFFFFFFFF00000000FFFFFFFFFFFFFFFFFFFFFFFFFFFFFFFFFFFFFFFFFFFFFFFF AND PUSH25 0x4000000000000000000000000000000000000000000000000 OR SWAP1 SSTORE PUSH1 0x0 PUSH2 0x45F0 DUP3 PUSH2 0x46A4 JUMP JUMPDEST PUSH1 0x4 DUP4 ADD DUP1 SLOAD PUSH32 0xFFFFFFFF000000000000000000000000FFFFFFFFFFFFFFFFFFFFFFFFFFFFFFFF AND PUSH17 0x100000000000000000000000000000000 PUSH12 0xFFFFFFFFFFFFFFFFFFFFFFFF DUP5 AND MUL OR SWAP1 SSTORE PUSH1 0x3 DUP4 ADD SLOAD SWAP1 SWAP2 POP PUSH2 0x30EC SWAP1 PUSH20 0xFFFFFFFFFFFFFFFFFFFFFFFFFFFFFFFFFFFFFFFF AND DUP3 PUSH2 0x3D69 JUMP JUMPDEST PUSH1 0x60 PUSH1 0x0 PUSH2 0x4672 DUP4 PUSH2 0x47E0 JUMP JUMPDEST PUSH1 0x40 DUP1 MLOAD PUSH1 0x20 DUP1 DUP3 MSTORE DUP2 DUP4 ADD SWAP1 SWAP3 MSTORE SWAP2 SWAP3 POP PUSH1 0x0 SWAP2 SWAP1 PUSH1 0x20 DUP3 ADD DUP2 DUP1 CALLDATASIZE DUP4 CALLDATACOPY POP POP POP SWAP2 DUP3 MSTORE POP PUSH1 0x20 DUP2 ADD SWAP3 SWAP1 SWAP3 MSTORE POP SWAP1 JUMP JUMPDEST DUP1 SLOAD PUSH1 0x1 DUP3 ADD SLOAD PUSH1 0x2 DUP4 ADD SLOAD PUSH1 0x0 SWAP3 PUSH8 0xDE0B6B3A7640000 PUSH12 0xFFFFFFFFFFFFFFFFFFFFFFFF DUP1 DUP4 AND PUSH8 0xFFFFFFFFFFFFFFFF PUSH25 0x1000000000000000000000000000000000000000000000000 SWAP7 DUP8 SWAP1 DIV DUP2 AND SWAP2 SWAP1 SWAP2 MUL DUP4 SWAP1 DIV PUSH13 0x1000000000000000000000000 DUP1 DUP8 DIV DUP5 AND SWAP6 DIV DUP4 AND SWAP5 SWAP1 SWAP5 ADD SWAP4 SWAP1 SWAP4 ADD SWAP5 PUSH2 0x1112 SWAP5 DIV SWAP1 SWAP3 AND SWAP2 PUSH32 0x0 AND DUP5 MUL JUMPDEST DIV PUSH2 0x3AC2 JUMP JUMPDEST PUSH1 0x0 PUSH8 0xDE0B6B3A7640000 DUP3 GT PUSH2 0x4769 JUMPI POP PUSH1 0x0 PUSH2 0x1112 JUMP JUMPDEST PUSH32 0xFFFFFFFFFFFFFFFFFFFFFFFFFFFFFFFFFFFFFFFFFFFFFFFFF21F494C589C0000 DUP3 ADD PUSH1 0x0 PUSH8 0xDE0B6B3A7640000 DUP6 DUP4 MUL DIV SWAP1 POP PUSH2 0x2F25 DUP7 PUSH8 0xDE0B6B3A7640000 PUSH12 0xFFFFFFFFFFFFFFFFFFFFFFFF PUSH32 0x0 AND DUP5 MUL PUSH2 0x474A JUMP JUMPDEST PUSH1 0x0 PUSH1 0xFF DUP3 AND PUSH1 0x1F DUP2 GT ISZERO PUSH2 0xF51 JUMPI PUSH1 0x40 MLOAD PUSH32 0xB3512B0C00000000000000000000000000000000000000000000000000000000 DUP2 MSTORE PUSH1 0x4 ADD PUSH1 0x40 MLOAD DUP1 SWAP2 SUB SWAP1 REVERT JUMPDEST PUSH1 0x0 DUP2 MLOAD DUP1 DUP5 MSTORE PUSH1 0x0 JUMPDEST DUP2 DUP2 LT ISZERO PUSH2 0x4847 JUMPI PUSH1 0x20 DUP2 DUP6 ADD DUP2 ADD MLOAD DUP7 DUP4 ADD DUP3 ADD MSTORE ADD PUSH2 0x482B JUMP JUMPDEST POP PUSH1 0x0 PUSH1 0x20 DUP3 DUP7 ADD ADD MSTORE PUSH1 0x20 PUSH32 0xFFFFFFFFFFFFFFFFFFFFFFFFFFFFFFFFFFFFFFFFFFFFFFFFFFFFFFFFFFFFFFE0 PUSH1 0x1F DUP4 ADD AND DUP6 ADD ADD SWAP2 POP POP SWAP3 SWAP2 POP POP JUMP JUMPDEST PUSH1 0x20 DUP2 MSTORE PUSH1 0x0 PUSH2 0x1112 PUSH1 0x20 DUP4 ADD DUP5 PUSH2 0x4821 JUMP JUMPDEST DUP1 CALLDATALOAD PUSH20 0xFFFFFFFFFFFFFFFFFFFFFFFFFFFFFFFFFFFFFFFF DUP2 AND DUP2 EQ PUSH2 0x48BC JUMPI PUSH1 0x0 DUP1 REVERT JUMPDEST SWAP2 SWAP1 POP JUMP JUMPDEST PUSH1 0x0 DUP1 PUSH1 0x40 DUP4 DUP6 SUB SLT ISZERO PUSH2 0x48D4 JUMPI PUSH1 0x0 DUP1 REVERT JUMPDEST PUSH2 0x48DD DUP4 PUSH2 0x4898 JUMP JUMPDEST SWAP5 PUSH1 0x20 SWAP4 SWAP1 SWAP4 ADD CALLDATALOAD SWAP4 POP POP POP JUMP JUMPDEST PUSH1 0x0 DUP1 PUSH1 0x0 PUSH1 0x60 DUP5 DUP7 SUB SLT ISZERO PUSH2 0x4900 JUMPI PUSH1 0x0 DUP1 REVERT JUMPDEST PUSH2 0x4909 DUP5 PUSH2 0x4898 JUMP JUMPDEST SWAP3 POP PUSH2 0x4917 PUSH1 0x20 DUP6 ADD PUSH2 0x4898 JUMP JUMPDEST SWAP2 POP PUSH1 0x40 DUP5 ADD CALLDATALOAD SWAP1 POP SWAP3 POP SWAP3 POP SWAP3 JUMP JUMPDEST DUP1 CALLDATALOAD PUSH12 0xFFFFFFFFFFFFFFFFFFFFFFFF DUP2 AND DUP2 EQ PUSH2 0x48BC JUMPI PUSH1 0x0 DUP1 REVERT JUMPDEST PUSH1 0x0 PUSH1 0x20 DUP3 DUP5 SUB SLT ISZERO PUSH2 0x4955 JUMPI PUSH1 0x0 DUP1 REVERT JUMPDEST PUSH2 0x1112 DUP3 PUSH2 0x4927 JUMP JUMPDEST PUSH1 0x0 PUSH1 0x20 DUP3 DUP5 SUB SLT ISZERO PUSH2 0x4970 JUMPI PUSH1 0x0 DUP1 REVERT JUMPDEST POP CALLDATALOAD SWAP2 SWAP1 POP JUMP JUMPDEST PUSH1 0x0 PUSH1 0x20 DUP3 DUP5 SUB SLT ISZERO PUSH2 0x4989 JUMPI PUSH1 0x0 DUP1 REVERT JUMPDEST PUSH2 0x1112 DUP3 PUSH2 0x4898 JUMP JUMPDEST DUP1 CALLDATALOAD PUSH8 0xFFFFFFFFFFFFFFFF DUP2 AND DUP2 EQ PUSH2 0x48BC JUMPI PUSH1 0x0 DUP1 REVERT JUMPDEST DUP1 CALLDATALOAD DUP1 ISZERO ISZERO DUP2 EQ PUSH2 0x48BC JUMPI PUSH1 0x0 DUP1 REVERT JUMPDEST PUSH1 0x0 DUP1 PUSH1 0x0 PUSH1 0x60 DUP5 DUP7 SUB SLT ISZERO PUSH2 0x49CF JUMPI PUSH1 0x0 DUP1 REVERT JUMPDEST PUSH2 0x49D8 DUP5 PUSH2 0x4992 JUMP JUMPDEST SWAP3 POP PUSH2 0x49E6 PUSH1 0x20 DUP6 ADD PUSH2 0x4992 JUMP JUMPDEST SWAP2 POP PUSH2 0x49F4 PUSH1 0x40 DUP6 ADD PUSH2 0x49AA JUMP JUMPDEST SWAP1 POP SWAP3 POP SWAP3 POP SWAP3 JUMP JUMPDEST DUP1 MLOAD PUSH12 0xFFFFFFFFFFFFFFFFFFFFFFFF AND DUP3 MSTORE PUSH1 0x20 DUP2 ADD MLOAD PUSH2 0x4A2E PUSH1 0x20 DUP5 ADD DUP3 PUSH12 0xFFFFFFFFFFFFFFFFFFFFFFFF AND SWAP1 MSTORE JUMP JUMPDEST POP PUSH1 0x40 DUP2 ADD MLOAD PUSH2 0x4A4A PUSH1 0x40 DUP5 ADD DUP3 PUSH8 0xFFFFFFFFFFFFFFFF AND SWAP1 MSTORE JUMP JUMPDEST POP PUSH1 0x60 DUP2 ADD MLOAD PUSH2 0x4A6A PUSH1 0x60 DUP5 ADD DUP3 PUSH12 0xFFFFFFFFFFFFFFFFFFFFFFFF AND SWAP1 MSTORE JUMP JUMPDEST POP PUSH1 0x80 DUP2 ADD MLOAD PUSH2 0x4A8A PUSH1 0x80 DUP5 ADD DUP3 PUSH12 0xFFFFFFFFFFFFFFFFFFFFFFFF AND SWAP1 MSTORE JUMP JUMPDEST POP PUSH1 0xA0 DUP2 ADD MLOAD PUSH2 0x4AA6 PUSH1 0xA0 DUP5 ADD DUP3 PUSH8 0xFFFFFFFFFFFFFFFF AND SWAP1 MSTORE JUMP JUMPDEST POP PUSH1 0xC0 DUP2 ADD MLOAD PUSH2 0x4AC6 PUSH1 0xC0 DUP5 ADD DUP3 PUSH12 0xFFFFFFFFFFFFFFFFFFFFFFFF AND SWAP1 MSTORE JUMP JUMPDEST POP PUSH1 0xE0 DUP2 ADD MLOAD PUSH2 0x4AE6 PUSH1 0xE0 DUP5 ADD DUP3 PUSH12 0xFFFFFFFFFFFFFFFFFFFFFFFF AND SWAP1 MSTORE JUMP JUMPDEST POP PUSH2 0x100 DUP2 DUP2 ADD MLOAD PUSH8 0xFFFFFFFFFFFFFFFF AND SWAP1 DUP4 ADD MSTORE PUSH2 0x120 DUP1 DUP3 ADD MLOAD PUSH20 0xFFFFFFFFFFFFFFFFFFFFFFFFFFFFFFFFFFFFFFFF AND SWAP1 DUP4 ADD MSTORE PUSH2 0x140 DUP1 DUP3 ADD MLOAD PUSH4 0xFFFFFFFF SWAP1 DUP2 AND SWAP2 DUP5 ADD SWAP2 SWAP1 SWAP2 MSTORE PUSH2 0x160 DUP1 DUP4 ADD MLOAD DUP3 AND SWAP1 DUP5 ADD MSTORE PUSH2 0x180 DUP1 DUP4 ADD MLOAD DUP1 MLOAD SWAP1 SWAP3 AND DUP2 DUP6 ADD MSTORE PUSH1 0x20 DUP3 ADD MLOAD PUSH12 0xFFFFFFFFFFFFFFFFFFFFFFFF SWAP1 DUP2 AND PUSH2 0x1A0 DUP7 ADD MSTORE PUSH1 0x40 DUP4 ADD MLOAD DUP2 AND PUSH2 0x1C0 DUP7 ADD MSTORE PUSH1 0x60 DUP4 ADD MLOAD AND PUSH2 0x1E0 DUP6 ADD MSTORE SWAP1 PUSH2 0x348E JUMP JUMPDEST PUSH1 0x20 DUP1 DUP3 MSTORE DUP3 MLOAD DUP3 DUP3 ADD DUP2 SWAP1 MSTORE PUSH1 0x0 SWAP2 SWAP1 DUP5 DUP3 ADD SWAP1 PUSH1 0x40 DUP6 ADD SWAP1 DUP5 JUMPDEST DUP2 DUP2 LT ISZERO PUSH2 0x3805 JUMPI PUSH2 0x4BB9 DUP4 DUP6 MLOAD PUSH2 0x49FD JUMP JUMPDEST SWAP3 DUP5 ADD SWAP3 PUSH2 0x200 SWAP3 SWAP1 SWAP3 ADD SWAP2 PUSH1 0x1 ADD PUSH2 0x4BA6 JUMP JUMPDEST PUSH32 0xFF00000000000000000000000000000000000000000000000000000000000000 DUP9 AND DUP2 MSTORE PUSH1 0x0 PUSH1 0x20 PUSH1 0xE0 PUSH1 0x20 DUP5 ADD MSTORE PUSH2 0x4C0A PUSH1 0xE0 DUP5 ADD DUP11 PUSH2 0x4821 JUMP JUMPDEST DUP4 DUP2 SUB PUSH1 0x40 DUP6 ADD MSTORE PUSH2 0x4C1C DUP2 DUP11 PUSH2 0x4821 JUMP JUMPDEST PUSH1 0x60 DUP6 ADD DUP10 SWAP1 MSTORE PUSH20 0xFFFFFFFFFFFFFFFFFFFFFFFFFFFFFFFFFFFFFFFF DUP9 AND PUSH1 0x80 DUP7 ADD MSTORE PUSH1 0xA0 DUP6 ADD DUP8 SWAP1 MSTORE DUP5 DUP2 SUB PUSH1 0xC0 DUP7 ADD MSTORE DUP6 MLOAD DUP1 DUP3 MSTORE PUSH1 0x20 DUP1 DUP9 ADD SWAP4 POP SWAP1 SWAP2 ADD SWAP1 PUSH1 0x0 JUMPDEST DUP2 DUP2 LT ISZERO PUSH2 0x4C7D JUMPI DUP4 MLOAD DUP4 MSTORE SWAP3 DUP5 ADD SWAP3 SWAP2 DUP5 ADD SWAP2 PUSH1 0x1 ADD PUSH2 0x4C61 JUMP JUMPDEST POP SWAP1 SWAP13 SWAP12 POP POP POP POP POP POP POP POP POP POP POP POP JUMP JUMPDEST PUSH1 0x0 PUSH1 0x20 DUP3 DUP5 SUB SLT ISZERO PUSH2 0x4CA1 JUMPI PUSH1 0x0 DUP1 REVERT JUMPDEST PUSH2 0x1112 DUP3 PUSH2 0x4992 JUMP JUMPDEST PUSH2 0x200 DUP2 ADD PUSH2 0xF51 DUP3 DUP5 PUSH2 0x49FD JUMP JUMPDEST DUP1 CALLDATALOAD PUSH1 0xFF DUP2 AND DUP2 EQ PUSH2 0x48BC JUMPI PUSH1 0x0 DUP1 REVERT JUMPDEST PUSH1 0x0 DUP1 PUSH1 0x0 DUP1 PUSH1 0x0 DUP1 PUSH1 0x0 PUSH1 0xE0 DUP9 DUP11 SUB SLT ISZERO PUSH2 0x4CE5 JUMPI PUSH1 0x0 DUP1 REVERT JUMPDEST PUSH2 0x4CEE DUP9 PUSH2 0x4898 JUMP JUMPDEST SWAP7 POP PUSH2 0x4CFC PUSH1 0x20 DUP10 ADD PUSH2 0x4898 JUMP JUMPDEST SWAP6 POP PUSH1 0x40 DUP9 ADD CALLDATALOAD SWAP5 POP PUSH1 0x60 DUP9 ADD CALLDATALOAD SWAP4 POP PUSH2 0x4D18 PUSH1 0x80 DUP10 ADD PUSH2 0x4CB9 JUMP JUMPDEST SWAP3 POP PUSH1 0xA0 DUP9 ADD CALLDATALOAD SWAP2 POP PUSH1 0xC0 DUP9 ADD CALLDATALOAD SWAP1 POP SWAP3 SWAP6 SWAP9 SWAP2 SWAP5 SWAP8 POP SWAP3 SWAP6 POP JUMP JUMPDEST PUSH1 0x0 DUP1 PUSH1 0x40 DUP4 DUP6 SUB SLT ISZERO PUSH2 0x4D47 JUMPI PUSH1 0x0 DUP1 REVERT JUMPDEST PUSH2 0x4D50 DUP4 PUSH2 0x4898 JUMP JUMPDEST SWAP2 POP PUSH2 0x4D5E PUSH1 0x20 DUP5 ADD PUSH2 0x4898 JUMP JUMPDEST SWAP1 POP SWAP3 POP SWAP3 SWAP1 POP JUMP JUMPDEST PUSH1 0x0 DUP1 PUSH1 0x0 DUP1 PUSH1 0x80 DUP6 DUP8 SUB SLT ISZERO PUSH2 0x4D7D JUMPI PUSH1 0x0 DUP1 REVERT JUMPDEST PUSH2 0x4D86 DUP6 PUSH2 0x4898 JUMP JUMPDEST SWAP4 POP PUSH2 0x4D94 PUSH1 0x20 DUP7 ADD PUSH2 0x4992 JUMP JUMPDEST SWAP3 POP PUSH2 0x4DA2 PUSH1 0x40 DUP7 ADD PUSH2 0x4992 JUMP JUMPDEST SWAP2 POP PUSH2 0x4DB0 PUSH1 0x60 DUP7 ADD PUSH2 0x49AA JUMP JUMPDEST SWAP1 POP SWAP3 SWAP6 SWAP2 SWAP5 POP SWAP3 POP JUMP JUMPDEST PUSH1 0x0 DUP1 PUSH1 0x0 DUP1 PUSH1 0x0 PUSH1 0xA0 DUP7 DUP9 SUB SLT ISZERO PUSH2 0x4DD3 JUMPI PUSH1 0x0 DUP1 REVERT JUMPDEST PUSH2 0x4DDC DUP7 PUSH2 0x4927 JUMP JUMPDEST SWAP5 POP PUSH2 0x4DEA PUSH1 0x20 DUP8 ADD PUSH2 0x4927 JUMP JUMPDEST SWAP4 POP PUSH2 0x4DF8 PUSH1 0x40 DUP8 ADD PUSH2 0x4992 JUMP JUMPDEST SWAP3 POP PUSH1 0x60 DUP7 ADD CALLDATALOAD PUSH4 0xFFFFFFFF DUP2 AND DUP2 EQ PUSH2 0x4E11 JUMPI PUSH1 0x0 DUP1 REVERT JUMPDEST SWAP2 POP PUSH2 0x4E1F PUSH1 0x80 DUP8 ADD PUSH2 0x4CB9 JUMP JUMPDEST SWAP1 POP SWAP3 SWAP6 POP SWAP3 SWAP6 SWAP1 SWAP4 POP JUMP JUMPDEST PUSH1 0x0 DUP1 PUSH1 0x40 DUP4 DUP6 SUB SLT ISZERO PUSH2 0x4E3E JUMPI PUSH1 0x0 DUP1 REVERT JUMPDEST PUSH2 0x4E47 DUP4 PUSH2 0x4927 JUMP JUMPDEST SWAP2 POP PUSH2 0x4D5E PUSH1 0x20 DUP5 ADD PUSH2 0x4927 JUMP JUMPDEST PUSH1 0x1 DUP2 DUP2 SHR SWAP1 DUP3 AND DUP1 PUSH2 0x4E69 JUMPI PUSH1 0x7F DUP3 AND SWAP2 POP JUMPDEST PUSH1 0x20 DUP3 LT DUP2 SUB PUSH2 0x4EA2 JUMPI PUSH32 0x4E487B7100000000000000000000000000000000000000000000000000000000 PUSH1 0x0 MSTORE PUSH1 0x22 PUSH1 0x4 MSTORE PUSH1 0x24 PUSH1 0x0 REVERT JUMPDEST POP SWAP2 SWAP1 POP JUMP JUMPDEST PUSH32 0x4E487B7100000000000000000000000000000000000000000000000000000000 PUSH1 0x0 MSTORE PUSH1 0x11 PUSH1 0x4 MSTORE PUSH1 0x24 PUSH1 0x0 REVERT JUMPDEST DUP2 DUP2 SUB DUP2 DUP2 GT ISZERO PUSH2 0xF51 JUMPI PUSH2 0xF51 PUSH2 0x4EA8 JUMP JUMPDEST PUSH32 0x4E487B7100000000000000000000000000000000000000000000000000000000 PUSH1 0x0 MSTORE PUSH1 0x41 PUSH1 0x4 MSTORE PUSH1 0x24 PUSH1 0x0 REVERT JUMPDEST PUSH8 0xFFFFFFFFFFFFFFFF DUP2 DUP2 AND DUP4 DUP3 AND ADD SWAP1 DUP1 DUP3 GT ISZERO PUSH2 0x4F3A JUMPI PUSH2 0x4F3A PUSH2 0x4EA8 JUMP JUMPDEST POP SWAP3 SWAP2 POP POP JUMP JUMPDEST PUSH8 0xFFFFFFFFFFFFFFFF DUP3 DUP2 AND DUP3 DUP3 AND SUB SWAP1 DUP1 DUP3 GT ISZERO PUSH2 0x4F3A JUMPI PUSH2 0x4F3A PUSH2 0x4EA8 JUMP JUMPDEST PUSH32 0x4E487B7100000000000000000000000000000000000000000000000000000000 PUSH1 0x0 MSTORE PUSH1 0x32 PUSH1 0x4 MSTORE PUSH1 0x24 PUSH1 0x0 REVERT JUMPDEST DUP1 DUP3 MUL DUP2 ISZERO DUP3 DUP3 DIV DUP5 EQ OR PUSH2 0xF51 JUMPI PUSH2 0xF51 PUSH2 0x4EA8 JUMP JUMPDEST PUSH32 0x4E487B7100000000000000000000000000000000000000000000000000000000 PUSH1 0x0 MSTORE PUSH1 0x12 PUSH1 0x4 MSTORE PUSH1 0x24 PUSH1 0x0 REVERT JUMPDEST PUSH1 0x0 DUP3 PUSH2 0x500D JUMPI PUSH32 0x4E487B7100000000000000000000000000000000000000000000000000000000 PUSH1 0x0 MSTORE PUSH1 0x12 PUSH1 0x4 MSTORE PUSH1 0x24 PUSH1 0x0 REVERT JUMPDEST POP DIV SWAP1 JUMP JUMPDEST PUSH8 0xFFFFFFFFFFFFFFFF DUP2 DUP2 AND DUP4 DUP3 AND MUL DUP1 DUP3 AND SWAP2 SWAP1 DUP3 DUP2 EQ PUSH2 0x5036 JUMPI PUSH2 0x5036 PUSH2 0x4EA8 JUMP JUMPDEST POP POP SWAP3 SWAP2 POP POP JUMP JUMPDEST PUSH1 0x0 PUSH8 0xFFFFFFFFFFFFFFFF DUP1 DUP4 AND DUP2 DUP2 SUB PUSH2 0x505B JUMPI PUSH2 0x505B PUSH2 0x4EA8 JUMP JUMPDEST PUSH1 0x1 ADD SWAP4 SWAP3 POP POP POP JUMP JUMPDEST PUSH12 0xFFFFFFFFFFFFFFFFFFFFFFFF DUP3 DUP2 AND DUP3 DUP3 AND SUB SWAP1 DUP1 DUP3 GT ISZERO PUSH2 0x4F3A JUMPI PUSH2 0x4F3A PUSH2 0x4EA8 JUMP JUMPDEST PUSH1 0x0 PUSH1 0x20 DUP3 DUP5 SUB SLT ISZERO PUSH2 0x509C JUMPI PUSH1 0x0 DUP1 REVERT JUMPDEST POP MLOAD SWAP2 SWAP1 POP JUMP JUMPDEST DUP1 DUP3 ADD DUP1 DUP3 GT ISZERO PUSH2 0xF51 JUMPI PUSH2 0xF51 PUSH2 0x4EA8 JUMP JUMPDEST PUSH1 0x0 PUSH2 0x180 DUP3 ADD SWAP1 POP PUSH12 0xFFFFFFFFFFFFFFFFFFFFFFFF DUP1 DUP11 AND DUP4 MSTORE DUP1 DUP10 AND PUSH1 0x20 DUP5 ADD MSTORE DUP1 DUP9 AND PUSH1 0x40 DUP5 ADD MSTORE DUP1 DUP8 AND PUSH1 0x60 DUP5 ADD MSTORE PUSH4 0xFFFFFFFF DUP1 DUP8 AND PUSH1 0x80 DUP6 ADD MSTORE DUP6 SLOAD DUP2 DUP2 AND PUSH1 0xA0 DUP7 ADD MSTORE DUP3 DUP2 PUSH1 0x20 SHR AND PUSH1 0xC0 DUP7 ADD MSTORE DUP3 DUP2 PUSH1 0x80 SHR AND PUSH1 0xE0 DUP7 ADD MSTORE POP POP DUP1 PUSH1 0x1 DUP7 ADD SLOAD AND PUSH2 0x100 DUP5 ADD MSTORE POP PUSH2 0x5148 PUSH2 0x120 DUP4 ADD DUP5 DUP1 MLOAD DUP3 MSTORE PUSH1 0x20 DUP1 DUP3 ADD MLOAD SWAP1 DUP4 ADD MSTORE PUSH1 0x40 SWAP1 DUP2 ADD MLOAD SWAP2 ADD MSTORE JUMP JUMPDEST SWAP9 SWAP8 POP POP POP POP POP POP POP POP JUMP JUMPDEST PUSH32 0x4E487B7100000000000000000000000000000000000000000000000000000000 PUSH1 0x0 MSTORE PUSH1 0x1 PUSH1 0x4 MSTORE PUSH1 0x24 PUSH1 0x0 REVERT JUMPDEST PUSH32 0x4E487B7100000000000000000000000000000000000000000000000000000000 PUSH1 0x0 MSTORE PUSH1 0x21 PUSH1 0x4 MSTORE PUSH1 0x24 PUSH1 0x0 REVERT INVALID LOG2 PUSH5 0x6970667358 0x22 SLT KECCAK256 0xAE RETURN DUP6 RETURN CALL 0xC9 DUP7 0xC6 ADDMOD PUSH8 0x2EE02620ECBB027D LOG0 0xC8 0xF 0x22 SWAP3 MUL 0xEF PUSH10 0xE28F9B05973864736F6C PUSH4 0x43000819 STOP CALLER "
		},
		"gasEstimates": {
			"creation": {
				"codeDepositCost": "4193600",
				"executionCost": "infinite",
				"totalCost": "infinite"
			},
			"external": {
				"": "infinite",
				"DOMAIN_SEPARATOR()": "infinite",
				"allowance(address,address)": "infinite",
				"approve(address,uint256)": "24713",
				"balanceOf(address)": "2602",
				"burn(uint256)": "50899",
				"burnFrom(address,uint256)": "infinite",
				"claimCredit()": "infinite",
				"decimals()": "267",
				"eip712Domain()": "infinite",
				"getConfiguration()": "infinite",
				"getPlayerInfo(address)": "4764",
				"getState()": "15324",
				"getSubmission(uint64)": "14928",
				"name()": "infinite",
				"nonces(address)": "2637",
				"owner()": "2397",
				"permit(address,address,uint256,uint256,uint8,bytes32,bytes32)": "infinite",
				"play(uint96)": "infinite",
				"playWithFee(uint96,uint96)": "infinite",
				"queryMySubmissions(uint64,uint64,bool)": "infinite",
				"queryPlayerSubmissions(address,uint64,uint64,bool)": "infinite",
				"querySubmissions(uint64,uint64,bool)": "infinite",
				"randomNumberContractAddress()": "250",
				"redeem(uint256)": "infinite",
				"refund(uint64)": "infinite",
				"renounceOwnership()": "infinite",
				"setConfiguration(uint96,uint96,uint64,uint32,uint8)": "infinite",
				"symbol()": "infinite",
				"totalSupply()": "2394",
				"transfer(address,uint256)": "51182",
				"transferFrom(address,address,uint256)": "infinite",
				"transferOwnership(address)": "28362",
				"updateTrasuryCoinsWithdrawAddress(address)": "30518",
				"withdrawTreasuryCoins(uint96)": "infinite",
				"withdrawTreasuryTokens(address,uint256)": "55183"
			},
			"internal": {
				"_requestRandom(uint64)": "infinite"
			}
		},
		"methodIdentifiers": {
			"DOMAIN_SEPARATOR()": "3644e515",
			"allowance(address,address)": "dd62ed3e",
			"approve(address,uint256)": "095ea7b3",
			"balanceOf(address)": "70a08231",
			"burn(uint256)": "42966c68",
			"burnFrom(address,uint256)": "79cc6790",
			"claimCredit()": "1333db2e",
			"decimals()": "313ce567",
			"eip712Domain()": "84b0196e",
			"getConfiguration()": "6bd50cef",
			"getPlayerInfo(address)": "59328401",
			"getState()": "1865c57d",
			"getSubmission(uint64)": "89b94cca",
			"name()": "06fdde03",
			"nonces(address)": "7ecebe00",
			"owner()": "8da5cb5b",
			"permit(address,address,uint256,uint256,uint8,bytes32,bytes32)": "d505accf",
			"play(uint96)": "621ad856",
			"playWithFee(uint96,uint96)": "fe585b7f",
			"queryMySubmissions(uint64,uint64,bool)": "ff2d9665",
			"queryPlayerSubmissions(address,uint64,uint64,bool)": "ed042c9b",
			"querySubmissions(uint64,uint64,bool)": "6142b027",
			"randomNumberContractAddress()": "75f8300e",
			"redeem(uint256)": "db006a75",
			"refund(uint64)": "d7194ccb",
			"renounceOwnership()": "715018a6",
			"setConfiguration(uint96,uint96,uint64,uint32,uint8)": "f516ec9f",
			"symbol()": "95d89b41",
			"totalSupply()": "18160ddd",
			"transfer(address,uint256)": "a9059cbb",
			"transferFrom(address,address,uint256)": "23b872dd",
			"transferOwnership(address)": "f2fde38b",
			"updateTrasuryCoinsWithdrawAddress(address)": "4bd8ec5e",
			"withdrawTreasuryCoins(uint96)": "419bbb76",
			"withdrawTreasuryTokens(address,uint256)": "b63bdd54"
		}
	},
	"abi": [
		{
			"inputs": [
				{
					"internalType": "address",
					"name": "initialOwner",
					"type": "address"
				}
			],
			"stateMutability": "nonpayable",
			"type": "constructor"
		},
		{
			"inputs": [],
			"name": "ECDSAInvalidSignature",
			"type": "error"
		},
		{
			"inputs": [
				{
					"internalType": "uint256",
					"name": "length",
					"type": "uint256"
				}
			],
			"name": "ECDSAInvalidSignatureLength",
			"type": "error"
		},
		{
			"inputs": [
				{
					"internalType": "bytes32",
					"name": "s",
					"type": "bytes32"
				}
			],
			"name": "ECDSAInvalidSignatureS",
			"type": "error"
		},
		{
			"inputs": [
				{
					"internalType": "address",
					"name": "spender",
					"type": "address"
				},
				{
					"internalType": "uint256",
					"name": "allowance",
					"type": "uint256"
				},
				{
					"internalType": "uint256",
					"name": "needed",
					"type": "uint256"
				}
			],
			"name": "ERC20InsufficientAllowance",
			"type": "error"
		},
		{
			"inputs": [
				{
					"internalType": "address",
					"name": "sender",
					"type": "address"
				},
				{
					"internalType": "uint256",
					"name": "balance",
					"type": "uint256"
				},
				{
					"internalType": "uint256",
					"name": "needed",
					"type": "uint256"
				}
			],
			"name": "ERC20InsufficientBalance",
			"type": "error"
		},
		{
			"inputs": [
				{
					"internalType": "address",
					"name": "approver",
					"type": "address"
				}
			],
			"name": "ERC20InvalidApprover",
			"type": "error"
		},
		{
			"inputs": [
				{
					"internalType": "address",
					"name": "receiver",
					"type": "address"
				}
			],
			"name": "ERC20InvalidReceiver",
			"type": "error"
		},
		{
			"inputs": [
				{
					"internalType": "address",
					"name": "sender",
					"type": "address"
				}
			],
			"name": "ERC20InvalidSender",
			"type": "error"
		},
		{
			"inputs": [
				{
					"internalType": "address",
					"name": "spender",
					"type": "address"
				}
			],
			"name": "ERC20InvalidSpender",
			"type": "error"
		},
		{
			"inputs": [
				{
					"internalType": "uint256",
					"name": "deadline",
					"type": "uint256"
				}
			],
			"name": "ERC2612ExpiredSignature",
			"type": "error"
		},
		{
			"inputs": [
				{
					"internalType": "address",
					"name": "signer",
					"type": "address"
				},
				{
					"internalType": "address",
					"name": "owner",
					"type": "address"
				}
			],
			"name": "ERC2612InvalidSigner",
			"type": "error"
		},
		{
			"inputs": [
				{
					"internalType": "uint256",
					"name": "balance",
					"type": "uint256"
				},
				{
					"internalType": "uint256",
					"name": "payment",
					"type": "uint256"
				}
			],
			"name": "InsufficientBalance",
			"type": "error"
		},
		{
			"inputs": [
				{
					"internalType": "address",
					"name": "account",
					"type": "address"
				},
				{
					"internalType": "uint256",
					"name": "currentNonce",
					"type": "uint256"
				}
			],
			"name": "InvalidAccountNonce",
			"type": "error"
		},
		{
			"inputs": [],
			"name": "InvalidAddress",
			"type": "error"
		},
		{
			"inputs": [
				{
					"internalType": "uint64",
					"name": "submissionId",
					"type": "uint64"
				},
				{
					"internalType": "address",
					"name": "initiator",
					"type": "address"
				},
				{
					"internalType": "address",
					"name": "expectedInitiator",
					"type": "address"
				}
			],
			"name": "InvalidRefundInitiator",
			"type": "error"
		},
		{
			"inputs": [],
			"name": "InvalidShortString",
			"type": "error"
		},
		{
			"inputs": [
				{
					"internalType": "address",
					"name": "owner",
					"type": "address"
				}
			],
			"name": "OwnableInvalidOwner",
			"type": "error"
		},
		{
			"inputs": [
				{
					"internalType": "address",
					"name": "account",
					"type": "address"
				}
			],
			"name": "OwnableUnauthorizedAccount",
			"type": "error"
		},
		{
			"inputs": [
				{
					"internalType": "uint8",
					"name": "bits",
					"type": "uint8"
				},
				{
					"internalType": "uint256",
					"name": "value",
					"type": "uint256"
				}
			],
			"name": "SafeCastOverflowedUintDowncast",
			"type": "error"
		},
		{
			"inputs": [
				{
					"internalType": "string",
					"name": "str",
					"type": "string"
				}
			],
			"name": "StringTooLong",
			"type": "error"
		},
		{
			"inputs": [
				{
					"internalType": "uint64",
					"name": "submissionId",
					"type": "uint64"
				}
			],
			"name": "SubmissionAlreadyProcessed",
			"type": "error"
		},
		{
			"inputs": [
				{
					"internalType": "uint64",
					"name": "submissionId",
					"type": "uint64"
				}
			],
			"name": "SubmissionBeingProcessed",
			"type": "error"
		},
		{
			"anonymous": false,
			"inputs": [
				{
					"indexed": true,
					"internalType": "address",
					"name": "owner",
					"type": "address"
				},
				{
					"indexed": true,
					"internalType": "address",
					"name": "spender",
					"type": "address"
				},
				{
					"indexed": false,
					"internalType": "uint256",
					"name": "value",
					"type": "uint256"
				}
			],
			"name": "Approval",
			"type": "event"
		},
		{
			"anonymous": false,
			"inputs": [
				{
					"indexed": false,
					"internalType": "address",
					"name": "owner",
					"type": "address"
				},
				{
					"indexed": false,
					"internalType": "uint64",
					"name": "submissionsPerEpoch",
					"type": "uint64"
				},
				{
					"indexed": false,
					"internalType": "uint96",
					"name": "maxRewardTokensPerEth",
					"type": "uint96"
				},
				{
					"indexed": false,
					"internalType": "uint96",
					"name": "projectFee",
					"type": "uint96"
				},
				{
					"indexed": false,
					"internalType": "uint96",
					"name": "houseEdgeFixed",
					"type": "uint96"
				},
				{
					"indexed": false,
					"internalType": "uint96",
					"name": "houseEdgeRate",
					"type": "uint96"
				},
				{
					"indexed": false,
					"internalType": "uint32",
					"name": "transferGasLimit",
					"type": "uint32"
				},
				{
					"indexed": false,
					"internalType": "uint8",
					"name": "redemptionEpochForwardOffset",
					"type": "uint8"
				}
			],
			"name": "ConfigurationChanged",
			"type": "event"
		},
		{
			"anonymous": false,
			"inputs": [
				{
					"indexed": false,
					"internalType": "address",
					"name": "player",
					"type": "address"
				},
				{
					"indexed": false,
					"internalType": "uint256",
					"name": "amount",
					"type": "uint256"
				}
			],
			"name": "CreditClaimed",
			"type": "event"
		},
		{
			"anonymous": false,
			"inputs": [
				{
					"indexed": false,
					"internalType": "address",
					"name": "player",
					"type": "address"
				},
				{
					"indexed": false,
					"internalType": "uint256",
					"name": "amount",
					"type": "uint256"
				}
			],
			"name": "CreditIssued",
			"type": "event"
		},
		{
			"anonymous": false,
			"inputs": [],
			"name": "EIP712DomainChanged",
			"type": "event"
		},
		{
			"anonymous": false,
			"inputs": [
				{
					"indexed": true,
					"internalType": "address",
					"name": "player",
					"type": "address"
				},
				{
					"indexed": false,
					"internalType": "uint96",
					"name": "wager",
					"type": "uint96"
				},
				{
					"indexed": false,
					"internalType": "uint96",
					"name": "prepaidProjectFee",
					"type": "uint96"
				},
				{
					"indexed": true,
					"internalType": "uint64",
					"name": "submissionId",
					"type": "uint64"
				},
				{
					"indexed": false,
					"internalType": "uint96",
					"name": "multiplier",
					"type": "uint96"
				},
				{
					"indexed": false,
					"internalType": "uint96",
					"name": "multiplierBoostTokens",
					"type": "uint96"
				},
				{
					"indexed": false,
					"internalType": "uint32",
					"name": "bet",
					"type": "uint32"
				},
				{
					"indexed": true,
					"internalType": "uint32",
					"name": "status",
					"type": "uint32"
				},
				{
					"components": [
						{
							"internalType": "uint32",
							"name": "roll",
							"type": "uint32"
						},
						{
							"internalType": "uint96",
							"name": "payoutCoins",
							"type": "uint96"
						},
						{
							"internalType": "uint96",
							"name": "payoutTokens",
							"type": "uint96"
						},
						{
							"internalType": "uint96",
							"name": "refundCoins",
							"type": "uint96"
						}
					],
					"indexed": false,
					"internalType": "struct IUDICE.SubmissionOutcome",
					"name": "outcome",
					"type": "tuple"
				},
				{
					"components": [
						{
							"internalType": "uint256",
							"name": "rewardPool",
							"type": "uint256"
						},
						{
							"internalType": "uint256",
							"name": "playerTokenBalance",
							"type": "uint256"
						},
						{
							"internalType": "uint256",
							"name": "totalTokenSupply",
							"type": "uint256"
						}
					],
					"indexed": false,
					"internalType": "struct IUDICE.SubmissionEventState",
					"name": "state",
					"type": "tuple"
				}
			],
			"name": "Outcome",
			"type": "event"
		},
		{
			"anonymous": false,
			"inputs": [
				{
					"indexed": false,
					"internalType": "uint64[]",
					"name": "submissionIds",
					"type": "uint64[]"
				},
				{
					"indexed": false,
					"internalType": "uint32[]",
					"name": "submissionStatuses",
					"type": "uint32[]"
				}
			],
			"name": "OwnerRequestedRefunds",
			"type": "event"
		},
		{
			"anonymous": false,
			"inputs": [
				{
					"indexed": true,
					"internalType": "address",
					"name": "previousOwner",
					"type": "address"
				},
				{
					"indexed": true,
					"internalType": "address",
					"name": "newOwner",
					"type": "address"
				}
			],
			"name": "OwnershipTransferred",
			"type": "event"
		},
		{
			"anonymous": false,
			"inputs": [
				{
					"indexed": false,
					"internalType": "uint64",
					"name": "submissionId",
					"type": "uint64"
				},
				{
					"indexed": false,
					"internalType": "uint96",
					"name": "projectFee",
					"type": "uint96"
				},
				{
					"indexed": false,
					"internalType": "uint96",
					"name": "prepaidProjectFee",
					"type": "uint96"
				},
				{
					"indexed": false,
					"internalType": "uint96",
					"name": "onTheHouseProjectFee",
					"type": "uint96"
				},
				{
					"indexed": false,
					"internalType": "uint256",
					"name": "tokensInLieuOfOnTheHouseProjectFee",
					"type": "uint256"
				}
			],
			"name": "ProjectFeeCharged",
			"type": "event"
		},
		{
			"anonymous": false,
			"inputs": [
				{
					"indexed": false,
					"internalType": "address",
					"name": "player",
					"type": "address"
				},
				{
					"indexed": false,
					"internalType": "uint256",
					"name": "burntTokens",
					"type": "uint256"
				},
				{
					"indexed": false,
					"internalType": "uint256",
					"name": "tokensValue",
					"type": "uint256"
				},
				{
					"indexed": false,
					"internalType": "uint256",
					"name": "withdrawTax",
					"type": "uint256"
				},
				{
					"indexed": false,
					"internalType": "uint256",
					"name": "payoutCoins",
					"type": "uint256"
				}
			],
			"name": "Redeemed",
			"type": "event"
		},
		{
			"anonymous": false,
			"inputs": [
				{
					"indexed": true,
					"internalType": "address",
					"name": "player",
					"type": "address"
				},
				{
					"indexed": false,
					"internalType": "uint96",
					"name": "wager",
					"type": "uint96"
				},
				{
					"indexed": false,
					"internalType": "uint96",
					"name": "prepaidProjectFee",
					"type": "uint96"
				},
				{
					"indexed": true,
					"internalType": "uint64",
					"name": "submissionId",
					"type": "uint64"
				},
				{
					"indexed": false,
					"internalType": "uint96",
					"name": "multiplier",
					"type": "uint96"
				},
				{
					"indexed": false,
					"internalType": "uint96",
					"name": "multiplierBoostTokens",
					"type": "uint96"
				},
				{
					"indexed": false,
					"internalType": "uint32",
					"name": "bet",
					"type": "uint32"
				},
				{
					"indexed": false,
					"internalType": "uint32",
					"name": "status",
					"type": "uint32"
				},
				{
					"components": [
						{
							"internalType": "uint96",
							"name": "projectFee",
							"type": "uint96"
						},
						{
							"internalType": "uint96",
							"name": "houseEdgeFixed",
							"type": "uint96"
						},
						{
							"internalType": "uint64",
							"name": "houseEdgeRate",
							"type": "uint64"
						}
					],
					"indexed": false,
					"internalType": "struct IUDICE.SubmissionEventConfig",
					"name": "config",
					"type": "tuple"
				}
			],
			"name": "Submitted",
			"type": "event"
		},
		{
			"anonymous": false,
			"inputs": [
				{
					"indexed": true,
					"internalType": "address",
					"name": "from",
					"type": "address"
				},
				{
					"indexed": true,
					"internalType": "address",
					"name": "to",
					"type": "address"
				},
				{
					"indexed": false,
					"internalType": "uint256",
					"name": "value",
					"type": "uint256"
				}
			],
			"name": "Transfer",
			"type": "event"
		},
		{
			"anonymous": false,
			"inputs": [
				{
					"indexed": false,
					"internalType": "address",
					"name": "owner",
					"type": "address"
				},
				{
					"indexed": false,
					"internalType": "address",
					"name": "oldAddress",
					"type": "address"
				},
				{
					"indexed": false,
					"internalType": "address",
					"name": "newAddress",
					"type": "address"
				}
			],
			"name": "TreasuryCoinsWithdrawAddressChange",
			"type": "event"
		},
		{
			"anonymous": false,
			"inputs": [
				{
					"indexed": false,
					"internalType": "address",
					"name": "owner",
					"type": "address"
				},
				{
					"indexed": false,
					"internalType": "address",
					"name": "to",
					"type": "address"
				},
				{
					"indexed": false,
					"internalType": "uint256",
					"name": "coins",
					"type": "uint256"
				},
				{
					"indexed": false,
					"internalType": "uint256",
					"name": "tokens",
					"type": "uint256"
				}
			],
			"name": "TreasuryWithdrawn",
			"type": "event"
		},
		{
			"stateMutability": "payable",
			"type": "fallback"
		},
		{
			"inputs": [],
			"name": "DOMAIN_SEPARATOR",
			"outputs": [
				{
					"internalType": "bytes32",
					"name": "",
					"type": "bytes32"
				}
			],
			"stateMutability": "view",
			"type": "function"
		},
		{
			"inputs": [
				{
					"internalType": "address",
					"name": "owner",
					"type": "address"
				},
				{
					"internalType": "address",
					"name": "spender",
					"type": "address"
				}
			],
			"name": "allowance",
			"outputs": [
				{
					"internalType": "uint256",
					"name": "",
					"type": "uint256"
				}
			],
			"stateMutability": "view",
			"type": "function"
		},
		{
			"inputs": [
				{
					"internalType": "address",
					"name": "spender",
					"type": "address"
				},
				{
					"internalType": "uint256",
					"name": "value",
					"type": "uint256"
				}
			],
			"name": "approve",
			"outputs": [
				{
					"internalType": "bool",
					"name": "",
					"type": "bool"
				}
			],
			"stateMutability": "nonpayable",
			"type": "function"
		},
		{
			"inputs": [
				{
					"internalType": "address",
					"name": "account",
					"type": "address"
				}
			],
			"name": "balanceOf",
			"outputs": [
				{
					"internalType": "uint256",
					"name": "",
					"type": "uint256"
				}
			],
			"stateMutability": "view",
			"type": "function"
		},
		{
			"inputs": [
				{
					"internalType": "uint256",
					"name": "value",
					"type": "uint256"
				}
			],
			"name": "burn",
			"outputs": [],
			"stateMutability": "nonpayable",
			"type": "function"
		},
		{
			"inputs": [
				{
					"internalType": "address",
					"name": "account",
					"type": "address"
				},
				{
					"internalType": "uint256",
					"name": "value",
					"type": "uint256"
				}
			],
			"name": "burnFrom",
			"outputs": [],
			"stateMutability": "nonpayable",
			"type": "function"
		},
		{
			"inputs": [],
			"name": "claimCredit",
			"outputs": [],
			"stateMutability": "nonpayable",
			"type": "function"
		},
		{
			"inputs": [],
			"name": "decimals",
			"outputs": [
				{
					"internalType": "uint8",
					"name": "",
					"type": "uint8"
				}
			],
			"stateMutability": "view",
			"type": "function"
		},
		{
			"inputs": [],
			"name": "eip712Domain",
			"outputs": [
				{
					"internalType": "bytes1",
					"name": "fields",
					"type": "bytes1"
				},
				{
					"internalType": "string",
					"name": "name",
					"type": "string"
				},
				{
					"internalType": "string",
					"name": "version",
					"type": "string"
				},
				{
					"internalType": "uint256",
					"name": "chainId",
					"type": "uint256"
				},
				{
					"internalType": "address",
					"name": "verifyingContract",
					"type": "address"
				},
				{
					"internalType": "bytes32",
					"name": "salt",
					"type": "bytes32"
				},
				{
					"internalType": "uint256[]",
					"name": "extensions",
					"type": "uint256[]"
				}
			],
			"stateMutability": "view",
			"type": "function"
		},
		{
			"inputs": [],
			"name": "getConfiguration",
			"outputs": [
				{
					"internalType": "uint256",
					"name": "submissionsPerEpoch",
					"type": "uint256"
				},
				{
					"internalType": "uint256",
					"name": "maxRewardTokensPerEth",
					"type": "uint256"
				},
				{
					"internalType": "uint256",
					"name": "projectFee",
					"type": "uint256"
				},
				{
					"internalType": "uint256",
					"name": "houseEdgeFixed",
					"type": "uint256"
				},
				{
					"internalType": "uint256",
					"name": "houseEdgeRate",
					"type": "uint256"
				},
				{
					"internalType": "uint256",
					"name": "transferGasLimit",
					"type": "uint256"
				},
				{
					"internalType": "uint8",
					"name": "redemptionEpochForwardOffset",
					"type": "uint8"
				}
			],
			"stateMutability": "view",
			"type": "function"
		},
		{
			"inputs": [
				{
					"internalType": "address",
					"name": "player",
					"type": "address"
				}
			],
			"name": "getPlayerInfo",
			"outputs": [
				{
					"internalType": "uint256",
					"name": "credit",
					"type": "uint256"
				},
				{
					"internalType": "uint256",
					"name": "submissionsCount",
					"type": "uint256"
				}
			],
			"stateMutability": "view",
			"type": "function"
		},
		{
			"inputs": [],
			"name": "getState",
			"outputs": [
				{
					"internalType": "uint256",
					"name": "submissionsCount",
					"type": "uint256"
				},
				{
					"internalType": "uint256",
					"name": "pendingPool",
					"type": "uint256"
				},
				{
					"internalType": "uint256",
					"name": "treasuryPool",
					"type": "uint256"
				},
				{
					"internalType": "uint256",
					"name": "rewardPool",
					"type": "uint256"
				},
				{
					"internalType": "uint256",
					"name": "creditPool",
					"type": "uint256"
				},
				{
					"internalType": "uint256",
					"name": "balance",
					"type": "uint256"
				},
				{
					"internalType": "uint256",
					"name": "treasuryTokens",
					"type": "uint256"
				},
				{
					"internalType": "uint256",
					"name": "totalSupply",
					"type": "uint256"
				}
			],
			"stateMutability": "view",
			"type": "function"
		},
		{
			"inputs": [
				{
					"internalType": "uint64",
					"name": "submissionId",
					"type": "uint64"
				}
			],
			"name": "getSubmission",
			"outputs": [
				{
					"components": [
						{
							"internalType": "uint96",
							"name": "wager",
							"type": "uint96"
						},
						{
							"internalType": "uint96",
							"name": "projectFee",
							"type": "uint96"
						},
						{
							"internalType": "uint64",
							"name": "blockNumber",
							"type": "uint64"
						},
						{
							"internalType": "uint96",
							"name": "prepaidProjectFee",
							"type": "uint96"
						},
						{
							"internalType": "uint96",
							"name": "multiplier",
							"type": "uint96"
						},
						{
							"internalType": "uint64",
							"name": "houseEdgeRate",
							"type": "uint64"
						},
						{
							"internalType": "uint96",
							"name": "multiplierBoostTokens",
							"type": "uint96"
						},
						{
							"internalType": "uint96",
							"name": "houseEdgeFixed",
							"type": "uint96"
						},
						{
							"internalType": "uint64",
							"name": "submissionId",
							"type": "uint64"
						},
						{
							"internalType": "address payable",
							"name": "player",
							"type": "address"
						},
						{
							"internalType": "uint32",
							"name": "bet",
							"type": "uint32"
						},
						{
							"internalType": "uint32",
							"name": "status",
							"type": "uint32"
						},
						{
							"components": [
								{
									"internalType": "uint32",
									"name": "roll",
									"type": "uint32"
								},
								{
									"internalType": "uint96",
									"name": "payoutCoins",
									"type": "uint96"
								},
								{
									"internalType": "uint96",
									"name": "payoutTokens",
									"type": "uint96"
								},
								{
									"internalType": "uint96",
									"name": "refundCoins",
									"type": "uint96"
								}
							],
							"internalType": "struct IUDICE.SubmissionOutcome",
							"name": "outcome",
							"type": "tuple"
						}
					],
					"internalType": "struct IUDICE.Submission",
					"name": "",
					"type": "tuple"
				}
			],
			"stateMutability": "view",
			"type": "function"
		},
		{
			"inputs": [],
			"name": "name",
			"outputs": [
				{
					"internalType": "string",
					"name": "",
					"type": "string"
				}
			],
			"stateMutability": "view",
			"type": "function"
		},
		{
			"inputs": [
				{
					"internalType": "address",
					"name": "owner",
					"type": "address"
				}
			],
			"name": "nonces",
			"outputs": [
				{
					"internalType": "uint256",
					"name": "",
					"type": "uint256"
				}
			],
			"stateMutability": "view",
			"type": "function"
		},
		{
			"inputs": [],
			"name": "owner",
			"outputs": [
				{
					"internalType": "address",
					"name": "",
					"type": "address"
				}
			],
			"stateMutability": "view",
			"type": "function"
		},
		{
			"inputs": [
				{
					"internalType": "address",
					"name": "owner",
					"type": "address"
				},
				{
					"internalType": "address",
					"name": "spender",
					"type": "address"
				},
				{
					"internalType": "uint256",
					"name": "value",
					"type": "uint256"
				},
				{
					"internalType": "uint256",
					"name": "deadline",
					"type": "uint256"
				},
				{
					"internalType": "uint8",
					"name": "v",
					"type": "uint8"
				},
				{
					"internalType": "bytes32",
					"name": "r",
					"type": "bytes32"
				},
				{
					"internalType": "bytes32",
					"name": "s",
					"type": "bytes32"
				}
			],
			"name": "permit",
			"outputs": [],
			"stateMutability": "nonpayable",
			"type": "function"
		},
		{
			"inputs": [
				{
					"internalType": "uint96",
					"name": "multiplier",
					"type": "uint96"
				}
			],
			"name": "play",
			"outputs": [],
			"stateMutability": "payable",
			"type": "function"
		},
		{
			"inputs": [
				{
					"internalType": "uint96",
					"name": "multiplier",
					"type": "uint96"
				},
				{
					"internalType": "uint96",
					"name": "prepaidProjectFee",
					"type": "uint96"
				}
			],
			"name": "playWithFee",
			"outputs": [],
			"stateMutability": "payable",
			"type": "function"
		},
		{
			"inputs": [
				{
					"internalType": "uint64",
					"name": "offset",
					"type": "uint64"
				},
				{
					"internalType": "uint64",
					"name": "limit",
					"type": "uint64"
				},
				{
					"internalType": "bool",
					"name": "ascend",
					"type": "bool"
				}
			],
			"name": "queryMySubmissions",
			"outputs": [
				{
					"components": [
						{
							"internalType": "uint96",
							"name": "wager",
							"type": "uint96"
						},
						{
							"internalType": "uint96",
							"name": "projectFee",
							"type": "uint96"
						},
						{
							"internalType": "uint64",
							"name": "blockNumber",
							"type": "uint64"
						},
						{
							"internalType": "uint96",
							"name": "prepaidProjectFee",
							"type": "uint96"
						},
						{
							"internalType": "uint96",
							"name": "multiplier",
							"type": "uint96"
						},
						{
							"internalType": "uint64",
							"name": "houseEdgeRate",
							"type": "uint64"
						},
						{
							"internalType": "uint96",
							"name": "multiplierBoostTokens",
							"type": "uint96"
						},
						{
							"internalType": "uint96",
							"name": "houseEdgeFixed",
							"type": "uint96"
						},
						{
							"internalType": "uint64",
							"name": "submissionId",
							"type": "uint64"
						},
						{
							"internalType": "address payable",
							"name": "player",
							"type": "address"
						},
						{
							"internalType": "uint32",
							"name": "bet",
							"type": "uint32"
						},
						{
							"internalType": "uint32",
							"name": "status",
							"type": "uint32"
						},
						{
							"components": [
								{
									"internalType": "uint32",
									"name": "roll",
									"type": "uint32"
								},
								{
									"internalType": "uint96",
									"name": "payoutCoins",
									"type": "uint96"
								},
								{
									"internalType": "uint96",
									"name": "payoutTokens",
									"type": "uint96"
								},
								{
									"internalType": "uint96",
									"name": "refundCoins",
									"type": "uint96"
								}
							],
							"internalType": "struct IUDICE.SubmissionOutcome",
							"name": "outcome",
							"type": "tuple"
						}
					],
					"internalType": "struct IUDICE.Submission[]",
					"name": "items",
					"type": "tuple[]"
				}
			],
			"stateMutability": "view",
			"type": "function"
		},
		{
			"inputs": [
				{
					"internalType": "address",
					"name": "player",
					"type": "address"
				},
				{
					"internalType": "uint64",
					"name": "offset",
					"type": "uint64"
				},
				{
					"internalType": "uint64",
					"name": "limit",
					"type": "uint64"
				},
				{
					"internalType": "bool",
					"name": "ascend",
					"type": "bool"
				}
			],
			"name": "queryPlayerSubmissions",
			"outputs": [
				{
					"components": [
						{
							"internalType": "uint96",
							"name": "wager",
							"type": "uint96"
						},
						{
							"internalType": "uint96",
							"name": "projectFee",
							"type": "uint96"
						},
						{
							"internalType": "uint64",
							"name": "blockNumber",
							"type": "uint64"
						},
						{
							"internalType": "uint96",
							"name": "prepaidProjectFee",
							"type": "uint96"
						},
						{
							"internalType": "uint96",
							"name": "multiplier",
							"type": "uint96"
						},
						{
							"internalType": "uint64",
							"name": "houseEdgeRate",
							"type": "uint64"
						},
						{
							"internalType": "uint96",
							"name": "multiplierBoostTokens",
							"type": "uint96"
						},
						{
							"internalType": "uint96",
							"name": "houseEdgeFixed",
							"type": "uint96"
						},
						{
							"internalType": "uint64",
							"name": "submissionId",
							"type": "uint64"
						},
						{
							"internalType": "address payable",
							"name": "player",
							"type": "address"
						},
						{
							"internalType": "uint32",
							"name": "bet",
							"type": "uint32"
						},
						{
							"internalType": "uint32",
							"name": "status",
							"type": "uint32"
						},
						{
							"components": [
								{
									"internalType": "uint32",
									"name": "roll",
									"type": "uint32"
								},
								{
									"internalType": "uint96",
									"name": "payoutCoins",
									"type": "uint96"
								},
								{
									"internalType": "uint96",
									"name": "payoutTokens",
									"type": "uint96"
								},
								{
									"internalType": "uint96",
									"name": "refundCoins",
									"type": "uint96"
								}
							],
							"internalType": "struct IUDICE.SubmissionOutcome",
							"name": "outcome",
							"type": "tuple"
						}
					],
					"internalType": "struct IUDICE.Submission[]",
					"name": "items",
					"type": "tuple[]"
				}
			],
			"stateMutability": "view",
			"type": "function"
		},
		{
			"inputs": [
				{
					"internalType": "uint64",
					"name": "offset",
					"type": "uint64"
				},
				{
					"internalType": "uint64",
					"name": "limit",
					"type": "uint64"
				},
				{
					"internalType": "bool",
					"name": "ascend",
					"type": "bool"
				}
			],
			"name": "querySubmissions",
			"outputs": [
				{
					"components": [
						{
							"internalType": "uint96",
							"name": "wager",
							"type": "uint96"
						},
						{
							"internalType": "uint96",
							"name": "projectFee",
							"type": "uint96"
						},
						{
							"internalType": "uint64",
							"name": "blockNumber",
							"type": "uint64"
						},
						{
							"internalType": "uint96",
							"name": "prepaidProjectFee",
							"type": "uint96"
						},
						{
							"internalType": "uint96",
							"name": "multiplier",
							"type": "uint96"
						},
						{
							"internalType": "uint64",
							"name": "houseEdgeRate",
							"type": "uint64"
						},
						{
							"internalType": "uint96",
							"name": "multiplierBoostTokens",
							"type": "uint96"
						},
						{
							"internalType": "uint96",
							"name": "houseEdgeFixed",
							"type": "uint96"
						},
						{
							"internalType": "uint64",
							"name": "submissionId",
							"type": "uint64"
						},
						{
							"internalType": "address payable",
							"name": "player",
							"type": "address"
						},
						{
							"internalType": "uint32",
							"name": "bet",
							"type": "uint32"
						},
						{
							"internalType": "uint32",
							"name": "status",
							"type": "uint32"
						},
						{
							"components": [
								{
									"internalType": "uint32",
									"name": "roll",
									"type": "uint32"
								},
								{
									"internalType": "uint96",
									"name": "payoutCoins",
									"type": "uint96"
								},
								{
									"internalType": "uint96",
									"name": "payoutTokens",
									"type": "uint96"
								},
								{
									"internalType": "uint96",
									"name": "refundCoins",
									"type": "uint96"
								}
							],
							"internalType": "struct IUDICE.SubmissionOutcome",
							"name": "outcome",
							"type": "tuple"
						}
					],
					"internalType": "struct IUDICE.Submission[]",
					"name": "items",
					"type": "tuple[]"
				}
			],
			"stateMutability": "view",
			"type": "function"
		},
		{
			"inputs": [],
			"name": "randomNumberContractAddress",
			"outputs": [
				{
					"internalType": "address",
					"name": "",
					"type": "address"
				}
			],
			"stateMutability": "view",
			"type": "function"
		},
		{
			"inputs": [
				{
					"internalType": "uint256",
					"name": "tokens",
					"type": "uint256"
				}
			],
			"name": "redeem",
			"outputs": [],
			"stateMutability": "nonpayable",
			"type": "function"
		},
		{
			"inputs": [
				{
					"internalType": "uint64",
					"name": "submissionId",
					"type": "uint64"
				}
			],
			"name": "refund",
			"outputs": [],
			"stateMutability": "nonpayable",
			"type": "function"
		},
		{
			"inputs": [],
			"name": "renounceOwnership",
			"outputs": [],
			"stateMutability": "nonpayable",
			"type": "function"
		},
		{
			"inputs": [
				{
					"internalType": "uint96",
					"name": "projectFee",
					"type": "uint96"
				},
				{
					"internalType": "uint96",
					"name": "houseEdgeFixed",
					"type": "uint96"
				},
				{
					"internalType": "uint64",
					"name": "houseEdgeRate",
					"type": "uint64"
				},
				{
					"internalType": "uint32",
					"name": "transferGasLimit",
					"type": "uint32"
				},
				{
					"internalType": "uint8",
					"name": "redemptionEpochForwardOffset",
					"type": "uint8"
				}
			],
			"name": "setConfiguration",
			"outputs": [],
			"stateMutability": "nonpayable",
			"type": "function"
		},
		{
			"inputs": [],
			"name": "symbol",
			"outputs": [
				{
					"internalType": "string",
					"name": "",
					"type": "string"
				}
			],
			"stateMutability": "view",
			"type": "function"
		},
		{
			"inputs": [],
			"name": "totalSupply",
			"outputs": [
				{
					"internalType": "uint256",
					"name": "",
					"type": "uint256"
				}
			],
			"stateMutability": "view",
			"type": "function"
		},
		{
			"inputs": [
				{
					"internalType": "address",
					"name": "to",
					"type": "address"
				},
				{
					"internalType": "uint256",
					"name": "value",
					"type": "uint256"
				}
			],
			"name": "transfer",
			"outputs": [
				{
					"internalType": "bool",
					"name": "",
					"type": "bool"
				}
			],
			"stateMutability": "nonpayable",
			"type": "function"
		},
		{
			"inputs": [
				{
					"internalType": "address",
					"name": "from",
					"type": "address"
				},
				{
					"internalType": "address",
					"name": "to",
					"type": "address"
				},
				{
					"internalType": "uint256",
					"name": "value",
					"type": "uint256"
				}
			],
			"name": "transferFrom",
			"outputs": [
				{
					"internalType": "bool",
					"name": "",
					"type": "bool"
				}
			],
			"stateMutability": "nonpayable",
			"type": "function"
		},
		{
			"inputs": [
				{
					"internalType": "address",
					"name": "newOwner",
					"type": "address"
				}
			],
			"name": "transferOwnership",
			"outputs": [],
			"stateMutability": "nonpayable",
			"type": "function"
		},
		{
			"inputs": [
				{
					"internalType": "address",
					"name": "recipient",
					"type": "address"
				}
			],
			"name": "updateTrasuryCoinsWithdrawAddress",
			"outputs": [],
			"stateMutability": "nonpayable",
			"type": "function"
		},
		{
			"inputs": [
				{
					"internalType": "uint96",
					"name": "amount",
					"type": "uint96"
				}
			],
			"name": "withdrawTreasuryCoins",
			"outputs": [],
			"stateMutability": "nonpayable",
			"type": "function"
		},
		{
			"inputs": [
				{
					"internalType": "address",
					"name": "to",
					"type": "address"
				},
				{
					"internalType": "uint256",
					"name": "amount",
					"type": "uint256"
				}
			],
			"name": "withdrawTreasuryTokens",
			"outputs": [],
			"stateMutability": "nonpayable",
			"type": "function"
		},
		{
			"stateMutability": "payable",
			"type": "receive"
		}
	]
}