{
	"data": {
		"bytecode": {
			"linkReferences": {},
			"object": "6101a060405234801561001157600080fd5b50604051615a5f380380615a5f833981016040819052610030916103b0565b80620334506969e10de76676d080000082604051806040016040528060048152602001630aa88aa960e31b81525080604051806040016040528060018152602001603160f81b815250836040518060400160405280601381526020017f596f7520446963652c20596f7520486f75736500000000000000000000000000815250604051806040016040528060048152602001630aa88aa960e31b81525081600c90816100dc9190610481565b50600d6100e98282610481565b5050506001600160a01b03811661011b57604051631e4fbdf760e01b8152600060048201526024015b60405180910390fd5b610124816102ed565b5061013082600f61033f565b6101205261013f81601061033f565b61014052815160208084019190912060e052815190820120610100524660a0526101cc60e05161010051604080517f8b73c3c69bb8fe3d512ecc4cf759cc79239f7b179b0ffacaa9a75d522b39400f60208201529081019290925260608201524660808201523060a082015260009060c00160405160208183030381529060405280519060200120905090565b60805250503060c05250506001600160401b03909116610160526001600160601b031661018052507e6a94d74f430000000000000000000000000000000000000de0b6b3a764000060009081556001805463ffffffff19166108fc179055601280546001600160a01b03191673b14665af7af6f8bcecb137f50f33198d679cacc19081179091556040805163aacc5a1760e01b8152905163aacc5a17916004808201926020929091908290030181865afa15801561028e573d6000803e3d6000fd5b505050506040513d601f19601f820116820180604052508101906102b29190610540565b9050806102e65760405162461bcd60e51b8152602060048201526002602482015261453160f01b6044820152606401610112565b50506105cc565b600e80546001600160a01b038381166001600160a01b0319831681179093556040519116919082907f8be0079c531659141344cd1fd0a4f28419497f9722a3daafe3b4186f6b6457e090600090a35050565b600060208351101561035b5761035483610372565b905061036c565b816103668482610481565b5060ff90505b92915050565b600080829050601f8151111561039d578260405163305a27a960e01b81526004016101129190610559565b80516103a8826105a8565b179392505050565b6000602082840312156103c257600080fd5b81516001600160a01b03811681146103d957600080fd5b9392505050565b634e487b7160e01b600052604160045260246000fd5b600181811c9082168061040a57607f821691505b60208210810361042a57634e487b7160e01b600052602260045260246000fd5b50919050565b601f82111561047c576000816000526020600020601f850160051c810160208610156104595750805b601f850160051c820191505b8181101561047857828155600101610465565b5050505b505050565b81516001600160401b0381111561049a5761049a6103e0565b6104ae816104a884546103f6565b84610430565b602080601f8311600181146104e357600084156104cb5750858301515b600019600386901b1c1916600185901b178555610478565b600085815260208120601f198616915b82811015610512578886015182559484019460019091019084016104f3565b50858210156105305787850151600019600388901b60f8161c191681555b5050505050600190811b01905550565b60006020828403121561055257600080fd5b5051919050565b60006020808352835180602085015260005b818110156105875785810183015185820160400152820161056b565b506000604082860101526040601f19601f8301168501019250505092915050565b8051602080830151919081101561042a5760001960209190910360031b1b16919050565b60805160a05160c05160e05161010051610120516101405161016051610180516153eb6106746000396000818161056c01528181612e600152818161323201528181613fe90152818161492a01526149bc01526000818161053a015281816123d901528181612e2b0152613cca015260006139780152600061394b01526000613829015260006138010152600061375c01526000613786015260006137b001526153eb6000f3fe60806040526004361061026e5760003560e01c806379cc679011610153578063d505accf116100cb578063ed042c9b1161007f578063f516ec9f11610064578063f516ec9f146108a7578063fe585b7f146108c7578063ff2d9665146108da57610293565b8063ed042c9b14610867578063f2fde38b1461088757610293565b8063d773826d116100b0578063d773826d146107d4578063db006a75146107f4578063dd62ed3e1461081457610293565b8063d505accf14610794578063d7194ccb146107b457610293565b80638da5cb5b11610122578063a9059cbb11610107578063a9059cbb14610729578063b63bdd5414610749578063ce2170481461076957610293565b80638da5cb5b146106e957806395d89b411461071457610293565b806379cc6790146106545780637ecebe001461067457806384b0196e1461069457806389b94cca146106bc57610293565b8063419bbb76116101e65780636142b027116101b55780636bd50cef1161019a5780636bd50cef1461051857806370a08231146105fc578063715018a61461063f57610293565b80636142b027146104d8578063621ad8561461050557610293565b8063419bbb761461041957806342966c68146104395780634bd8ec5e14610459578063593284011461047957610293565b80631865c57d1161023d578063294fe94211610222578063294fe9421461039b578063313ce567146103e85780633644e5151461040457610293565b80631865c57d1461032b57806323b872dd1461037b57610293565b806306fdde031461029c578063095ea7b3146102c75780631333db2e146102f757806318160ddd1461030c57610293565b3661029357610291335b610281346108fa565b6000671bc16d674ec80000610955565b005b61029133610278565b3480156102a857600080fd5b506102b1610f2c565b6040516102be9190614a88565b60405180910390f35b3480156102d357600080fd5b506102e76102e2366004614ac4565b610fbe565b60405190151581526020016102be565b34801561030357600080fd5b50610291610fd8565b34801561031857600080fd5b50600b545b6040519081526020016102be565b34801561033757600080fd5b506103406110f2565b604080519889526020890197909752958701949094526060860192909252608085015260a084015260c083015260e0820152610100016102be565b34801561038757600080fd5b506102e7610396366004614aee565b611174565b3480156103a757600080fd5b506103c373b14665af7af6f8bcecb137f50f33198d679cacc181565b60405173ffffffffffffffffffffffffffffffffffffffff90911681526020016102be565b3480156103f457600080fd5b50604051601281526020016102be565b34801561041057600080fd5b5061031d61119a565b34801561042557600080fd5b50610291610434366004614b46565b6111a9565b34801561044557600080fd5b50610291610454366004614b61565b6113c5565b34801561046557600080fd5b50610291610474366004614b7a565b6113d2565b34801561048557600080fd5b506104c3610494366004614b7a565b73ffffffffffffffffffffffffffffffffffffffff166000908152600860205260409020600181015490549091565b604080519283526020830191909152016102be565b3480156104e457600080fd5b506104f86104f3366004614bbd565b61148c565b6040516102be9190614d8d565b610291610513366004614b46565b611a46565b34801561052457600080fd5b506000546001546040805167ffffffffffffffff7f0000000000000000000000000000000000000000000000000000000000000000811682526bffffffffffffffffffffffff7f000000000000000000000000000000000000000000000000000000000000000081166020840152808616938301939093526c0100000000000000000000000085049092166060820152780100000000000000000000000000000000000000000000000090930416608083015263ffffffff811660a083015260ff6401000000009091041660c082015260e0016102be565b34801561060857600080fd5b5061031d610617366004614b7a565b73ffffffffffffffffffffffffffffffffffffffff1660009081526009602052604090205490565b34801561064b57600080fd5b50610291611a5b565b34801561066057600080fd5b5061029161066f366004614ac4565b611a6f565b34801561068057600080fd5b5061031d61068f366004614b7a565b611a84565b3480156106a057600080fd5b506106a9611aaf565b6040516102be9796959493929190614dd0565b3480156106c857600080fd5b506106dc6106d7366004614e92565b611b11565b6040516102be9190614ead565b3480156106f557600080fd5b50600e5473ffffffffffffffffffffffffffffffffffffffff166103c3565b34801561072057600080fd5b506102b1611d0b565b34801561073557600080fd5b506102e7610744366004614ac4565b611d1a565b34801561075557600080fd5b50610291610764366004614ac4565b611d28565b34801561077557600080fd5b5060125473ffffffffffffffffffffffffffffffffffffffff166103c3565b3480156107a057600080fd5b506102916107af366004614ecd565b611de4565b3480156107c057600080fd5b506102916107cf366004614e92565b611f91565b3480156107e057600080fd5b506102916107ef366004614b7a565b61220a565b34801561080057600080fd5b5061029161080f366004614b61565b61238d565b34801561082057600080fd5b5061031d61082f366004614f37565b73ffffffffffffffffffffffffffffffffffffffff9182166000908152600a6020908152604080832093909416825291909152205490565b34801561087357600080fd5b506104f8610882366004614f6a565b612548565b34801561089357600080fd5b506102916108a2366004614b7a565b612b2c565b3480156108b357600080fd5b506102916108c2366004614fbe565b612b8d565b6102916108d536600461502e565b612efc565b3480156108e657600080fd5b506104f86108f5366004614bbd565b612f8c565b60006bffffffffffffffffffffffff821115610951576040517f6dfcc65000000000000000000000000000000000000000000000000000000000815260606004820152602481018390526044015b60405180910390fd5b5090565b6002805467ffffffffffffffff808216600101167fffffffffffffffffffffffffffffffffffffffffffffffff0000000000000000909116811790915560006109a66109a18685612f9a565b6108fa565b90506bffffffffffffffffffffffff8116156109d4576109d486826bffffffffffffffffffffffff1661303f565b6000610a0b866bffffffffffffffffffffffff16866bffffffffffffffffffffffff16866bffffffffffffffffffffffff1661309b565b90506000600760008567ffffffffffffffff1667ffffffffffffffff1681526020019081526020016000209050438160000160186101000a81548167ffffffffffffffff021916908367ffffffffffffffff160217905550838160020160186101000a81548167ffffffffffffffff021916908367ffffffffffffffff160217905550878160030160006101000a81548173ffffffffffffffffffffffffffffffffffffffff021916908373ffffffffffffffffffffffffffffffffffffffff160217905550868160000160006101000a8154816bffffffffffffffffffffffff02191690836bffffffffffffffffffffffff16021790555060008054906101000a90046bffffffffffffffffffffffff1681600001600c6101000a8154816bffffffffffffffffffffffff02191690836bffffffffffffffffffffffff160217905550858160010160006101000a8154816bffffffffffffffffffffffff02191690836bffffffffffffffffffffffff1602179055508481600101600c6101000a8154816bffffffffffffffffffffffff02191690836bffffffffffffffffffffffff160217905550828160020160006101000a8154816bffffffffffffffffffffffff02191690836bffffffffffffffffffffffff1602179055506000600c9054906101000a90046bffffffffffffffffffffffff1681600201600c6101000a8154816bffffffffffffffffffffffff02191690836bffffffffffffffffffffffff160217905550600060189054906101000a900467ffffffffffffffff168160010160186101000a81548167ffffffffffffffff021916908367ffffffffffffffff160217905550600160ff168160030160186101000a81548163ffffffff021916908363ffffffff160217905550818160030160146101000a81548163ffffffff021916908363ffffffff160217905550600860008973ffffffffffffffffffffffffffffffffffffffff1673ffffffffffffffffffffffffffffffffffffffff1681526020019081526020016000206000018490806001815401808255809150506001900390600052602060002090600491828204019190066008029091909190916101000a81548167ffffffffffffffff021916908367ffffffffffffffff1602179055508367ffffffffffffffff168873ffffffffffffffffffffffffffffffffffffffff167feb87ffbe69be596530037de78d6a6ca3317c12ce908c3c46e9cfa526531a177e89898988886001604051806060016040528060008054906101000a90046bffffffffffffffffffffffff166bffffffffffffffffffffffff1681526020016000600c9054906101000a90046bffffffffffffffffffffffff166bffffffffffffffffffffffff168152602001600060189054906101000a900467ffffffffffffffff1667ffffffffffffffff16815250604051610eaf97969594939291906bffffffffffffffffffffffff9788168152958716602080880191909152948716604080880191909152938716606087015263ffffffff92909216608086015260ff1660a08501528051851660c08501529182015190931660e08301529091015167ffffffffffffffff166101008201526101200190565b60405180910390a360008263ffffffff1611610ef957600480546bffffffffffffffffffffffff888116909101909155600580549189169091019055610ef481613133565b610f22565b610f0384876132f9565b600380546bffffffffffffffffffffffff8916019055610f228461350f565b5050505050505050565b6060600c8054610f3b90615058565b80601f0160208091040260200160405190810160405280929190818152602001828054610f6790615058565b8015610fb45780601f10610f8957610100808354040283529160200191610fb4565b820191906000526020600020905b815481529060010190602001808311610f9757829003601f168201915b5050505050905090565b600033610fcc8185856135bb565b60019150505b92915050565b336000908152600860205260408120600101549003610ff357565b336000908152600860205260408120600101805490829055600680549192839261101e9084906150da565b9091555050604080513381526020810183905281517f87e12c2565042763daa6bf5842ed2b6447f17f7e28f9a4905fe3959581396ead929181900390910190a1604051600090339083908381818185875af1925050503d80600081146110a0576040519150601f19603f3d011682016040523d82523d6000602084013e6110a5565b606091505b50509050806110ee576006546040517fcf479181000000000000000000000000000000000000000000000000000000008152600481019190915260248101839052604401610948565b5050565b600080600080600080600080600260009054906101000a900467ffffffffffffffff166003546004546005546006544761114e3073ffffffffffffffffffffffffffffffffffffffff1660009081526009602052604090205490565b600b5467ffffffffffffffff9097169f959e50939c50919a509850965094509092509050565b6000336111828582856135c8565b61118d858585613697565b60019150505b9392505050565b60006111a4613742565b905090565b60015465010000000000900473ffffffffffffffffffffffffffffffffffffffff16611201576040517fe6c4247b00000000000000000000000000000000000000000000000000000000815260040160405180910390fd5b806bffffffffffffffffffffffff16600454101561126357600480546040517fcf479181000000000000000000000000000000000000000000000000000000008152918201526bffffffffffffffffffffffff82166024820152604401610948565b806bffffffffffffffffffffffff166004600082825461128391906150da565b9091555050600154604080513381526501000000000090920473ffffffffffffffffffffffffffffffffffffffff1660208301526bffffffffffffffffffffffff83168282015260006060830152517f31a8092046a766d50c60467d927f8769a20162fd47024a64bb365aac647eb0df9181900360800190a160015460405160009165010000000000900473ffffffffffffffffffffffffffffffffffffffff16906bffffffffffffffffffffffff8416908381818185875af1925050503d806000811461136d576040519150601f19603f3d011682016040523d82523d6000602084013e611372565b606091505b50509050806110ee57600480546040517fcf479181000000000000000000000000000000000000000000000000000000008152918201526bffffffffffffffffffffffff83166024820152604401610948565b6113cf338261303f565b50565b6113da61387a565b600154604080513381526501000000000090920473ffffffffffffffffffffffffffffffffffffffff9081166020840152831682820152517f876ff6de70ea9815b366b60a114b80fdfbc06357da850cb734024fb7927f8b039181900360600190a16001805473ffffffffffffffffffffffffffffffffffffffff90921665010000000000027fffffffffffffff0000000000000000000000000000000000000000ffffffffff909216919091179055565b60025460609067ffffffffffffffff908116906000908616821161156757604080516000808252602082019092529061155d565b61154a604080516101a081018252600080825260208083018290528284018290526060808401839052608080850184905260a0850184905260c0850184905260e08501849052610100850184905261012085018490526101408501849052610160850184905285519081018652838152918201839052938101829052928301529061018082015290565b8152602001906001900390816114c05790505b5092505050611193565b67ffffffffffffffff821661157c868861511c565b67ffffffffffffffff1611156115935750806115a0565b61159d858761511c565b90505b6115aa8682615144565b67ffffffffffffffff1667ffffffffffffffff8111156115cc576115cc6150ed565b60405190808252806020026020018201604052801561168757816020015b611674604080516101a081018252600080825260208083018290528284018290526060808401839052608080850184905260a0850184905260c0850184905260e08501849052610100850184905261012085018490526101408501849052610160850184905285519081018652838152918201839052938101829052928301529061018082015290565b8152602001906001900390816115ea5790505b509250831561186957855b8167ffffffffffffffff168167ffffffffffffffff1610156118635760006116bb82600161511c565b67ffffffffffffffff80821660009081526007602090815260409182902082516101a08101845281546bffffffffffffffffffffffff80821683526c0100000000000000000000000080830482168487015278010000000000000000000000000000000000000000000000009283900488168488015260018501548083166060808701919091528282048416608080880191909152918590048a1660a0870152600287015480851660c0880152928304841660e087015291849004909816610100850152600385015473ffffffffffffffffffffffffffffffffffffffff811661012086015263ffffffff740100000000000000000000000000000000000000008204811661014087015293900483166101608501528651978801875260048501549283168852640100000000830482169588019590955270010000000000000000000000000000000090910481169486019490945260059091015490921690830152610180810191909152909150856118358a85615144565b67ffffffffffffffff168151811061184f5761184f615165565b602090810291909101015250600101611692565b50611a3d565b855b8167ffffffffffffffff168167ffffffffffffffff161015611a3b5760006118938285615144565b67ffffffffffffffff80821660009081526007602090815260409182902082516101a08101845281546bffffffffffffffffffffffff80821683526c0100000000000000000000000080830482168487015278010000000000000000000000000000000000000000000000009283900488168488015260018501548083166060808701919091528282048416608080880191909152918590048a1660a0870152600287015480851660c0880152928304841660e087015291849004909816610100850152600385015473ffffffffffffffffffffffffffffffffffffffff811661012086015263ffffffff74010000000000000000000000000000000000000000820481166101408701529390048316610160850152865197880187526004850154928316885264010000000083048216958801959095527001000000000000000000000000000000009091048116948601949094526005909101549092169083015261018081019190915290915085611a0d8a85615144565b67ffffffffffffffff1681518110611a2757611a27615165565b60209081029190910101525060010161186b565b505b50509392505050565b6113cf33611a53346108fa565b600084610955565b611a6361387a565b611a6d60006138cd565b565b611a7a8233836135c8565b6110ee828261303f565b73ffffffffffffffffffffffffffffffffffffffff8116600090815260116020526040812054610fd2565b600060608060008060006060611ac3613944565b611acb613971565b604080516000808252602082019092527f0f000000000000000000000000000000000000000000000000000000000000009b939a50919850469750309650945092509050565b611b9b604080516101a081018252600080825260208083018290528284018290526060808401839052608080850184905260a0850184905260c0850184905260e08501849052610100850184905261012085018490526101408501849052610160850184905285519081018652838152918201839052938101829052928301529061018082015290565b5067ffffffffffffffff90811660009081526007602090815260409182902082516101a08101845281546bffffffffffffffffffffffff80821683526c0100000000000000000000000080830482168487015278010000000000000000000000000000000000000000000000009283900488168488015260018501548083166060808701919091528282048416608080880191909152918590048a1660a0870152600287015480851660c0880152928304841660e087015291849004909816610100850152600385015473ffffffffffffffffffffffffffffffffffffffff811661012086015263ffffffff74010000000000000000000000000000000000000000820481166101408701529390048316610160850152865197880187526004850154928316885264010000000083048216958801959095527001000000000000000000000000000000009091048116948601949094526005909101549092169083015261018081019190915290565b6060600d8054610f3b90615058565b600033610fcc818585613697565b611d3061387a565b73ffffffffffffffffffffffffffffffffffffffff8216611d7d576040517fe6c4247b00000000000000000000000000000000000000000000000000000000815260040160405180910390fd5b6040805133815273ffffffffffffffffffffffffffffffffffffffff841660208201526000818301526060810183905290517f31a8092046a766d50c60467d927f8769a20162fd47024a64bb365aac647eb0df9181900360800190a16110ee308383613697565b83421115611e21576040517f6279130200000000000000000000000000000000000000000000000000000000815260048101859052602401610948565b60007f6e71edae12b1b97f4d1f60370fef10105fa2faae0126114a169c64845d6126c9888888611e7b8c73ffffffffffffffffffffffffffffffffffffffff16600090815260116020526040902080546001810190915590565b60408051602081019690965273ffffffffffffffffffffffffffffffffffffffff94851690860152929091166060840152608083015260a082015260c0810186905260e0016040516020818303038152906040528051906020012090506000611ee38261399e565b90506000611ef3828787876139e6565b90508973ffffffffffffffffffffffffffffffffffffffff168173ffffffffffffffffffffffffffffffffffffffff1614611f7a576040517f4b800e4600000000000000000000000000000000000000000000000000000000815273ffffffffffffffffffffffffffffffffffffffff80831660048301528b166024820152604401610948565b611f858a8a8a6135bb565b50505050505050505050565b67ffffffffffffffff81166000908152600760205260409020600381015473ffffffffffffffffffffffffffffffffffffffff163373ffffffffffffffffffffffffffffffffffffffff16146120475760038101546040517f4adf9acd00000000000000000000000000000000000000000000000000000000815267ffffffffffffffff8416600482015233602482015273ffffffffffffffffffffffffffffffffffffffff9091166044820152606401610948565b600381015463ffffffff7801000000000000000000000000000000000000000000000000909104166001146120b4576040517f2bc45a4800000000000000000000000000000000000000000000000000000000815267ffffffffffffffff83166004820152602401610948565b6120bd81613a14565b6120ff576040517fa05db59300000000000000000000000000000000000000000000000000000000815267ffffffffffffffff83166004820152602401610948565b600381810180547fffffffff00000000ffffffffffffffffffffffffffffffffffffffffffffffff167808000000000000000000000000000000000000000000000000179055815481546bffffffffffffffffffffffff90911691906000906121699084906150da565b909155505080546005820180547fffffffffffffffffffffffffffffffffffffffff000000000000000000000000166bffffffffffffffffffffffff90921691909117905567ffffffffffffffff821660009081526007602052604090206121d090613a61565b600381015481546122059173ffffffffffffffffffffffffffffffffffffffff16906bffffffffffffffffffffffff16613b82565b505050565b61221261387a565b60008173ffffffffffffffffffffffffffffffffffffffff1663aacc5a176040518163ffffffff1660e01b8152600401602060405180830381865afa15801561225f573d6000803e3d6000fd5b505050506040513d601f19601f820116820180604052508101906122839190615194565b9050806122ec576040517f08c379a000000000000000000000000000000000000000000000000000000000815260206004820152600260248201527f45310000000000000000000000000000000000000000000000000000000000006044820152606401610948565b6012546040805133815273ffffffffffffffffffffffffffffffffffffffff928316602082015291841682820152517fffb6041235142e248bd8d4aae7aba0f51d09045067b9c2e44aa152dd0dde88d89181900360600190a150601280547fffffffffffffffffffffffff00000000000000000000000000000000000000001673ffffffffffffffffffffffffffffffffffffffff92909216919091179055565b806000036123985750565b60006123a3600b5490565b826005546123b191906151ad565b6123bb91906151f3565b60015490915060009061241a906123fd90640100000000900460ff167f000000000000000000000000000000000000000000000000000000000000000061522e565b600254612414919067ffffffffffffffff1661511c565b83613cc5565b9050600061242882846150da565b90507f76cd0cedf979345ca241ce6de696a520a8efc860c6c10d9db2a7953307c237fc336040805173ffffffffffffffffffffffffffffffffffffffff9092168252602082018790528101859052606081018490526080810183905260a00160405180910390a180600560008282546124a191906150da565b909155506124b19050338561303f565b604051600090339083908381818185875af1925050503d80600081146124f3576040519150601f19603f3d011682016040523d82523d6000602084013e6124f8565b606091505b5050905080612541576005546040517fcf479181000000000000000000000000000000000000000000000000000000008152600481019190915260248101839052604401610948565b5050505050565b73ffffffffffffffffffffffffffffffffffffffff841660009081526008602052604081205460609167ffffffffffffffff8616821161263f576040805160008082526020820190925290612635565b612622604080516101a081018252600080825260208083018290528284018290526060808401839052608080850184905260a0850184905260c0850184905260e08501849052610100850184905261012085018490526101408501849052610160850184905285519081018652838152918201839052938101829052928301529061018082015290565b8152602001906001900390816125985790505b5092505050612b24565b8161264a868861511c565b67ffffffffffffffff161115612661575080612678565b61266b858761511c565b67ffffffffffffffff1690505b61268c67ffffffffffffffff8716826150da565b67ffffffffffffffff8111156126a4576126a46150ed565b60405190808252806020026020018201604052801561275f57816020015b61274c604080516101a081018252600080825260208083018290528284018290526060808401839052608080850184905260a0850184905260c0850184905260e08501849052610100850184905261012085018490526101408501849052610160850184905285519081018652838152918201839052938101829052928301529061018082015290565b8152602001906001900390816126c25790505b509250831561294257855b818167ffffffffffffffff16101561293c57600061278982600161511c565b67ffffffffffffffff80821660009081526007602090815260409182902082516101a08101845281546bffffffffffffffffffffffff80821683526c0100000000000000000000000080830482168487015278010000000000000000000000000000000000000000000000009283900488168488015260018501548083166060808701919091528282048416608080880191909152918590048a1660a0870152600287015480851660c0880152928304841660e087015291849004909816610100850152600385015473ffffffffffffffffffffffffffffffffffffffff811661012086015263ffffffff740100000000000000000000000000000000000000008204811661014087015293900483166101608501528651978801875260048501549283168852640100000000830482169588019590955270010000000000000000000000000000000090910481169486019490945260059091015490921690830152610180810191909152909150856129038a85615144565b67ffffffffffffffff168151811061291d5761291d615165565b60200260200101819052505080806129349061525a565b91505061276a565b50612b21565b855b818167ffffffffffffffff161015612b1f57600061296c67ffffffffffffffff8316856150da565b67ffffffffffffffff80821660009081526007602090815260409182902082516101a08101845281546bffffffffffffffffffffffff80821683526c0100000000000000000000000080830482168487015278010000000000000000000000000000000000000000000000009283900488168488015260018501548083166060808701919091528282048416608080880191909152918590048a1660a0870152600287015480851660c0880152928304841660e087015291849004909816610100850152600385015473ffffffffffffffffffffffffffffffffffffffff811661012086015263ffffffff74010000000000000000000000000000000000000000820481166101408701529390048316610160850152865197880187526004850154928316885264010000000083048216958801959095527001000000000000000000000000000000009091048116948601949094526005909101549092169083015261018081019190915290915085612ae68a85615144565b67ffffffffffffffff1681518110612b0057612b00615165565b6020026020010181905250508080612b179061525a565b915050612944565b505b50505b949350505050565b612b3461387a565b73ffffffffffffffffffffffffffffffffffffffff8116612b84576040517f1e4fbdf700000000000000000000000000000000000000000000000000000000815260006004820152602401610948565b6113cf816138cd565b612b9561387a565b6702c68af0bb14000067ffffffffffffffff84161115612c11576040517f08c379a000000000000000000000000000000000000000000000000000000000815260206004820152600160248201527f31000000000000000000000000000000000000000000000000000000000000006044820152606401610948565b6611c37937e0800067ffffffffffffffff84161015612c8c576040517f08c379a000000000000000000000000000000000000000000000000000000000815260206004820152600160248201527f32000000000000000000000000000000000000000000000000000000000000006044820152606401610948565b60015460ff64010000000090910481169082161015612d07576040517f08c379a000000000000000000000000000000000000000000000000000000000815260206004820152600160248201527f33000000000000000000000000000000000000000000000000000000000000006044820152606401610948565b600080546bffffffffffffffffffffffff8781167fffffffffffffffff000000000000000000000000000000000000000000000000909216919091176c01000000000000000000000000918716919091021777ffffffffffffffffffffffffffffffffffffffffffffffff16780100000000000000000000000000000000000000000000000067ffffffffffffffff8616021790556001805463ffffffff84167fffffffffffffffffffffffffffffffffffffffffffffffffffffff00000000009091161764010000000060ff8416021790557f1e18870fa6dcb675bbb26e264aeb27803736955e55186eba839862691393d94d336000546001546040805173ffffffffffffffffffffffffffffffffffffffff909416845267ffffffffffffffff7f0000000000000000000000000000000000000000000000000000000000000000811660208601526bffffffffffffffffffffffff7f000000000000000000000000000000000000000000000000000000000000000081169286019290925281841660608601526c0100000000000000000000000084049091166080850152780100000000000000000000000000000000000000000000000090920490911660a083015263ffffffff811660c0830152640100000000900460ff1660e08201526101000160405180910390a15050505050565b600080612f08346108fa565b6000549091506bffffffffffffffffffffffff90811690841610612f3e576000546bffffffffffffffffffffffff169150612f42565b8291505b6000826bffffffffffffffffffffffff16826bffffffffffffffffffffffff161015612f7357509050806000612f80565b612f7d8383615281565b90505b61254133828588610955565b6060612b2433858585612548565b6000683635c9adc5dea000006bffffffffffffffffffffffff831611612fc257506000610fd2565b600554600003612fd757600b545b9050610fd2565b690de0b6b3a76400000000600554612fef91906151ad565b600b54613013683635c9adc5dea000006bffffffffffffffffffffffff86166150da565b61302b906bffffffffffffffffffffffff87166151ad565b61303591906151ad565b61119391906151f3565b73ffffffffffffffffffffffffffffffffffffffff821661308f576040517f96c6fd1e00000000000000000000000000000000000000000000000000000000815260006004820152602401610948565b6110ee82600083613d24565b6000806130a88585613ecf565b90508085116130bb576000915050611193565b690de0b6b3a764000000008311156130d7576000915050611193565b826000036130eb5762010000915050611193565b8085036000848702690de0b6b3a7640000000083028161310d5761310d6151c4565b0490506201000081111561312957620100009350505050611193565b9695505050505050565b6003810180547fffffffff00000000ffffffffffffffffffffffffffffffffffffffffffffffff167804000000000000000000000000000000000000000000000000179055805460018201546002830154670de0b6b3a76400006bffffffffffffffffffffffff80851667ffffffffffffffff7801000000000000000000000000000000000000000000000000909504949094168402919091046c01000000000000000000000000928390048216929094041601919091019081116132f0576002820154600090613274907801000000000000000000000000000000000000000000000000900467ffffffffffffffff16670de0b6b3a76400006132657f00000000000000000000000000000000000000000000000000000000000000006bffffffffffffffffffffffff16866151ad565b61326f91906151f3565b613cc5565b6004840180547fffffffff000000000000000000000000ffffffffffffffffffffffffffffffff167001000000000000000000000000000000006bffffffffffffffffffffffff841602179055905080156132ee5760038301546132ee9073ffffffffffffffffffffffffffffffffffffffff1682613f6c565b505b6110ee82613a61565b6000546bffffffffffffffffffffffff80831691161161338f57600480546bffffffffffffffffffffffff838116918201909255600080546040805167ffffffffffffffff88168152919094166020820152928301919091526060820181905260808201527fc90468505eb2131f45874a6543cc8f26cdcf8665051cf5307268576b7d543b419060a00160405180910390a15050565b6000546005546bffffffffffffffffffffffff918216839003918216101561343a57600580546bffffffffffffffffffffffff83811691829003909255600480548585018416019055600080546040805167ffffffffffffffff891681529185166020830152938616818501526060810192909252608082015290517fc90468505eb2131f45874a6543cc8f26cdcf8665051cf5307268576b7d543b419181900360a00190a1505050565b6000826bffffffffffffffffffffffff166000036134755760005461346e9085906bffffffffffffffffffffffff16613fc8565b905061349f565b600480546bffffffffffffffffffffffff85811690910190915561349c9085908416613fc8565b90505b6000546040805167ffffffffffffffff871681526bffffffffffffffffffffffff928316602082015285831681830152918416606083015260808201839052517fc90468505eb2131f45874a6543cc8f26cdcf8665051cf5307268576b7d543b419181900360a00190a150505050565b33321461351b57600080fd5b601254604080517faacc5a17000000000000000000000000000000000000000000000000000000008152905160009273ffffffffffffffffffffffffffffffffffffffff169163aacc5a179160048083019260209291908290030181865afa15801561358b573d6000803e3d6000fd5b505050506040513d601f19601f820116820180604052508101906135af9190615194565b90506110ee828261401b565b612205838383600161413f565b73ffffffffffffffffffffffffffffffffffffffff8381166000908152600a60209081526040808320938616835292905220547fffffffffffffffffffffffffffffffffffffffffffffffffffffffffffffffff81146136915781811015613682576040517ffb8f41b200000000000000000000000000000000000000000000000000000000815273ffffffffffffffffffffffffffffffffffffffff841660048201526024810182905260448101839052606401610948565b6136918484848403600061413f565b50505050565b73ffffffffffffffffffffffffffffffffffffffff83166136e7576040517f96c6fd1e00000000000000000000000000000000000000000000000000000000815260006004820152602401610948565b73ffffffffffffffffffffffffffffffffffffffff8216613737576040517fec442f0500000000000000000000000000000000000000000000000000000000815260006004820152602401610948565b612205838383613d24565b60003073ffffffffffffffffffffffffffffffffffffffff7f0000000000000000000000000000000000000000000000000000000000000000161480156137a857507f000000000000000000000000000000000000000000000000000000000000000046145b156137d257507f000000000000000000000000000000000000000000000000000000000000000090565b6111a4604080517f8b73c3c69bb8fe3d512ecc4cf759cc79239f7b179b0ffacaa9a75d522b39400f60208201527f0000000000000000000000000000000000000000000000000000000000000000918101919091527f000000000000000000000000000000000000000000000000000000000000000060608201524660808201523060a082015260009060c00160405160208183030381529060405280519060200120905090565b600e5473ffffffffffffffffffffffffffffffffffffffff163314611a6d576040517f118cdaa7000000000000000000000000000000000000000000000000000000008152336004820152602401610948565b600e805473ffffffffffffffffffffffffffffffffffffffff8381167fffffffffffffffffffffffff0000000000000000000000000000000000000000831681179093556040519116919082907f8be0079c531659141344cd1fd0a4f28419497f9722a3daafe3b4186f6b6457e090600090a35050565b60606111a47f0000000000000000000000000000000000000000000000000000000000000000600f614287565b60606111a47f00000000000000000000000000000000000000000000000000000000000000006010614287565b6000610fd26139ab613742565b836040517f19010000000000000000000000000000000000000000000000000000000000008152600281019290925260228201526042902090565b6000806000806139f88888888861432b565b925092509250613a088282614425565b50909695505050505050565b600060c88254613a4a91907801000000000000000000000000000000000000000000000000900467ffffffffffffffff166152a6565b431015613a5957506000919050565b506001919050565b600381015460028201548254600184015460408051606081018252600554815273ffffffffffffffffffffffffffffffffffffffff861660008181526009602090815293902054780100000000000000000000000000000000000000000000000080890463ffffffff9081169991890467ffffffffffffffff169893977f39cbf4a209b014b16bd16f4ed617501f2df769e4a480d974457b24e172e756ed976bffffffffffffffffffffffff91821697828216976c010000000000000000000000009092048316969290921694740100000000000000000000000000000000000000009094049092169260048d0192918201908152602001613b62600b5490565b9052604051613b7797969594939291906152b9565b60405180910390a450565b600154604051600091829173ffffffffffffffffffffffffffffffffffffffff86169163ffffffff1690859084818181858888f193505050503d8060008114613be7576040519150601f19603f3d011682016040523d82523d6000602084013e613bec565b606091505b5050905080610fcc5773ffffffffffffffffffffffffffffffffffffffff8416600090815260086020526040902060010154613c299084906152a6565b73ffffffffffffffffffffffffffffffffffffffff851660009081526008602052604081206001019190915560068054859290613c679084906152a6565b90915550506040805173ffffffffffffffffffffffffffffffffffffffff86168152602081018590527f9cd50c4ae1f9e1e6fe910dd37ba6a6b9fcc5f9d9caba92513fe2f4aed5aff5a6910160405180910390a16000915050610fd2565b6000807f000000000000000000000000000000000000000000000000000000000000000067ffffffffffffffff166001850367ffffffffffffffff1681613d0e57613d0e6151c4565b0467ffffffffffffffff169290921c9392505050565b73ffffffffffffffffffffffffffffffffffffffff8316613d5c5780600b6000828254613d5191906152a6565b90915550613e0e9050565b73ffffffffffffffffffffffffffffffffffffffff831660009081526009602052604090205481811015613de2576040517fe450d38c00000000000000000000000000000000000000000000000000000000815273ffffffffffffffffffffffffffffffffffffffff851660048201526024810182905260448101839052606401610948565b73ffffffffffffffffffffffffffffffffffffffff841660009081526009602052604090209082900390555b73ffffffffffffffffffffffffffffffffffffffff8216613e3757600b80548290039055613e63565b73ffffffffffffffffffffffffffffffffffffffff821660009081526009602052604090208054820190555b8173ffffffffffffffffffffffffffffffffffffffff168373ffffffffffffffffffffffffffffffffffffffff167fddf252ad1be2c89b69c2b068fc378daa952ba7f163c4a11628f55a4df523b3ef83604051613ec291815260200190565b60405180910390a3505050565b6000805481906bffffffffffffffffffffffff16831015613f0457506000546bffffffffffffffffffffffff16829003613f08565b5060005b600054670de0b6b3a764000067ffffffffffffffff780100000000000000000000000000000000000000000000000083041695909502949094046c010000000000000000000000009094046bffffffffffffffffffffffff16019290920192915050565b73ffffffffffffffffffffffffffffffffffffffff8216613fbc576040517fec442f0500000000000000000000000000000000000000000000000000000000815260006004820152602401610948565b6110ee60008383613d24565b600061400f83670de0b6b3a76400006132656bffffffffffffffffffffffff7f000000000000000000000000000000000000000000000000000000000000000016866151ad565b9050610fd23082613f6c565b67ffffffffffffffff821660009081526007602052604090206003015463ffffffff780100000000000000000000000000000000000000000000000090910416600114614066575050565b67ffffffffffffffff8216600090815260076020526040902080546003546bffffffffffffffffffffffff909116908111156140a4576140a4615357565b600380546bffffffffffffffffffffffff83169081900382556005805490910190556004830180547fffffffffffffffffffffffffffffffffffffffffffffffffffffffff000000001661ffff861660010163ffffffff81811692831790935592850154740100000000000000000000000000000000000000009004909116106141365761413183614529565b612541565b612541836147a3565b73ffffffffffffffffffffffffffffffffffffffff841661418f576040517fe602df0500000000000000000000000000000000000000000000000000000000815260006004820152602401610948565b73ffffffffffffffffffffffffffffffffffffffff83166141df576040517f94280d6200000000000000000000000000000000000000000000000000000000815260006004820152602401610948565b73ffffffffffffffffffffffffffffffffffffffff8085166000908152600a602090815260408083209387168352929052208290558015613691578273ffffffffffffffffffffffffffffffffffffffff168473ffffffffffffffffffffffffffffffffffffffff167f8c5be1e5ebec7d5bd14f71427d1e84f3dd0314c0f7b2291e5b200ac8c7c3b9258460405161427991815260200190565b60405180910390a350505050565b606060ff831461429a57612fd083614868565b8180546142a690615058565b80601f01602080910402602001604051908101604052809291908181526020018280546142d290615058565b801561431f5780601f106142f45761010080835404028352916020019161431f565b820191906000526020600020905b81548152906001019060200180831161430257829003601f168201915b50505050509050610fd2565b600080807f7fffffffffffffffffffffffffffffff5d576e7357a4501ddfe92f46681b20a0841115614366575060009150600390508261441b565b604080516000808252602082018084528a905260ff891692820192909252606081018790526080810186905260019060a0016020604051602081039080840390855afa1580156143ba573d6000803e3d6000fd5b50506040517fffffffffffffffffffffffffffffffffffffffffffffffffffffffffffffffe0015191505073ffffffffffffffffffffffffffffffffffffffff81166144115750600092506001915082905061441b565b9250600091508190505b9450945094915050565b600082600381111561443957614439615386565b03614442575050565b600182600381111561445657614456615386565b0361448d576040517ff645eedf00000000000000000000000000000000000000000000000000000000815260040160405180910390fd5b60028260038111156144a1576144a1615386565b036144db576040517ffce698f700000000000000000000000000000000000000000000000000000000815260048101829052602401610948565b60038260038111156144ef576144ef615386565b036110ee576040517fd78bce0c00000000000000000000000000000000000000000000000000000000815260048101829052602401610948565b6003810180547fffffffff00000000ffffffffffffffffffffffffffffffffffffffffffffffff16780200000000000000000000000000000000000000000000000017905560018101548154600091670de0b6b3a7640000916c010000000000000000000000009091046bffffffffffffffffffffffff90811691160204905060006145b4836148a7565b90506145c03082613f6c565b600554821015614642576005805483900390556004830180547fffffffffffffffffffffffffffffffff000000000000000000000000ffffffff166401000000006bffffffffffffffffffffffff85160217905561461d83613a61565b60038301546136919073ffffffffffffffffffffffffffffffffffffffff1683613b82565b8254600580546bffffffffffffffffffffffff928316908190039091556002850154600186015491926000926146b1927801000000000000000000000000000000000000000000000000900467ffffffffffffffff169185916c01000000000000000000000000900416614953565b60038601549091506146d99073ffffffffffffffffffffffffffffffffffffffff1682613f6c565b6004850180547fffffffff000000000000000000000000ffffffffffffffffffffffffffffffff167001000000000000000000000000000000006bffffffffffffffffffffffff84811691909102919091179091556005860180547fffffffffffffffffffffffffffffffffffffffff0000000000000000000000001691841691909117905561476885613a61565b600385015461479b9073ffffffffffffffffffffffffffffffffffffffff166bffffffffffffffffffffffff8416613b82565b505050505050565b6003810180547fffffffff00000000ffffffffffffffffffffffffffffffffffffffffffffffff16780400000000000000000000000000000000000000000000000017905560006147f3826148a7565b6004830180547fffffffff000000000000000000000000ffffffffffffffffffffffffffffffff167001000000000000000000000000000000006bffffffffffffffffffffffff84160217905560038301549091506132f09073ffffffffffffffffffffffffffffffffffffffff1682613f6c565b60606000614875836149e3565b604080516020808252818301909252919250600091906020820181803683375050509182525060208101929092525090565b805460018201546002830154600092670de0b6b3a76400006bffffffffffffffffffffffff80831667ffffffffffffffff7801000000000000000000000000000000000000000000000000968790048116919091028390046c010000000000000000000000008087048416950483169490940193909301946111939404909216917f00000000000000000000000000000000000000000000000000000000000000001684025b04613cc5565b6000670de0b6b3a7640000821161496c57506000611193565b7ffffffffffffffffffffffffffffffffffffffffffffffffff21f494c589c000082016000670de0b6b3a764000085830204905061312986670de0b6b3a76400006bffffffffffffffffffffffff7f000000000000000000000000000000000000000000000000000000000000000016840261494d565b600060ff8216601f811115610fd2576040517fb3512b0c00000000000000000000000000000000000000000000000000000000815260040160405180910390fd5b6000815180845260005b81811015614a4a57602081850181015186830182015201614a2e565b5060006020828601015260207fffffffffffffffffffffffffffffffffffffffffffffffffffffffffffffffe0601f83011685010191505092915050565b6020815260006111936020830184614a24565b803573ffffffffffffffffffffffffffffffffffffffff81168114614abf57600080fd5b919050565b60008060408385031215614ad757600080fd5b614ae083614a9b565b946020939093013593505050565b600080600060608486031215614b0357600080fd5b614b0c84614a9b565b9250614b1a60208501614a9b565b9150604084013590509250925092565b80356bffffffffffffffffffffffff81168114614abf57600080fd5b600060208284031215614b5857600080fd5b61119382614b2a565b600060208284031215614b7357600080fd5b5035919050565b600060208284031215614b8c57600080fd5b61119382614a9b565b803567ffffffffffffffff81168114614abf57600080fd5b80358015158114614abf57600080fd5b600080600060608486031215614bd257600080fd5b614bdb84614b95565b9250614be960208501614b95565b9150614bf760408501614bad565b90509250925092565b80516bffffffffffffffffffffffff1682526020810151614c3160208401826bffffffffffffffffffffffff169052565b506040810151614c4d604084018267ffffffffffffffff169052565b506060810151614c6d60608401826bffffffffffffffffffffffff169052565b506080810151614c8d60808401826bffffffffffffffffffffffff169052565b5060a0810151614ca960a084018267ffffffffffffffff169052565b5060c0810151614cc960c08401826bffffffffffffffffffffffff169052565b5060e0810151614ce960e08401826bffffffffffffffffffffffff169052565b506101008181015167ffffffffffffffff16908301526101208082015173ffffffffffffffffffffffffffffffffffffffff16908301526101408082015163ffffffff90811691840191909152610160808301518216908401526101808083015180519092168185015260208201516bffffffffffffffffffffffff9081166101a0860152604083015181166101c08601526060830151166101e085015290613691565b6020808252825182820181905260009190848201906040850190845b81811015613a0857614dbc838551614c00565b928401926102009290920191600101614da9565b7fff00000000000000000000000000000000000000000000000000000000000000881681526000602060e06020840152614e0d60e084018a614a24565b8381036040850152614e1f818a614a24565b6060850189905273ffffffffffffffffffffffffffffffffffffffff8816608086015260a0850187905284810360c08601528551808252602080880193509091019060005b81811015614e8057835183529284019291840191600101614e64565b50909c9b505050505050505050505050565b600060208284031215614ea457600080fd5b61119382614b95565b6102008101610fd28284614c00565b803560ff81168114614abf57600080fd5b600080600080600080600060e0888a031215614ee857600080fd5b614ef188614a9b565b9650614eff60208901614a9b565b95506040880135945060608801359350614f1b60808901614ebc565b925060a0880135915060c0880135905092959891949750929550565b60008060408385031215614f4a57600080fd5b614f5383614a9b565b9150614f6160208401614a9b565b90509250929050565b60008060008060808587031215614f8057600080fd5b614f8985614a9b565b9350614f9760208601614b95565b9250614fa560408601614b95565b9150614fb360608601614bad565b905092959194509250565b600080600080600060a08688031215614fd657600080fd5b614fdf86614b2a565b9450614fed60208701614b2a565b9350614ffb60408701614b95565b9250606086013563ffffffff8116811461501457600080fd5b915061502260808701614ebc565b90509295509295909350565b6000806040838503121561504157600080fd5b61504a83614b2a565b9150614f6160208401614b2a565b600181811c9082168061506c57607f821691505b6020821081036150a5577f4e487b7100000000000000000000000000000000000000000000000000000000600052602260045260246000fd5b50919050565b7f4e487b7100000000000000000000000000000000000000000000000000000000600052601160045260246000fd5b81810381811115610fd257610fd26150ab565b7f4e487b7100000000000000000000000000000000000000000000000000000000600052604160045260246000fd5b67ffffffffffffffff81811683821601908082111561513d5761513d6150ab565b5092915050565b67ffffffffffffffff82811682821603908082111561513d5761513d6150ab565b7f4e487b7100000000000000000000000000000000000000000000000000000000600052603260045260246000fd5b6000602082840312156151a657600080fd5b5051919050565b8082028115828204841417610fd257610fd26150ab565b7f4e487b7100000000000000000000000000000000000000000000000000000000600052601260045260246000fd5b600082615229577f4e487b7100000000000000000000000000000000000000000000000000000000600052601260045260246000fd5b500490565b67ffffffffffffffff818116838216028082169190828114615252576152526150ab565b505092915050565b600067ffffffffffffffff808316818103615277576152776150ab565b6001019392505050565b6bffffffffffffffffffffffff82811682821603908082111561513d5761513d6150ab565b80820180821115610fd257610fd26150ab565b6000610180820190506bffffffffffffffffffffffff808a16835280891660208401528088166040840152808716606084015263ffffffff8087166080850152855481811660a0860152828160201c1660c0860152828160801c1660e08601525050806001860154166101008401525061534b6101208301848051825260208082015190830152604090810151910152565b98975050505050505050565b7f4e487b7100000000000000000000000000000000000000000000000000000000600052600160045260246000fd5b7f4e487b7100000000000000000000000000000000000000000000000000000000600052602160045260246000fdfea26469706673582212206b64ebe1348b874105fe0d8c1525001a08f479cec72cc62bb317fe1a381e7ca664736f6c63430008190033",
			"opcodes": "PUSH2 0x1A0 PUSH1 0x40 MSTORE CALLVALUE DUP1 ISZERO PUSH2 0x11 JUMPI PUSH1 0x0 DUP1 REVERT JUMPDEST POP PUSH1 0x40 MLOAD PUSH2 0x5A5F CODESIZE SUB DUP1 PUSH2 0x5A5F DUP4 CODECOPY DUP2 ADD PUSH1 0x40 DUP2 SWAP1 MSTORE PUSH2 0x30 SWAP2 PUSH2 0x3B0 JUMP JUMPDEST DUP1 PUSH3 0x33450 PUSH10 0x69E10DE76676D0800000 DUP3 PUSH1 0x40 MLOAD DUP1 PUSH1 0x40 ADD PUSH1 0x40 MSTORE DUP1 PUSH1 0x4 DUP2 MSTORE PUSH1 0x20 ADD PUSH4 0xAA88AA9 PUSH1 0xE3 SHL DUP2 MSTORE POP DUP1 PUSH1 0x40 MLOAD DUP1 PUSH1 0x40 ADD PUSH1 0x40 MSTORE DUP1 PUSH1 0x1 DUP2 MSTORE PUSH1 0x20 ADD PUSH1 0x31 PUSH1 0xF8 SHL DUP2 MSTORE POP DUP4 PUSH1 0x40 MLOAD DUP1 PUSH1 0x40 ADD PUSH1 0x40 MSTORE DUP1 PUSH1 0x13 DUP2 MSTORE PUSH1 0x20 ADD PUSH32 0x596F7520446963652C20596F7520486F75736500000000000000000000000000 DUP2 MSTORE POP PUSH1 0x40 MLOAD DUP1 PUSH1 0x40 ADD PUSH1 0x40 MSTORE DUP1 PUSH1 0x4 DUP2 MSTORE PUSH1 0x20 ADD PUSH4 0xAA88AA9 PUSH1 0xE3 SHL DUP2 MSTORE POP DUP2 PUSH1 0xC SWAP1 DUP2 PUSH2 0xDC SWAP2 SWAP1 PUSH2 0x481 JUMP JUMPDEST POP PUSH1 0xD PUSH2 0xE9 DUP3 DUP3 PUSH2 0x481 JUMP JUMPDEST POP POP POP PUSH1 0x1 PUSH1 0x1 PUSH1 0xA0 SHL SUB DUP2 AND PUSH2 0x11B JUMPI PUSH1 0x40 MLOAD PUSH4 0x1E4FBDF7 PUSH1 0xE0 SHL DUP2 MSTORE PUSH1 0x0 PUSH1 0x4 DUP3 ADD MSTORE PUSH1 0x24 ADD JUMPDEST PUSH1 0x40 MLOAD DUP1 SWAP2 SUB SWAP1 REVERT JUMPDEST PUSH2 0x124 DUP2 PUSH2 0x2ED JUMP JUMPDEST POP PUSH2 0x130 DUP3 PUSH1 0xF PUSH2 0x33F JUMP JUMPDEST PUSH2 0x120 MSTORE PUSH2 0x13F DUP2 PUSH1 0x10 PUSH2 0x33F JUMP JUMPDEST PUSH2 0x140 MSTORE DUP2 MLOAD PUSH1 0x20 DUP1 DUP5 ADD SWAP2 SWAP1 SWAP2 KECCAK256 PUSH1 0xE0 MSTORE DUP2 MLOAD SWAP1 DUP3 ADD KECCAK256 PUSH2 0x100 MSTORE CHAINID PUSH1 0xA0 MSTORE PUSH2 0x1CC PUSH1 0xE0 MLOAD PUSH2 0x100 MLOAD PUSH1 0x40 DUP1 MLOAD PUSH32 0x8B73C3C69BB8FE3D512ECC4CF759CC79239F7B179B0FFACAA9A75D522B39400F PUSH1 0x20 DUP3 ADD MSTORE SWAP1 DUP2 ADD SWAP3 SWAP1 SWAP3 MSTORE PUSH1 0x60 DUP3 ADD MSTORE CHAINID PUSH1 0x80 DUP3 ADD MSTORE ADDRESS PUSH1 0xA0 DUP3 ADD MSTORE PUSH1 0x0 SWAP1 PUSH1 0xC0 ADD PUSH1 0x40 MLOAD PUSH1 0x20 DUP2 DUP4 SUB SUB DUP2 MSTORE SWAP1 PUSH1 0x40 MSTORE DUP1 MLOAD SWAP1 PUSH1 0x20 ADD KECCAK256 SWAP1 POP SWAP1 JUMP JUMPDEST PUSH1 0x80 MSTORE POP POP ADDRESS PUSH1 0xC0 MSTORE POP POP PUSH1 0x1 PUSH1 0x1 PUSH1 0x40 SHL SUB SWAP1 SWAP2 AND PUSH2 0x160 MSTORE PUSH1 0x1 PUSH1 0x1 PUSH1 0x60 SHL SUB AND PUSH2 0x180 MSTORE POP PUSH31 0x6A94D74F430000000000000000000000000000000000000DE0B6B3A7640000 PUSH1 0x0 SWAP1 DUP2 SSTORE PUSH1 0x1 DUP1 SLOAD PUSH4 0xFFFFFFFF NOT AND PUSH2 0x8FC OR SWAP1 SSTORE PUSH1 0x12 DUP1 SLOAD PUSH1 0x1 PUSH1 0x1 PUSH1 0xA0 SHL SUB NOT AND PUSH20 0xB14665AF7AF6F8BCECB137F50F33198D679CACC1 SWAP1 DUP2 OR SWAP1 SWAP2 SSTORE PUSH1 0x40 DUP1 MLOAD PUSH4 0xAACC5A17 PUSH1 0xE0 SHL DUP2 MSTORE SWAP1 MLOAD PUSH4 0xAACC5A17 SWAP2 PUSH1 0x4 DUP1 DUP3 ADD SWAP3 PUSH1 0x20 SWAP3 SWAP1 SWAP2 SWAP1 DUP3 SWAP1 SUB ADD DUP2 DUP7 GAS STATICCALL ISZERO DUP1 ISZERO PUSH2 0x28E JUMPI RETURNDATASIZE PUSH1 0x0 DUP1 RETURNDATACOPY RETURNDATASIZE PUSH1 0x0 REVERT JUMPDEST POP POP POP POP PUSH1 0x40 MLOAD RETURNDATASIZE PUSH1 0x1F NOT PUSH1 0x1F DUP3 ADD AND DUP3 ADD DUP1 PUSH1 0x40 MSTORE POP DUP2 ADD SWAP1 PUSH2 0x2B2 SWAP2 SWAP1 PUSH2 0x540 JUMP JUMPDEST SWAP1 POP DUP1 PUSH2 0x2E6 JUMPI PUSH1 0x40 MLOAD PUSH3 0x461BCD PUSH1 0xE5 SHL DUP2 MSTORE PUSH1 0x20 PUSH1 0x4 DUP3 ADD MSTORE PUSH1 0x2 PUSH1 0x24 DUP3 ADD MSTORE PUSH2 0x4531 PUSH1 0xF0 SHL PUSH1 0x44 DUP3 ADD MSTORE PUSH1 0x64 ADD PUSH2 0x112 JUMP JUMPDEST POP POP PUSH2 0x5CC JUMP JUMPDEST PUSH1 0xE DUP1 SLOAD PUSH1 0x1 PUSH1 0x1 PUSH1 0xA0 SHL SUB DUP4 DUP2 AND PUSH1 0x1 PUSH1 0x1 PUSH1 0xA0 SHL SUB NOT DUP4 AND DUP2 OR SWAP1 SWAP4 SSTORE PUSH1 0x40 MLOAD SWAP2 AND SWAP2 SWAP1 DUP3 SWAP1 PUSH32 0x8BE0079C531659141344CD1FD0A4F28419497F9722A3DAAFE3B4186F6B6457E0 SWAP1 PUSH1 0x0 SWAP1 LOG3 POP POP JUMP JUMPDEST PUSH1 0x0 PUSH1 0x20 DUP4 MLOAD LT ISZERO PUSH2 0x35B JUMPI PUSH2 0x354 DUP4 PUSH2 0x372 JUMP JUMPDEST SWAP1 POP PUSH2 0x36C JUMP JUMPDEST DUP2 PUSH2 0x366 DUP5 DUP3 PUSH2 0x481 JUMP JUMPDEST POP PUSH1 0xFF SWAP1 POP JUMPDEST SWAP3 SWAP2 POP POP JUMP JUMPDEST PUSH1 0x0 DUP1 DUP3 SWAP1 POP PUSH1 0x1F DUP2 MLOAD GT ISZERO PUSH2 0x39D JUMPI DUP3 PUSH1 0x40 MLOAD PUSH4 0x305A27A9 PUSH1 0xE0 SHL DUP2 MSTORE PUSH1 0x4 ADD PUSH2 0x112 SWAP2 SWAP1 PUSH2 0x559 JUMP JUMPDEST DUP1 MLOAD PUSH2 0x3A8 DUP3 PUSH2 0x5A8 JUMP JUMPDEST OR SWAP4 SWAP3 POP POP POP JUMP JUMPDEST PUSH1 0x0 PUSH1 0x20 DUP3 DUP5 SUB SLT ISZERO PUSH2 0x3C2 JUMPI PUSH1 0x0 DUP1 REVERT JUMPDEST DUP2 MLOAD PUSH1 0x1 PUSH1 0x1 PUSH1 0xA0 SHL SUB DUP2 AND DUP2 EQ PUSH2 0x3D9 JUMPI PUSH1 0x0 DUP1 REVERT JUMPDEST SWAP4 SWAP3 POP POP POP JUMP JUMPDEST PUSH4 0x4E487B71 PUSH1 0xE0 SHL PUSH1 0x0 MSTORE PUSH1 0x41 PUSH1 0x4 MSTORE PUSH1 0x24 PUSH1 0x0 REVERT JUMPDEST PUSH1 0x1 DUP2 DUP2 SHR SWAP1 DUP3 AND DUP1 PUSH2 0x40A JUMPI PUSH1 0x7F DUP3 AND SWAP2 POP JUMPDEST PUSH1 0x20 DUP3 LT DUP2 SUB PUSH2 0x42A JUMPI PUSH4 0x4E487B71 PUSH1 0xE0 SHL PUSH1 0x0 MSTORE PUSH1 0x22 PUSH1 0x4 MSTORE PUSH1 0x24 PUSH1 0x0 REVERT JUMPDEST POP SWAP2 SWAP1 POP JUMP JUMPDEST PUSH1 0x1F DUP3 GT ISZERO PUSH2 0x47C JUMPI PUSH1 0x0 DUP2 PUSH1 0x0 MSTORE PUSH1 0x20 PUSH1 0x0 KECCAK256 PUSH1 0x1F DUP6 ADD PUSH1 0x5 SHR DUP2 ADD PUSH1 0x20 DUP7 LT ISZERO PUSH2 0x459 JUMPI POP DUP1 JUMPDEST PUSH1 0x1F DUP6 ADD PUSH1 0x5 SHR DUP3 ADD SWAP2 POP JUMPDEST DUP2 DUP2 LT ISZERO PUSH2 0x478 JUMPI DUP3 DUP2 SSTORE PUSH1 0x1 ADD PUSH2 0x465 JUMP JUMPDEST POP POP POP JUMPDEST POP POP POP JUMP JUMPDEST DUP2 MLOAD PUSH1 0x1 PUSH1 0x1 PUSH1 0x40 SHL SUB DUP2 GT ISZERO PUSH2 0x49A JUMPI PUSH2 0x49A PUSH2 0x3E0 JUMP JUMPDEST PUSH2 0x4AE DUP2 PUSH2 0x4A8 DUP5 SLOAD PUSH2 0x3F6 JUMP JUMPDEST DUP5 PUSH2 0x430 JUMP JUMPDEST PUSH1 0x20 DUP1 PUSH1 0x1F DUP4 GT PUSH1 0x1 DUP2 EQ PUSH2 0x4E3 JUMPI PUSH1 0x0 DUP5 ISZERO PUSH2 0x4CB JUMPI POP DUP6 DUP4 ADD MLOAD JUMPDEST PUSH1 0x0 NOT PUSH1 0x3 DUP7 SWAP1 SHL SHR NOT AND PUSH1 0x1 DUP6 SWAP1 SHL OR DUP6 SSTORE PUSH2 0x478 JUMP JUMPDEST PUSH1 0x0 DUP6 DUP2 MSTORE PUSH1 0x20 DUP2 KECCAK256 PUSH1 0x1F NOT DUP7 AND SWAP2 JUMPDEST DUP3 DUP2 LT ISZERO PUSH2 0x512 JUMPI DUP9 DUP7 ADD MLOAD DUP3 SSTORE SWAP5 DUP5 ADD SWAP5 PUSH1 0x1 SWAP1 SWAP2 ADD SWAP1 DUP5 ADD PUSH2 0x4F3 JUMP JUMPDEST POP DUP6 DUP3 LT ISZERO PUSH2 0x530 JUMPI DUP8 DUP6 ADD MLOAD PUSH1 0x0 NOT PUSH1 0x3 DUP9 SWAP1 SHL PUSH1 0xF8 AND SHR NOT AND DUP2 SSTORE JUMPDEST POP POP POP POP POP PUSH1 0x1 SWAP1 DUP2 SHL ADD SWAP1 SSTORE POP JUMP JUMPDEST PUSH1 0x0 PUSH1 0x20 DUP3 DUP5 SUB SLT ISZERO PUSH2 0x552 JUMPI PUSH1 0x0 DUP1 REVERT JUMPDEST POP MLOAD SWAP2 SWAP1 POP JUMP JUMPDEST PUSH1 0x0 PUSH1 0x20 DUP1 DUP4 MSTORE DUP4 MLOAD DUP1 PUSH1 0x20 DUP6 ADD MSTORE PUSH1 0x0 JUMPDEST DUP2 DUP2 LT ISZERO PUSH2 0x587 JUMPI DUP6 DUP2 ADD DUP4 ADD MLOAD DUP6 DUP3 ADD PUSH1 0x40 ADD MSTORE DUP3 ADD PUSH2 0x56B JUMP JUMPDEST POP PUSH1 0x0 PUSH1 0x40 DUP3 DUP7 ADD ADD MSTORE PUSH1 0x40 PUSH1 0x1F NOT PUSH1 0x1F DUP4 ADD AND DUP6 ADD ADD SWAP3 POP POP POP SWAP3 SWAP2 POP POP JUMP JUMPDEST DUP1 MLOAD PUSH1 0x20 DUP1 DUP4 ADD MLOAD SWAP2 SWAP1 DUP2 LT ISZERO PUSH2 0x42A JUMPI PUSH1 0x0 NOT PUSH1 0x20 SWAP2 SWAP1 SWAP2 SUB PUSH1 0x3 SHL SHL AND SWAP2 SWAP1 POP JUMP JUMPDEST PUSH1 0x80 MLOAD PUSH1 0xA0 MLOAD PUSH1 0xC0 MLOAD PUSH1 0xE0 MLOAD PUSH2 0x100 MLOAD PUSH2 0x120 MLOAD PUSH2 0x140 MLOAD PUSH2 0x160 MLOAD PUSH2 0x180 MLOAD PUSH2 0x53EB PUSH2 0x674 PUSH1 0x0 CODECOPY PUSH1 0x0 DUP2 DUP2 PUSH2 0x56C ADD MSTORE DUP2 DUP2 PUSH2 0x2E60 ADD MSTORE DUP2 DUP2 PUSH2 0x3232 ADD MSTORE DUP2 DUP2 PUSH2 0x3FE9 ADD MSTORE DUP2 DUP2 PUSH2 0x492A ADD MSTORE PUSH2 0x49BC ADD MSTORE PUSH1 0x0 DUP2 DUP2 PUSH2 0x53A ADD MSTORE DUP2 DUP2 PUSH2 0x23D9 ADD MSTORE DUP2 DUP2 PUSH2 0x2E2B ADD MSTORE PUSH2 0x3CCA ADD MSTORE PUSH1 0x0 PUSH2 0x3978 ADD MSTORE PUSH1 0x0 PUSH2 0x394B ADD MSTORE PUSH1 0x0 PUSH2 0x3829 ADD MSTORE PUSH1 0x0 PUSH2 0x3801 ADD MSTORE PUSH1 0x0 PUSH2 0x375C ADD MSTORE PUSH1 0x0 PUSH2 0x3786 ADD MSTORE PUSH1 0x0 PUSH2 0x37B0 ADD MSTORE PUSH2 0x53EB PUSH1 0x0 RETURN INVALID PUSH1 0x80 PUSH1 0x40 MSTORE PUSH1 0x4 CALLDATASIZE LT PUSH2 0x26E JUMPI PUSH1 0x0 CALLDATALOAD PUSH1 0xE0 SHR DUP1 PUSH4 0x79CC6790 GT PUSH2 0x153 JUMPI DUP1 PUSH4 0xD505ACCF GT PUSH2 0xCB JUMPI DUP1 PUSH4 0xED042C9B GT PUSH2 0x7F JUMPI DUP1 PUSH4 0xF516EC9F GT PUSH2 0x64 JUMPI DUP1 PUSH4 0xF516EC9F EQ PUSH2 0x8A7 JUMPI DUP1 PUSH4 0xFE585B7F EQ PUSH2 0x8C7 JUMPI DUP1 PUSH4 0xFF2D9665 EQ PUSH2 0x8DA JUMPI PUSH2 0x293 JUMP JUMPDEST DUP1 PUSH4 0xED042C9B EQ PUSH2 0x867 JUMPI DUP1 PUSH4 0xF2FDE38B EQ PUSH2 0x887 JUMPI PUSH2 0x293 JUMP JUMPDEST DUP1 PUSH4 0xD773826D GT PUSH2 0xB0 JUMPI DUP1 PUSH4 0xD773826D EQ PUSH2 0x7D4 JUMPI DUP1 PUSH4 0xDB006A75 EQ PUSH2 0x7F4 JUMPI DUP1 PUSH4 0xDD62ED3E EQ PUSH2 0x814 JUMPI PUSH2 0x293 JUMP JUMPDEST DUP1 PUSH4 0xD505ACCF EQ PUSH2 0x794 JUMPI DUP1 PUSH4 0xD7194CCB EQ PUSH2 0x7B4 JUMPI PUSH2 0x293 JUMP JUMPDEST DUP1 PUSH4 0x8DA5CB5B GT PUSH2 0x122 JUMPI DUP1 PUSH4 0xA9059CBB GT PUSH2 0x107 JUMPI DUP1 PUSH4 0xA9059CBB EQ PUSH2 0x729 JUMPI DUP1 PUSH4 0xB63BDD54 EQ PUSH2 0x749 JUMPI DUP1 PUSH4 0xCE217048 EQ PUSH2 0x769 JUMPI PUSH2 0x293 JUMP JUMPDEST DUP1 PUSH4 0x8DA5CB5B EQ PUSH2 0x6E9 JUMPI DUP1 PUSH4 0x95D89B41 EQ PUSH2 0x714 JUMPI PUSH2 0x293 JUMP JUMPDEST DUP1 PUSH4 0x79CC6790 EQ PUSH2 0x654 JUMPI DUP1 PUSH4 0x7ECEBE00 EQ PUSH2 0x674 JUMPI DUP1 PUSH4 0x84B0196E EQ PUSH2 0x694 JUMPI DUP1 PUSH4 0x89B94CCA EQ PUSH2 0x6BC JUMPI PUSH2 0x293 JUMP JUMPDEST DUP1 PUSH4 0x419BBB76 GT PUSH2 0x1E6 JUMPI DUP1 PUSH4 0x6142B027 GT PUSH2 0x1B5 JUMPI DUP1 PUSH4 0x6BD50CEF GT PUSH2 0x19A JUMPI DUP1 PUSH4 0x6BD50CEF EQ PUSH2 0x518 JUMPI DUP1 PUSH4 0x70A08231 EQ PUSH2 0x5FC JUMPI DUP1 PUSH4 0x715018A6 EQ PUSH2 0x63F JUMPI PUSH2 0x293 JUMP JUMPDEST DUP1 PUSH4 0x6142B027 EQ PUSH2 0x4D8 JUMPI DUP1 PUSH4 0x621AD856 EQ PUSH2 0x505 JUMPI PUSH2 0x293 JUMP JUMPDEST DUP1 PUSH4 0x419BBB76 EQ PUSH2 0x419 JUMPI DUP1 PUSH4 0x42966C68 EQ PUSH2 0x439 JUMPI DUP1 PUSH4 0x4BD8EC5E EQ PUSH2 0x459 JUMPI DUP1 PUSH4 0x59328401 EQ PUSH2 0x479 JUMPI PUSH2 0x293 JUMP JUMPDEST DUP1 PUSH4 0x1865C57D GT PUSH2 0x23D JUMPI DUP1 PUSH4 0x294FE942 GT PUSH2 0x222 JUMPI DUP1 PUSH4 0x294FE942 EQ PUSH2 0x39B JUMPI DUP1 PUSH4 0x313CE567 EQ PUSH2 0x3E8 JUMPI DUP1 PUSH4 0x3644E515 EQ PUSH2 0x404 JUMPI PUSH2 0x293 JUMP JUMPDEST DUP1 PUSH4 0x1865C57D EQ PUSH2 0x32B JUMPI DUP1 PUSH4 0x23B872DD EQ PUSH2 0x37B JUMPI PUSH2 0x293 JUMP JUMPDEST DUP1 PUSH4 0x6FDDE03 EQ PUSH2 0x29C JUMPI DUP1 PUSH4 0x95EA7B3 EQ PUSH2 0x2C7 JUMPI DUP1 PUSH4 0x1333DB2E EQ PUSH2 0x2F7 JUMPI DUP1 PUSH4 0x18160DDD EQ PUSH2 0x30C JUMPI PUSH2 0x293 JUMP JUMPDEST CALLDATASIZE PUSH2 0x293 JUMPI PUSH2 0x291 CALLER JUMPDEST PUSH2 0x281 CALLVALUE PUSH2 0x8FA JUMP JUMPDEST PUSH1 0x0 PUSH8 0x1BC16D674EC80000 PUSH2 0x955 JUMP JUMPDEST STOP JUMPDEST PUSH2 0x291 CALLER PUSH2 0x278 JUMP JUMPDEST CALLVALUE DUP1 ISZERO PUSH2 0x2A8 JUMPI PUSH1 0x0 DUP1 REVERT JUMPDEST POP PUSH2 0x2B1 PUSH2 0xF2C JUMP JUMPDEST PUSH1 0x40 MLOAD PUSH2 0x2BE SWAP2 SWAP1 PUSH2 0x4A88 JUMP JUMPDEST PUSH1 0x40 MLOAD DUP1 SWAP2 SUB SWAP1 RETURN JUMPDEST CALLVALUE DUP1 ISZERO PUSH2 0x2D3 JUMPI PUSH1 0x0 DUP1 REVERT JUMPDEST POP PUSH2 0x2E7 PUSH2 0x2E2 CALLDATASIZE PUSH1 0x4 PUSH2 0x4AC4 JUMP JUMPDEST PUSH2 0xFBE JUMP JUMPDEST PUSH1 0x40 MLOAD SWAP1 ISZERO ISZERO DUP2 MSTORE PUSH1 0x20 ADD PUSH2 0x2BE JUMP JUMPDEST CALLVALUE DUP1 ISZERO PUSH2 0x303 JUMPI PUSH1 0x0 DUP1 REVERT JUMPDEST POP PUSH2 0x291 PUSH2 0xFD8 JUMP JUMPDEST CALLVALUE DUP1 ISZERO PUSH2 0x318 JUMPI PUSH1 0x0 DUP1 REVERT JUMPDEST POP PUSH1 0xB SLOAD JUMPDEST PUSH1 0x40 MLOAD SWAP1 DUP2 MSTORE PUSH1 0x20 ADD PUSH2 0x2BE JUMP JUMPDEST CALLVALUE DUP1 ISZERO PUSH2 0x337 JUMPI PUSH1 0x0 DUP1 REVERT JUMPDEST POP PUSH2 0x340 PUSH2 0x10F2 JUMP JUMPDEST PUSH1 0x40 DUP1 MLOAD SWAP9 DUP10 MSTORE PUSH1 0x20 DUP10 ADD SWAP8 SWAP1 SWAP8 MSTORE SWAP6 DUP8 ADD SWAP5 SWAP1 SWAP5 MSTORE PUSH1 0x60 DUP7 ADD SWAP3 SWAP1 SWAP3 MSTORE PUSH1 0x80 DUP6 ADD MSTORE PUSH1 0xA0 DUP5 ADD MSTORE PUSH1 0xC0 DUP4 ADD MSTORE PUSH1 0xE0 DUP3 ADD MSTORE PUSH2 0x100 ADD PUSH2 0x2BE JUMP JUMPDEST CALLVALUE DUP1 ISZERO PUSH2 0x387 JUMPI PUSH1 0x0 DUP1 REVERT JUMPDEST POP PUSH2 0x2E7 PUSH2 0x396 CALLDATASIZE PUSH1 0x4 PUSH2 0x4AEE JUMP JUMPDEST PUSH2 0x1174 JUMP JUMPDEST CALLVALUE DUP1 ISZERO PUSH2 0x3A7 JUMPI PUSH1 0x0 DUP1 REVERT JUMPDEST POP PUSH2 0x3C3 PUSH20 0xB14665AF7AF6F8BCECB137F50F33198D679CACC1 DUP2 JUMP JUMPDEST PUSH1 0x40 MLOAD PUSH20 0xFFFFFFFFFFFFFFFFFFFFFFFFFFFFFFFFFFFFFFFF SWAP1 SWAP2 AND DUP2 MSTORE PUSH1 0x20 ADD PUSH2 0x2BE JUMP JUMPDEST CALLVALUE DUP1 ISZERO PUSH2 0x3F4 JUMPI PUSH1 0x0 DUP1 REVERT JUMPDEST POP PUSH1 0x40 MLOAD PUSH1 0x12 DUP2 MSTORE PUSH1 0x20 ADD PUSH2 0x2BE JUMP JUMPDEST CALLVALUE DUP1 ISZERO PUSH2 0x410 JUMPI PUSH1 0x0 DUP1 REVERT JUMPDEST POP PUSH2 0x31D PUSH2 0x119A JUMP JUMPDEST CALLVALUE DUP1 ISZERO PUSH2 0x425 JUMPI PUSH1 0x0 DUP1 REVERT JUMPDEST POP PUSH2 0x291 PUSH2 0x434 CALLDATASIZE PUSH1 0x4 PUSH2 0x4B46 JUMP JUMPDEST PUSH2 0x11A9 JUMP JUMPDEST CALLVALUE DUP1 ISZERO PUSH2 0x445 JUMPI PUSH1 0x0 DUP1 REVERT JUMPDEST POP PUSH2 0x291 PUSH2 0x454 CALLDATASIZE PUSH1 0x4 PUSH2 0x4B61 JUMP JUMPDEST PUSH2 0x13C5 JUMP JUMPDEST CALLVALUE DUP1 ISZERO PUSH2 0x465 JUMPI PUSH1 0x0 DUP1 REVERT JUMPDEST POP PUSH2 0x291 PUSH2 0x474 CALLDATASIZE PUSH1 0x4 PUSH2 0x4B7A JUMP JUMPDEST PUSH2 0x13D2 JUMP JUMPDEST CALLVALUE DUP1 ISZERO PUSH2 0x485 JUMPI PUSH1 0x0 DUP1 REVERT JUMPDEST POP PUSH2 0x4C3 PUSH2 0x494 CALLDATASIZE PUSH1 0x4 PUSH2 0x4B7A JUMP JUMPDEST PUSH20 0xFFFFFFFFFFFFFFFFFFFFFFFFFFFFFFFFFFFFFFFF AND PUSH1 0x0 SWAP1 DUP2 MSTORE PUSH1 0x8 PUSH1 0x20 MSTORE PUSH1 0x40 SWAP1 KECCAK256 PUSH1 0x1 DUP2 ADD SLOAD SWAP1 SLOAD SWAP1 SWAP2 JUMP JUMPDEST PUSH1 0x40 DUP1 MLOAD SWAP3 DUP4 MSTORE PUSH1 0x20 DUP4 ADD SWAP2 SWAP1 SWAP2 MSTORE ADD PUSH2 0x2BE JUMP JUMPDEST CALLVALUE DUP1 ISZERO PUSH2 0x4E4 JUMPI PUSH1 0x0 DUP1 REVERT JUMPDEST POP PUSH2 0x4F8 PUSH2 0x4F3 CALLDATASIZE PUSH1 0x4 PUSH2 0x4BBD JUMP JUMPDEST PUSH2 0x148C JUMP JUMPDEST PUSH1 0x40 MLOAD PUSH2 0x2BE SWAP2 SWAP1 PUSH2 0x4D8D JUMP JUMPDEST PUSH2 0x291 PUSH2 0x513 CALLDATASIZE PUSH1 0x4 PUSH2 0x4B46 JUMP JUMPDEST PUSH2 0x1A46 JUMP JUMPDEST CALLVALUE DUP1 ISZERO PUSH2 0x524 JUMPI PUSH1 0x0 DUP1 REVERT JUMPDEST POP PUSH1 0x0 SLOAD PUSH1 0x1 SLOAD PUSH1 0x40 DUP1 MLOAD PUSH8 0xFFFFFFFFFFFFFFFF PUSH32 0x0 DUP2 AND DUP3 MSTORE PUSH12 0xFFFFFFFFFFFFFFFFFFFFFFFF PUSH32 0x0 DUP2 AND PUSH1 0x20 DUP5 ADD MSTORE DUP1 DUP7 AND SWAP4 DUP4 ADD SWAP4 SWAP1 SWAP4 MSTORE PUSH13 0x1000000000000000000000000 DUP6 DIV SWAP1 SWAP3 AND PUSH1 0x60 DUP3 ADD MSTORE PUSH25 0x1000000000000000000000000000000000000000000000000 SWAP1 SWAP4 DIV AND PUSH1 0x80 DUP4 ADD MSTORE PUSH4 0xFFFFFFFF DUP2 AND PUSH1 0xA0 DUP4 ADD MSTORE PUSH1 0xFF PUSH5 0x100000000 SWAP1 SWAP2 DIV AND PUSH1 0xC0 DUP3 ADD MSTORE PUSH1 0xE0 ADD PUSH2 0x2BE JUMP JUMPDEST CALLVALUE DUP1 ISZERO PUSH2 0x608 JUMPI PUSH1 0x0 DUP1 REVERT JUMPDEST POP PUSH2 0x31D PUSH2 0x617 CALLDATASIZE PUSH1 0x4 PUSH2 0x4B7A JUMP JUMPDEST PUSH20 0xFFFFFFFFFFFFFFFFFFFFFFFFFFFFFFFFFFFFFFFF AND PUSH1 0x0 SWAP1 DUP2 MSTORE PUSH1 0x9 PUSH1 0x20 MSTORE PUSH1 0x40 SWAP1 KECCAK256 SLOAD SWAP1 JUMP JUMPDEST CALLVALUE DUP1 ISZERO PUSH2 0x64B JUMPI PUSH1 0x0 DUP1 REVERT JUMPDEST POP PUSH2 0x291 PUSH2 0x1A5B JUMP JUMPDEST CALLVALUE DUP1 ISZERO PUSH2 0x660 JUMPI PUSH1 0x0 DUP1 REVERT JUMPDEST POP PUSH2 0x291 PUSH2 0x66F CALLDATASIZE PUSH1 0x4 PUSH2 0x4AC4 JUMP JUMPDEST PUSH2 0x1A6F JUMP JUMPDEST CALLVALUE DUP1 ISZERO PUSH2 0x680 JUMPI PUSH1 0x0 DUP1 REVERT JUMPDEST POP PUSH2 0x31D PUSH2 0x68F CALLDATASIZE PUSH1 0x4 PUSH2 0x4B7A JUMP JUMPDEST PUSH2 0x1A84 JUMP JUMPDEST CALLVALUE DUP1 ISZERO PUSH2 0x6A0 JUMPI PUSH1 0x0 DUP1 REVERT JUMPDEST POP PUSH2 0x6A9 PUSH2 0x1AAF JUMP JUMPDEST PUSH1 0x40 MLOAD PUSH2 0x2BE SWAP8 SWAP7 SWAP6 SWAP5 SWAP4 SWAP3 SWAP2 SWAP1 PUSH2 0x4DD0 JUMP JUMPDEST CALLVALUE DUP1 ISZERO PUSH2 0x6C8 JUMPI PUSH1 0x0 DUP1 REVERT JUMPDEST POP PUSH2 0x6DC PUSH2 0x6D7 CALLDATASIZE PUSH1 0x4 PUSH2 0x4E92 JUMP JUMPDEST PUSH2 0x1B11 JUMP JUMPDEST PUSH1 0x40 MLOAD PUSH2 0x2BE SWAP2 SWAP1 PUSH2 0x4EAD JUMP JUMPDEST CALLVALUE DUP1 ISZERO PUSH2 0x6F5 JUMPI PUSH1 0x0 DUP1 REVERT JUMPDEST POP PUSH1 0xE SLOAD PUSH20 0xFFFFFFFFFFFFFFFFFFFFFFFFFFFFFFFFFFFFFFFF AND PUSH2 0x3C3 JUMP JUMPDEST CALLVALUE DUP1 ISZERO PUSH2 0x720 JUMPI PUSH1 0x0 DUP1 REVERT JUMPDEST POP PUSH2 0x2B1 PUSH2 0x1D0B JUMP JUMPDEST CALLVALUE DUP1 ISZERO PUSH2 0x735 JUMPI PUSH1 0x0 DUP1 REVERT JUMPDEST POP PUSH2 0x2E7 PUSH2 0x744 CALLDATASIZE PUSH1 0x4 PUSH2 0x4AC4 JUMP JUMPDEST PUSH2 0x1D1A JUMP JUMPDEST CALLVALUE DUP1 ISZERO PUSH2 0x755 JUMPI PUSH1 0x0 DUP1 REVERT JUMPDEST POP PUSH2 0x291 PUSH2 0x764 CALLDATASIZE PUSH1 0x4 PUSH2 0x4AC4 JUMP JUMPDEST PUSH2 0x1D28 JUMP JUMPDEST CALLVALUE DUP1 ISZERO PUSH2 0x775 JUMPI PUSH1 0x0 DUP1 REVERT JUMPDEST POP PUSH1 0x12 SLOAD PUSH20 0xFFFFFFFFFFFFFFFFFFFFFFFFFFFFFFFFFFFFFFFF AND PUSH2 0x3C3 JUMP JUMPDEST CALLVALUE DUP1 ISZERO PUSH2 0x7A0 JUMPI PUSH1 0x0 DUP1 REVERT JUMPDEST POP PUSH2 0x291 PUSH2 0x7AF CALLDATASIZE PUSH1 0x4 PUSH2 0x4ECD JUMP JUMPDEST PUSH2 0x1DE4 JUMP JUMPDEST CALLVALUE DUP1 ISZERO PUSH2 0x7C0 JUMPI PUSH1 0x0 DUP1 REVERT JUMPDEST POP PUSH2 0x291 PUSH2 0x7CF CALLDATASIZE PUSH1 0x4 PUSH2 0x4E92 JUMP JUMPDEST PUSH2 0x1F91 JUMP JUMPDEST CALLVALUE DUP1 ISZERO PUSH2 0x7E0 JUMPI PUSH1 0x0 DUP1 REVERT JUMPDEST POP PUSH2 0x291 PUSH2 0x7EF CALLDATASIZE PUSH1 0x4 PUSH2 0x4B7A JUMP JUMPDEST PUSH2 0x220A JUMP JUMPDEST CALLVALUE DUP1 ISZERO PUSH2 0x800 JUMPI PUSH1 0x0 DUP1 REVERT JUMPDEST POP PUSH2 0x291 PUSH2 0x80F CALLDATASIZE PUSH1 0x4 PUSH2 0x4B61 JUMP JUMPDEST PUSH2 0x238D JUMP JUMPDEST CALLVALUE DUP1 ISZERO PUSH2 0x820 JUMPI PUSH1 0x0 DUP1 REVERT JUMPDEST POP PUSH2 0x31D PUSH2 0x82F CALLDATASIZE PUSH1 0x4 PUSH2 0x4F37 JUMP JUMPDEST PUSH20 0xFFFFFFFFFFFFFFFFFFFFFFFFFFFFFFFFFFFFFFFF SWAP2 DUP3 AND PUSH1 0x0 SWAP1 DUP2 MSTORE PUSH1 0xA PUSH1 0x20 SWAP1 DUP2 MSTORE PUSH1 0x40 DUP1 DUP4 KECCAK256 SWAP4 SWAP1 SWAP5 AND DUP3 MSTORE SWAP2 SWAP1 SWAP2 MSTORE KECCAK256 SLOAD SWAP1 JUMP JUMPDEST CALLVALUE DUP1 ISZERO PUSH2 0x873 JUMPI PUSH1 0x0 DUP1 REVERT JUMPDEST POP PUSH2 0x4F8 PUSH2 0x882 CALLDATASIZE PUSH1 0x4 PUSH2 0x4F6A JUMP JUMPDEST PUSH2 0x2548 JUMP JUMPDEST CALLVALUE DUP1 ISZERO PUSH2 0x893 JUMPI PUSH1 0x0 DUP1 REVERT JUMPDEST POP PUSH2 0x291 PUSH2 0x8A2 CALLDATASIZE PUSH1 0x4 PUSH2 0x4B7A JUMP JUMPDEST PUSH2 0x2B2C JUMP JUMPDEST CALLVALUE DUP1 ISZERO PUSH2 0x8B3 JUMPI PUSH1 0x0 DUP1 REVERT JUMPDEST POP PUSH2 0x291 PUSH2 0x8C2 CALLDATASIZE PUSH1 0x4 PUSH2 0x4FBE JUMP JUMPDEST PUSH2 0x2B8D JUMP JUMPDEST PUSH2 0x291 PUSH2 0x8D5 CALLDATASIZE PUSH1 0x4 PUSH2 0x502E JUMP JUMPDEST PUSH2 0x2EFC JUMP JUMPDEST CALLVALUE DUP1 ISZERO PUSH2 0x8E6 JUMPI PUSH1 0x0 DUP1 REVERT JUMPDEST POP PUSH2 0x4F8 PUSH2 0x8F5 CALLDATASIZE PUSH1 0x4 PUSH2 0x4BBD JUMP JUMPDEST PUSH2 0x2F8C JUMP JUMPDEST PUSH1 0x0 PUSH12 0xFFFFFFFFFFFFFFFFFFFFFFFF DUP3 GT ISZERO PUSH2 0x951 JUMPI PUSH1 0x40 MLOAD PUSH32 0x6DFCC65000000000000000000000000000000000000000000000000000000000 DUP2 MSTORE PUSH1 0x60 PUSH1 0x4 DUP3 ADD MSTORE PUSH1 0x24 DUP2 ADD DUP4 SWAP1 MSTORE PUSH1 0x44 ADD JUMPDEST PUSH1 0x40 MLOAD DUP1 SWAP2 SUB SWAP1 REVERT JUMPDEST POP SWAP1 JUMP JUMPDEST PUSH1 0x2 DUP1 SLOAD PUSH8 0xFFFFFFFFFFFFFFFF DUP1 DUP3 AND PUSH1 0x1 ADD AND PUSH32 0xFFFFFFFFFFFFFFFFFFFFFFFFFFFFFFFFFFFFFFFFFFFFFFFF0000000000000000 SWAP1 SWAP2 AND DUP2 OR SWAP1 SWAP2 SSTORE PUSH1 0x0 PUSH2 0x9A6 PUSH2 0x9A1 DUP7 DUP6 PUSH2 0x2F9A JUMP JUMPDEST PUSH2 0x8FA JUMP JUMPDEST SWAP1 POP PUSH12 0xFFFFFFFFFFFFFFFFFFFFFFFF DUP2 AND ISZERO PUSH2 0x9D4 JUMPI PUSH2 0x9D4 DUP7 DUP3 PUSH12 0xFFFFFFFFFFFFFFFFFFFFFFFF AND PUSH2 0x303F JUMP JUMPDEST PUSH1 0x0 PUSH2 0xA0B DUP7 PUSH12 0xFFFFFFFFFFFFFFFFFFFFFFFF AND DUP7 PUSH12 0xFFFFFFFFFFFFFFFFFFFFFFFF AND DUP7 PUSH12 0xFFFFFFFFFFFFFFFFFFFFFFFF AND PUSH2 0x309B JUMP JUMPDEST SWAP1 POP PUSH1 0x0 PUSH1 0x7 PUSH1 0x0 DUP6 PUSH8 0xFFFFFFFFFFFFFFFF AND PUSH8 0xFFFFFFFFFFFFFFFF AND DUP2 MSTORE PUSH1 0x20 ADD SWAP1 DUP2 MSTORE PUSH1 0x20 ADD PUSH1 0x0 KECCAK256 SWAP1 POP NUMBER DUP2 PUSH1 0x0 ADD PUSH1 0x18 PUSH2 0x100 EXP DUP2 SLOAD DUP2 PUSH8 0xFFFFFFFFFFFFFFFF MUL NOT AND SWAP1 DUP4 PUSH8 0xFFFFFFFFFFFFFFFF AND MUL OR SWAP1 SSTORE POP DUP4 DUP2 PUSH1 0x2 ADD PUSH1 0x18 PUSH2 0x100 EXP DUP2 SLOAD DUP2 PUSH8 0xFFFFFFFFFFFFFFFF MUL NOT AND SWAP1 DUP4 PUSH8 0xFFFFFFFFFFFFFFFF AND MUL OR SWAP1 SSTORE POP DUP8 DUP2 PUSH1 0x3 ADD PUSH1 0x0 PUSH2 0x100 EXP DUP2 SLOAD DUP2 PUSH20 0xFFFFFFFFFFFFFFFFFFFFFFFFFFFFFFFFFFFFFFFF MUL NOT AND SWAP1 DUP4 PUSH20 0xFFFFFFFFFFFFFFFFFFFFFFFFFFFFFFFFFFFFFFFF AND MUL OR SWAP1 SSTORE POP DUP7 DUP2 PUSH1 0x0 ADD PUSH1 0x0 PUSH2 0x100 EXP DUP2 SLOAD DUP2 PUSH12 0xFFFFFFFFFFFFFFFFFFFFFFFF MUL NOT AND SWAP1 DUP4 PUSH12 0xFFFFFFFFFFFFFFFFFFFFFFFF AND MUL OR SWAP1 SSTORE POP PUSH1 0x0 DUP1 SLOAD SWAP1 PUSH2 0x100 EXP SWAP1 DIV PUSH12 0xFFFFFFFFFFFFFFFFFFFFFFFF AND DUP2 PUSH1 0x0 ADD PUSH1 0xC PUSH2 0x100 EXP DUP2 SLOAD DUP2 PUSH12 0xFFFFFFFFFFFFFFFFFFFFFFFF MUL NOT AND SWAP1 DUP4 PUSH12 0xFFFFFFFFFFFFFFFFFFFFFFFF AND MUL OR SWAP1 SSTORE POP DUP6 DUP2 PUSH1 0x1 ADD PUSH1 0x0 PUSH2 0x100 EXP DUP2 SLOAD DUP2 PUSH12 0xFFFFFFFFFFFFFFFFFFFFFFFF MUL NOT AND SWAP1 DUP4 PUSH12 0xFFFFFFFFFFFFFFFFFFFFFFFF AND MUL OR SWAP1 SSTORE POP DUP5 DUP2 PUSH1 0x1 ADD PUSH1 0xC PUSH2 0x100 EXP DUP2 SLOAD DUP2 PUSH12 0xFFFFFFFFFFFFFFFFFFFFFFFF MUL NOT AND SWAP1 DUP4 PUSH12 0xFFFFFFFFFFFFFFFFFFFFFFFF AND MUL OR SWAP1 SSTORE POP DUP3 DUP2 PUSH1 0x2 ADD PUSH1 0x0 PUSH2 0x100 EXP DUP2 SLOAD DUP2 PUSH12 0xFFFFFFFFFFFFFFFFFFFFFFFF MUL NOT AND SWAP1 DUP4 PUSH12 0xFFFFFFFFFFFFFFFFFFFFFFFF AND MUL OR SWAP1 SSTORE POP PUSH1 0x0 PUSH1 0xC SWAP1 SLOAD SWAP1 PUSH2 0x100 EXP SWAP1 DIV PUSH12 0xFFFFFFFFFFFFFFFFFFFFFFFF AND DUP2 PUSH1 0x2 ADD PUSH1 0xC PUSH2 0x100 EXP DUP2 SLOAD DUP2 PUSH12 0xFFFFFFFFFFFFFFFFFFFFFFFF MUL NOT AND SWAP1 DUP4 PUSH12 0xFFFFFFFFFFFFFFFFFFFFFFFF AND MUL OR SWAP1 SSTORE POP PUSH1 0x0 PUSH1 0x18 SWAP1 SLOAD SWAP1 PUSH2 0x100 EXP SWAP1 DIV PUSH8 0xFFFFFFFFFFFFFFFF AND DUP2 PUSH1 0x1 ADD PUSH1 0x18 PUSH2 0x100 EXP DUP2 SLOAD DUP2 PUSH8 0xFFFFFFFFFFFFFFFF MUL NOT AND SWAP1 DUP4 PUSH8 0xFFFFFFFFFFFFFFFF AND MUL OR SWAP1 SSTORE POP PUSH1 0x1 PUSH1 0xFF AND DUP2 PUSH1 0x3 ADD PUSH1 0x18 PUSH2 0x100 EXP DUP2 SLOAD DUP2 PUSH4 0xFFFFFFFF MUL NOT AND SWAP1 DUP4 PUSH4 0xFFFFFFFF AND MUL OR SWAP1 SSTORE POP DUP2 DUP2 PUSH1 0x3 ADD PUSH1 0x14 PUSH2 0x100 EXP DUP2 SLOAD DUP2 PUSH4 0xFFFFFFFF MUL NOT AND SWAP1 DUP4 PUSH4 0xFFFFFFFF AND MUL OR SWAP1 SSTORE POP PUSH1 0x8 PUSH1 0x0 DUP10 PUSH20 0xFFFFFFFFFFFFFFFFFFFFFFFFFFFFFFFFFFFFFFFF AND PUSH20 0xFFFFFFFFFFFFFFFFFFFFFFFFFFFFFFFFFFFFFFFF AND DUP2 MSTORE PUSH1 0x20 ADD SWAP1 DUP2 MSTORE PUSH1 0x20 ADD PUSH1 0x0 KECCAK256 PUSH1 0x0 ADD DUP5 SWAP1 DUP1 PUSH1 0x1 DUP2 SLOAD ADD DUP1 DUP3 SSTORE DUP1 SWAP2 POP POP PUSH1 0x1 SWAP1 SUB SWAP1 PUSH1 0x0 MSTORE PUSH1 0x20 PUSH1 0x0 KECCAK256 SWAP1 PUSH1 0x4 SWAP2 DUP3 DUP3 DIV ADD SWAP2 SWAP1 MOD PUSH1 0x8 MUL SWAP1 SWAP2 SWAP1 SWAP2 SWAP1 SWAP2 PUSH2 0x100 EXP DUP2 SLOAD DUP2 PUSH8 0xFFFFFFFFFFFFFFFF MUL NOT AND SWAP1 DUP4 PUSH8 0xFFFFFFFFFFFFFFFF AND MUL OR SWAP1 SSTORE POP DUP4 PUSH8 0xFFFFFFFFFFFFFFFF AND DUP9 PUSH20 0xFFFFFFFFFFFFFFFFFFFFFFFFFFFFFFFFFFFFFFFF AND PUSH32 0xEB87FFBE69BE596530037DE78D6A6CA3317C12CE908C3C46E9CFA526531A177E DUP10 DUP10 DUP10 DUP9 DUP9 PUSH1 0x1 PUSH1 0x40 MLOAD DUP1 PUSH1 0x60 ADD PUSH1 0x40 MSTORE DUP1 PUSH1 0x0 DUP1 SLOAD SWAP1 PUSH2 0x100 EXP SWAP1 DIV PUSH12 0xFFFFFFFFFFFFFFFFFFFFFFFF AND PUSH12 0xFFFFFFFFFFFFFFFFFFFFFFFF AND DUP2 MSTORE PUSH1 0x20 ADD PUSH1 0x0 PUSH1 0xC SWAP1 SLOAD SWAP1 PUSH2 0x100 EXP SWAP1 DIV PUSH12 0xFFFFFFFFFFFFFFFFFFFFFFFF AND PUSH12 0xFFFFFFFFFFFFFFFFFFFFFFFF AND DUP2 MSTORE PUSH1 0x20 ADD PUSH1 0x0 PUSH1 0x18 SWAP1 SLOAD SWAP1 PUSH2 0x100 EXP SWAP1 DIV PUSH8 0xFFFFFFFFFFFFFFFF AND PUSH8 0xFFFFFFFFFFFFFFFF AND DUP2 MSTORE POP PUSH1 0x40 MLOAD PUSH2 0xEAF SWAP8 SWAP7 SWAP6 SWAP5 SWAP4 SWAP3 SWAP2 SWAP1 PUSH12 0xFFFFFFFFFFFFFFFFFFFFFFFF SWAP8 DUP9 AND DUP2 MSTORE SWAP6 DUP8 AND PUSH1 0x20 DUP1 DUP9 ADD SWAP2 SWAP1 SWAP2 MSTORE SWAP5 DUP8 AND PUSH1 0x40 DUP1 DUP9 ADD SWAP2 SWAP1 SWAP2 MSTORE SWAP4 DUP8 AND PUSH1 0x60 DUP8 ADD MSTORE PUSH4 0xFFFFFFFF SWAP3 SWAP1 SWAP3 AND PUSH1 0x80 DUP7 ADD MSTORE PUSH1 0xFF AND PUSH1 0xA0 DUP6 ADD MSTORE DUP1 MLOAD DUP6 AND PUSH1 0xC0 DUP6 ADD MSTORE SWAP2 DUP3 ADD MLOAD SWAP1 SWAP4 AND PUSH1 0xE0 DUP4 ADD MSTORE SWAP1 SWAP2 ADD MLOAD PUSH8 0xFFFFFFFFFFFFFFFF AND PUSH2 0x100 DUP3 ADD MSTORE PUSH2 0x120 ADD SWAP1 JUMP JUMPDEST PUSH1 0x40 MLOAD DUP1 SWAP2 SUB SWAP1 LOG3 PUSH1 0x0 DUP3 PUSH4 0xFFFFFFFF AND GT PUSH2 0xEF9 JUMPI PUSH1 0x4 DUP1 SLOAD PUSH12 0xFFFFFFFFFFFFFFFFFFFFFFFF DUP9 DUP2 AND SWAP1 SWAP2 ADD SWAP1 SWAP2 SSTORE PUSH1 0x5 DUP1 SLOAD SWAP2 DUP10 AND SWAP1 SWAP2 ADD SWAP1 SSTORE PUSH2 0xEF4 DUP2 PUSH2 0x3133 JUMP JUMPDEST PUSH2 0xF22 JUMP JUMPDEST PUSH2 0xF03 DUP5 DUP8 PUSH2 0x32F9 JUMP JUMPDEST PUSH1 0x3 DUP1 SLOAD PUSH12 0xFFFFFFFFFFFFFFFFFFFFFFFF DUP10 AND ADD SWAP1 SSTORE PUSH2 0xF22 DUP5 PUSH2 0x350F JUMP JUMPDEST POP POP POP POP POP POP POP POP JUMP JUMPDEST PUSH1 0x60 PUSH1 0xC DUP1 SLOAD PUSH2 0xF3B SWAP1 PUSH2 0x5058 JUMP JUMPDEST DUP1 PUSH1 0x1F ADD PUSH1 0x20 DUP1 SWAP2 DIV MUL PUSH1 0x20 ADD PUSH1 0x40 MLOAD SWAP1 DUP2 ADD PUSH1 0x40 MSTORE DUP1 SWAP3 SWAP2 SWAP1 DUP2 DUP2 MSTORE PUSH1 0x20 ADD DUP3 DUP1 SLOAD PUSH2 0xF67 SWAP1 PUSH2 0x5058 JUMP JUMPDEST DUP1 ISZERO PUSH2 0xFB4 JUMPI DUP1 PUSH1 0x1F LT PUSH2 0xF89 JUMPI PUSH2 0x100 DUP1 DUP4 SLOAD DIV MUL DUP4 MSTORE SWAP2 PUSH1 0x20 ADD SWAP2 PUSH2 0xFB4 JUMP JUMPDEST DUP3 ADD SWAP2 SWAP1 PUSH1 0x0 MSTORE PUSH1 0x20 PUSH1 0x0 KECCAK256 SWAP1 JUMPDEST DUP2 SLOAD DUP2 MSTORE SWAP1 PUSH1 0x1 ADD SWAP1 PUSH1 0x20 ADD DUP1 DUP4 GT PUSH2 0xF97 JUMPI DUP3 SWAP1 SUB PUSH1 0x1F AND DUP3 ADD SWAP2 JUMPDEST POP POP POP POP POP SWAP1 POP SWAP1 JUMP JUMPDEST PUSH1 0x0 CALLER PUSH2 0xFCC DUP2 DUP6 DUP6 PUSH2 0x35BB JUMP JUMPDEST PUSH1 0x1 SWAP2 POP POP JUMPDEST SWAP3 SWAP2 POP POP JUMP JUMPDEST CALLER PUSH1 0x0 SWAP1 DUP2 MSTORE PUSH1 0x8 PUSH1 0x20 MSTORE PUSH1 0x40 DUP2 KECCAK256 PUSH1 0x1 ADD SLOAD SWAP1 SUB PUSH2 0xFF3 JUMPI JUMP JUMPDEST CALLER PUSH1 0x0 SWAP1 DUP2 MSTORE PUSH1 0x8 PUSH1 0x20 MSTORE PUSH1 0x40 DUP2 KECCAK256 PUSH1 0x1 ADD DUP1 SLOAD SWAP1 DUP3 SWAP1 SSTORE PUSH1 0x6 DUP1 SLOAD SWAP2 SWAP3 DUP4 SWAP3 PUSH2 0x101E SWAP1 DUP5 SWAP1 PUSH2 0x50DA JUMP JUMPDEST SWAP1 SWAP2 SSTORE POP POP PUSH1 0x40 DUP1 MLOAD CALLER DUP2 MSTORE PUSH1 0x20 DUP2 ADD DUP4 SWAP1 MSTORE DUP2 MLOAD PUSH32 0x87E12C2565042763DAA6BF5842ED2B6447F17F7E28F9A4905FE3959581396EAD SWAP3 SWAP2 DUP2 SWAP1 SUB SWAP1 SWAP2 ADD SWAP1 LOG1 PUSH1 0x40 MLOAD PUSH1 0x0 SWAP1 CALLER SWAP1 DUP4 SWAP1 DUP4 DUP2 DUP2 DUP2 DUP6 DUP8 GAS CALL SWAP3 POP POP POP RETURNDATASIZE DUP1 PUSH1 0x0 DUP2 EQ PUSH2 0x10A0 JUMPI PUSH1 0x40 MLOAD SWAP2 POP PUSH1 0x1F NOT PUSH1 0x3F RETURNDATASIZE ADD AND DUP3 ADD PUSH1 0x40 MSTORE RETURNDATASIZE DUP3 MSTORE RETURNDATASIZE PUSH1 0x0 PUSH1 0x20 DUP5 ADD RETURNDATACOPY PUSH2 0x10A5 JUMP JUMPDEST PUSH1 0x60 SWAP2 POP JUMPDEST POP POP SWAP1 POP DUP1 PUSH2 0x10EE JUMPI PUSH1 0x6 SLOAD PUSH1 0x40 MLOAD PUSH32 0xCF47918100000000000000000000000000000000000000000000000000000000 DUP2 MSTORE PUSH1 0x4 DUP2 ADD SWAP2 SWAP1 SWAP2 MSTORE PUSH1 0x24 DUP2 ADD DUP4 SWAP1 MSTORE PUSH1 0x44 ADD PUSH2 0x948 JUMP JUMPDEST POP POP JUMP JUMPDEST PUSH1 0x0 DUP1 PUSH1 0x0 DUP1 PUSH1 0x0 DUP1 PUSH1 0x0 DUP1 PUSH1 0x2 PUSH1 0x0 SWAP1 SLOAD SWAP1 PUSH2 0x100 EXP SWAP1 DIV PUSH8 0xFFFFFFFFFFFFFFFF AND PUSH1 0x3 SLOAD PUSH1 0x4 SLOAD PUSH1 0x5 SLOAD PUSH1 0x6 SLOAD SELFBALANCE PUSH2 0x114E ADDRESS PUSH20 0xFFFFFFFFFFFFFFFFFFFFFFFFFFFFFFFFFFFFFFFF AND PUSH1 0x0 SWAP1 DUP2 MSTORE PUSH1 0x9 PUSH1 0x20 MSTORE PUSH1 0x40 SWAP1 KECCAK256 SLOAD SWAP1 JUMP JUMPDEST PUSH1 0xB SLOAD PUSH8 0xFFFFFFFFFFFFFFFF SWAP1 SWAP8 AND SWAP16 SWAP6 SWAP15 POP SWAP4 SWAP13 POP SWAP2 SWAP11 POP SWAP9 POP SWAP7 POP SWAP5 POP SWAP1 SWAP3 POP SWAP1 POP JUMP JUMPDEST PUSH1 0x0 CALLER PUSH2 0x1182 DUP6 DUP3 DUP6 PUSH2 0x35C8 JUMP JUMPDEST PUSH2 0x118D DUP6 DUP6 DUP6 PUSH2 0x3697 JUMP JUMPDEST PUSH1 0x1 SWAP2 POP POP JUMPDEST SWAP4 SWAP3 POP POP POP JUMP JUMPDEST PUSH1 0x0 PUSH2 0x11A4 PUSH2 0x3742 JUMP JUMPDEST SWAP1 POP SWAP1 JUMP JUMPDEST PUSH1 0x1 SLOAD PUSH6 0x10000000000 SWAP1 DIV PUSH20 0xFFFFFFFFFFFFFFFFFFFFFFFFFFFFFFFFFFFFFFFF AND PUSH2 0x1201 JUMPI PUSH1 0x40 MLOAD PUSH32 0xE6C4247B00000000000000000000000000000000000000000000000000000000 DUP2 MSTORE PUSH1 0x4 ADD PUSH1 0x40 MLOAD DUP1 SWAP2 SUB SWAP1 REVERT JUMPDEST DUP1 PUSH12 0xFFFFFFFFFFFFFFFFFFFFFFFF AND PUSH1 0x4 SLOAD LT ISZERO PUSH2 0x1263 JUMPI PUSH1 0x4 DUP1 SLOAD PUSH1 0x40 MLOAD PUSH32 0xCF47918100000000000000000000000000000000000000000000000000000000 DUP2 MSTORE SWAP2 DUP3 ADD MSTORE PUSH12 0xFFFFFFFFFFFFFFFFFFFFFFFF DUP3 AND PUSH1 0x24 DUP3 ADD MSTORE PUSH1 0x44 ADD PUSH2 0x948 JUMP JUMPDEST DUP1 PUSH12 0xFFFFFFFFFFFFFFFFFFFFFFFF AND PUSH1 0x4 PUSH1 0x0 DUP3 DUP3 SLOAD PUSH2 0x1283 SWAP2 SWAP1 PUSH2 0x50DA JUMP JUMPDEST SWAP1 SWAP2 SSTORE POP POP PUSH1 0x1 SLOAD PUSH1 0x40 DUP1 MLOAD CALLER DUP2 MSTORE PUSH6 0x10000000000 SWAP1 SWAP3 DIV PUSH20 0xFFFFFFFFFFFFFFFFFFFFFFFFFFFFFFFFFFFFFFFF AND PUSH1 0x20 DUP4 ADD MSTORE PUSH12 0xFFFFFFFFFFFFFFFFFFFFFFFF DUP4 AND DUP3 DUP3 ADD MSTORE PUSH1 0x0 PUSH1 0x60 DUP4 ADD MSTORE MLOAD PUSH32 0x31A8092046A766D50C60467D927F8769A20162FD47024A64BB365AAC647EB0DF SWAP2 DUP2 SWAP1 SUB PUSH1 0x80 ADD SWAP1 LOG1 PUSH1 0x1 SLOAD PUSH1 0x40 MLOAD PUSH1 0x0 SWAP2 PUSH6 0x10000000000 SWAP1 DIV PUSH20 0xFFFFFFFFFFFFFFFFFFFFFFFFFFFFFFFFFFFFFFFF AND SWAP1 PUSH12 0xFFFFFFFFFFFFFFFFFFFFFFFF DUP5 AND SWAP1 DUP4 DUP2 DUP2 DUP2 DUP6 DUP8 GAS CALL SWAP3 POP POP POP RETURNDATASIZE DUP1 PUSH1 0x0 DUP2 EQ PUSH2 0x136D JUMPI PUSH1 0x40 MLOAD SWAP2 POP PUSH1 0x1F NOT PUSH1 0x3F RETURNDATASIZE ADD AND DUP3 ADD PUSH1 0x40 MSTORE RETURNDATASIZE DUP3 MSTORE RETURNDATASIZE PUSH1 0x0 PUSH1 0x20 DUP5 ADD RETURNDATACOPY PUSH2 0x1372 JUMP JUMPDEST PUSH1 0x60 SWAP2 POP JUMPDEST POP POP SWAP1 POP DUP1 PUSH2 0x10EE JUMPI PUSH1 0x4 DUP1 SLOAD PUSH1 0x40 MLOAD PUSH32 0xCF47918100000000000000000000000000000000000000000000000000000000 DUP2 MSTORE SWAP2 DUP3 ADD MSTORE PUSH12 0xFFFFFFFFFFFFFFFFFFFFFFFF DUP4 AND PUSH1 0x24 DUP3 ADD MSTORE PUSH1 0x44 ADD PUSH2 0x948 JUMP JUMPDEST PUSH2 0x13CF CALLER DUP3 PUSH2 0x303F JUMP JUMPDEST POP JUMP JUMPDEST PUSH2 0x13DA PUSH2 0x387A JUMP JUMPDEST PUSH1 0x1 SLOAD PUSH1 0x40 DUP1 MLOAD CALLER DUP2 MSTORE PUSH6 0x10000000000 SWAP1 SWAP3 DIV PUSH20 0xFFFFFFFFFFFFFFFFFFFFFFFFFFFFFFFFFFFFFFFF SWAP1 DUP2 AND PUSH1 0x20 DUP5 ADD MSTORE DUP4 AND DUP3 DUP3 ADD MSTORE MLOAD PUSH32 0x876FF6DE70EA9815B366B60A114B80FDFBC06357DA850CB734024FB7927F8B03 SWAP2 DUP2 SWAP1 SUB PUSH1 0x60 ADD SWAP1 LOG1 PUSH1 0x1 DUP1 SLOAD PUSH20 0xFFFFFFFFFFFFFFFFFFFFFFFFFFFFFFFFFFFFFFFF SWAP1 SWAP3 AND PUSH6 0x10000000000 MUL PUSH32 0xFFFFFFFFFFFFFF0000000000000000000000000000000000000000FFFFFFFFFF SWAP1 SWAP3 AND SWAP2 SWAP1 SWAP2 OR SWAP1 SSTORE JUMP JUMPDEST PUSH1 0x2 SLOAD PUSH1 0x60 SWAP1 PUSH8 0xFFFFFFFFFFFFFFFF SWAP1 DUP2 AND SWAP1 PUSH1 0x0 SWAP1 DUP7 AND DUP3 GT PUSH2 0x1567 JUMPI PUSH1 0x40 DUP1 MLOAD PUSH1 0x0 DUP1 DUP3 MSTORE PUSH1 0x20 DUP3 ADD SWAP1 SWAP3 MSTORE SWAP1 PUSH2 0x155D JUMP JUMPDEST PUSH2 0x154A PUSH1 0x40 DUP1 MLOAD PUSH2 0x1A0 DUP2 ADD DUP3 MSTORE PUSH1 0x0 DUP1 DUP3 MSTORE PUSH1 0x20 DUP1 DUP4 ADD DUP3 SWAP1 MSTORE DUP3 DUP5 ADD DUP3 SWAP1 MSTORE PUSH1 0x60 DUP1 DUP5 ADD DUP4 SWAP1 MSTORE PUSH1 0x80 DUP1 DUP6 ADD DUP5 SWAP1 MSTORE PUSH1 0xA0 DUP6 ADD DUP5 SWAP1 MSTORE PUSH1 0xC0 DUP6 ADD DUP5 SWAP1 MSTORE PUSH1 0xE0 DUP6 ADD DUP5 SWAP1 MSTORE PUSH2 0x100 DUP6 ADD DUP5 SWAP1 MSTORE PUSH2 0x120 DUP6 ADD DUP5 SWAP1 MSTORE PUSH2 0x140 DUP6 ADD DUP5 SWAP1 MSTORE PUSH2 0x160 DUP6 ADD DUP5 SWAP1 MSTORE DUP6 MLOAD SWAP1 DUP2 ADD DUP7 MSTORE DUP4 DUP2 MSTORE SWAP2 DUP3 ADD DUP4 SWAP1 MSTORE SWAP4 DUP2 ADD DUP3 SWAP1 MSTORE SWAP3 DUP4 ADD MSTORE SWAP1 PUSH2 0x180 DUP3 ADD MSTORE SWAP1 JUMP JUMPDEST DUP2 MSTORE PUSH1 0x20 ADD SWAP1 PUSH1 0x1 SWAP1 SUB SWAP1 DUP2 PUSH2 0x14C0 JUMPI SWAP1 POP JUMPDEST POP SWAP3 POP POP POP PUSH2 0x1193 JUMP JUMPDEST PUSH8 0xFFFFFFFFFFFFFFFF DUP3 AND PUSH2 0x157C DUP7 DUP9 PUSH2 0x511C JUMP JUMPDEST PUSH8 0xFFFFFFFFFFFFFFFF AND GT ISZERO PUSH2 0x1593 JUMPI POP DUP1 PUSH2 0x15A0 JUMP JUMPDEST PUSH2 0x159D DUP6 DUP8 PUSH2 0x511C JUMP JUMPDEST SWAP1 POP JUMPDEST PUSH2 0x15AA DUP7 DUP3 PUSH2 0x5144 JUMP JUMPDEST PUSH8 0xFFFFFFFFFFFFFFFF AND PUSH8 0xFFFFFFFFFFFFFFFF DUP2 GT ISZERO PUSH2 0x15CC JUMPI PUSH2 0x15CC PUSH2 0x50ED JUMP JUMPDEST PUSH1 0x40 MLOAD SWAP1 DUP1 DUP3 MSTORE DUP1 PUSH1 0x20 MUL PUSH1 0x20 ADD DUP3 ADD PUSH1 0x40 MSTORE DUP1 ISZERO PUSH2 0x1687 JUMPI DUP2 PUSH1 0x20 ADD JUMPDEST PUSH2 0x1674 PUSH1 0x40 DUP1 MLOAD PUSH2 0x1A0 DUP2 ADD DUP3 MSTORE PUSH1 0x0 DUP1 DUP3 MSTORE PUSH1 0x20 DUP1 DUP4 ADD DUP3 SWAP1 MSTORE DUP3 DUP5 ADD DUP3 SWAP1 MSTORE PUSH1 0x60 DUP1 DUP5 ADD DUP4 SWAP1 MSTORE PUSH1 0x80 DUP1 DUP6 ADD DUP5 SWAP1 MSTORE PUSH1 0xA0 DUP6 ADD DUP5 SWAP1 MSTORE PUSH1 0xC0 DUP6 ADD DUP5 SWAP1 MSTORE PUSH1 0xE0 DUP6 ADD DUP5 SWAP1 MSTORE PUSH2 0x100 DUP6 ADD DUP5 SWAP1 MSTORE PUSH2 0x120 DUP6 ADD DUP5 SWAP1 MSTORE PUSH2 0x140 DUP6 ADD DUP5 SWAP1 MSTORE PUSH2 0x160 DUP6 ADD DUP5 SWAP1 MSTORE DUP6 MLOAD SWAP1 DUP2 ADD DUP7 MSTORE DUP4 DUP2 MSTORE SWAP2 DUP3 ADD DUP4 SWAP1 MSTORE SWAP4 DUP2 ADD DUP3 SWAP1 MSTORE SWAP3 DUP4 ADD MSTORE SWAP1 PUSH2 0x180 DUP3 ADD MSTORE SWAP1 JUMP JUMPDEST DUP2 MSTORE PUSH1 0x20 ADD SWAP1 PUSH1 0x1 SWAP1 SUB SWAP1 DUP2 PUSH2 0x15EA JUMPI SWAP1 POP JUMPDEST POP SWAP3 POP DUP4 ISZERO PUSH2 0x1869 JUMPI DUP6 JUMPDEST DUP2 PUSH8 0xFFFFFFFFFFFFFFFF AND DUP2 PUSH8 0xFFFFFFFFFFFFFFFF AND LT ISZERO PUSH2 0x1863 JUMPI PUSH1 0x0 PUSH2 0x16BB DUP3 PUSH1 0x1 PUSH2 0x511C JUMP JUMPDEST PUSH8 0xFFFFFFFFFFFFFFFF DUP1 DUP3 AND PUSH1 0x0 SWAP1 DUP2 MSTORE PUSH1 0x7 PUSH1 0x20 SWAP1 DUP2 MSTORE PUSH1 0x40 SWAP2 DUP3 SWAP1 KECCAK256 DUP3 MLOAD PUSH2 0x1A0 DUP2 ADD DUP5 MSTORE DUP2 SLOAD PUSH12 0xFFFFFFFFFFFFFFFFFFFFFFFF DUP1 DUP3 AND DUP4 MSTORE PUSH13 0x1000000000000000000000000 DUP1 DUP4 DIV DUP3 AND DUP5 DUP8 ADD MSTORE PUSH25 0x1000000000000000000000000000000000000000000000000 SWAP3 DUP4 SWAP1 DIV DUP9 AND DUP5 DUP9 ADD MSTORE PUSH1 0x1 DUP6 ADD SLOAD DUP1 DUP4 AND PUSH1 0x60 DUP1 DUP8 ADD SWAP2 SWAP1 SWAP2 MSTORE DUP3 DUP3 DIV DUP5 AND PUSH1 0x80 DUP1 DUP9 ADD SWAP2 SWAP1 SWAP2 MSTORE SWAP2 DUP6 SWAP1 DIV DUP11 AND PUSH1 0xA0 DUP8 ADD MSTORE PUSH1 0x2 DUP8 ADD SLOAD DUP1 DUP6 AND PUSH1 0xC0 DUP9 ADD MSTORE SWAP3 DUP4 DIV DUP5 AND PUSH1 0xE0 DUP8 ADD MSTORE SWAP2 DUP5 SWAP1 DIV SWAP1 SWAP9 AND PUSH2 0x100 DUP6 ADD MSTORE PUSH1 0x3 DUP6 ADD SLOAD PUSH20 0xFFFFFFFFFFFFFFFFFFFFFFFFFFFFFFFFFFFFFFFF DUP2 AND PUSH2 0x120 DUP7 ADD MSTORE PUSH4 0xFFFFFFFF PUSH21 0x10000000000000000000000000000000000000000 DUP3 DIV DUP2 AND PUSH2 0x140 DUP8 ADD MSTORE SWAP4 SWAP1 DIV DUP4 AND PUSH2 0x160 DUP6 ADD MSTORE DUP7 MLOAD SWAP8 DUP9 ADD DUP8 MSTORE PUSH1 0x4 DUP6 ADD SLOAD SWAP3 DUP4 AND DUP9 MSTORE PUSH5 0x100000000 DUP4 DIV DUP3 AND SWAP6 DUP9 ADD SWAP6 SWAP1 SWAP6 MSTORE PUSH17 0x100000000000000000000000000000000 SWAP1 SWAP2 DIV DUP2 AND SWAP5 DUP7 ADD SWAP5 SWAP1 SWAP5 MSTORE PUSH1 0x5 SWAP1 SWAP2 ADD SLOAD SWAP1 SWAP3 AND SWAP1 DUP4 ADD MSTORE PUSH2 0x180 DUP2 ADD SWAP2 SWAP1 SWAP2 MSTORE SWAP1 SWAP2 POP DUP6 PUSH2 0x1835 DUP11 DUP6 PUSH2 0x5144 JUMP JUMPDEST PUSH8 0xFFFFFFFFFFFFFFFF AND DUP2 MLOAD DUP2 LT PUSH2 0x184F JUMPI PUSH2 0x184F PUSH2 0x5165 JUMP JUMPDEST PUSH1 0x20 SWAP1 DUP2 MUL SWAP2 SWAP1 SWAP2 ADD ADD MSTORE POP PUSH1 0x1 ADD PUSH2 0x1692 JUMP JUMPDEST POP PUSH2 0x1A3D JUMP JUMPDEST DUP6 JUMPDEST DUP2 PUSH8 0xFFFFFFFFFFFFFFFF AND DUP2 PUSH8 0xFFFFFFFFFFFFFFFF AND LT ISZERO PUSH2 0x1A3B JUMPI PUSH1 0x0 PUSH2 0x1893 DUP3 DUP6 PUSH2 0x5144 JUMP JUMPDEST PUSH8 0xFFFFFFFFFFFFFFFF DUP1 DUP3 AND PUSH1 0x0 SWAP1 DUP2 MSTORE PUSH1 0x7 PUSH1 0x20 SWAP1 DUP2 MSTORE PUSH1 0x40 SWAP2 DUP3 SWAP1 KECCAK256 DUP3 MLOAD PUSH2 0x1A0 DUP2 ADD DUP5 MSTORE DUP2 SLOAD PUSH12 0xFFFFFFFFFFFFFFFFFFFFFFFF DUP1 DUP3 AND DUP4 MSTORE PUSH13 0x1000000000000000000000000 DUP1 DUP4 DIV DUP3 AND DUP5 DUP8 ADD MSTORE PUSH25 0x1000000000000000000000000000000000000000000000000 SWAP3 DUP4 SWAP1 DIV DUP9 AND DUP5 DUP9 ADD MSTORE PUSH1 0x1 DUP6 ADD SLOAD DUP1 DUP4 AND PUSH1 0x60 DUP1 DUP8 ADD SWAP2 SWAP1 SWAP2 MSTORE DUP3 DUP3 DIV DUP5 AND PUSH1 0x80 DUP1 DUP9 ADD SWAP2 SWAP1 SWAP2 MSTORE SWAP2 DUP6 SWAP1 DIV DUP11 AND PUSH1 0xA0 DUP8 ADD MSTORE PUSH1 0x2 DUP8 ADD SLOAD DUP1 DUP6 AND PUSH1 0xC0 DUP9 ADD MSTORE SWAP3 DUP4 DIV DUP5 AND PUSH1 0xE0 DUP8 ADD MSTORE SWAP2 DUP5 SWAP1 DIV SWAP1 SWAP9 AND PUSH2 0x100 DUP6 ADD MSTORE PUSH1 0x3 DUP6 ADD SLOAD PUSH20 0xFFFFFFFFFFFFFFFFFFFFFFFFFFFFFFFFFFFFFFFF DUP2 AND PUSH2 0x120 DUP7 ADD MSTORE PUSH4 0xFFFFFFFF PUSH21 0x10000000000000000000000000000000000000000 DUP3 DIV DUP2 AND PUSH2 0x140 DUP8 ADD MSTORE SWAP4 SWAP1 DIV DUP4 AND PUSH2 0x160 DUP6 ADD MSTORE DUP7 MLOAD SWAP8 DUP9 ADD DUP8 MSTORE PUSH1 0x4 DUP6 ADD SLOAD SWAP3 DUP4 AND DUP9 MSTORE PUSH5 0x100000000 DUP4 DIV DUP3 AND SWAP6 DUP9 ADD SWAP6 SWAP1 SWAP6 MSTORE PUSH17 0x100000000000000000000000000000000 SWAP1 SWAP2 DIV DUP2 AND SWAP5 DUP7 ADD SWAP5 SWAP1 SWAP5 MSTORE PUSH1 0x5 SWAP1 SWAP2 ADD SLOAD SWAP1 SWAP3 AND SWAP1 DUP4 ADD MSTORE PUSH2 0x180 DUP2 ADD SWAP2 SWAP1 SWAP2 MSTORE SWAP1 SWAP2 POP DUP6 PUSH2 0x1A0D DUP11 DUP6 PUSH2 0x5144 JUMP JUMPDEST PUSH8 0xFFFFFFFFFFFFFFFF AND DUP2 MLOAD DUP2 LT PUSH2 0x1A27 JUMPI PUSH2 0x1A27 PUSH2 0x5165 JUMP JUMPDEST PUSH1 0x20 SWAP1 DUP2 MUL SWAP2 SWAP1 SWAP2 ADD ADD MSTORE POP PUSH1 0x1 ADD PUSH2 0x186B JUMP JUMPDEST POP JUMPDEST POP POP SWAP4 SWAP3 POP POP POP JUMP JUMPDEST PUSH2 0x13CF CALLER PUSH2 0x1A53 CALLVALUE PUSH2 0x8FA JUMP JUMPDEST PUSH1 0x0 DUP5 PUSH2 0x955 JUMP JUMPDEST PUSH2 0x1A63 PUSH2 0x387A JUMP JUMPDEST PUSH2 0x1A6D PUSH1 0x0 PUSH2 0x38CD JUMP JUMPDEST JUMP JUMPDEST PUSH2 0x1A7A DUP3 CALLER DUP4 PUSH2 0x35C8 JUMP JUMPDEST PUSH2 0x10EE DUP3 DUP3 PUSH2 0x303F JUMP JUMPDEST PUSH20 0xFFFFFFFFFFFFFFFFFFFFFFFFFFFFFFFFFFFFFFFF DUP2 AND PUSH1 0x0 SWAP1 DUP2 MSTORE PUSH1 0x11 PUSH1 0x20 MSTORE PUSH1 0x40 DUP2 KECCAK256 SLOAD PUSH2 0xFD2 JUMP JUMPDEST PUSH1 0x0 PUSH1 0x60 DUP1 PUSH1 0x0 DUP1 PUSH1 0x0 PUSH1 0x60 PUSH2 0x1AC3 PUSH2 0x3944 JUMP JUMPDEST PUSH2 0x1ACB PUSH2 0x3971 JUMP JUMPDEST PUSH1 0x40 DUP1 MLOAD PUSH1 0x0 DUP1 DUP3 MSTORE PUSH1 0x20 DUP3 ADD SWAP1 SWAP3 MSTORE PUSH32 0xF00000000000000000000000000000000000000000000000000000000000000 SWAP12 SWAP4 SWAP11 POP SWAP2 SWAP9 POP CHAINID SWAP8 POP ADDRESS SWAP7 POP SWAP5 POP SWAP3 POP SWAP1 POP JUMP JUMPDEST PUSH2 0x1B9B PUSH1 0x40 DUP1 MLOAD PUSH2 0x1A0 DUP2 ADD DUP3 MSTORE PUSH1 0x0 DUP1 DUP3 MSTORE PUSH1 0x20 DUP1 DUP4 ADD DUP3 SWAP1 MSTORE DUP3 DUP5 ADD DUP3 SWAP1 MSTORE PUSH1 0x60 DUP1 DUP5 ADD DUP4 SWAP1 MSTORE PUSH1 0x80 DUP1 DUP6 ADD DUP5 SWAP1 MSTORE PUSH1 0xA0 DUP6 ADD DUP5 SWAP1 MSTORE PUSH1 0xC0 DUP6 ADD DUP5 SWAP1 MSTORE PUSH1 0xE0 DUP6 ADD DUP5 SWAP1 MSTORE PUSH2 0x100 DUP6 ADD DUP5 SWAP1 MSTORE PUSH2 0x120 DUP6 ADD DUP5 SWAP1 MSTORE PUSH2 0x140 DUP6 ADD DUP5 SWAP1 MSTORE PUSH2 0x160 DUP6 ADD DUP5 SWAP1 MSTORE DUP6 MLOAD SWAP1 DUP2 ADD DUP7 MSTORE DUP4 DUP2 MSTORE SWAP2 DUP3 ADD DUP4 SWAP1 MSTORE SWAP4 DUP2 ADD DUP3 SWAP1 MSTORE SWAP3 DUP4 ADD MSTORE SWAP1 PUSH2 0x180 DUP3 ADD MSTORE SWAP1 JUMP JUMPDEST POP PUSH8 0xFFFFFFFFFFFFFFFF SWAP1 DUP2 AND PUSH1 0x0 SWAP1 DUP2 MSTORE PUSH1 0x7 PUSH1 0x20 SWAP1 DUP2 MSTORE PUSH1 0x40 SWAP2 DUP3 SWAP1 KECCAK256 DUP3 MLOAD PUSH2 0x1A0 DUP2 ADD DUP5 MSTORE DUP2 SLOAD PUSH12 0xFFFFFFFFFFFFFFFFFFFFFFFF DUP1 DUP3 AND DUP4 MSTORE PUSH13 0x1000000000000000000000000 DUP1 DUP4 DIV DUP3 AND DUP5 DUP8 ADD MSTORE PUSH25 0x1000000000000000000000000000000000000000000000000 SWAP3 DUP4 SWAP1 DIV DUP9 AND DUP5 DUP9 ADD MSTORE PUSH1 0x1 DUP6 ADD SLOAD DUP1 DUP4 AND PUSH1 0x60 DUP1 DUP8 ADD SWAP2 SWAP1 SWAP2 MSTORE DUP3 DUP3 DIV DUP5 AND PUSH1 0x80 DUP1 DUP9 ADD SWAP2 SWAP1 SWAP2 MSTORE SWAP2 DUP6 SWAP1 DIV DUP11 AND PUSH1 0xA0 DUP8 ADD MSTORE PUSH1 0x2 DUP8 ADD SLOAD DUP1 DUP6 AND PUSH1 0xC0 DUP9 ADD MSTORE SWAP3 DUP4 DIV DUP5 AND PUSH1 0xE0 DUP8 ADD MSTORE SWAP2 DUP5 SWAP1 DIV SWAP1 SWAP9 AND PUSH2 0x100 DUP6 ADD MSTORE PUSH1 0x3 DUP6 ADD SLOAD PUSH20 0xFFFFFFFFFFFFFFFFFFFFFFFFFFFFFFFFFFFFFFFF DUP2 AND PUSH2 0x120 DUP7 ADD MSTORE PUSH4 0xFFFFFFFF PUSH21 0x10000000000000000000000000000000000000000 DUP3 DIV DUP2 AND PUSH2 0x140 DUP8 ADD MSTORE SWAP4 SWAP1 DIV DUP4 AND PUSH2 0x160 DUP6 ADD MSTORE DUP7 MLOAD SWAP8 DUP9 ADD DUP8 MSTORE PUSH1 0x4 DUP6 ADD SLOAD SWAP3 DUP4 AND DUP9 MSTORE PUSH5 0x100000000 DUP4 DIV DUP3 AND SWAP6 DUP9 ADD SWAP6 SWAP1 SWAP6 MSTORE PUSH17 0x100000000000000000000000000000000 SWAP1 SWAP2 DIV DUP2 AND SWAP5 DUP7 ADD SWAP5 SWAP1 SWAP5 MSTORE PUSH1 0x5 SWAP1 SWAP2 ADD SLOAD SWAP1 SWAP3 AND SWAP1 DUP4 ADD MSTORE PUSH2 0x180 DUP2 ADD SWAP2 SWAP1 SWAP2 MSTORE SWAP1 JUMP JUMPDEST PUSH1 0x60 PUSH1 0xD DUP1 SLOAD PUSH2 0xF3B SWAP1 PUSH2 0x5058 JUMP JUMPDEST PUSH1 0x0 CALLER PUSH2 0xFCC DUP2 DUP6 DUP6 PUSH2 0x3697 JUMP JUMPDEST PUSH2 0x1D30 PUSH2 0x387A JUMP JUMPDEST PUSH20 0xFFFFFFFFFFFFFFFFFFFFFFFFFFFFFFFFFFFFFFFF DUP3 AND PUSH2 0x1D7D JUMPI PUSH1 0x40 MLOAD PUSH32 0xE6C4247B00000000000000000000000000000000000000000000000000000000 DUP2 MSTORE PUSH1 0x4 ADD PUSH1 0x40 MLOAD DUP1 SWAP2 SUB SWAP1 REVERT JUMPDEST PUSH1 0x40 DUP1 MLOAD CALLER DUP2 MSTORE PUSH20 0xFFFFFFFFFFFFFFFFFFFFFFFFFFFFFFFFFFFFFFFF DUP5 AND PUSH1 0x20 DUP3 ADD MSTORE PUSH1 0x0 DUP2 DUP4 ADD MSTORE PUSH1 0x60 DUP2 ADD DUP4 SWAP1 MSTORE SWAP1 MLOAD PUSH32 0x31A8092046A766D50C60467D927F8769A20162FD47024A64BB365AAC647EB0DF SWAP2 DUP2 SWAP1 SUB PUSH1 0x80 ADD SWAP1 LOG1 PUSH2 0x10EE ADDRESS DUP4 DUP4 PUSH2 0x3697 JUMP JUMPDEST DUP4 TIMESTAMP GT ISZERO PUSH2 0x1E21 JUMPI PUSH1 0x40 MLOAD PUSH32 0x6279130200000000000000000000000000000000000000000000000000000000 DUP2 MSTORE PUSH1 0x4 DUP2 ADD DUP6 SWAP1 MSTORE PUSH1 0x24 ADD PUSH2 0x948 JUMP JUMPDEST PUSH1 0x0 PUSH32 0x6E71EDAE12B1B97F4D1F60370FEF10105FA2FAAE0126114A169C64845D6126C9 DUP9 DUP9 DUP9 PUSH2 0x1E7B DUP13 PUSH20 0xFFFFFFFFFFFFFFFFFFFFFFFFFFFFFFFFFFFFFFFF AND PUSH1 0x0 SWAP1 DUP2 MSTORE PUSH1 0x11 PUSH1 0x20 MSTORE PUSH1 0x40 SWAP1 KECCAK256 DUP1 SLOAD PUSH1 0x1 DUP2 ADD SWAP1 SWAP2 SSTORE SWAP1 JUMP JUMPDEST PUSH1 0x40 DUP1 MLOAD PUSH1 0x20 DUP2 ADD SWAP7 SWAP1 SWAP7 MSTORE PUSH20 0xFFFFFFFFFFFFFFFFFFFFFFFFFFFFFFFFFFFFFFFF SWAP5 DUP6 AND SWAP1 DUP7 ADD MSTORE SWAP3 SWAP1 SWAP2 AND PUSH1 0x60 DUP5 ADD MSTORE PUSH1 0x80 DUP4 ADD MSTORE PUSH1 0xA0 DUP3 ADD MSTORE PUSH1 0xC0 DUP2 ADD DUP7 SWAP1 MSTORE PUSH1 0xE0 ADD PUSH1 0x40 MLOAD PUSH1 0x20 DUP2 DUP4 SUB SUB DUP2 MSTORE SWAP1 PUSH1 0x40 MSTORE DUP1 MLOAD SWAP1 PUSH1 0x20 ADD KECCAK256 SWAP1 POP PUSH1 0x0 PUSH2 0x1EE3 DUP3 PUSH2 0x399E JUMP JUMPDEST SWAP1 POP PUSH1 0x0 PUSH2 0x1EF3 DUP3 DUP8 DUP8 DUP8 PUSH2 0x39E6 JUMP JUMPDEST SWAP1 POP DUP10 PUSH20 0xFFFFFFFFFFFFFFFFFFFFFFFFFFFFFFFFFFFFFFFF AND DUP2 PUSH20 0xFFFFFFFFFFFFFFFFFFFFFFFFFFFFFFFFFFFFFFFF AND EQ PUSH2 0x1F7A JUMPI PUSH1 0x40 MLOAD PUSH32 0x4B800E4600000000000000000000000000000000000000000000000000000000 DUP2 MSTORE PUSH20 0xFFFFFFFFFFFFFFFFFFFFFFFFFFFFFFFFFFFFFFFF DUP1 DUP4 AND PUSH1 0x4 DUP4 ADD MSTORE DUP12 AND PUSH1 0x24 DUP3 ADD MSTORE PUSH1 0x44 ADD PUSH2 0x948 JUMP JUMPDEST PUSH2 0x1F85 DUP11 DUP11 DUP11 PUSH2 0x35BB JUMP JUMPDEST POP POP POP POP POP POP POP POP POP POP JUMP JUMPDEST PUSH8 0xFFFFFFFFFFFFFFFF DUP2 AND PUSH1 0x0 SWAP1 DUP2 MSTORE PUSH1 0x7 PUSH1 0x20 MSTORE PUSH1 0x40 SWAP1 KECCAK256 PUSH1 0x3 DUP2 ADD SLOAD PUSH20 0xFFFFFFFFFFFFFFFFFFFFFFFFFFFFFFFFFFFFFFFF AND CALLER PUSH20 0xFFFFFFFFFFFFFFFFFFFFFFFFFFFFFFFFFFFFFFFF AND EQ PUSH2 0x2047 JUMPI PUSH1 0x3 DUP2 ADD SLOAD PUSH1 0x40 MLOAD PUSH32 0x4ADF9ACD00000000000000000000000000000000000000000000000000000000 DUP2 MSTORE PUSH8 0xFFFFFFFFFFFFFFFF DUP5 AND PUSH1 0x4 DUP3 ADD MSTORE CALLER PUSH1 0x24 DUP3 ADD MSTORE PUSH20 0xFFFFFFFFFFFFFFFFFFFFFFFFFFFFFFFFFFFFFFFF SWAP1 SWAP2 AND PUSH1 0x44 DUP3 ADD MSTORE PUSH1 0x64 ADD PUSH2 0x948 JUMP JUMPDEST PUSH1 0x3 DUP2 ADD SLOAD PUSH4 0xFFFFFFFF PUSH25 0x1000000000000000000000000000000000000000000000000 SWAP1 SWAP2 DIV AND PUSH1 0x1 EQ PUSH2 0x20B4 JUMPI PUSH1 0x40 MLOAD PUSH32 0x2BC45A4800000000000000000000000000000000000000000000000000000000 DUP2 MSTORE PUSH8 0xFFFFFFFFFFFFFFFF DUP4 AND PUSH1 0x4 DUP3 ADD MSTORE PUSH1 0x24 ADD PUSH2 0x948 JUMP JUMPDEST PUSH2 0x20BD DUP2 PUSH2 0x3A14 JUMP JUMPDEST PUSH2 0x20FF JUMPI PUSH1 0x40 MLOAD PUSH32 0xA05DB59300000000000000000000000000000000000000000000000000000000 DUP2 MSTORE PUSH8 0xFFFFFFFFFFFFFFFF DUP4 AND PUSH1 0x4 DUP3 ADD MSTORE PUSH1 0x24 ADD PUSH2 0x948 JUMP JUMPDEST PUSH1 0x3 DUP2 DUP2 ADD DUP1 SLOAD PUSH32 0xFFFFFFFF00000000FFFFFFFFFFFFFFFFFFFFFFFFFFFFFFFFFFFFFFFFFFFFFFFF AND PUSH25 0x8000000000000000000000000000000000000000000000000 OR SWAP1 SSTORE DUP2 SLOAD DUP2 SLOAD PUSH12 0xFFFFFFFFFFFFFFFFFFFFFFFF SWAP1 SWAP2 AND SWAP2 SWAP1 PUSH1 0x0 SWAP1 PUSH2 0x2169 SWAP1 DUP5 SWAP1 PUSH2 0x50DA JUMP JUMPDEST SWAP1 SWAP2 SSTORE POP POP DUP1 SLOAD PUSH1 0x5 DUP3 ADD DUP1 SLOAD PUSH32 0xFFFFFFFFFFFFFFFFFFFFFFFFFFFFFFFFFFFFFFFF000000000000000000000000 AND PUSH12 0xFFFFFFFFFFFFFFFFFFFFFFFF SWAP1 SWAP3 AND SWAP2 SWAP1 SWAP2 OR SWAP1 SSTORE PUSH8 0xFFFFFFFFFFFFFFFF DUP3 AND PUSH1 0x0 SWAP1 DUP2 MSTORE PUSH1 0x7 PUSH1 0x20 MSTORE PUSH1 0x40 SWAP1 KECCAK256 PUSH2 0x21D0 SWAP1 PUSH2 0x3A61 JUMP JUMPDEST PUSH1 0x3 DUP2 ADD SLOAD DUP2 SLOAD PUSH2 0x2205 SWAP2 PUSH20 0xFFFFFFFFFFFFFFFFFFFFFFFFFFFFFFFFFFFFFFFF AND SWAP1 PUSH12 0xFFFFFFFFFFFFFFFFFFFFFFFF AND PUSH2 0x3B82 JUMP JUMPDEST POP POP POP JUMP JUMPDEST PUSH2 0x2212 PUSH2 0x387A JUMP JUMPDEST PUSH1 0x0 DUP2 PUSH20 0xFFFFFFFFFFFFFFFFFFFFFFFFFFFFFFFFFFFFFFFF AND PUSH4 0xAACC5A17 PUSH1 0x40 MLOAD DUP2 PUSH4 0xFFFFFFFF AND PUSH1 0xE0 SHL DUP2 MSTORE PUSH1 0x4 ADD PUSH1 0x20 PUSH1 0x40 MLOAD DUP1 DUP4 SUB DUP2 DUP7 GAS STATICCALL ISZERO DUP1 ISZERO PUSH2 0x225F JUMPI RETURNDATASIZE PUSH1 0x0 DUP1 RETURNDATACOPY RETURNDATASIZE PUSH1 0x0 REVERT JUMPDEST POP POP POP POP PUSH1 0x40 MLOAD RETURNDATASIZE PUSH1 0x1F NOT PUSH1 0x1F DUP3 ADD AND DUP3 ADD DUP1 PUSH1 0x40 MSTORE POP DUP2 ADD SWAP1 PUSH2 0x2283 SWAP2 SWAP1 PUSH2 0x5194 JUMP JUMPDEST SWAP1 POP DUP1 PUSH2 0x22EC JUMPI PUSH1 0x40 MLOAD PUSH32 0x8C379A000000000000000000000000000000000000000000000000000000000 DUP2 MSTORE PUSH1 0x20 PUSH1 0x4 DUP3 ADD MSTORE PUSH1 0x2 PUSH1 0x24 DUP3 ADD MSTORE PUSH32 0x4531000000000000000000000000000000000000000000000000000000000000 PUSH1 0x44 DUP3 ADD MSTORE PUSH1 0x64 ADD PUSH2 0x948 JUMP JUMPDEST PUSH1 0x12 SLOAD PUSH1 0x40 DUP1 MLOAD CALLER DUP2 MSTORE PUSH20 0xFFFFFFFFFFFFFFFFFFFFFFFFFFFFFFFFFFFFFFFF SWAP3 DUP4 AND PUSH1 0x20 DUP3 ADD MSTORE SWAP2 DUP5 AND DUP3 DUP3 ADD MSTORE MLOAD PUSH32 0xFFB6041235142E248BD8D4AAE7ABA0F51D09045067B9C2E44AA152DD0DDE88D8 SWAP2 DUP2 SWAP1 SUB PUSH1 0x60 ADD SWAP1 LOG1 POP PUSH1 0x12 DUP1 SLOAD PUSH32 0xFFFFFFFFFFFFFFFFFFFFFFFF0000000000000000000000000000000000000000 AND PUSH20 0xFFFFFFFFFFFFFFFFFFFFFFFFFFFFFFFFFFFFFFFF SWAP3 SWAP1 SWAP3 AND SWAP2 SWAP1 SWAP2 OR SWAP1 SSTORE JUMP JUMPDEST DUP1 PUSH1 0x0 SUB PUSH2 0x2398 JUMPI POP JUMP JUMPDEST PUSH1 0x0 PUSH2 0x23A3 PUSH1 0xB SLOAD SWAP1 JUMP JUMPDEST DUP3 PUSH1 0x5 SLOAD PUSH2 0x23B1 SWAP2 SWAP1 PUSH2 0x51AD JUMP JUMPDEST PUSH2 0x23BB SWAP2 SWAP1 PUSH2 0x51F3 JUMP JUMPDEST PUSH1 0x1 SLOAD SWAP1 SWAP2 POP PUSH1 0x0 SWAP1 PUSH2 0x241A SWAP1 PUSH2 0x23FD SWAP1 PUSH5 0x100000000 SWAP1 DIV PUSH1 0xFF AND PUSH32 0x0 PUSH2 0x522E JUMP JUMPDEST PUSH1 0x2 SLOAD PUSH2 0x2414 SWAP2 SWAP1 PUSH8 0xFFFFFFFFFFFFFFFF AND PUSH2 0x511C JUMP JUMPDEST DUP4 PUSH2 0x3CC5 JUMP JUMPDEST SWAP1 POP PUSH1 0x0 PUSH2 0x2428 DUP3 DUP5 PUSH2 0x50DA JUMP JUMPDEST SWAP1 POP PUSH32 0x76CD0CEDF979345CA241CE6DE696A520A8EFC860C6C10D9DB2A7953307C237FC CALLER PUSH1 0x40 DUP1 MLOAD PUSH20 0xFFFFFFFFFFFFFFFFFFFFFFFFFFFFFFFFFFFFFFFF SWAP1 SWAP3 AND DUP3 MSTORE PUSH1 0x20 DUP3 ADD DUP8 SWAP1 MSTORE DUP2 ADD DUP6 SWAP1 MSTORE PUSH1 0x60 DUP2 ADD DUP5 SWAP1 MSTORE PUSH1 0x80 DUP2 ADD DUP4 SWAP1 MSTORE PUSH1 0xA0 ADD PUSH1 0x40 MLOAD DUP1 SWAP2 SUB SWAP1 LOG1 DUP1 PUSH1 0x5 PUSH1 0x0 DUP3 DUP3 SLOAD PUSH2 0x24A1 SWAP2 SWAP1 PUSH2 0x50DA JUMP JUMPDEST SWAP1 SWAP2 SSTORE POP PUSH2 0x24B1 SWAP1 POP CALLER DUP6 PUSH2 0x303F JUMP JUMPDEST PUSH1 0x40 MLOAD PUSH1 0x0 SWAP1 CALLER SWAP1 DUP4 SWAP1 DUP4 DUP2 DUP2 DUP2 DUP6 DUP8 GAS CALL SWAP3 POP POP POP RETURNDATASIZE DUP1 PUSH1 0x0 DUP2 EQ PUSH2 0x24F3 JUMPI PUSH1 0x40 MLOAD SWAP2 POP PUSH1 0x1F NOT PUSH1 0x3F RETURNDATASIZE ADD AND DUP3 ADD PUSH1 0x40 MSTORE RETURNDATASIZE DUP3 MSTORE RETURNDATASIZE PUSH1 0x0 PUSH1 0x20 DUP5 ADD RETURNDATACOPY PUSH2 0x24F8 JUMP JUMPDEST PUSH1 0x60 SWAP2 POP JUMPDEST POP POP SWAP1 POP DUP1 PUSH2 0x2541 JUMPI PUSH1 0x5 SLOAD PUSH1 0x40 MLOAD PUSH32 0xCF47918100000000000000000000000000000000000000000000000000000000 DUP2 MSTORE PUSH1 0x4 DUP2 ADD SWAP2 SWAP1 SWAP2 MSTORE PUSH1 0x24 DUP2 ADD DUP4 SWAP1 MSTORE PUSH1 0x44 ADD PUSH2 0x948 JUMP JUMPDEST POP POP POP POP POP JUMP JUMPDEST PUSH20 0xFFFFFFFFFFFFFFFFFFFFFFFFFFFFFFFFFFFFFFFF DUP5 AND PUSH1 0x0 SWAP1 DUP2 MSTORE PUSH1 0x8 PUSH1 0x20 MSTORE PUSH1 0x40 DUP2 KECCAK256 SLOAD PUSH1 0x60 SWAP2 PUSH8 0xFFFFFFFFFFFFFFFF DUP7 AND DUP3 GT PUSH2 0x263F JUMPI PUSH1 0x40 DUP1 MLOAD PUSH1 0x0 DUP1 DUP3 MSTORE PUSH1 0x20 DUP3 ADD SWAP1 SWAP3 MSTORE SWAP1 PUSH2 0x2635 JUMP JUMPDEST PUSH2 0x2622 PUSH1 0x40 DUP1 MLOAD PUSH2 0x1A0 DUP2 ADD DUP3 MSTORE PUSH1 0x0 DUP1 DUP3 MSTORE PUSH1 0x20 DUP1 DUP4 ADD DUP3 SWAP1 MSTORE DUP3 DUP5 ADD DUP3 SWAP1 MSTORE PUSH1 0x60 DUP1 DUP5 ADD DUP4 SWAP1 MSTORE PUSH1 0x80 DUP1 DUP6 ADD DUP5 SWAP1 MSTORE PUSH1 0xA0 DUP6 ADD DUP5 SWAP1 MSTORE PUSH1 0xC0 DUP6 ADD DUP5 SWAP1 MSTORE PUSH1 0xE0 DUP6 ADD DUP5 SWAP1 MSTORE PUSH2 0x100 DUP6 ADD DUP5 SWAP1 MSTORE PUSH2 0x120 DUP6 ADD DUP5 SWAP1 MSTORE PUSH2 0x140 DUP6 ADD DUP5 SWAP1 MSTORE PUSH2 0x160 DUP6 ADD DUP5 SWAP1 MSTORE DUP6 MLOAD SWAP1 DUP2 ADD DUP7 MSTORE DUP4 DUP2 MSTORE SWAP2 DUP3 ADD DUP4 SWAP1 MSTORE SWAP4 DUP2 ADD DUP3 SWAP1 MSTORE SWAP3 DUP4 ADD MSTORE SWAP1 PUSH2 0x180 DUP3 ADD MSTORE SWAP1 JUMP JUMPDEST DUP2 MSTORE PUSH1 0x20 ADD SWAP1 PUSH1 0x1 SWAP1 SUB SWAP1 DUP2 PUSH2 0x2598 JUMPI SWAP1 POP JUMPDEST POP SWAP3 POP POP POP PUSH2 0x2B24 JUMP JUMPDEST DUP2 PUSH2 0x264A DUP7 DUP9 PUSH2 0x511C JUMP JUMPDEST PUSH8 0xFFFFFFFFFFFFFFFF AND GT ISZERO PUSH2 0x2661 JUMPI POP DUP1 PUSH2 0x2678 JUMP JUMPDEST PUSH2 0x266B DUP6 DUP8 PUSH2 0x511C JUMP JUMPDEST PUSH8 0xFFFFFFFFFFFFFFFF AND SWAP1 POP JUMPDEST PUSH2 0x268C PUSH8 0xFFFFFFFFFFFFFFFF DUP8 AND DUP3 PUSH2 0x50DA JUMP JUMPDEST PUSH8 0xFFFFFFFFFFFFFFFF DUP2 GT ISZERO PUSH2 0x26A4 JUMPI PUSH2 0x26A4 PUSH2 0x50ED JUMP JUMPDEST PUSH1 0x40 MLOAD SWAP1 DUP1 DUP3 MSTORE DUP1 PUSH1 0x20 MUL PUSH1 0x20 ADD DUP3 ADD PUSH1 0x40 MSTORE DUP1 ISZERO PUSH2 0x275F JUMPI DUP2 PUSH1 0x20 ADD JUMPDEST PUSH2 0x274C PUSH1 0x40 DUP1 MLOAD PUSH2 0x1A0 DUP2 ADD DUP3 MSTORE PUSH1 0x0 DUP1 DUP3 MSTORE PUSH1 0x20 DUP1 DUP4 ADD DUP3 SWAP1 MSTORE DUP3 DUP5 ADD DUP3 SWAP1 MSTORE PUSH1 0x60 DUP1 DUP5 ADD DUP4 SWAP1 MSTORE PUSH1 0x80 DUP1 DUP6 ADD DUP5 SWAP1 MSTORE PUSH1 0xA0 DUP6 ADD DUP5 SWAP1 MSTORE PUSH1 0xC0 DUP6 ADD DUP5 SWAP1 MSTORE PUSH1 0xE0 DUP6 ADD DUP5 SWAP1 MSTORE PUSH2 0x100 DUP6 ADD DUP5 SWAP1 MSTORE PUSH2 0x120 DUP6 ADD DUP5 SWAP1 MSTORE PUSH2 0x140 DUP6 ADD DUP5 SWAP1 MSTORE PUSH2 0x160 DUP6 ADD DUP5 SWAP1 MSTORE DUP6 MLOAD SWAP1 DUP2 ADD DUP7 MSTORE DUP4 DUP2 MSTORE SWAP2 DUP3 ADD DUP4 SWAP1 MSTORE SWAP4 DUP2 ADD DUP3 SWAP1 MSTORE SWAP3 DUP4 ADD MSTORE SWAP1 PUSH2 0x180 DUP3 ADD MSTORE SWAP1 JUMP JUMPDEST DUP2 MSTORE PUSH1 0x20 ADD SWAP1 PUSH1 0x1 SWAP1 SUB SWAP1 DUP2 PUSH2 0x26C2 JUMPI SWAP1 POP JUMPDEST POP SWAP3 POP DUP4 ISZERO PUSH2 0x2942 JUMPI DUP6 JUMPDEST DUP2 DUP2 PUSH8 0xFFFFFFFFFFFFFFFF AND LT ISZERO PUSH2 0x293C JUMPI PUSH1 0x0 PUSH2 0x2789 DUP3 PUSH1 0x1 PUSH2 0x511C JUMP JUMPDEST PUSH8 0xFFFFFFFFFFFFFFFF DUP1 DUP3 AND PUSH1 0x0 SWAP1 DUP2 MSTORE PUSH1 0x7 PUSH1 0x20 SWAP1 DUP2 MSTORE PUSH1 0x40 SWAP2 DUP3 SWAP1 KECCAK256 DUP3 MLOAD PUSH2 0x1A0 DUP2 ADD DUP5 MSTORE DUP2 SLOAD PUSH12 0xFFFFFFFFFFFFFFFFFFFFFFFF DUP1 DUP3 AND DUP4 MSTORE PUSH13 0x1000000000000000000000000 DUP1 DUP4 DIV DUP3 AND DUP5 DUP8 ADD MSTORE PUSH25 0x1000000000000000000000000000000000000000000000000 SWAP3 DUP4 SWAP1 DIV DUP9 AND DUP5 DUP9 ADD MSTORE PUSH1 0x1 DUP6 ADD SLOAD DUP1 DUP4 AND PUSH1 0x60 DUP1 DUP8 ADD SWAP2 SWAP1 SWAP2 MSTORE DUP3 DUP3 DIV DUP5 AND PUSH1 0x80 DUP1 DUP9 ADD SWAP2 SWAP1 SWAP2 MSTORE SWAP2 DUP6 SWAP1 DIV DUP11 AND PUSH1 0xA0 DUP8 ADD MSTORE PUSH1 0x2 DUP8 ADD SLOAD DUP1 DUP6 AND PUSH1 0xC0 DUP9 ADD MSTORE SWAP3 DUP4 DIV DUP5 AND PUSH1 0xE0 DUP8 ADD MSTORE SWAP2 DUP5 SWAP1 DIV SWAP1 SWAP9 AND PUSH2 0x100 DUP6 ADD MSTORE PUSH1 0x3 DUP6 ADD SLOAD PUSH20 0xFFFFFFFFFFFFFFFFFFFFFFFFFFFFFFFFFFFFFFFF DUP2 AND PUSH2 0x120 DUP7 ADD MSTORE PUSH4 0xFFFFFFFF PUSH21 0x10000000000000000000000000000000000000000 DUP3 DIV DUP2 AND PUSH2 0x140 DUP8 ADD MSTORE SWAP4 SWAP1 DIV DUP4 AND PUSH2 0x160 DUP6 ADD MSTORE DUP7 MLOAD SWAP8 DUP9 ADD DUP8 MSTORE PUSH1 0x4 DUP6 ADD SLOAD SWAP3 DUP4 AND DUP9 MSTORE PUSH5 0x100000000 DUP4 DIV DUP3 AND SWAP6 DUP9 ADD SWAP6 SWAP1 SWAP6 MSTORE PUSH17 0x100000000000000000000000000000000 SWAP1 SWAP2 DIV DUP2 AND SWAP5 DUP7 ADD SWAP5 SWAP1 SWAP5 MSTORE PUSH1 0x5 SWAP1 SWAP2 ADD SLOAD SWAP1 SWAP3 AND SWAP1 DUP4 ADD MSTORE PUSH2 0x180 DUP2 ADD SWAP2 SWAP1 SWAP2 MSTORE SWAP1 SWAP2 POP DUP6 PUSH2 0x2903 DUP11 DUP6 PUSH2 0x5144 JUMP JUMPDEST PUSH8 0xFFFFFFFFFFFFFFFF AND DUP2 MLOAD DUP2 LT PUSH2 0x291D JUMPI PUSH2 0x291D PUSH2 0x5165 JUMP JUMPDEST PUSH1 0x20 MUL PUSH1 0x20 ADD ADD DUP2 SWAP1 MSTORE POP POP DUP1 DUP1 PUSH2 0x2934 SWAP1 PUSH2 0x525A JUMP JUMPDEST SWAP2 POP POP PUSH2 0x276A JUMP JUMPDEST POP PUSH2 0x2B21 JUMP JUMPDEST DUP6 JUMPDEST DUP2 DUP2 PUSH8 0xFFFFFFFFFFFFFFFF AND LT ISZERO PUSH2 0x2B1F JUMPI PUSH1 0x0 PUSH2 0x296C PUSH8 0xFFFFFFFFFFFFFFFF DUP4 AND DUP6 PUSH2 0x50DA JUMP JUMPDEST PUSH8 0xFFFFFFFFFFFFFFFF DUP1 DUP3 AND PUSH1 0x0 SWAP1 DUP2 MSTORE PUSH1 0x7 PUSH1 0x20 SWAP1 DUP2 MSTORE PUSH1 0x40 SWAP2 DUP3 SWAP1 KECCAK256 DUP3 MLOAD PUSH2 0x1A0 DUP2 ADD DUP5 MSTORE DUP2 SLOAD PUSH12 0xFFFFFFFFFFFFFFFFFFFFFFFF DUP1 DUP3 AND DUP4 MSTORE PUSH13 0x1000000000000000000000000 DUP1 DUP4 DIV DUP3 AND DUP5 DUP8 ADD MSTORE PUSH25 0x1000000000000000000000000000000000000000000000000 SWAP3 DUP4 SWAP1 DIV DUP9 AND DUP5 DUP9 ADD MSTORE PUSH1 0x1 DUP6 ADD SLOAD DUP1 DUP4 AND PUSH1 0x60 DUP1 DUP8 ADD SWAP2 SWAP1 SWAP2 MSTORE DUP3 DUP3 DIV DUP5 AND PUSH1 0x80 DUP1 DUP9 ADD SWAP2 SWAP1 SWAP2 MSTORE SWAP2 DUP6 SWAP1 DIV DUP11 AND PUSH1 0xA0 DUP8 ADD MSTORE PUSH1 0x2 DUP8 ADD SLOAD DUP1 DUP6 AND PUSH1 0xC0 DUP9 ADD MSTORE SWAP3 DUP4 DIV DUP5 AND PUSH1 0xE0 DUP8 ADD MSTORE SWAP2 DUP5 SWAP1 DIV SWAP1 SWAP9 AND PUSH2 0x100 DUP6 ADD MSTORE PUSH1 0x3 DUP6 ADD SLOAD PUSH20 0xFFFFFFFFFFFFFFFFFFFFFFFFFFFFFFFFFFFFFFFF DUP2 AND PUSH2 0x120 DUP7 ADD MSTORE PUSH4 0xFFFFFFFF PUSH21 0x10000000000000000000000000000000000000000 DUP3 DIV DUP2 AND PUSH2 0x140 DUP8 ADD MSTORE SWAP4 SWAP1 DIV DUP4 AND PUSH2 0x160 DUP6 ADD MSTORE DUP7 MLOAD SWAP8 DUP9 ADD DUP8 MSTORE PUSH1 0x4 DUP6 ADD SLOAD SWAP3 DUP4 AND DUP9 MSTORE PUSH5 0x100000000 DUP4 DIV DUP3 AND SWAP6 DUP9 ADD SWAP6 SWAP1 SWAP6 MSTORE PUSH17 0x100000000000000000000000000000000 SWAP1 SWAP2 DIV DUP2 AND SWAP5 DUP7 ADD SWAP5 SWAP1 SWAP5 MSTORE PUSH1 0x5 SWAP1 SWAP2 ADD SLOAD SWAP1 SWAP3 AND SWAP1 DUP4 ADD MSTORE PUSH2 0x180 DUP2 ADD SWAP2 SWAP1 SWAP2 MSTORE SWAP1 SWAP2 POP DUP6 PUSH2 0x2AE6 DUP11 DUP6 PUSH2 0x5144 JUMP JUMPDEST PUSH8 0xFFFFFFFFFFFFFFFF AND DUP2 MLOAD DUP2 LT PUSH2 0x2B00 JUMPI PUSH2 0x2B00 PUSH2 0x5165 JUMP JUMPDEST PUSH1 0x20 MUL PUSH1 0x20 ADD ADD DUP2 SWAP1 MSTORE POP POP DUP1 DUP1 PUSH2 0x2B17 SWAP1 PUSH2 0x525A JUMP JUMPDEST SWAP2 POP POP PUSH2 0x2944 JUMP JUMPDEST POP JUMPDEST POP POP JUMPDEST SWAP5 SWAP4 POP POP POP POP JUMP JUMPDEST PUSH2 0x2B34 PUSH2 0x387A JUMP JUMPDEST PUSH20 0xFFFFFFFFFFFFFFFFFFFFFFFFFFFFFFFFFFFFFFFF DUP2 AND PUSH2 0x2B84 JUMPI PUSH1 0x40 MLOAD PUSH32 0x1E4FBDF700000000000000000000000000000000000000000000000000000000 DUP2 MSTORE PUSH1 0x0 PUSH1 0x4 DUP3 ADD MSTORE PUSH1 0x24 ADD PUSH2 0x948 JUMP JUMPDEST PUSH2 0x13CF DUP2 PUSH2 0x38CD JUMP JUMPDEST PUSH2 0x2B95 PUSH2 0x387A JUMP JUMPDEST PUSH8 0x2C68AF0BB140000 PUSH8 0xFFFFFFFFFFFFFFFF DUP5 AND GT ISZERO PUSH2 0x2C11 JUMPI PUSH1 0x40 MLOAD PUSH32 0x8C379A000000000000000000000000000000000000000000000000000000000 DUP2 MSTORE PUSH1 0x20 PUSH1 0x4 DUP3 ADD MSTORE PUSH1 0x1 PUSH1 0x24 DUP3 ADD MSTORE PUSH32 0x3100000000000000000000000000000000000000000000000000000000000000 PUSH1 0x44 DUP3 ADD MSTORE PUSH1 0x64 ADD PUSH2 0x948 JUMP JUMPDEST PUSH7 0x11C37937E08000 PUSH8 0xFFFFFFFFFFFFFFFF DUP5 AND LT ISZERO PUSH2 0x2C8C JUMPI PUSH1 0x40 MLOAD PUSH32 0x8C379A000000000000000000000000000000000000000000000000000000000 DUP2 MSTORE PUSH1 0x20 PUSH1 0x4 DUP3 ADD MSTORE PUSH1 0x1 PUSH1 0x24 DUP3 ADD MSTORE PUSH32 0x3200000000000000000000000000000000000000000000000000000000000000 PUSH1 0x44 DUP3 ADD MSTORE PUSH1 0x64 ADD PUSH2 0x948 JUMP JUMPDEST PUSH1 0x1 SLOAD PUSH1 0xFF PUSH5 0x100000000 SWAP1 SWAP2 DIV DUP2 AND SWAP1 DUP3 AND LT ISZERO PUSH2 0x2D07 JUMPI PUSH1 0x40 MLOAD PUSH32 0x8C379A000000000000000000000000000000000000000000000000000000000 DUP2 MSTORE PUSH1 0x20 PUSH1 0x4 DUP3 ADD MSTORE PUSH1 0x1 PUSH1 0x24 DUP3 ADD MSTORE PUSH32 0x3300000000000000000000000000000000000000000000000000000000000000 PUSH1 0x44 DUP3 ADD MSTORE PUSH1 0x64 ADD PUSH2 0x948 JUMP JUMPDEST PUSH1 0x0 DUP1 SLOAD PUSH12 0xFFFFFFFFFFFFFFFFFFFFFFFF DUP8 DUP2 AND PUSH32 0xFFFFFFFFFFFFFFFF000000000000000000000000000000000000000000000000 SWAP1 SWAP3 AND SWAP2 SWAP1 SWAP2 OR PUSH13 0x1000000000000000000000000 SWAP2 DUP8 AND SWAP2 SWAP1 SWAP2 MUL OR PUSH24 0xFFFFFFFFFFFFFFFFFFFFFFFFFFFFFFFFFFFFFFFFFFFFFFFF AND PUSH25 0x1000000000000000000000000000000000000000000000000 PUSH8 0xFFFFFFFFFFFFFFFF DUP7 AND MUL OR SWAP1 SSTORE PUSH1 0x1 DUP1 SLOAD PUSH4 0xFFFFFFFF DUP5 AND PUSH32 0xFFFFFFFFFFFFFFFFFFFFFFFFFFFFFFFFFFFFFFFFFFFFFFFFFFFFFF0000000000 SWAP1 SWAP2 AND OR PUSH5 0x100000000 PUSH1 0xFF DUP5 AND MUL OR SWAP1 SSTORE PUSH32 0x1E18870FA6DCB675BBB26E264AEB27803736955E55186EBA839862691393D94D CALLER PUSH1 0x0 SLOAD PUSH1 0x1 SLOAD PUSH1 0x40 DUP1 MLOAD PUSH20 0xFFFFFFFFFFFFFFFFFFFFFFFFFFFFFFFFFFFFFFFF SWAP1 SWAP5 AND DUP5 MSTORE PUSH8 0xFFFFFFFFFFFFFFFF PUSH32 0x0 DUP2 AND PUSH1 0x20 DUP7 ADD MSTORE PUSH12 0xFFFFFFFFFFFFFFFFFFFFFFFF PUSH32 0x0 DUP2 AND SWAP3 DUP7 ADD SWAP3 SWAP1 SWAP3 MSTORE DUP2 DUP5 AND PUSH1 0x60 DUP7 ADD MSTORE PUSH13 0x1000000000000000000000000 DUP5 DIV SWAP1 SWAP2 AND PUSH1 0x80 DUP6 ADD MSTORE PUSH25 0x1000000000000000000000000000000000000000000000000 SWAP1 SWAP3 DIV SWAP1 SWAP2 AND PUSH1 0xA0 DUP4 ADD MSTORE PUSH4 0xFFFFFFFF DUP2 AND PUSH1 0xC0 DUP4 ADD MSTORE PUSH5 0x100000000 SWAP1 DIV PUSH1 0xFF AND PUSH1 0xE0 DUP3 ADD MSTORE PUSH2 0x100 ADD PUSH1 0x40 MLOAD DUP1 SWAP2 SUB SWAP1 LOG1 POP POP POP POP POP JUMP JUMPDEST PUSH1 0x0 DUP1 PUSH2 0x2F08 CALLVALUE PUSH2 0x8FA JUMP JUMPDEST PUSH1 0x0 SLOAD SWAP1 SWAP2 POP PUSH12 0xFFFFFFFFFFFFFFFFFFFFFFFF SWAP1 DUP2 AND SWAP1 DUP5 AND LT PUSH2 0x2F3E JUMPI PUSH1 0x0 SLOAD PUSH12 0xFFFFFFFFFFFFFFFFFFFFFFFF AND SWAP2 POP PUSH2 0x2F42 JUMP JUMPDEST DUP3 SWAP2 POP JUMPDEST PUSH1 0x0 DUP3 PUSH12 0xFFFFFFFFFFFFFFFFFFFFFFFF AND DUP3 PUSH12 0xFFFFFFFFFFFFFFFFFFFFFFFF AND LT ISZERO PUSH2 0x2F73 JUMPI POP SWAP1 POP DUP1 PUSH1 0x0 PUSH2 0x2F80 JUMP JUMPDEST PUSH2 0x2F7D DUP4 DUP4 PUSH2 0x5281 JUMP JUMPDEST SWAP1 POP JUMPDEST PUSH2 0x2541 CALLER DUP3 DUP6 DUP9 PUSH2 0x955 JUMP JUMPDEST PUSH1 0x60 PUSH2 0x2B24 CALLER DUP6 DUP6 DUP6 PUSH2 0x2548 JUMP JUMPDEST PUSH1 0x0 PUSH9 0x3635C9ADC5DEA00000 PUSH12 0xFFFFFFFFFFFFFFFFFFFFFFFF DUP4 AND GT PUSH2 0x2FC2 JUMPI POP PUSH1 0x0 PUSH2 0xFD2 JUMP JUMPDEST PUSH1 0x5 SLOAD PUSH1 0x0 SUB PUSH2 0x2FD7 JUMPI PUSH1 0xB SLOAD JUMPDEST SWAP1 POP PUSH2 0xFD2 JUMP JUMPDEST PUSH10 0xDE0B6B3A76400000000 PUSH1 0x5 SLOAD PUSH2 0x2FEF SWAP2 SWAP1 PUSH2 0x51AD JUMP JUMPDEST PUSH1 0xB SLOAD PUSH2 0x3013 PUSH9 0x3635C9ADC5DEA00000 PUSH12 0xFFFFFFFFFFFFFFFFFFFFFFFF DUP7 AND PUSH2 0x50DA JUMP JUMPDEST PUSH2 0x302B SWAP1 PUSH12 0xFFFFFFFFFFFFFFFFFFFFFFFF DUP8 AND PUSH2 0x51AD JUMP JUMPDEST PUSH2 0x3035 SWAP2 SWAP1 PUSH2 0x51AD JUMP JUMPDEST PUSH2 0x1193 SWAP2 SWAP1 PUSH2 0x51F3 JUMP JUMPDEST PUSH20 0xFFFFFFFFFFFFFFFFFFFFFFFFFFFFFFFFFFFFFFFF DUP3 AND PUSH2 0x308F JUMPI PUSH1 0x40 MLOAD PUSH32 0x96C6FD1E00000000000000000000000000000000000000000000000000000000 DUP2 MSTORE PUSH1 0x0 PUSH1 0x4 DUP3 ADD MSTORE PUSH1 0x24 ADD PUSH2 0x948 JUMP JUMPDEST PUSH2 0x10EE DUP3 PUSH1 0x0 DUP4 PUSH2 0x3D24 JUMP JUMPDEST PUSH1 0x0 DUP1 PUSH2 0x30A8 DUP6 DUP6 PUSH2 0x3ECF JUMP JUMPDEST SWAP1 POP DUP1 DUP6 GT PUSH2 0x30BB JUMPI PUSH1 0x0 SWAP2 POP POP PUSH2 0x1193 JUMP JUMPDEST PUSH10 0xDE0B6B3A76400000000 DUP4 GT ISZERO PUSH2 0x30D7 JUMPI PUSH1 0x0 SWAP2 POP POP PUSH2 0x1193 JUMP JUMPDEST DUP3 PUSH1 0x0 SUB PUSH2 0x30EB JUMPI PUSH3 0x10000 SWAP2 POP POP PUSH2 0x1193 JUMP JUMPDEST DUP1 DUP6 SUB PUSH1 0x0 DUP5 DUP8 MUL PUSH10 0xDE0B6B3A76400000000 DUP4 MUL DUP2 PUSH2 0x310D JUMPI PUSH2 0x310D PUSH2 0x51C4 JUMP JUMPDEST DIV SWAP1 POP PUSH3 0x10000 DUP2 GT ISZERO PUSH2 0x3129 JUMPI PUSH3 0x10000 SWAP4 POP POP POP POP PUSH2 0x1193 JUMP JUMPDEST SWAP7 SWAP6 POP POP POP POP POP POP JUMP JUMPDEST PUSH1 0x3 DUP2 ADD DUP1 SLOAD PUSH32 0xFFFFFFFF00000000FFFFFFFFFFFFFFFFFFFFFFFFFFFFFFFFFFFFFFFFFFFFFFFF AND PUSH25 0x4000000000000000000000000000000000000000000000000 OR SWAP1 SSTORE DUP1 SLOAD PUSH1 0x1 DUP3 ADD SLOAD PUSH1 0x2 DUP4 ADD SLOAD PUSH8 0xDE0B6B3A7640000 PUSH12 0xFFFFFFFFFFFFFFFFFFFFFFFF DUP1 DUP6 AND PUSH8 0xFFFFFFFFFFFFFFFF PUSH25 0x1000000000000000000000000000000000000000000000000 SWAP1 SWAP6 DIV SWAP5 SWAP1 SWAP5 AND DUP5 MUL SWAP2 SWAP1 SWAP2 DIV PUSH13 0x1000000000000000000000000 SWAP3 DUP4 SWAP1 DIV DUP3 AND SWAP3 SWAP1 SWAP5 DIV AND ADD SWAP2 SWAP1 SWAP2 ADD SWAP1 DUP2 GT PUSH2 0x32F0 JUMPI PUSH1 0x2 DUP3 ADD SLOAD PUSH1 0x0 SWAP1 PUSH2 0x3274 SWAP1 PUSH25 0x1000000000000000000000000000000000000000000000000 SWAP1 DIV PUSH8 0xFFFFFFFFFFFFFFFF AND PUSH8 0xDE0B6B3A7640000 PUSH2 0x3265 PUSH32 0x0 PUSH12 0xFFFFFFFFFFFFFFFFFFFFFFFF AND DUP7 PUSH2 0x51AD JUMP JUMPDEST PUSH2 0x326F SWAP2 SWAP1 PUSH2 0x51F3 JUMP JUMPDEST PUSH2 0x3CC5 JUMP JUMPDEST PUSH1 0x4 DUP5 ADD DUP1 SLOAD PUSH32 0xFFFFFFFF000000000000000000000000FFFFFFFFFFFFFFFFFFFFFFFFFFFFFFFF AND PUSH17 0x100000000000000000000000000000000 PUSH12 0xFFFFFFFFFFFFFFFFFFFFFFFF DUP5 AND MUL OR SWAP1 SSTORE SWAP1 POP DUP1 ISZERO PUSH2 0x32EE JUMPI PUSH1 0x3 DUP4 ADD SLOAD PUSH2 0x32EE SWAP1 PUSH20 0xFFFFFFFFFFFFFFFFFFFFFFFFFFFFFFFFFFFFFFFF AND DUP3 PUSH2 0x3F6C JUMP JUMPDEST POP JUMPDEST PUSH2 0x10EE DUP3 PUSH2 0x3A61 JUMP JUMPDEST PUSH1 0x0 SLOAD PUSH12 0xFFFFFFFFFFFFFFFFFFFFFFFF DUP1 DUP4 AND SWAP2 AND GT PUSH2 0x338F JUMPI PUSH1 0x4 DUP1 SLOAD PUSH12 0xFFFFFFFFFFFFFFFFFFFFFFFF DUP4 DUP2 AND SWAP2 DUP3 ADD SWAP1 SWAP3 SSTORE PUSH1 0x0 DUP1 SLOAD PUSH1 0x40 DUP1 MLOAD PUSH8 0xFFFFFFFFFFFFFFFF DUP9 AND DUP2 MSTORE SWAP2 SWAP1 SWAP5 AND PUSH1 0x20 DUP3 ADD MSTORE SWAP3 DUP4 ADD SWAP2 SWAP1 SWAP2 MSTORE PUSH1 0x60 DUP3 ADD DUP2 SWAP1 MSTORE PUSH1 0x80 DUP3 ADD MSTORE PUSH32 0xC90468505EB2131F45874A6543CC8F26CDCF8665051CF5307268576B7D543B41 SWAP1 PUSH1 0xA0 ADD PUSH1 0x40 MLOAD DUP1 SWAP2 SUB SWAP1 LOG1 POP POP JUMP JUMPDEST PUSH1 0x0 SLOAD PUSH1 0x5 SLOAD PUSH12 0xFFFFFFFFFFFFFFFFFFFFFFFF SWAP2 DUP3 AND DUP4 SWAP1 SUB SWAP2 DUP3 AND LT ISZERO PUSH2 0x343A JUMPI PUSH1 0x5 DUP1 SLOAD PUSH12 0xFFFFFFFFFFFFFFFFFFFFFFFF DUP4 DUP2 AND SWAP2 DUP3 SWAP1 SUB SWAP1 SWAP3 SSTORE PUSH1 0x4 DUP1 SLOAD DUP6 DUP6 ADD DUP5 AND ADD SWAP1 SSTORE PUSH1 0x0 DUP1 SLOAD PUSH1 0x40 DUP1 MLOAD PUSH8 0xFFFFFFFFFFFFFFFF DUP10 AND DUP2 MSTORE SWAP2 DUP6 AND PUSH1 0x20 DUP4 ADD MSTORE SWAP4 DUP7 AND DUP2 DUP6 ADD MSTORE PUSH1 0x60 DUP2 ADD SWAP3 SWAP1 SWAP3 MSTORE PUSH1 0x80 DUP3 ADD MSTORE SWAP1 MLOAD PUSH32 0xC90468505EB2131F45874A6543CC8F26CDCF8665051CF5307268576B7D543B41 SWAP2 DUP2 SWAP1 SUB PUSH1 0xA0 ADD SWAP1 LOG1 POP POP POP JUMP JUMPDEST PUSH1 0x0 DUP3 PUSH12 0xFFFFFFFFFFFFFFFFFFFFFFFF AND PUSH1 0x0 SUB PUSH2 0x3475 JUMPI PUSH1 0x0 SLOAD PUSH2 0x346E SWAP1 DUP6 SWAP1 PUSH12 0xFFFFFFFFFFFFFFFFFFFFFFFF AND PUSH2 0x3FC8 JUMP JUMPDEST SWAP1 POP PUSH2 0x349F JUMP JUMPDEST PUSH1 0x4 DUP1 SLOAD PUSH12 0xFFFFFFFFFFFFFFFFFFFFFFFF DUP6 DUP2 AND SWAP1 SWAP2 ADD SWAP1 SWAP2 SSTORE PUSH2 0x349C SWAP1 DUP6 SWAP1 DUP5 AND PUSH2 0x3FC8 JUMP JUMPDEST SWAP1 POP JUMPDEST PUSH1 0x0 SLOAD PUSH1 0x40 DUP1 MLOAD PUSH8 0xFFFFFFFFFFFFFFFF DUP8 AND DUP2 MSTORE PUSH12 0xFFFFFFFFFFFFFFFFFFFFFFFF SWAP3 DUP4 AND PUSH1 0x20 DUP3 ADD MSTORE DUP6 DUP4 AND DUP2 DUP4 ADD MSTORE SWAP2 DUP5 AND PUSH1 0x60 DUP4 ADD MSTORE PUSH1 0x80 DUP3 ADD DUP4 SWAP1 MSTORE MLOAD PUSH32 0xC90468505EB2131F45874A6543CC8F26CDCF8665051CF5307268576B7D543B41 SWAP2 DUP2 SWAP1 SUB PUSH1 0xA0 ADD SWAP1 LOG1 POP POP POP POP JUMP JUMPDEST CALLER ORIGIN EQ PUSH2 0x351B JUMPI PUSH1 0x0 DUP1 REVERT JUMPDEST PUSH1 0x12 SLOAD PUSH1 0x40 DUP1 MLOAD PUSH32 0xAACC5A1700000000000000000000000000000000000000000000000000000000 DUP2 MSTORE SWAP1 MLOAD PUSH1 0x0 SWAP3 PUSH20 0xFFFFFFFFFFFFFFFFFFFFFFFFFFFFFFFFFFFFFFFF AND SWAP2 PUSH4 0xAACC5A17 SWAP2 PUSH1 0x4 DUP1 DUP4 ADD SWAP3 PUSH1 0x20 SWAP3 SWAP2 SWAP1 DUP3 SWAP1 SUB ADD DUP2 DUP7 GAS STATICCALL ISZERO DUP1 ISZERO PUSH2 0x358B JUMPI RETURNDATASIZE PUSH1 0x0 DUP1 RETURNDATACOPY RETURNDATASIZE PUSH1 0x0 REVERT JUMPDEST POP POP POP POP PUSH1 0x40 MLOAD RETURNDATASIZE PUSH1 0x1F NOT PUSH1 0x1F DUP3 ADD AND DUP3 ADD DUP1 PUSH1 0x40 MSTORE POP DUP2 ADD SWAP1 PUSH2 0x35AF SWAP2 SWAP1 PUSH2 0x5194 JUMP JUMPDEST SWAP1 POP PUSH2 0x10EE DUP3 DUP3 PUSH2 0x401B JUMP JUMPDEST PUSH2 0x2205 DUP4 DUP4 DUP4 PUSH1 0x1 PUSH2 0x413F JUMP JUMPDEST PUSH20 0xFFFFFFFFFFFFFFFFFFFFFFFFFFFFFFFFFFFFFFFF DUP4 DUP2 AND PUSH1 0x0 SWAP1 DUP2 MSTORE PUSH1 0xA PUSH1 0x20 SWAP1 DUP2 MSTORE PUSH1 0x40 DUP1 DUP4 KECCAK256 SWAP4 DUP7 AND DUP4 MSTORE SWAP3 SWAP1 MSTORE KECCAK256 SLOAD PUSH32 0xFFFFFFFFFFFFFFFFFFFFFFFFFFFFFFFFFFFFFFFFFFFFFFFFFFFFFFFFFFFFFFFF DUP2 EQ PUSH2 0x3691 JUMPI DUP2 DUP2 LT ISZERO PUSH2 0x3682 JUMPI PUSH1 0x40 MLOAD PUSH32 0xFB8F41B200000000000000000000000000000000000000000000000000000000 DUP2 MSTORE PUSH20 0xFFFFFFFFFFFFFFFFFFFFFFFFFFFFFFFFFFFFFFFF DUP5 AND PUSH1 0x4 DUP3 ADD MSTORE PUSH1 0x24 DUP2 ADD DUP3 SWAP1 MSTORE PUSH1 0x44 DUP2 ADD DUP4 SWAP1 MSTORE PUSH1 0x64 ADD PUSH2 0x948 JUMP JUMPDEST PUSH2 0x3691 DUP5 DUP5 DUP5 DUP5 SUB PUSH1 0x0 PUSH2 0x413F JUMP JUMPDEST POP POP POP POP JUMP JUMPDEST PUSH20 0xFFFFFFFFFFFFFFFFFFFFFFFFFFFFFFFFFFFFFFFF DUP4 AND PUSH2 0x36E7 JUMPI PUSH1 0x40 MLOAD PUSH32 0x96C6FD1E00000000000000000000000000000000000000000000000000000000 DUP2 MSTORE PUSH1 0x0 PUSH1 0x4 DUP3 ADD MSTORE PUSH1 0x24 ADD PUSH2 0x948 JUMP JUMPDEST PUSH20 0xFFFFFFFFFFFFFFFFFFFFFFFFFFFFFFFFFFFFFFFF DUP3 AND PUSH2 0x3737 JUMPI PUSH1 0x40 MLOAD PUSH32 0xEC442F0500000000000000000000000000000000000000000000000000000000 DUP2 MSTORE PUSH1 0x0 PUSH1 0x4 DUP3 ADD MSTORE PUSH1 0x24 ADD PUSH2 0x948 JUMP JUMPDEST PUSH2 0x2205 DUP4 DUP4 DUP4 PUSH2 0x3D24 JUMP JUMPDEST PUSH1 0x0 ADDRESS PUSH20 0xFFFFFFFFFFFFFFFFFFFFFFFFFFFFFFFFFFFFFFFF PUSH32 0x0 AND EQ DUP1 ISZERO PUSH2 0x37A8 JUMPI POP PUSH32 0x0 CHAINID EQ JUMPDEST ISZERO PUSH2 0x37D2 JUMPI POP PUSH32 0x0 SWAP1 JUMP JUMPDEST PUSH2 0x11A4 PUSH1 0x40 DUP1 MLOAD PUSH32 0x8B73C3C69BB8FE3D512ECC4CF759CC79239F7B179B0FFACAA9A75D522B39400F PUSH1 0x20 DUP3 ADD MSTORE PUSH32 0x0 SWAP2 DUP2 ADD SWAP2 SWAP1 SWAP2 MSTORE PUSH32 0x0 PUSH1 0x60 DUP3 ADD MSTORE CHAINID PUSH1 0x80 DUP3 ADD MSTORE ADDRESS PUSH1 0xA0 DUP3 ADD MSTORE PUSH1 0x0 SWAP1 PUSH1 0xC0 ADD PUSH1 0x40 MLOAD PUSH1 0x20 DUP2 DUP4 SUB SUB DUP2 MSTORE SWAP1 PUSH1 0x40 MSTORE DUP1 MLOAD SWAP1 PUSH1 0x20 ADD KECCAK256 SWAP1 POP SWAP1 JUMP JUMPDEST PUSH1 0xE SLOAD PUSH20 0xFFFFFFFFFFFFFFFFFFFFFFFFFFFFFFFFFFFFFFFF AND CALLER EQ PUSH2 0x1A6D JUMPI PUSH1 0x40 MLOAD PUSH32 0x118CDAA700000000000000000000000000000000000000000000000000000000 DUP2 MSTORE CALLER PUSH1 0x4 DUP3 ADD MSTORE PUSH1 0x24 ADD PUSH2 0x948 JUMP JUMPDEST PUSH1 0xE DUP1 SLOAD PUSH20 0xFFFFFFFFFFFFFFFFFFFFFFFFFFFFFFFFFFFFFFFF DUP4 DUP2 AND PUSH32 0xFFFFFFFFFFFFFFFFFFFFFFFF0000000000000000000000000000000000000000 DUP4 AND DUP2 OR SWAP1 SWAP4 SSTORE PUSH1 0x40 MLOAD SWAP2 AND SWAP2 SWAP1 DUP3 SWAP1 PUSH32 0x8BE0079C531659141344CD1FD0A4F28419497F9722A3DAAFE3B4186F6B6457E0 SWAP1 PUSH1 0x0 SWAP1 LOG3 POP POP JUMP JUMPDEST PUSH1 0x60 PUSH2 0x11A4 PUSH32 0x0 PUSH1 0xF PUSH2 0x4287 JUMP JUMPDEST PUSH1 0x60 PUSH2 0x11A4 PUSH32 0x0 PUSH1 0x10 PUSH2 0x4287 JUMP JUMPDEST PUSH1 0x0 PUSH2 0xFD2 PUSH2 0x39AB PUSH2 0x3742 JUMP JUMPDEST DUP4 PUSH1 0x40 MLOAD PUSH32 0x1901000000000000000000000000000000000000000000000000000000000000 DUP2 MSTORE PUSH1 0x2 DUP2 ADD SWAP3 SWAP1 SWAP3 MSTORE PUSH1 0x22 DUP3 ADD MSTORE PUSH1 0x42 SWAP1 KECCAK256 SWAP1 JUMP JUMPDEST PUSH1 0x0 DUP1 PUSH1 0x0 DUP1 PUSH2 0x39F8 DUP9 DUP9 DUP9 DUP9 PUSH2 0x432B JUMP JUMPDEST SWAP3 POP SWAP3 POP SWAP3 POP PUSH2 0x3A08 DUP3 DUP3 PUSH2 0x4425 JUMP JUMPDEST POP SWAP1 SWAP7 SWAP6 POP POP POP POP POP POP JUMP JUMPDEST PUSH1 0x0 PUSH1 0xC8 DUP3 SLOAD PUSH2 0x3A4A SWAP2 SWAP1 PUSH25 0x1000000000000000000000000000000000000000000000000 SWAP1 DIV PUSH8 0xFFFFFFFFFFFFFFFF AND PUSH2 0x52A6 JUMP JUMPDEST NUMBER LT ISZERO PUSH2 0x3A59 JUMPI POP PUSH1 0x0 SWAP2 SWAP1 POP JUMP JUMPDEST POP PUSH1 0x1 SWAP2 SWAP1 POP JUMP JUMPDEST PUSH1 0x3 DUP2 ADD SLOAD PUSH1 0x2 DUP3 ADD SLOAD DUP3 SLOAD PUSH1 0x1 DUP5 ADD SLOAD PUSH1 0x40 DUP1 MLOAD PUSH1 0x60 DUP2 ADD DUP3 MSTORE PUSH1 0x5 SLOAD DUP2 MSTORE PUSH20 0xFFFFFFFFFFFFFFFFFFFFFFFFFFFFFFFFFFFFFFFF DUP7 AND PUSH1 0x0 DUP2 DUP2 MSTORE PUSH1 0x9 PUSH1 0x20 SWAP1 DUP2 MSTORE SWAP4 SWAP1 KECCAK256 SLOAD PUSH25 0x1000000000000000000000000000000000000000000000000 DUP1 DUP10 DIV PUSH4 0xFFFFFFFF SWAP1 DUP2 AND SWAP10 SWAP2 DUP10 DIV PUSH8 0xFFFFFFFFFFFFFFFF AND SWAP9 SWAP4 SWAP8 PUSH32 0x39CBF4A209B014B16BD16F4ED617501F2DF769E4A480D974457B24E172E756ED SWAP8 PUSH12 0xFFFFFFFFFFFFFFFFFFFFFFFF SWAP2 DUP3 AND SWAP8 DUP3 DUP3 AND SWAP8 PUSH13 0x1000000000000000000000000 SWAP1 SWAP3 DIV DUP4 AND SWAP7 SWAP3 SWAP1 SWAP3 AND SWAP5 PUSH21 0x10000000000000000000000000000000000000000 SWAP1 SWAP5 DIV SWAP1 SWAP3 AND SWAP3 PUSH1 0x4 DUP14 ADD SWAP3 SWAP2 DUP3 ADD SWAP1 DUP2 MSTORE PUSH1 0x20 ADD PUSH2 0x3B62 PUSH1 0xB SLOAD SWAP1 JUMP JUMPDEST SWAP1 MSTORE PUSH1 0x40 MLOAD PUSH2 0x3B77 SWAP8 SWAP7 SWAP6 SWAP5 SWAP4 SWAP3 SWAP2 SWAP1 PUSH2 0x52B9 JUMP JUMPDEST PUSH1 0x40 MLOAD DUP1 SWAP2 SUB SWAP1 LOG4 POP JUMP JUMPDEST PUSH1 0x1 SLOAD PUSH1 0x40 MLOAD PUSH1 0x0 SWAP2 DUP3 SWAP2 PUSH20 0xFFFFFFFFFFFFFFFFFFFFFFFFFFFFFFFFFFFFFFFF DUP7 AND SWAP2 PUSH4 0xFFFFFFFF AND SWAP1 DUP6 SWAP1 DUP5 DUP2 DUP2 DUP2 DUP6 DUP9 DUP9 CALL SWAP4 POP POP POP POP RETURNDATASIZE DUP1 PUSH1 0x0 DUP2 EQ PUSH2 0x3BE7 JUMPI PUSH1 0x40 MLOAD SWAP2 POP PUSH1 0x1F NOT PUSH1 0x3F RETURNDATASIZE ADD AND DUP3 ADD PUSH1 0x40 MSTORE RETURNDATASIZE DUP3 MSTORE RETURNDATASIZE PUSH1 0x0 PUSH1 0x20 DUP5 ADD RETURNDATACOPY PUSH2 0x3BEC JUMP JUMPDEST PUSH1 0x60 SWAP2 POP JUMPDEST POP POP SWAP1 POP DUP1 PUSH2 0xFCC JUMPI PUSH20 0xFFFFFFFFFFFFFFFFFFFFFFFFFFFFFFFFFFFFFFFF DUP5 AND PUSH1 0x0 SWAP1 DUP2 MSTORE PUSH1 0x8 PUSH1 0x20 MSTORE PUSH1 0x40 SWAP1 KECCAK256 PUSH1 0x1 ADD SLOAD PUSH2 0x3C29 SWAP1 DUP5 SWAP1 PUSH2 0x52A6 JUMP JUMPDEST PUSH20 0xFFFFFFFFFFFFFFFFFFFFFFFFFFFFFFFFFFFFFFFF DUP6 AND PUSH1 0x0 SWAP1 DUP2 MSTORE PUSH1 0x8 PUSH1 0x20 MSTORE PUSH1 0x40 DUP2 KECCAK256 PUSH1 0x1 ADD SWAP2 SWAP1 SWAP2 SSTORE PUSH1 0x6 DUP1 SLOAD DUP6 SWAP3 SWAP1 PUSH2 0x3C67 SWAP1 DUP5 SWAP1 PUSH2 0x52A6 JUMP JUMPDEST SWAP1 SWAP2 SSTORE POP POP PUSH1 0x40 DUP1 MLOAD PUSH20 0xFFFFFFFFFFFFFFFFFFFFFFFFFFFFFFFFFFFFFFFF DUP7 AND DUP2 MSTORE PUSH1 0x20 DUP2 ADD DUP6 SWAP1 MSTORE PUSH32 0x9CD50C4AE1F9E1E6FE910DD37BA6A6B9FCC5F9D9CABA92513FE2F4AED5AFF5A6 SWAP2 ADD PUSH1 0x40 MLOAD DUP1 SWAP2 SUB SWAP1 LOG1 PUSH1 0x0 SWAP2 POP POP PUSH2 0xFD2 JUMP JUMPDEST PUSH1 0x0 DUP1 PUSH32 0x0 PUSH8 0xFFFFFFFFFFFFFFFF AND PUSH1 0x1 DUP6 SUB PUSH8 0xFFFFFFFFFFFFFFFF AND DUP2 PUSH2 0x3D0E JUMPI PUSH2 0x3D0E PUSH2 0x51C4 JUMP JUMPDEST DIV PUSH8 0xFFFFFFFFFFFFFFFF AND SWAP3 SWAP1 SWAP3 SHR SWAP4 SWAP3 POP POP POP JUMP JUMPDEST PUSH20 0xFFFFFFFFFFFFFFFFFFFFFFFFFFFFFFFFFFFFFFFF DUP4 AND PUSH2 0x3D5C JUMPI DUP1 PUSH1 0xB PUSH1 0x0 DUP3 DUP3 SLOAD PUSH2 0x3D51 SWAP2 SWAP1 PUSH2 0x52A6 JUMP JUMPDEST SWAP1 SWAP2 SSTORE POP PUSH2 0x3E0E SWAP1 POP JUMP JUMPDEST PUSH20 0xFFFFFFFFFFFFFFFFFFFFFFFFFFFFFFFFFFFFFFFF DUP4 AND PUSH1 0x0 SWAP1 DUP2 MSTORE PUSH1 0x9 PUSH1 0x20 MSTORE PUSH1 0x40 SWAP1 KECCAK256 SLOAD DUP2 DUP2 LT ISZERO PUSH2 0x3DE2 JUMPI PUSH1 0x40 MLOAD PUSH32 0xE450D38C00000000000000000000000000000000000000000000000000000000 DUP2 MSTORE PUSH20 0xFFFFFFFFFFFFFFFFFFFFFFFFFFFFFFFFFFFFFFFF DUP6 AND PUSH1 0x4 DUP3 ADD MSTORE PUSH1 0x24 DUP2 ADD DUP3 SWAP1 MSTORE PUSH1 0x44 DUP2 ADD DUP4 SWAP1 MSTORE PUSH1 0x64 ADD PUSH2 0x948 JUMP JUMPDEST PUSH20 0xFFFFFFFFFFFFFFFFFFFFFFFFFFFFFFFFFFFFFFFF DUP5 AND PUSH1 0x0 SWAP1 DUP2 MSTORE PUSH1 0x9 PUSH1 0x20 MSTORE PUSH1 0x40 SWAP1 KECCAK256 SWAP1 DUP3 SWAP1 SUB SWAP1 SSTORE JUMPDEST PUSH20 0xFFFFFFFFFFFFFFFFFFFFFFFFFFFFFFFFFFFFFFFF DUP3 AND PUSH2 0x3E37 JUMPI PUSH1 0xB DUP1 SLOAD DUP3 SWAP1 SUB SWAP1 SSTORE PUSH2 0x3E63 JUMP JUMPDEST PUSH20 0xFFFFFFFFFFFFFFFFFFFFFFFFFFFFFFFFFFFFFFFF DUP3 AND PUSH1 0x0 SWAP1 DUP2 MSTORE PUSH1 0x9 PUSH1 0x20 MSTORE PUSH1 0x40 SWAP1 KECCAK256 DUP1 SLOAD DUP3 ADD SWAP1 SSTORE JUMPDEST DUP2 PUSH20 0xFFFFFFFFFFFFFFFFFFFFFFFFFFFFFFFFFFFFFFFF AND DUP4 PUSH20 0xFFFFFFFFFFFFFFFFFFFFFFFFFFFFFFFFFFFFFFFF AND PUSH32 0xDDF252AD1BE2C89B69C2B068FC378DAA952BA7F163C4A11628F55A4DF523B3EF DUP4 PUSH1 0x40 MLOAD PUSH2 0x3EC2 SWAP2 DUP2 MSTORE PUSH1 0x20 ADD SWAP1 JUMP JUMPDEST PUSH1 0x40 MLOAD DUP1 SWAP2 SUB SWAP1 LOG3 POP POP POP JUMP JUMPDEST PUSH1 0x0 DUP1 SLOAD DUP2 SWAP1 PUSH12 0xFFFFFFFFFFFFFFFFFFFFFFFF AND DUP4 LT ISZERO PUSH2 0x3F04 JUMPI POP PUSH1 0x0 SLOAD PUSH12 0xFFFFFFFFFFFFFFFFFFFFFFFF AND DUP3 SWAP1 SUB PUSH2 0x3F08 JUMP JUMPDEST POP PUSH1 0x0 JUMPDEST PUSH1 0x0 SLOAD PUSH8 0xDE0B6B3A7640000 PUSH8 0xFFFFFFFFFFFFFFFF PUSH25 0x1000000000000000000000000000000000000000000000000 DUP4 DIV AND SWAP6 SWAP1 SWAP6 MUL SWAP5 SWAP1 SWAP5 DIV PUSH13 0x1000000000000000000000000 SWAP1 SWAP5 DIV PUSH12 0xFFFFFFFFFFFFFFFFFFFFFFFF AND ADD SWAP3 SWAP1 SWAP3 ADD SWAP3 SWAP2 POP POP JUMP JUMPDEST PUSH20 0xFFFFFFFFFFFFFFFFFFFFFFFFFFFFFFFFFFFFFFFF DUP3 AND PUSH2 0x3FBC JUMPI PUSH1 0x40 MLOAD PUSH32 0xEC442F0500000000000000000000000000000000000000000000000000000000 DUP2 MSTORE PUSH1 0x0 PUSH1 0x4 DUP3 ADD MSTORE PUSH1 0x24 ADD PUSH2 0x948 JUMP JUMPDEST PUSH2 0x10EE PUSH1 0x0 DUP4 DUP4 PUSH2 0x3D24 JUMP JUMPDEST PUSH1 0x0 PUSH2 0x400F DUP4 PUSH8 0xDE0B6B3A7640000 PUSH2 0x3265 PUSH12 0xFFFFFFFFFFFFFFFFFFFFFFFF PUSH32 0x0 AND DUP7 PUSH2 0x51AD JUMP JUMPDEST SWAP1 POP PUSH2 0xFD2 ADDRESS DUP3 PUSH2 0x3F6C JUMP JUMPDEST PUSH8 0xFFFFFFFFFFFFFFFF DUP3 AND PUSH1 0x0 SWAP1 DUP2 MSTORE PUSH1 0x7 PUSH1 0x20 MSTORE PUSH1 0x40 SWAP1 KECCAK256 PUSH1 0x3 ADD SLOAD PUSH4 0xFFFFFFFF PUSH25 0x1000000000000000000000000000000000000000000000000 SWAP1 SWAP2 DIV AND PUSH1 0x1 EQ PUSH2 0x4066 JUMPI POP POP JUMP JUMPDEST PUSH8 0xFFFFFFFFFFFFFFFF DUP3 AND PUSH1 0x0 SWAP1 DUP2 MSTORE PUSH1 0x7 PUSH1 0x20 MSTORE PUSH1 0x40 SWAP1 KECCAK256 DUP1 SLOAD PUSH1 0x3 SLOAD PUSH12 0xFFFFFFFFFFFFFFFFFFFFFFFF SWAP1 SWAP2 AND SWAP1 DUP2 GT ISZERO PUSH2 0x40A4 JUMPI PUSH2 0x40A4 PUSH2 0x5357 JUMP JUMPDEST PUSH1 0x3 DUP1 SLOAD PUSH12 0xFFFFFFFFFFFFFFFFFFFFFFFF DUP4 AND SWAP1 DUP2 SWAP1 SUB DUP3 SSTORE PUSH1 0x5 DUP1 SLOAD SWAP1 SWAP2 ADD SWAP1 SSTORE PUSH1 0x4 DUP4 ADD DUP1 SLOAD PUSH32 0xFFFFFFFFFFFFFFFFFFFFFFFFFFFFFFFFFFFFFFFFFFFFFFFFFFFFFFFF00000000 AND PUSH2 0xFFFF DUP7 AND PUSH1 0x1 ADD PUSH4 0xFFFFFFFF DUP2 DUP2 AND SWAP3 DUP4 OR SWAP1 SWAP4 SSTORE SWAP3 DUP6 ADD SLOAD PUSH21 0x10000000000000000000000000000000000000000 SWAP1 DIV SWAP1 SWAP2 AND LT PUSH2 0x4136 JUMPI PUSH2 0x4131 DUP4 PUSH2 0x4529 JUMP JUMPDEST PUSH2 0x2541 JUMP JUMPDEST PUSH2 0x2541 DUP4 PUSH2 0x47A3 JUMP JUMPDEST PUSH20 0xFFFFFFFFFFFFFFFFFFFFFFFFFFFFFFFFFFFFFFFF DUP5 AND PUSH2 0x418F JUMPI PUSH1 0x40 MLOAD PUSH32 0xE602DF0500000000000000000000000000000000000000000000000000000000 DUP2 MSTORE PUSH1 0x0 PUSH1 0x4 DUP3 ADD MSTORE PUSH1 0x24 ADD PUSH2 0x948 JUMP JUMPDEST PUSH20 0xFFFFFFFFFFFFFFFFFFFFFFFFFFFFFFFFFFFFFFFF DUP4 AND PUSH2 0x41DF JUMPI PUSH1 0x40 MLOAD PUSH32 0x94280D6200000000000000000000000000000000000000000000000000000000 DUP2 MSTORE PUSH1 0x0 PUSH1 0x4 DUP3 ADD MSTORE PUSH1 0x24 ADD PUSH2 0x948 JUMP JUMPDEST PUSH20 0xFFFFFFFFFFFFFFFFFFFFFFFFFFFFFFFFFFFFFFFF DUP1 DUP6 AND PUSH1 0x0 SWAP1 DUP2 MSTORE PUSH1 0xA PUSH1 0x20 SWAP1 DUP2 MSTORE PUSH1 0x40 DUP1 DUP4 KECCAK256 SWAP4 DUP8 AND DUP4 MSTORE SWAP3 SWAP1 MSTORE KECCAK256 DUP3 SWAP1 SSTORE DUP1 ISZERO PUSH2 0x3691 JUMPI DUP3 PUSH20 0xFFFFFFFFFFFFFFFFFFFFFFFFFFFFFFFFFFFFFFFF AND DUP5 PUSH20 0xFFFFFFFFFFFFFFFFFFFFFFFFFFFFFFFFFFFFFFFF AND PUSH32 0x8C5BE1E5EBEC7D5BD14F71427D1E84F3DD0314C0F7B2291E5B200AC8C7C3B925 DUP5 PUSH1 0x40 MLOAD PUSH2 0x4279 SWAP2 DUP2 MSTORE PUSH1 0x20 ADD SWAP1 JUMP JUMPDEST PUSH1 0x40 MLOAD DUP1 SWAP2 SUB SWAP1 LOG3 POP POP POP POP JUMP JUMPDEST PUSH1 0x60 PUSH1 0xFF DUP4 EQ PUSH2 0x429A JUMPI PUSH2 0x2FD0 DUP4 PUSH2 0x4868 JUMP JUMPDEST DUP2 DUP1 SLOAD PUSH2 0x42A6 SWAP1 PUSH2 0x5058 JUMP JUMPDEST DUP1 PUSH1 0x1F ADD PUSH1 0x20 DUP1 SWAP2 DIV MUL PUSH1 0x20 ADD PUSH1 0x40 MLOAD SWAP1 DUP2 ADD PUSH1 0x40 MSTORE DUP1 SWAP3 SWAP2 SWAP1 DUP2 DUP2 MSTORE PUSH1 0x20 ADD DUP3 DUP1 SLOAD PUSH2 0x42D2 SWAP1 PUSH2 0x5058 JUMP JUMPDEST DUP1 ISZERO PUSH2 0x431F JUMPI DUP1 PUSH1 0x1F LT PUSH2 0x42F4 JUMPI PUSH2 0x100 DUP1 DUP4 SLOAD DIV MUL DUP4 MSTORE SWAP2 PUSH1 0x20 ADD SWAP2 PUSH2 0x431F JUMP JUMPDEST DUP3 ADD SWAP2 SWAP1 PUSH1 0x0 MSTORE PUSH1 0x20 PUSH1 0x0 KECCAK256 SWAP1 JUMPDEST DUP2 SLOAD DUP2 MSTORE SWAP1 PUSH1 0x1 ADD SWAP1 PUSH1 0x20 ADD DUP1 DUP4 GT PUSH2 0x4302 JUMPI DUP3 SWAP1 SUB PUSH1 0x1F AND DUP3 ADD SWAP2 JUMPDEST POP POP POP POP POP SWAP1 POP PUSH2 0xFD2 JUMP JUMPDEST PUSH1 0x0 DUP1 DUP1 PUSH32 0x7FFFFFFFFFFFFFFFFFFFFFFFFFFFFFFF5D576E7357A4501DDFE92F46681B20A0 DUP5 GT ISZERO PUSH2 0x4366 JUMPI POP PUSH1 0x0 SWAP2 POP PUSH1 0x3 SWAP1 POP DUP3 PUSH2 0x441B JUMP JUMPDEST PUSH1 0x40 DUP1 MLOAD PUSH1 0x0 DUP1 DUP3 MSTORE PUSH1 0x20 DUP3 ADD DUP1 DUP5 MSTORE DUP11 SWAP1 MSTORE PUSH1 0xFF DUP10 AND SWAP3 DUP3 ADD SWAP3 SWAP1 SWAP3 MSTORE PUSH1 0x60 DUP2 ADD DUP8 SWAP1 MSTORE PUSH1 0x80 DUP2 ADD DUP7 SWAP1 MSTORE PUSH1 0x1 SWAP1 PUSH1 0xA0 ADD PUSH1 0x20 PUSH1 0x40 MLOAD PUSH1 0x20 DUP2 SUB SWAP1 DUP1 DUP5 SUB SWAP1 DUP6 GAS STATICCALL ISZERO DUP1 ISZERO PUSH2 0x43BA JUMPI RETURNDATASIZE PUSH1 0x0 DUP1 RETURNDATACOPY RETURNDATASIZE PUSH1 0x0 REVERT JUMPDEST POP POP PUSH1 0x40 MLOAD PUSH32 0xFFFFFFFFFFFFFFFFFFFFFFFFFFFFFFFFFFFFFFFFFFFFFFFFFFFFFFFFFFFFFFE0 ADD MLOAD SWAP2 POP POP PUSH20 0xFFFFFFFFFFFFFFFFFFFFFFFFFFFFFFFFFFFFFFFF DUP2 AND PUSH2 0x4411 JUMPI POP PUSH1 0x0 SWAP3 POP PUSH1 0x1 SWAP2 POP DUP3 SWAP1 POP PUSH2 0x441B JUMP JUMPDEST SWAP3 POP PUSH1 0x0 SWAP2 POP DUP2 SWAP1 POP JUMPDEST SWAP5 POP SWAP5 POP SWAP5 SWAP2 POP POP JUMP JUMPDEST PUSH1 0x0 DUP3 PUSH1 0x3 DUP2 GT ISZERO PUSH2 0x4439 JUMPI PUSH2 0x4439 PUSH2 0x5386 JUMP JUMPDEST SUB PUSH2 0x4442 JUMPI POP POP JUMP JUMPDEST PUSH1 0x1 DUP3 PUSH1 0x3 DUP2 GT ISZERO PUSH2 0x4456 JUMPI PUSH2 0x4456 PUSH2 0x5386 JUMP JUMPDEST SUB PUSH2 0x448D JUMPI PUSH1 0x40 MLOAD PUSH32 0xF645EEDF00000000000000000000000000000000000000000000000000000000 DUP2 MSTORE PUSH1 0x4 ADD PUSH1 0x40 MLOAD DUP1 SWAP2 SUB SWAP1 REVERT JUMPDEST PUSH1 0x2 DUP3 PUSH1 0x3 DUP2 GT ISZERO PUSH2 0x44A1 JUMPI PUSH2 0x44A1 PUSH2 0x5386 JUMP JUMPDEST SUB PUSH2 0x44DB JUMPI PUSH1 0x40 MLOAD PUSH32 0xFCE698F700000000000000000000000000000000000000000000000000000000 DUP2 MSTORE PUSH1 0x4 DUP2 ADD DUP3 SWAP1 MSTORE PUSH1 0x24 ADD PUSH2 0x948 JUMP JUMPDEST PUSH1 0x3 DUP3 PUSH1 0x3 DUP2 GT ISZERO PUSH2 0x44EF JUMPI PUSH2 0x44EF PUSH2 0x5386 JUMP JUMPDEST SUB PUSH2 0x10EE JUMPI PUSH1 0x40 MLOAD PUSH32 0xD78BCE0C00000000000000000000000000000000000000000000000000000000 DUP2 MSTORE PUSH1 0x4 DUP2 ADD DUP3 SWAP1 MSTORE PUSH1 0x24 ADD PUSH2 0x948 JUMP JUMPDEST PUSH1 0x3 DUP2 ADD DUP1 SLOAD PUSH32 0xFFFFFFFF00000000FFFFFFFFFFFFFFFFFFFFFFFFFFFFFFFFFFFFFFFFFFFFFFFF AND PUSH25 0x2000000000000000000000000000000000000000000000000 OR SWAP1 SSTORE PUSH1 0x1 DUP2 ADD SLOAD DUP2 SLOAD PUSH1 0x0 SWAP2 PUSH8 0xDE0B6B3A7640000 SWAP2 PUSH13 0x1000000000000000000000000 SWAP1 SWAP2 DIV PUSH12 0xFFFFFFFFFFFFFFFFFFFFFFFF SWAP1 DUP2 AND SWAP2 AND MUL DIV SWAP1 POP PUSH1 0x0 PUSH2 0x45B4 DUP4 PUSH2 0x48A7 JUMP JUMPDEST SWAP1 POP PUSH2 0x45C0 ADDRESS DUP3 PUSH2 0x3F6C JUMP JUMPDEST PUSH1 0x5 SLOAD DUP3 LT ISZERO PUSH2 0x4642 JUMPI PUSH1 0x5 DUP1 SLOAD DUP4 SWAP1 SUB SWAP1 SSTORE PUSH1 0x4 DUP4 ADD DUP1 SLOAD PUSH32 0xFFFFFFFFFFFFFFFFFFFFFFFFFFFFFFFF000000000000000000000000FFFFFFFF AND PUSH5 0x100000000 PUSH12 0xFFFFFFFFFFFFFFFFFFFFFFFF DUP6 AND MUL OR SWAP1 SSTORE PUSH2 0x461D DUP4 PUSH2 0x3A61 JUMP JUMPDEST PUSH1 0x3 DUP4 ADD SLOAD PUSH2 0x3691 SWAP1 PUSH20 0xFFFFFFFFFFFFFFFFFFFFFFFFFFFFFFFFFFFFFFFF AND DUP4 PUSH2 0x3B82 JUMP JUMPDEST DUP3 SLOAD PUSH1 0x5 DUP1 SLOAD PUSH12 0xFFFFFFFFFFFFFFFFFFFFFFFF SWAP3 DUP4 AND SWAP1 DUP2 SWAP1 SUB SWAP1 SWAP2 SSTORE PUSH1 0x2 DUP6 ADD SLOAD PUSH1 0x1 DUP7 ADD SLOAD SWAP2 SWAP3 PUSH1 0x0 SWAP3 PUSH2 0x46B1 SWAP3 PUSH25 0x1000000000000000000000000000000000000000000000000 SWAP1 DIV PUSH8 0xFFFFFFFFFFFFFFFF AND SWAP2 DUP6 SWAP2 PUSH13 0x1000000000000000000000000 SWAP1 DIV AND PUSH2 0x4953 JUMP JUMPDEST PUSH1 0x3 DUP7 ADD SLOAD SWAP1 SWAP2 POP PUSH2 0x46D9 SWAP1 PUSH20 0xFFFFFFFFFFFFFFFFFFFFFFFFFFFFFFFFFFFFFFFF AND DUP3 PUSH2 0x3F6C JUMP JUMPDEST PUSH1 0x4 DUP6 ADD DUP1 SLOAD PUSH32 0xFFFFFFFF000000000000000000000000FFFFFFFFFFFFFFFFFFFFFFFFFFFFFFFF AND PUSH17 0x100000000000000000000000000000000 PUSH12 0xFFFFFFFFFFFFFFFFFFFFFFFF DUP5 DUP2 AND SWAP2 SWAP1 SWAP2 MUL SWAP2 SWAP1 SWAP2 OR SWAP1 SWAP2 SSTORE PUSH1 0x5 DUP7 ADD DUP1 SLOAD PUSH32 0xFFFFFFFFFFFFFFFFFFFFFFFFFFFFFFFFFFFFFFFF000000000000000000000000 AND SWAP2 DUP5 AND SWAP2 SWAP1 SWAP2 OR SWAP1 SSTORE PUSH2 0x4768 DUP6 PUSH2 0x3A61 JUMP JUMPDEST PUSH1 0x3 DUP6 ADD SLOAD PUSH2 0x479B SWAP1 PUSH20 0xFFFFFFFFFFFFFFFFFFFFFFFFFFFFFFFFFFFFFFFF AND PUSH12 0xFFFFFFFFFFFFFFFFFFFFFFFF DUP5 AND PUSH2 0x3B82 JUMP JUMPDEST POP POP POP POP POP POP JUMP JUMPDEST PUSH1 0x3 DUP2 ADD DUP1 SLOAD PUSH32 0xFFFFFFFF00000000FFFFFFFFFFFFFFFFFFFFFFFFFFFFFFFFFFFFFFFFFFFFFFFF AND PUSH25 0x4000000000000000000000000000000000000000000000000 OR SWAP1 SSTORE PUSH1 0x0 PUSH2 0x47F3 DUP3 PUSH2 0x48A7 JUMP JUMPDEST PUSH1 0x4 DUP4 ADD DUP1 SLOAD PUSH32 0xFFFFFFFF000000000000000000000000FFFFFFFFFFFFFFFFFFFFFFFFFFFFFFFF AND PUSH17 0x100000000000000000000000000000000 PUSH12 0xFFFFFFFFFFFFFFFFFFFFFFFF DUP5 AND MUL OR SWAP1 SSTORE PUSH1 0x3 DUP4 ADD SLOAD SWAP1 SWAP2 POP PUSH2 0x32F0 SWAP1 PUSH20 0xFFFFFFFFFFFFFFFFFFFFFFFFFFFFFFFFFFFFFFFF AND DUP3 PUSH2 0x3F6C JUMP JUMPDEST PUSH1 0x60 PUSH1 0x0 PUSH2 0x4875 DUP4 PUSH2 0x49E3 JUMP JUMPDEST PUSH1 0x40 DUP1 MLOAD PUSH1 0x20 DUP1 DUP3 MSTORE DUP2 DUP4 ADD SWAP1 SWAP3 MSTORE SWAP2 SWAP3 POP PUSH1 0x0 SWAP2 SWAP1 PUSH1 0x20 DUP3 ADD DUP2 DUP1 CALLDATASIZE DUP4 CALLDATACOPY POP POP POP SWAP2 DUP3 MSTORE POP PUSH1 0x20 DUP2 ADD SWAP3 SWAP1 SWAP3 MSTORE POP SWAP1 JUMP JUMPDEST DUP1 SLOAD PUSH1 0x1 DUP3 ADD SLOAD PUSH1 0x2 DUP4 ADD SLOAD PUSH1 0x0 SWAP3 PUSH8 0xDE0B6B3A7640000 PUSH12 0xFFFFFFFFFFFFFFFFFFFFFFFF DUP1 DUP4 AND PUSH8 0xFFFFFFFFFFFFFFFF PUSH25 0x1000000000000000000000000000000000000000000000000 SWAP7 DUP8 SWAP1 DIV DUP2 AND SWAP2 SWAP1 SWAP2 MUL DUP4 SWAP1 DIV PUSH13 0x1000000000000000000000000 DUP1 DUP8 DIV DUP5 AND SWAP6 DIV DUP4 AND SWAP5 SWAP1 SWAP5 ADD SWAP4 SWAP1 SWAP4 ADD SWAP5 PUSH2 0x1193 SWAP5 DIV SWAP1 SWAP3 AND SWAP2 PUSH32 0x0 AND DUP5 MUL JUMPDEST DIV PUSH2 0x3CC5 JUMP JUMPDEST PUSH1 0x0 PUSH8 0xDE0B6B3A7640000 DUP3 GT PUSH2 0x496C JUMPI POP PUSH1 0x0 PUSH2 0x1193 JUMP JUMPDEST PUSH32 0xFFFFFFFFFFFFFFFFFFFFFFFFFFFFFFFFFFFFFFFFFFFFFFFFF21F494C589C0000 DUP3 ADD PUSH1 0x0 PUSH8 0xDE0B6B3A7640000 DUP6 DUP4 MUL DIV SWAP1 POP PUSH2 0x3129 DUP7 PUSH8 0xDE0B6B3A7640000 PUSH12 0xFFFFFFFFFFFFFFFFFFFFFFFF PUSH32 0x0 AND DUP5 MUL PUSH2 0x494D JUMP JUMPDEST PUSH1 0x0 PUSH1 0xFF DUP3 AND PUSH1 0x1F DUP2 GT ISZERO PUSH2 0xFD2 JUMPI PUSH1 0x40 MLOAD PUSH32 0xB3512B0C00000000000000000000000000000000000000000000000000000000 DUP2 MSTORE PUSH1 0x4 ADD PUSH1 0x40 MLOAD DUP1 SWAP2 SUB SWAP1 REVERT JUMPDEST PUSH1 0x0 DUP2 MLOAD DUP1 DUP5 MSTORE PUSH1 0x0 JUMPDEST DUP2 DUP2 LT ISZERO PUSH2 0x4A4A JUMPI PUSH1 0x20 DUP2 DUP6 ADD DUP2 ADD MLOAD DUP7 DUP4 ADD DUP3 ADD MSTORE ADD PUSH2 0x4A2E JUMP JUMPDEST POP PUSH1 0x0 PUSH1 0x20 DUP3 DUP7 ADD ADD MSTORE PUSH1 0x20 PUSH32 0xFFFFFFFFFFFFFFFFFFFFFFFFFFFFFFFFFFFFFFFFFFFFFFFFFFFFFFFFFFFFFFE0 PUSH1 0x1F DUP4 ADD AND DUP6 ADD ADD SWAP2 POP POP SWAP3 SWAP2 POP POP JUMP JUMPDEST PUSH1 0x20 DUP2 MSTORE PUSH1 0x0 PUSH2 0x1193 PUSH1 0x20 DUP4 ADD DUP5 PUSH2 0x4A24 JUMP JUMPDEST DUP1 CALLDATALOAD PUSH20 0xFFFFFFFFFFFFFFFFFFFFFFFFFFFFFFFFFFFFFFFF DUP2 AND DUP2 EQ PUSH2 0x4ABF JUMPI PUSH1 0x0 DUP1 REVERT JUMPDEST SWAP2 SWAP1 POP JUMP JUMPDEST PUSH1 0x0 DUP1 PUSH1 0x40 DUP4 DUP6 SUB SLT ISZERO PUSH2 0x4AD7 JUMPI PUSH1 0x0 DUP1 REVERT JUMPDEST PUSH2 0x4AE0 DUP4 PUSH2 0x4A9B JUMP JUMPDEST SWAP5 PUSH1 0x20 SWAP4 SWAP1 SWAP4 ADD CALLDATALOAD SWAP4 POP POP POP JUMP JUMPDEST PUSH1 0x0 DUP1 PUSH1 0x0 PUSH1 0x60 DUP5 DUP7 SUB SLT ISZERO PUSH2 0x4B03 JUMPI PUSH1 0x0 DUP1 REVERT JUMPDEST PUSH2 0x4B0C DUP5 PUSH2 0x4A9B JUMP JUMPDEST SWAP3 POP PUSH2 0x4B1A PUSH1 0x20 DUP6 ADD PUSH2 0x4A9B JUMP JUMPDEST SWAP2 POP PUSH1 0x40 DUP5 ADD CALLDATALOAD SWAP1 POP SWAP3 POP SWAP3 POP SWAP3 JUMP JUMPDEST DUP1 CALLDATALOAD PUSH12 0xFFFFFFFFFFFFFFFFFFFFFFFF DUP2 AND DUP2 EQ PUSH2 0x4ABF JUMPI PUSH1 0x0 DUP1 REVERT JUMPDEST PUSH1 0x0 PUSH1 0x20 DUP3 DUP5 SUB SLT ISZERO PUSH2 0x4B58 JUMPI PUSH1 0x0 DUP1 REVERT JUMPDEST PUSH2 0x1193 DUP3 PUSH2 0x4B2A JUMP JUMPDEST PUSH1 0x0 PUSH1 0x20 DUP3 DUP5 SUB SLT ISZERO PUSH2 0x4B73 JUMPI PUSH1 0x0 DUP1 REVERT JUMPDEST POP CALLDATALOAD SWAP2 SWAP1 POP JUMP JUMPDEST PUSH1 0x0 PUSH1 0x20 DUP3 DUP5 SUB SLT ISZERO PUSH2 0x4B8C JUMPI PUSH1 0x0 DUP1 REVERT JUMPDEST PUSH2 0x1193 DUP3 PUSH2 0x4A9B JUMP JUMPDEST DUP1 CALLDATALOAD PUSH8 0xFFFFFFFFFFFFFFFF DUP2 AND DUP2 EQ PUSH2 0x4ABF JUMPI PUSH1 0x0 DUP1 REVERT JUMPDEST DUP1 CALLDATALOAD DUP1 ISZERO ISZERO DUP2 EQ PUSH2 0x4ABF JUMPI PUSH1 0x0 DUP1 REVERT JUMPDEST PUSH1 0x0 DUP1 PUSH1 0x0 PUSH1 0x60 DUP5 DUP7 SUB SLT ISZERO PUSH2 0x4BD2 JUMPI PUSH1 0x0 DUP1 REVERT JUMPDEST PUSH2 0x4BDB DUP5 PUSH2 0x4B95 JUMP JUMPDEST SWAP3 POP PUSH2 0x4BE9 PUSH1 0x20 DUP6 ADD PUSH2 0x4B95 JUMP JUMPDEST SWAP2 POP PUSH2 0x4BF7 PUSH1 0x40 DUP6 ADD PUSH2 0x4BAD JUMP JUMPDEST SWAP1 POP SWAP3 POP SWAP3 POP SWAP3 JUMP JUMPDEST DUP1 MLOAD PUSH12 0xFFFFFFFFFFFFFFFFFFFFFFFF AND DUP3 MSTORE PUSH1 0x20 DUP2 ADD MLOAD PUSH2 0x4C31 PUSH1 0x20 DUP5 ADD DUP3 PUSH12 0xFFFFFFFFFFFFFFFFFFFFFFFF AND SWAP1 MSTORE JUMP JUMPDEST POP PUSH1 0x40 DUP2 ADD MLOAD PUSH2 0x4C4D PUSH1 0x40 DUP5 ADD DUP3 PUSH8 0xFFFFFFFFFFFFFFFF AND SWAP1 MSTORE JUMP JUMPDEST POP PUSH1 0x60 DUP2 ADD MLOAD PUSH2 0x4C6D PUSH1 0x60 DUP5 ADD DUP3 PUSH12 0xFFFFFFFFFFFFFFFFFFFFFFFF AND SWAP1 MSTORE JUMP JUMPDEST POP PUSH1 0x80 DUP2 ADD MLOAD PUSH2 0x4C8D PUSH1 0x80 DUP5 ADD DUP3 PUSH12 0xFFFFFFFFFFFFFFFFFFFFFFFF AND SWAP1 MSTORE JUMP JUMPDEST POP PUSH1 0xA0 DUP2 ADD MLOAD PUSH2 0x4CA9 PUSH1 0xA0 DUP5 ADD DUP3 PUSH8 0xFFFFFFFFFFFFFFFF AND SWAP1 MSTORE JUMP JUMPDEST POP PUSH1 0xC0 DUP2 ADD MLOAD PUSH2 0x4CC9 PUSH1 0xC0 DUP5 ADD DUP3 PUSH12 0xFFFFFFFFFFFFFFFFFFFFFFFF AND SWAP1 MSTORE JUMP JUMPDEST POP PUSH1 0xE0 DUP2 ADD MLOAD PUSH2 0x4CE9 PUSH1 0xE0 DUP5 ADD DUP3 PUSH12 0xFFFFFFFFFFFFFFFFFFFFFFFF AND SWAP1 MSTORE JUMP JUMPDEST POP PUSH2 0x100 DUP2 DUP2 ADD MLOAD PUSH8 0xFFFFFFFFFFFFFFFF AND SWAP1 DUP4 ADD MSTORE PUSH2 0x120 DUP1 DUP3 ADD MLOAD PUSH20 0xFFFFFFFFFFFFFFFFFFFFFFFFFFFFFFFFFFFFFFFF AND SWAP1 DUP4 ADD MSTORE PUSH2 0x140 DUP1 DUP3 ADD MLOAD PUSH4 0xFFFFFFFF SWAP1 DUP2 AND SWAP2 DUP5 ADD SWAP2 SWAP1 SWAP2 MSTORE PUSH2 0x160 DUP1 DUP4 ADD MLOAD DUP3 AND SWAP1 DUP5 ADD MSTORE PUSH2 0x180 DUP1 DUP4 ADD MLOAD DUP1 MLOAD SWAP1 SWAP3 AND DUP2 DUP6 ADD MSTORE PUSH1 0x20 DUP3 ADD MLOAD PUSH12 0xFFFFFFFFFFFFFFFFFFFFFFFF SWAP1 DUP2 AND PUSH2 0x1A0 DUP7 ADD MSTORE PUSH1 0x40 DUP4 ADD MLOAD DUP2 AND PUSH2 0x1C0 DUP7 ADD MSTORE PUSH1 0x60 DUP4 ADD MLOAD AND PUSH2 0x1E0 DUP6 ADD MSTORE SWAP1 PUSH2 0x3691 JUMP JUMPDEST PUSH1 0x20 DUP1 DUP3 MSTORE DUP3 MLOAD DUP3 DUP3 ADD DUP2 SWAP1 MSTORE PUSH1 0x0 SWAP2 SWAP1 DUP5 DUP3 ADD SWAP1 PUSH1 0x40 DUP6 ADD SWAP1 DUP5 JUMPDEST DUP2 DUP2 LT ISZERO PUSH2 0x3A08 JUMPI PUSH2 0x4DBC DUP4 DUP6 MLOAD PUSH2 0x4C00 JUMP JUMPDEST SWAP3 DUP5 ADD SWAP3 PUSH2 0x200 SWAP3 SWAP1 SWAP3 ADD SWAP2 PUSH1 0x1 ADD PUSH2 0x4DA9 JUMP JUMPDEST PUSH32 0xFF00000000000000000000000000000000000000000000000000000000000000 DUP9 AND DUP2 MSTORE PUSH1 0x0 PUSH1 0x20 PUSH1 0xE0 PUSH1 0x20 DUP5 ADD MSTORE PUSH2 0x4E0D PUSH1 0xE0 DUP5 ADD DUP11 PUSH2 0x4A24 JUMP JUMPDEST DUP4 DUP2 SUB PUSH1 0x40 DUP6 ADD MSTORE PUSH2 0x4E1F DUP2 DUP11 PUSH2 0x4A24 JUMP JUMPDEST PUSH1 0x60 DUP6 ADD DUP10 SWAP1 MSTORE PUSH20 0xFFFFFFFFFFFFFFFFFFFFFFFFFFFFFFFFFFFFFFFF DUP9 AND PUSH1 0x80 DUP7 ADD MSTORE PUSH1 0xA0 DUP6 ADD DUP8 SWAP1 MSTORE DUP5 DUP2 SUB PUSH1 0xC0 DUP7 ADD MSTORE DUP6 MLOAD DUP1 DUP3 MSTORE PUSH1 0x20 DUP1 DUP9 ADD SWAP4 POP SWAP1 SWAP2 ADD SWAP1 PUSH1 0x0 JUMPDEST DUP2 DUP2 LT ISZERO PUSH2 0x4E80 JUMPI DUP4 MLOAD DUP4 MSTORE SWAP3 DUP5 ADD SWAP3 SWAP2 DUP5 ADD SWAP2 PUSH1 0x1 ADD PUSH2 0x4E64 JUMP JUMPDEST POP SWAP1 SWAP13 SWAP12 POP POP POP POP POP POP POP POP POP POP POP POP JUMP JUMPDEST PUSH1 0x0 PUSH1 0x20 DUP3 DUP5 SUB SLT ISZERO PUSH2 0x4EA4 JUMPI PUSH1 0x0 DUP1 REVERT JUMPDEST PUSH2 0x1193 DUP3 PUSH2 0x4B95 JUMP JUMPDEST PUSH2 0x200 DUP2 ADD PUSH2 0xFD2 DUP3 DUP5 PUSH2 0x4C00 JUMP JUMPDEST DUP1 CALLDATALOAD PUSH1 0xFF DUP2 AND DUP2 EQ PUSH2 0x4ABF JUMPI PUSH1 0x0 DUP1 REVERT JUMPDEST PUSH1 0x0 DUP1 PUSH1 0x0 DUP1 PUSH1 0x0 DUP1 PUSH1 0x0 PUSH1 0xE0 DUP9 DUP11 SUB SLT ISZERO PUSH2 0x4EE8 JUMPI PUSH1 0x0 DUP1 REVERT JUMPDEST PUSH2 0x4EF1 DUP9 PUSH2 0x4A9B JUMP JUMPDEST SWAP7 POP PUSH2 0x4EFF PUSH1 0x20 DUP10 ADD PUSH2 0x4A9B JUMP JUMPDEST SWAP6 POP PUSH1 0x40 DUP9 ADD CALLDATALOAD SWAP5 POP PUSH1 0x60 DUP9 ADD CALLDATALOAD SWAP4 POP PUSH2 0x4F1B PUSH1 0x80 DUP10 ADD PUSH2 0x4EBC JUMP JUMPDEST SWAP3 POP PUSH1 0xA0 DUP9 ADD CALLDATALOAD SWAP2 POP PUSH1 0xC0 DUP9 ADD CALLDATALOAD SWAP1 POP SWAP3 SWAP6 SWAP9 SWAP2 SWAP5 SWAP8 POP SWAP3 SWAP6 POP JUMP JUMPDEST PUSH1 0x0 DUP1 PUSH1 0x40 DUP4 DUP6 SUB SLT ISZERO PUSH2 0x4F4A JUMPI PUSH1 0x0 DUP1 REVERT JUMPDEST PUSH2 0x4F53 DUP4 PUSH2 0x4A9B JUMP JUMPDEST SWAP2 POP PUSH2 0x4F61 PUSH1 0x20 DUP5 ADD PUSH2 0x4A9B JUMP JUMPDEST SWAP1 POP SWAP3 POP SWAP3 SWAP1 POP JUMP JUMPDEST PUSH1 0x0 DUP1 PUSH1 0x0 DUP1 PUSH1 0x80 DUP6 DUP8 SUB SLT ISZERO PUSH2 0x4F80 JUMPI PUSH1 0x0 DUP1 REVERT JUMPDEST PUSH2 0x4F89 DUP6 PUSH2 0x4A9B JUMP JUMPDEST SWAP4 POP PUSH2 0x4F97 PUSH1 0x20 DUP7 ADD PUSH2 0x4B95 JUMP JUMPDEST SWAP3 POP PUSH2 0x4FA5 PUSH1 0x40 DUP7 ADD PUSH2 0x4B95 JUMP JUMPDEST SWAP2 POP PUSH2 0x4FB3 PUSH1 0x60 DUP7 ADD PUSH2 0x4BAD JUMP JUMPDEST SWAP1 POP SWAP3 SWAP6 SWAP2 SWAP5 POP SWAP3 POP JUMP JUMPDEST PUSH1 0x0 DUP1 PUSH1 0x0 DUP1 PUSH1 0x0 PUSH1 0xA0 DUP7 DUP9 SUB SLT ISZERO PUSH2 0x4FD6 JUMPI PUSH1 0x0 DUP1 REVERT JUMPDEST PUSH2 0x4FDF DUP7 PUSH2 0x4B2A JUMP JUMPDEST SWAP5 POP PUSH2 0x4FED PUSH1 0x20 DUP8 ADD PUSH2 0x4B2A JUMP JUMPDEST SWAP4 POP PUSH2 0x4FFB PUSH1 0x40 DUP8 ADD PUSH2 0x4B95 JUMP JUMPDEST SWAP3 POP PUSH1 0x60 DUP7 ADD CALLDATALOAD PUSH4 0xFFFFFFFF DUP2 AND DUP2 EQ PUSH2 0x5014 JUMPI PUSH1 0x0 DUP1 REVERT JUMPDEST SWAP2 POP PUSH2 0x5022 PUSH1 0x80 DUP8 ADD PUSH2 0x4EBC JUMP JUMPDEST SWAP1 POP SWAP3 SWAP6 POP SWAP3 SWAP6 SWAP1 SWAP4 POP JUMP JUMPDEST PUSH1 0x0 DUP1 PUSH1 0x40 DUP4 DUP6 SUB SLT ISZERO PUSH2 0x5041 JUMPI PUSH1 0x0 DUP1 REVERT JUMPDEST PUSH2 0x504A DUP4 PUSH2 0x4B2A JUMP JUMPDEST SWAP2 POP PUSH2 0x4F61 PUSH1 0x20 DUP5 ADD PUSH2 0x4B2A JUMP JUMPDEST PUSH1 0x1 DUP2 DUP2 SHR SWAP1 DUP3 AND DUP1 PUSH2 0x506C JUMPI PUSH1 0x7F DUP3 AND SWAP2 POP JUMPDEST PUSH1 0x20 DUP3 LT DUP2 SUB PUSH2 0x50A5 JUMPI PUSH32 0x4E487B7100000000000000000000000000000000000000000000000000000000 PUSH1 0x0 MSTORE PUSH1 0x22 PUSH1 0x4 MSTORE PUSH1 0x24 PUSH1 0x0 REVERT JUMPDEST POP SWAP2 SWAP1 POP JUMP JUMPDEST PUSH32 0x4E487B7100000000000000000000000000000000000000000000000000000000 PUSH1 0x0 MSTORE PUSH1 0x11 PUSH1 0x4 MSTORE PUSH1 0x24 PUSH1 0x0 REVERT JUMPDEST DUP2 DUP2 SUB DUP2 DUP2 GT ISZERO PUSH2 0xFD2 JUMPI PUSH2 0xFD2 PUSH2 0x50AB JUMP JUMPDEST PUSH32 0x4E487B7100000000000000000000000000000000000000000000000000000000 PUSH1 0x0 MSTORE PUSH1 0x41 PUSH1 0x4 MSTORE PUSH1 0x24 PUSH1 0x0 REVERT JUMPDEST PUSH8 0xFFFFFFFFFFFFFFFF DUP2 DUP2 AND DUP4 DUP3 AND ADD SWAP1 DUP1 DUP3 GT ISZERO PUSH2 0x513D JUMPI PUSH2 0x513D PUSH2 0x50AB JUMP JUMPDEST POP SWAP3 SWAP2 POP POP JUMP JUMPDEST PUSH8 0xFFFFFFFFFFFFFFFF DUP3 DUP2 AND DUP3 DUP3 AND SUB SWAP1 DUP1 DUP3 GT ISZERO PUSH2 0x513D JUMPI PUSH2 0x513D PUSH2 0x50AB JUMP JUMPDEST PUSH32 0x4E487B7100000000000000000000000000000000000000000000000000000000 PUSH1 0x0 MSTORE PUSH1 0x32 PUSH1 0x4 MSTORE PUSH1 0x24 PUSH1 0x0 REVERT JUMPDEST PUSH1 0x0 PUSH1 0x20 DUP3 DUP5 SUB SLT ISZERO PUSH2 0x51A6 JUMPI PUSH1 0x0 DUP1 REVERT JUMPDEST POP MLOAD SWAP2 SWAP1 POP JUMP JUMPDEST DUP1 DUP3 MUL DUP2 ISZERO DUP3 DUP3 DIV DUP5 EQ OR PUSH2 0xFD2 JUMPI PUSH2 0xFD2 PUSH2 0x50AB JUMP JUMPDEST PUSH32 0x4E487B7100000000000000000000000000000000000000000000000000000000 PUSH1 0x0 MSTORE PUSH1 0x12 PUSH1 0x4 MSTORE PUSH1 0x24 PUSH1 0x0 REVERT JUMPDEST PUSH1 0x0 DUP3 PUSH2 0x5229 JUMPI PUSH32 0x4E487B7100000000000000000000000000000000000000000000000000000000 PUSH1 0x0 MSTORE PUSH1 0x12 PUSH1 0x4 MSTORE PUSH1 0x24 PUSH1 0x0 REVERT JUMPDEST POP DIV SWAP1 JUMP JUMPDEST PUSH8 0xFFFFFFFFFFFFFFFF DUP2 DUP2 AND DUP4 DUP3 AND MUL DUP1 DUP3 AND SWAP2 SWAP1 DUP3 DUP2 EQ PUSH2 0x5252 JUMPI PUSH2 0x5252 PUSH2 0x50AB JUMP JUMPDEST POP POP SWAP3 SWAP2 POP POP JUMP JUMPDEST PUSH1 0x0 PUSH8 0xFFFFFFFFFFFFFFFF DUP1 DUP4 AND DUP2 DUP2 SUB PUSH2 0x5277 JUMPI PUSH2 0x5277 PUSH2 0x50AB JUMP JUMPDEST PUSH1 0x1 ADD SWAP4 SWAP3 POP POP POP JUMP JUMPDEST PUSH12 0xFFFFFFFFFFFFFFFFFFFFFFFF DUP3 DUP2 AND DUP3 DUP3 AND SUB SWAP1 DUP1 DUP3 GT ISZERO PUSH2 0x513D JUMPI PUSH2 0x513D PUSH2 0x50AB JUMP JUMPDEST DUP1 DUP3 ADD DUP1 DUP3 GT ISZERO PUSH2 0xFD2 JUMPI PUSH2 0xFD2 PUSH2 0x50AB JUMP JUMPDEST PUSH1 0x0 PUSH2 0x180 DUP3 ADD SWAP1 POP PUSH12 0xFFFFFFFFFFFFFFFFFFFFFFFF DUP1 DUP11 AND DUP4 MSTORE DUP1 DUP10 AND PUSH1 0x20 DUP5 ADD MSTORE DUP1 DUP9 AND PUSH1 0x40 DUP5 ADD MSTORE DUP1 DUP8 AND PUSH1 0x60 DUP5 ADD MSTORE PUSH4 0xFFFFFFFF DUP1 DUP8 AND PUSH1 0x80 DUP6 ADD MSTORE DUP6 SLOAD DUP2 DUP2 AND PUSH1 0xA0 DUP7 ADD MSTORE DUP3 DUP2 PUSH1 0x20 SHR AND PUSH1 0xC0 DUP7 ADD MSTORE DUP3 DUP2 PUSH1 0x80 SHR AND PUSH1 0xE0 DUP7 ADD MSTORE POP POP DUP1 PUSH1 0x1 DUP7 ADD SLOAD AND PUSH2 0x100 DUP5 ADD MSTORE POP PUSH2 0x534B PUSH2 0x120 DUP4 ADD DUP5 DUP1 MLOAD DUP3 MSTORE PUSH1 0x20 DUP1 DUP3 ADD MLOAD SWAP1 DUP4 ADD MSTORE PUSH1 0x40 SWAP1 DUP2 ADD MLOAD SWAP2 ADD MSTORE JUMP JUMPDEST SWAP9 SWAP8 POP POP POP POP POP POP POP POP JUMP JUMPDEST PUSH32 0x4E487B7100000000000000000000000000000000000000000000000000000000 PUSH1 0x0 MSTORE PUSH1 0x1 PUSH1 0x4 MSTORE PUSH1 0x24 PUSH1 0x0 REVERT JUMPDEST PUSH32 0x4E487B7100000000000000000000000000000000000000000000000000000000 PUSH1 0x0 MSTORE PUSH1 0x21 PUSH1 0x4 MSTORE PUSH1 0x24 PUSH1 0x0 REVERT INVALID LOG2 PUSH5 0x6970667358 0x22 SLT KECCAK256 PUSH12 0x64EBE1348B874105FE0D8C15 0x25 STOP BYTE ADDMOD DELEGATECALL PUSH26 0xCEC72CC62BB317FE1A381E7CA664736F6C634300081900330000 "
		},
		"gasEstimates": {
			"creation": {
				"codeDepositCost": "4296600",
				"executionCost": "infinite",
				"totalCost": "infinite"
			},
			"external": {
				"": "infinite",
				"DOMAIN_SEPARATOR()": "infinite",
				"allowance(address,address)": "infinite",
				"approve(address,uint256)": "24713",
				"balanceOf(address)": "2602",
				"burn(uint256)": "50899",
				"burnFrom(address,uint256)": "infinite",
				"claimCredit()": "infinite",
				"decimals()": "267",
				"defaultRandomSourceAddress()": "272",
				"eip712Domain()": "infinite",
				"getConfiguration()": "infinite",
				"getPlayerInfo(address)": "4764",
				"getRandomSource()": "2418",
				"getState()": "15347",
				"getSubmission(uint64)": "14972",
				"name()": "infinite",
				"nonces(address)": "2615",
				"owner()": "2375",
				"permit(address,address,uint256,uint256,uint8,bytes32,bytes32)": "infinite",
				"play(uint96)": "infinite",
				"playWithFee(uint96,uint96)": "infinite",
				"queryMySubmissions(uint64,uint64,bool)": "infinite",
				"queryPlayerSubmissions(address,uint64,uint64,bool)": "infinite",
				"querySubmissions(uint64,uint64,bool)": "infinite",
				"redeem(uint256)": "infinite",
				"refund(uint64)": "infinite",
				"renounceOwnership()": "infinite",
				"setConfiguration(uint96,uint96,uint64,uint32,uint8)": "infinite",
				"setRandomSource(address)": "infinite",
				"symbol()": "infinite",
				"totalSupply()": "2394",
				"transfer(address,uint256)": "51160",
				"transferFrom(address,address,uint256)": "infinite",
				"transferOwnership(address)": "28362",
				"updateTrasuryCoinsWithdrawAddress(address)": "30518",
				"withdrawTreasuryCoins(uint96)": "infinite",
				"withdrawTreasuryTokens(address,uint256)": "55161"
			},
			"internal": {
				"_requestRandom(uint64)": "infinite"
			}
		},
		"methodIdentifiers": {
			"DOMAIN_SEPARATOR()": "3644e515",
			"allowance(address,address)": "dd62ed3e",
			"approve(address,uint256)": "095ea7b3",
			"balanceOf(address)": "70a08231",
			"burn(uint256)": "42966c68",
			"burnFrom(address,uint256)": "79cc6790",
			"claimCredit()": "1333db2e",
			"decimals()": "313ce567",
			"defaultRandomSourceAddress()": "294fe942",
			"eip712Domain()": "84b0196e",
			"getConfiguration()": "6bd50cef",
			"getPlayerInfo(address)": "59328401",
			"getRandomSource()": "ce217048",
			"getState()": "1865c57d",
			"getSubmission(uint64)": "89b94cca",
			"name()": "06fdde03",
			"nonces(address)": "7ecebe00",
			"owner()": "8da5cb5b",
			"permit(address,address,uint256,uint256,uint8,bytes32,bytes32)": "d505accf",
			"play(uint96)": "621ad856",
			"playWithFee(uint96,uint96)": "fe585b7f",
			"queryMySubmissions(uint64,uint64,bool)": "ff2d9665",
			"queryPlayerSubmissions(address,uint64,uint64,bool)": "ed042c9b",
			"querySubmissions(uint64,uint64,bool)": "6142b027",
			"redeem(uint256)": "db006a75",
			"refund(uint64)": "d7194ccb",
			"renounceOwnership()": "715018a6",
			"setConfiguration(uint96,uint96,uint64,uint32,uint8)": "f516ec9f",
			"setRandomSource(address)": "d773826d",
			"symbol()": "95d89b41",
			"totalSupply()": "18160ddd",
			"transfer(address,uint256)": "a9059cbb",
			"transferFrom(address,address,uint256)": "23b872dd",
			"transferOwnership(address)": "f2fde38b",
			"updateTrasuryCoinsWithdrawAddress(address)": "4bd8ec5e",
			"withdrawTreasuryCoins(uint96)": "419bbb76",
			"withdrawTreasuryTokens(address,uint256)": "b63bdd54"
		}
	},
	"abi": [
		{
			"inputs": [
				{
					"internalType": "address",
					"name": "initialOwner",
					"type": "address"
				}
			],
			"stateMutability": "nonpayable",
			"type": "constructor"
		},
		{
			"inputs": [],
			"name": "ECDSAInvalidSignature",
			"type": "error"
		},
		{
			"inputs": [
				{
					"internalType": "uint256",
					"name": "length",
					"type": "uint256"
				}
			],
			"name": "ECDSAInvalidSignatureLength",
			"type": "error"
		},
		{
			"inputs": [
				{
					"internalType": "bytes32",
					"name": "s",
					"type": "bytes32"
				}
			],
			"name": "ECDSAInvalidSignatureS",
			"type": "error"
		},
		{
			"inputs": [
				{
					"internalType": "address",
					"name": "spender",
					"type": "address"
				},
				{
					"internalType": "uint256",
					"name": "allowance",
					"type": "uint256"
				},
				{
					"internalType": "uint256",
					"name": "needed",
					"type": "uint256"
				}
			],
			"name": "ERC20InsufficientAllowance",
			"type": "error"
		},
		{
			"inputs": [
				{
					"internalType": "address",
					"name": "sender",
					"type": "address"
				},
				{
					"internalType": "uint256",
					"name": "balance",
					"type": "uint256"
				},
				{
					"internalType": "uint256",
					"name": "needed",
					"type": "uint256"
				}
			],
			"name": "ERC20InsufficientBalance",
			"type": "error"
		},
		{
			"inputs": [
				{
					"internalType": "address",
					"name": "approver",
					"type": "address"
				}
			],
			"name": "ERC20InvalidApprover",
			"type": "error"
		},
		{
			"inputs": [
				{
					"internalType": "address",
					"name": "receiver",
					"type": "address"
				}
			],
			"name": "ERC20InvalidReceiver",
			"type": "error"
		},
		{
			"inputs": [
				{
					"internalType": "address",
					"name": "sender",
					"type": "address"
				}
			],
			"name": "ERC20InvalidSender",
			"type": "error"
		},
		{
			"inputs": [
				{
					"internalType": "address",
					"name": "spender",
					"type": "address"
				}
			],
			"name": "ERC20InvalidSpender",
			"type": "error"
		},
		{
			"inputs": [
				{
					"internalType": "uint256",
					"name": "deadline",
					"type": "uint256"
				}
			],
			"name": "ERC2612ExpiredSignature",
			"type": "error"
		},
		{
			"inputs": [
				{
					"internalType": "address",
					"name": "signer",
					"type": "address"
				},
				{
					"internalType": "address",
					"name": "owner",
					"type": "address"
				}
			],
			"name": "ERC2612InvalidSigner",
			"type": "error"
		},
		{
			"inputs": [
				{
					"internalType": "uint256",
					"name": "balance",
					"type": "uint256"
				},
				{
					"internalType": "uint256",
					"name": "payment",
					"type": "uint256"
				}
			],
			"name": "InsufficientBalance",
			"type": "error"
		},
		{
			"inputs": [
				{
					"internalType": "address",
					"name": "account",
					"type": "address"
				},
				{
					"internalType": "uint256",
					"name": "currentNonce",
					"type": "uint256"
				}
			],
			"name": "InvalidAccountNonce",
			"type": "error"
		},
		{
			"inputs": [],
			"name": "InvalidAddress",
			"type": "error"
		},
		{
			"inputs": [
				{
					"internalType": "uint64",
					"name": "submissionId",
					"type": "uint64"
				},
				{
					"internalType": "address",
					"name": "initiator",
					"type": "address"
				},
				{
					"internalType": "address",
					"name": "expectedInitiator",
					"type": "address"
				}
			],
			"name": "InvalidRefundInitiator",
			"type": "error"
		},
		{
			"inputs": [],
			"name": "InvalidShortString",
			"type": "error"
		},
		{
			"inputs": [
				{
					"internalType": "address",
					"name": "owner",
					"type": "address"
				}
			],
			"name": "OwnableInvalidOwner",
			"type": "error"
		},
		{
			"inputs": [
				{
					"internalType": "address",
					"name": "account",
					"type": "address"
				}
			],
			"name": "OwnableUnauthorizedAccount",
			"type": "error"
		},
		{
			"inputs": [
				{
					"internalType": "uint8",
					"name": "bits",
					"type": "uint8"
				},
				{
					"internalType": "uint256",
					"name": "value",
					"type": "uint256"
				}
			],
			"name": "SafeCastOverflowedUintDowncast",
			"type": "error"
		},
		{
			"inputs": [
				{
					"internalType": "string",
					"name": "str",
					"type": "string"
				}
			],
			"name": "StringTooLong",
			"type": "error"
		},
		{
			"inputs": [
				{
					"internalType": "uint64",
					"name": "submissionId",
					"type": "uint64"
				}
			],
			"name": "SubmissionAlreadyProcessed",
			"type": "error"
		},
		{
			"inputs": [
				{
					"internalType": "uint64",
					"name": "submissionId",
					"type": "uint64"
				}
			],
			"name": "SubmissionBeingProcessed",
			"type": "error"
		},
		{
			"anonymous": false,
			"inputs": [
				{
					"indexed": true,
					"internalType": "address",
					"name": "owner",
					"type": "address"
				},
				{
					"indexed": true,
					"internalType": "address",
					"name": "spender",
					"type": "address"
				},
				{
					"indexed": false,
					"internalType": "uint256",
					"name": "value",
					"type": "uint256"
				}
			],
			"name": "Approval",
			"type": "event"
		},
		{
			"anonymous": false,
			"inputs": [
				{
					"indexed": false,
					"internalType": "address",
					"name": "owner",
					"type": "address"
				},
				{
					"indexed": false,
					"internalType": "uint64",
					"name": "submissionsPerEpoch",
					"type": "uint64"
				},
				{
					"indexed": false,
					"internalType": "uint96",
					"name": "maxRewardTokensPerEth",
					"type": "uint96"
				},
				{
					"indexed": false,
					"internalType": "uint96",
					"name": "projectFee",
					"type": "uint96"
				},
				{
					"indexed": false,
					"internalType": "uint96",
					"name": "houseEdgeFixed",
					"type": "uint96"
				},
				{
					"indexed": false,
					"internalType": "uint96",
					"name": "houseEdgeRate",
					"type": "uint96"
				},
				{
					"indexed": false,
					"internalType": "uint32",
					"name": "transferGasLimit",
					"type": "uint32"
				},
				{
					"indexed": false,
					"internalType": "uint8",
					"name": "redemptionEpochForwardOffset",
					"type": "uint8"
				}
			],
			"name": "ConfigurationChanged",
			"type": "event"
		},
		{
			"anonymous": false,
			"inputs": [
				{
					"indexed": false,
					"internalType": "address",
					"name": "player",
					"type": "address"
				},
				{
					"indexed": false,
					"internalType": "uint256",
					"name": "amount",
					"type": "uint256"
				}
			],
			"name": "CreditClaimed",
			"type": "event"
		},
		{
			"anonymous": false,
			"inputs": [
				{
					"indexed": false,
					"internalType": "address",
					"name": "player",
					"type": "address"
				},
				{
					"indexed": false,
					"internalType": "uint256",
					"name": "amount",
					"type": "uint256"
				}
			],
			"name": "CreditIssued",
			"type": "event"
		},
		{
			"anonymous": false,
			"inputs": [],
			"name": "EIP712DomainChanged",
			"type": "event"
		},
		{
			"anonymous": false,
			"inputs": [
				{
					"indexed": true,
					"internalType": "address",
					"name": "player",
					"type": "address"
				},
				{
					"indexed": false,
					"internalType": "uint96",
					"name": "wager",
					"type": "uint96"
				},
				{
					"indexed": false,
					"internalType": "uint96",
					"name": "prepaidProjectFee",
					"type": "uint96"
				},
				{
					"indexed": true,
					"internalType": "uint64",
					"name": "submissionId",
					"type": "uint64"
				},
				{
					"indexed": false,
					"internalType": "uint96",
					"name": "multiplier",
					"type": "uint96"
				},
				{
					"indexed": false,
					"internalType": "uint96",
					"name": "multiplierBoostTokens",
					"type": "uint96"
				},
				{
					"indexed": false,
					"internalType": "uint32",
					"name": "bet",
					"type": "uint32"
				},
				{
					"indexed": true,
					"internalType": "uint32",
					"name": "status",
					"type": "uint32"
				},
				{
					"components": [
						{
							"internalType": "uint32",
							"name": "roll",
							"type": "uint32"
						},
						{
							"internalType": "uint96",
							"name": "payoutCoins",
							"type": "uint96"
						},
						{
							"internalType": "uint96",
							"name": "payoutTokens",
							"type": "uint96"
						},
						{
							"internalType": "uint96",
							"name": "refundCoins",
							"type": "uint96"
						}
					],
					"indexed": false,
					"internalType": "struct IUDICE.SubmissionOutcome",
					"name": "outcome",
					"type": "tuple"
				},
				{
					"components": [
						{
							"internalType": "uint256",
							"name": "rewardPool",
							"type": "uint256"
						},
						{
							"internalType": "uint256",
							"name": "playerTokenBalance",
							"type": "uint256"
						},
						{
							"internalType": "uint256",
							"name": "totalTokenSupply",
							"type": "uint256"
						}
					],
					"indexed": false,
					"internalType": "struct IUDICE.SubmissionEventState",
					"name": "state",
					"type": "tuple"
				}
			],
			"name": "Outcome",
			"type": "event"
		},
		{
			"anonymous": false,
			"inputs": [
				{
					"indexed": false,
					"internalType": "uint64[]",
					"name": "submissionIds",
					"type": "uint64[]"
				},
				{
					"indexed": false,
					"internalType": "uint32[]",
					"name": "submissionStatuses",
					"type": "uint32[]"
				}
			],
			"name": "OwnerRequestedRefunds",
			"type": "event"
		},
		{
			"anonymous": false,
			"inputs": [
				{
					"indexed": true,
					"internalType": "address",
					"name": "previousOwner",
					"type": "address"
				},
				{
					"indexed": true,
					"internalType": "address",
					"name": "newOwner",
					"type": "address"
				}
			],
			"name": "OwnershipTransferred",
			"type": "event"
		},
		{
			"anonymous": false,
			"inputs": [
				{
					"indexed": false,
					"internalType": "uint64",
					"name": "submissionId",
					"type": "uint64"
				},
				{
					"indexed": false,
					"internalType": "uint96",
					"name": "projectFee",
					"type": "uint96"
				},
				{
					"indexed": false,
					"internalType": "uint96",
					"name": "prepaidProjectFee",
					"type": "uint96"
				},
				{
					"indexed": false,
					"internalType": "uint96",
					"name": "onTheHouseProjectFee",
					"type": "uint96"
				},
				{
					"indexed": false,
					"internalType": "uint256",
					"name": "tokensInLieuOfOnTheHouseProjectFee",
					"type": "uint256"
				}
			],
			"name": "ProjectFeeCharged",
			"type": "event"
		},
		{
			"anonymous": false,
			"inputs": [
				{
					"indexed": false,
					"internalType": "address",
					"name": "actor",
					"type": "address"
				},
				{
					"indexed": false,
					"internalType": "address",
					"name": "oldSource",
					"type": "address"
				},
				{
					"indexed": false,
					"internalType": "address",
					"name": "newSource",
					"type": "address"
				}
			],
			"name": "RandomSourceChanged",
			"type": "event"
		},
		{
			"anonymous": false,
			"inputs": [
				{
					"indexed": false,
					"internalType": "address",
					"name": "player",
					"type": "address"
				},
				{
					"indexed": false,
					"internalType": "uint256",
					"name": "burntTokens",
					"type": "uint256"
				},
				{
					"indexed": false,
					"internalType": "uint256",
					"name": "tokensValue",
					"type": "uint256"
				},
				{
					"indexed": false,
					"internalType": "uint256",
					"name": "withdrawTax",
					"type": "uint256"
				},
				{
					"indexed": false,
					"internalType": "uint256",
					"name": "payoutCoins",
					"type": "uint256"
				}
			],
			"name": "Redeemed",
			"type": "event"
		},
		{
			"anonymous": false,
			"inputs": [
				{
					"indexed": true,
					"internalType": "address",
					"name": "player",
					"type": "address"
				},
				{
					"indexed": false,
					"internalType": "uint96",
					"name": "wager",
					"type": "uint96"
				},
				{
					"indexed": false,
					"internalType": "uint96",
					"name": "prepaidProjectFee",
					"type": "uint96"
				},
				{
					"indexed": true,
					"internalType": "uint64",
					"name": "submissionId",
					"type": "uint64"
				},
				{
					"indexed": false,
					"internalType": "uint96",
					"name": "multiplier",
					"type": "uint96"
				},
				{
					"indexed": false,
					"internalType": "uint96",
					"name": "multiplierBoostTokens",
					"type": "uint96"
				},
				{
					"indexed": false,
					"internalType": "uint32",
					"name": "bet",
					"type": "uint32"
				},
				{
					"indexed": false,
					"internalType": "uint32",
					"name": "status",
					"type": "uint32"
				},
				{
					"components": [
						{
							"internalType": "uint96",
							"name": "projectFee",
							"type": "uint96"
						},
						{
							"internalType": "uint96",
							"name": "houseEdgeFixed",
							"type": "uint96"
						},
						{
							"internalType": "uint64",
							"name": "houseEdgeRate",
							"type": "uint64"
						}
					],
					"indexed": false,
					"internalType": "struct IUDICE.SubmissionEventConfig",
					"name": "config",
					"type": "tuple"
				}
			],
			"name": "Submitted",
			"type": "event"
		},
		{
			"anonymous": false,
			"inputs": [
				{
					"indexed": true,
					"internalType": "address",
					"name": "from",
					"type": "address"
				},
				{
					"indexed": true,
					"internalType": "address",
					"name": "to",
					"type": "address"
				},
				{
					"indexed": false,
					"internalType": "uint256",
					"name": "value",
					"type": "uint256"
				}
			],
			"name": "Transfer",
			"type": "event"
		},
		{
			"anonymous": false,
			"inputs": [
				{
					"indexed": false,
					"internalType": "address",
					"name": "owner",
					"type": "address"
				},
				{
					"indexed": false,
					"internalType": "address",
					"name": "oldAddress",
					"type": "address"
				},
				{
					"indexed": false,
					"internalType": "address",
					"name": "newAddress",
					"type": "address"
				}
			],
			"name": "TreasuryCoinsWithdrawAddressChange",
			"type": "event"
		},
		{
			"anonymous": false,
			"inputs": [
				{
					"indexed": false,
					"internalType": "address",
					"name": "owner",
					"type": "address"
				},
				{
					"indexed": false,
					"internalType": "address",
					"name": "to",
					"type": "address"
				},
				{
					"indexed": false,
					"internalType": "uint256",
					"name": "coins",
					"type": "uint256"
				},
				{
					"indexed": false,
					"internalType": "uint256",
					"name": "tokens",
					"type": "uint256"
				}
			],
			"name": "TreasuryWithdrawn",
			"type": "event"
		},
		{
			"stateMutability": "payable",
			"type": "fallback"
		},
		{
			"inputs": [],
			"name": "DOMAIN_SEPARATOR",
			"outputs": [
				{
					"internalType": "bytes32",
					"name": "",
					"type": "bytes32"
				}
			],
			"stateMutability": "view",
			"type": "function"
		},
		{
			"inputs": [
				{
					"internalType": "address",
					"name": "owner",
					"type": "address"
				},
				{
					"internalType": "address",
					"name": "spender",
					"type": "address"
				}
			],
			"name": "allowance",
			"outputs": [
				{
					"internalType": "uint256",
					"name": "",
					"type": "uint256"
				}
			],
			"stateMutability": "view",
			"type": "function"
		},
		{
			"inputs": [
				{
					"internalType": "address",
					"name": "spender",
					"type": "address"
				},
				{
					"internalType": "uint256",
					"name": "value",
					"type": "uint256"
				}
			],
			"name": "approve",
			"outputs": [
				{
					"internalType": "bool",
					"name": "",
					"type": "bool"
				}
			],
			"stateMutability": "nonpayable",
			"type": "function"
		},
		{
			"inputs": [
				{
					"internalType": "address",
					"name": "account",
					"type": "address"
				}
			],
			"name": "balanceOf",
			"outputs": [
				{
					"internalType": "uint256",
					"name": "",
					"type": "uint256"
				}
			],
			"stateMutability": "view",
			"type": "function"
		},
		{
			"inputs": [
				{
					"internalType": "uint256",
					"name": "value",
					"type": "uint256"
				}
			],
			"name": "burn",
			"outputs": [],
			"stateMutability": "nonpayable",
			"type": "function"
		},
		{
			"inputs": [
				{
					"internalType": "address",
					"name": "account",
					"type": "address"
				},
				{
					"internalType": "uint256",
					"name": "value",
					"type": "uint256"
				}
			],
			"name": "burnFrom",
			"outputs": [],
			"stateMutability": "nonpayable",
			"type": "function"
		},
		{
			"inputs": [],
			"name": "claimCredit",
			"outputs": [],
			"stateMutability": "nonpayable",
			"type": "function"
		},
		{
			"inputs": [],
			"name": "decimals",
			"outputs": [
				{
					"internalType": "uint8",
					"name": "",
					"type": "uint8"
				}
			],
			"stateMutability": "view",
			"type": "function"
		},
		{
			"inputs": [],
			"name": "defaultRandomSourceAddress",
			"outputs": [
				{
					"internalType": "address",
					"name": "",
					"type": "address"
				}
			],
			"stateMutability": "view",
			"type": "function"
		},
		{
			"inputs": [],
			"name": "eip712Domain",
			"outputs": [
				{
					"internalType": "bytes1",
					"name": "fields",
					"type": "bytes1"
				},
				{
					"internalType": "string",
					"name": "name",
					"type": "string"
				},
				{
					"internalType": "string",
					"name": "version",
					"type": "string"
				},
				{
					"internalType": "uint256",
					"name": "chainId",
					"type": "uint256"
				},
				{
					"internalType": "address",
					"name": "verifyingContract",
					"type": "address"
				},
				{
					"internalType": "bytes32",
					"name": "salt",
					"type": "bytes32"
				},
				{
					"internalType": "uint256[]",
					"name": "extensions",
					"type": "uint256[]"
				}
			],
			"stateMutability": "view",
			"type": "function"
		},
		{
			"inputs": [],
			"name": "getConfiguration",
			"outputs": [
				{
					"internalType": "uint256",
					"name": "submissionsPerEpoch",
					"type": "uint256"
				},
				{
					"internalType": "uint256",
					"name": "maxRewardTokensPerEth",
					"type": "uint256"
				},
				{
					"internalType": "uint256",
					"name": "projectFee",
					"type": "uint256"
				},
				{
					"internalType": "uint256",
					"name": "houseEdgeFixed",
					"type": "uint256"
				},
				{
					"internalType": "uint256",
					"name": "houseEdgeRate",
					"type": "uint256"
				},
				{
					"internalType": "uint256",
					"name": "transferGasLimit",
					"type": "uint256"
				},
				{
					"internalType": "uint8",
					"name": "redemptionEpochForwardOffset",
					"type": "uint8"
				}
			],
			"stateMutability": "view",
			"type": "function"
		},
		{
			"inputs": [
				{
					"internalType": "address",
					"name": "player",
					"type": "address"
				}
			],
			"name": "getPlayerInfo",
			"outputs": [
				{
					"internalType": "uint256",
					"name": "credit",
					"type": "uint256"
				},
				{
					"internalType": "uint256",
					"name": "submissionsCount",
					"type": "uint256"
				}
			],
			"stateMutability": "view",
			"type": "function"
		},
		{
			"inputs": [],
			"name": "getRandomSource",
			"outputs": [
				{
					"internalType": "address",
					"name": "",
					"type": "address"
				}
			],
			"stateMutability": "view",
			"type": "function"
		},
		{
			"inputs": [],
			"name": "getState",
			"outputs": [
				{
					"internalType": "uint256",
					"name": "submissionsCount",
					"type": "uint256"
				},
				{
					"internalType": "uint256",
					"name": "pendingPool",
					"type": "uint256"
				},
				{
					"internalType": "uint256",
					"name": "treasuryPool",
					"type": "uint256"
				},
				{
					"internalType": "uint256",
					"name": "rewardPool",
					"type": "uint256"
				},
				{
					"internalType": "uint256",
					"name": "creditPool",
					"type": "uint256"
				},
				{
					"internalType": "uint256",
					"name": "balance",
					"type": "uint256"
				},
				{
					"internalType": "uint256",
					"name": "treasuryTokens",
					"type": "uint256"
				},
				{
					"internalType": "uint256",
					"name": "totalSupply",
					"type": "uint256"
				}
			],
			"stateMutability": "view",
			"type": "function"
		},
		{
			"inputs": [
				{
					"internalType": "uint64",
					"name": "submissionId",
					"type": "uint64"
				}
			],
			"name": "getSubmission",
			"outputs": [
				{
					"components": [
						{
							"internalType": "uint96",
							"name": "wager",
							"type": "uint96"
						},
						{
							"internalType": "uint96",
							"name": "projectFee",
							"type": "uint96"
						},
						{
							"internalType": "uint64",
							"name": "blockNumber",
							"type": "uint64"
						},
						{
							"internalType": "uint96",
							"name": "prepaidProjectFee",
							"type": "uint96"
						},
						{
							"internalType": "uint96",
							"name": "multiplier",
							"type": "uint96"
						},
						{
							"internalType": "uint64",
							"name": "houseEdgeRate",
							"type": "uint64"
						},
						{
							"internalType": "uint96",
							"name": "multiplierBoostTokens",
							"type": "uint96"
						},
						{
							"internalType": "uint96",
							"name": "houseEdgeFixed",
							"type": "uint96"
						},
						{
							"internalType": "uint64",
							"name": "submissionId",
							"type": "uint64"
						},
						{
							"internalType": "address payable",
							"name": "player",
							"type": "address"
						},
						{
							"internalType": "uint32",
							"name": "bet",
							"type": "uint32"
						},
						{
							"internalType": "uint32",
							"name": "status",
							"type": "uint32"
						},
						{
							"components": [
								{
									"internalType": "uint32",
									"name": "roll",
									"type": "uint32"
								},
								{
									"internalType": "uint96",
									"name": "payoutCoins",
									"type": "uint96"
								},
								{
									"internalType": "uint96",
									"name": "payoutTokens",
									"type": "uint96"
								},
								{
									"internalType": "uint96",
									"name": "refundCoins",
									"type": "uint96"
								}
							],
							"internalType": "struct IUDICE.SubmissionOutcome",
							"name": "outcome",
							"type": "tuple"
						}
					],
					"internalType": "struct IUDICE.Submission",
					"name": "",
					"type": "tuple"
				}
			],
			"stateMutability": "view",
			"type": "function"
		},
		{
			"inputs": [],
			"name": "name",
			"outputs": [
				{
					"internalType": "string",
					"name": "",
					"type": "string"
				}
			],
			"stateMutability": "view",
			"type": "function"
		},
		{
			"inputs": [
				{
					"internalType": "address",
					"name": "owner",
					"type": "address"
				}
			],
			"name": "nonces",
			"outputs": [
				{
					"internalType": "uint256",
					"name": "",
					"type": "uint256"
				}
			],
			"stateMutability": "view",
			"type": "function"
		},
		{
			"inputs": [],
			"name": "owner",
			"outputs": [
				{
					"internalType": "address",
					"name": "",
					"type": "address"
				}
			],
			"stateMutability": "view",
			"type": "function"
		},
		{
			"inputs": [
				{
					"internalType": "address",
					"name": "owner",
					"type": "address"
				},
				{
					"internalType": "address",
					"name": "spender",
					"type": "address"
				},
				{
					"internalType": "uint256",
					"name": "value",
					"type": "uint256"
				},
				{
					"internalType": "uint256",
					"name": "deadline",
					"type": "uint256"
				},
				{
					"internalType": "uint8",
					"name": "v",
					"type": "uint8"
				},
				{
					"internalType": "bytes32",
					"name": "r",
					"type": "bytes32"
				},
				{
					"internalType": "bytes32",
					"name": "s",
					"type": "bytes32"
				}
			],
			"name": "permit",
			"outputs": [],
			"stateMutability": "nonpayable",
			"type": "function"
		},
		{
			"inputs": [
				{
					"internalType": "uint96",
					"name": "multiplier",
					"type": "uint96"
				}
			],
			"name": "play",
			"outputs": [],
			"stateMutability": "payable",
			"type": "function"
		},
		{
			"inputs": [
				{
					"internalType": "uint96",
					"name": "multiplier",
					"type": "uint96"
				},
				{
					"internalType": "uint96",
					"name": "prepaidProjectFee",
					"type": "uint96"
				}
			],
			"name": "playWithFee",
			"outputs": [],
			"stateMutability": "payable",
			"type": "function"
		},
		{
			"inputs": [
				{
					"internalType": "uint64",
					"name": "offset",
					"type": "uint64"
				},
				{
					"internalType": "uint64",
					"name": "limit",
					"type": "uint64"
				},
				{
					"internalType": "bool",
					"name": "ascend",
					"type": "bool"
				}
			],
			"name": "queryMySubmissions",
			"outputs": [
				{
					"components": [
						{
							"internalType": "uint96",
							"name": "wager",
							"type": "uint96"
						},
						{
							"internalType": "uint96",
							"name": "projectFee",
							"type": "uint96"
						},
						{
							"internalType": "uint64",
							"name": "blockNumber",
							"type": "uint64"
						},
						{
							"internalType": "uint96",
							"name": "prepaidProjectFee",
							"type": "uint96"
						},
						{
							"internalType": "uint96",
							"name": "multiplier",
							"type": "uint96"
						},
						{
							"internalType": "uint64",
							"name": "houseEdgeRate",
							"type": "uint64"
						},
						{
							"internalType": "uint96",
							"name": "multiplierBoostTokens",
							"type": "uint96"
						},
						{
							"internalType": "uint96",
							"name": "houseEdgeFixed",
							"type": "uint96"
						},
						{
							"internalType": "uint64",
							"name": "submissionId",
							"type": "uint64"
						},
						{
							"internalType": "address payable",
							"name": "player",
							"type": "address"
						},
						{
							"internalType": "uint32",
							"name": "bet",
							"type": "uint32"
						},
						{
							"internalType": "uint32",
							"name": "status",
							"type": "uint32"
						},
						{
							"components": [
								{
									"internalType": "uint32",
									"name": "roll",
									"type": "uint32"
								},
								{
									"internalType": "uint96",
									"name": "payoutCoins",
									"type": "uint96"
								},
								{
									"internalType": "uint96",
									"name": "payoutTokens",
									"type": "uint96"
								},
								{
									"internalType": "uint96",
									"name": "refundCoins",
									"type": "uint96"
								}
							],
							"internalType": "struct IUDICE.SubmissionOutcome",
							"name": "outcome",
							"type": "tuple"
						}
					],
					"internalType": "struct IUDICE.Submission[]",
					"name": "items",
					"type": "tuple[]"
				}
			],
			"stateMutability": "view",
			"type": "function"
		},
		{
			"inputs": [
				{
					"internalType": "address",
					"name": "player",
					"type": "address"
				},
				{
					"internalType": "uint64",
					"name": "offset",
					"type": "uint64"
				},
				{
					"internalType": "uint64",
					"name": "limit",
					"type": "uint64"
				},
				{
					"internalType": "bool",
					"name": "ascend",
					"type": "bool"
				}
			],
			"name": "queryPlayerSubmissions",
			"outputs": [
				{
					"components": [
						{
							"internalType": "uint96",
							"name": "wager",
							"type": "uint96"
						},
						{
							"internalType": "uint96",
							"name": "projectFee",
							"type": "uint96"
						},
						{
							"internalType": "uint64",
							"name": "blockNumber",
							"type": "uint64"
						},
						{
							"internalType": "uint96",
							"name": "prepaidProjectFee",
							"type": "uint96"
						},
						{
							"internalType": "uint96",
							"name": "multiplier",
							"type": "uint96"
						},
						{
							"internalType": "uint64",
							"name": "houseEdgeRate",
							"type": "uint64"
						},
						{
							"internalType": "uint96",
							"name": "multiplierBoostTokens",
							"type": "uint96"
						},
						{
							"internalType": "uint96",
							"name": "houseEdgeFixed",
							"type": "uint96"
						},
						{
							"internalType": "uint64",
							"name": "submissionId",
							"type": "uint64"
						},
						{
							"internalType": "address payable",
							"name": "player",
							"type": "address"
						},
						{
							"internalType": "uint32",
							"name": "bet",
							"type": "uint32"
						},
						{
							"internalType": "uint32",
							"name": "status",
							"type": "uint32"
						},
						{
							"components": [
								{
									"internalType": "uint32",
									"name": "roll",
									"type": "uint32"
								},
								{
									"internalType": "uint96",
									"name": "payoutCoins",
									"type": "uint96"
								},
								{
									"internalType": "uint96",
									"name": "payoutTokens",
									"type": "uint96"
								},
								{
									"internalType": "uint96",
									"name": "refundCoins",
									"type": "uint96"
								}
							],
							"internalType": "struct IUDICE.SubmissionOutcome",
							"name": "outcome",
							"type": "tuple"
						}
					],
					"internalType": "struct IUDICE.Submission[]",
					"name": "items",
					"type": "tuple[]"
				}
			],
			"stateMutability": "view",
			"type": "function"
		},
		{
			"inputs": [
				{
					"internalType": "uint64",
					"name": "offset",
					"type": "uint64"
				},
				{
					"internalType": "uint64",
					"name": "limit",
					"type": "uint64"
				},
				{
					"internalType": "bool",
					"name": "ascend",
					"type": "bool"
				}
			],
			"name": "querySubmissions",
			"outputs": [
				{
					"components": [
						{
							"internalType": "uint96",
							"name": "wager",
							"type": "uint96"
						},
						{
							"internalType": "uint96",
							"name": "projectFee",
							"type": "uint96"
						},
						{
							"internalType": "uint64",
							"name": "blockNumber",
							"type": "uint64"
						},
						{
							"internalType": "uint96",
							"name": "prepaidProjectFee",
							"type": "uint96"
						},
						{
							"internalType": "uint96",
							"name": "multiplier",
							"type": "uint96"
						},
						{
							"internalType": "uint64",
							"name": "houseEdgeRate",
							"type": "uint64"
						},
						{
							"internalType": "uint96",
							"name": "multiplierBoostTokens",
							"type": "uint96"
						},
						{
							"internalType": "uint96",
							"name": "houseEdgeFixed",
							"type": "uint96"
						},
						{
							"internalType": "uint64",
							"name": "submissionId",
							"type": "uint64"
						},
						{
							"internalType": "address payable",
							"name": "player",
							"type": "address"
						},
						{
							"internalType": "uint32",
							"name": "bet",
							"type": "uint32"
						},
						{
							"internalType": "uint32",
							"name": "status",
							"type": "uint32"
						},
						{
							"components": [
								{
									"internalType": "uint32",
									"name": "roll",
									"type": "uint32"
								},
								{
									"internalType": "uint96",
									"name": "payoutCoins",
									"type": "uint96"
								},
								{
									"internalType": "uint96",
									"name": "payoutTokens",
									"type": "uint96"
								},
								{
									"internalType": "uint96",
									"name": "refundCoins",
									"type": "uint96"
								}
							],
							"internalType": "struct IUDICE.SubmissionOutcome",
							"name": "outcome",
							"type": "tuple"
						}
					],
					"internalType": "struct IUDICE.Submission[]",
					"name": "items",
					"type": "tuple[]"
				}
			],
			"stateMutability": "view",
			"type": "function"
		},
		{
			"inputs": [
				{
					"internalType": "uint256",
					"name": "tokens",
					"type": "uint256"
				}
			],
			"name": "redeem",
			"outputs": [],
			"stateMutability": "nonpayable",
			"type": "function"
		},
		{
			"inputs": [
				{
					"internalType": "uint64",
					"name": "submissionId",
					"type": "uint64"
				}
			],
			"name": "refund",
			"outputs": [],
			"stateMutability": "nonpayable",
			"type": "function"
		},
		{
			"inputs": [],
			"name": "renounceOwnership",
			"outputs": [],
			"stateMutability": "nonpayable",
			"type": "function"
		},
		{
			"inputs": [
				{
					"internalType": "uint96",
					"name": "projectFee",
					"type": "uint96"
				},
				{
					"internalType": "uint96",
					"name": "houseEdgeFixed",
					"type": "uint96"
				},
				{
					"internalType": "uint64",
					"name": "houseEdgeRate",
					"type": "uint64"
				},
				{
					"internalType": "uint32",
					"name": "transferGasLimit",
					"type": "uint32"
				},
				{
					"internalType": "uint8",
					"name": "redemptionEpochForwardOffset",
					"type": "uint8"
				}
			],
			"name": "setConfiguration",
			"outputs": [],
			"stateMutability": "nonpayable",
			"type": "function"
		},
		{
			"inputs": [
				{
					"internalType": "address",
					"name": "newRandomSourceAddress",
					"type": "address"
				}
			],
			"name": "setRandomSource",
			"outputs": [],
			"stateMutability": "nonpayable",
			"type": "function"
		},
		{
			"inputs": [],
			"name": "symbol",
			"outputs": [
				{
					"internalType": "string",
					"name": "",
					"type": "string"
				}
			],
			"stateMutability": "view",
			"type": "function"
		},
		{
			"inputs": [],
			"name": "totalSupply",
			"outputs": [
				{
					"internalType": "uint256",
					"name": "",
					"type": "uint256"
				}
			],
			"stateMutability": "view",
			"type": "function"
		},
		{
			"inputs": [
				{
					"internalType": "address",
					"name": "to",
					"type": "address"
				},
				{
					"internalType": "uint256",
					"name": "value",
					"type": "uint256"
				}
			],
			"name": "transfer",
			"outputs": [
				{
					"internalType": "bool",
					"name": "",
					"type": "bool"
				}
			],
			"stateMutability": "nonpayable",
			"type": "function"
		},
		{
			"inputs": [
				{
					"internalType": "address",
					"name": "from",
					"type": "address"
				},
				{
					"internalType": "address",
					"name": "to",
					"type": "address"
				},
				{
					"internalType": "uint256",
					"name": "value",
					"type": "uint256"
				}
			],
			"name": "transferFrom",
			"outputs": [
				{
					"internalType": "bool",
					"name": "",
					"type": "bool"
				}
			],
			"stateMutability": "nonpayable",
			"type": "function"
		},
		{
			"inputs": [
				{
					"internalType": "address",
					"name": "newOwner",
					"type": "address"
				}
			],
			"name": "transferOwnership",
			"outputs": [],
			"stateMutability": "nonpayable",
			"type": "function"
		},
		{
			"inputs": [
				{
					"internalType": "address",
					"name": "recipient",
					"type": "address"
				}
			],
			"name": "updateTrasuryCoinsWithdrawAddress",
			"outputs": [],
			"stateMutability": "nonpayable",
			"type": "function"
		},
		{
			"inputs": [
				{
					"internalType": "uint96",
					"name": "amount",
					"type": "uint96"
				}
			],
			"name": "withdrawTreasuryCoins",
			"outputs": [],
			"stateMutability": "nonpayable",
			"type": "function"
		},
		{
			"inputs": [
				{
					"internalType": "address",
					"name": "to",
					"type": "address"
				},
				{
					"internalType": "uint256",
					"name": "amount",
					"type": "uint256"
				}
			],
			"name": "withdrawTreasuryTokens",
			"outputs": [],
			"stateMutability": "nonpayable",
			"type": "function"
		},
		{
			"stateMutability": "payable",
			"type": "receive"
		}
	]
}