{
	"data": {
		"bytecode": {
			"linkReferences": {},
			"object": "6101e0806040526000906020816164a7803803809161001e828561093a565b83398101031261058a57516001600160a01b0381169081900361058a57604051906100488261091f565b6004825260208201630aa88aa960e31b92838252604051926100698461091f565b601384527f596f7520446963652c20596f7520486f757365000000000000000000000000006020850152604051946100a08661091f565b600486526020860152604051946100b68661091f565b60018652603160f81b6020870190815285519095906001600160401b0381116107fb57600c5491600183811c931680156108ec575b60208410146107dd578190601f9384811161089d575b5060209084831160011461081a578b9261080f575b50508160011b916000199060031b1c191617600c555b8151916001600160401b0383116107fb57600d54600181811c911680156107f1575b60208210146107dd579081838594931161078b575b5060209183116001146107085789926106fd575b50508160011b916000199060031b1c191617600d555b80156106e457600e80546001600160a01b0319811683179091556001600160a01b03167f8be0079c531659141344cd1fd0a4f28419497f9722a3daafe3b4186f6b6457e08780a36101dd81610a99565b610120526101ea84610c62565b61014052519020918260e0525190209081610100524660a0526040519160208301917f8b73c3c69bb8fe3d512ecc4cf759cc79239f7b179b0ffacaa9a75d522b39400f8352604084015260608301524660808301523060a083015260a082528160c081011060018060401b0360c0840111176106d05760c08201604052815190206080523060c05262033450610160526969e10de76676d080000061018052739632ade542f12114f5e5ad4d6f8e47fb993955da6101a052739632ade542f12114f5e5ad4d6f8e47fb993955da6101c0526201229160e01b60c08201528160c08201600460c08401739632ade542f12114f5e5ad4d6f8e47fb993955da5afa80156106c5578290839284916105c4575b5061030490610e06565b156105b25761ffff166003106105a05763ffffffff620493e09116811161058e5760607fa26c986b913b625bab6a879e2b105de49c7ed875781596e89edad16a3f4e87b69160008051602061648783398151915290816012556c0493e0000300000000000000006dffffffffffff0000000000000000196013541617601355604051918252600360208301526040820152a161039e61095d565b50346104c1575b7e6a94d74f43000000000000000000000000000000000000000110d9316ec00090556108fc63ffffffff1960015416176001556040516156409081610e47823960805181613b53015260a05181613c1f015260c05181613b24015260e05181613ba201526101005181613bc8015261012051816111590152610140518161118201526101605181818161043a015281816113ac01528181612ec30152614a77015261018051818181610462015281816113d101528181611bb10152818161359f015281816142910152818161547f0152818161556d01526155de01526101a051816121c701526101c05181818161069a015281816114860152818161229301528181613a9e0152818161451c015281816145f801526147200152f35b7f2c8225b846d7db9ad756862fb7cbd9772bb99f17ab145624877338a8e55817c26060604051338152346020820152836040820152a16101c0516013546001600160a01b0390911691906001600160401b0316823b1561058a57819060246040518095819363026ecb0760e31b8352600483015234905af191821561057d577e6a94d74f43000000000000000000000000000000000000000110d9316ec0009261056e575b5090506103a5565b610577906108f6565b38610566565b50604051903d90823e3d90fd5b5080fd5b6040516304c5ed9760e51b8152600490fd5b604051637f5e576160e11b8152600490fd5b6040516381255f6d60e01b8152600490fd5b925050503d808360c084013e6105dd8160c0840161093a565b8101906060818303126106c15760c081015161ffff811681036106bd5760e08201519163ffffffff831683036106b557610100810151906001600160401b0382116106b957019260c0810160df850112156106b55760c0840151936001600160401b0385116106a1578460051b906040519561065c602084018861093a565b865260c060e060208801938301019301831161069d5760e001905b82821061068d57505050610304909192906102fa565b8151815260209182019101610677565b8680fd5b634e487b7160e01b86526041600452602486fd5b8480fd5b8580fd5b8380fd5b8280fd5b6040513d84823e3d90fd5b634e487b7160e01b83526041600452602483fd5b604051631e4fbdf760e01b815260048101879052602490fd5b015190503880610177565b600d8a527fd7b6990105719101dabeb77144f2a3385c8033acd3af97e9423a695e81ad1eb59250601f1984168a5b818110610773575090846001959493921061075a575b505050811b01600d5561018d565b015160001960f88460031b161c1916905538808061074c565b92936020600181928786015181550195019301610736565b90919250600d8a5260208a208380860160051c820192602087106107d4575b94869594939291940160051c01905b8181106107c65750610163565b8b81558594506001016107b9565b925081926107aa565b634e487b7160e01b8a52602260045260248afd5b90607f169061014e565b634e487b7160e01b89526041600452602489fd5b015190503880610116565b600c8c527fdf6966c971051c3d54ec59162606531493a51404a002842f56009d7e5cf4a8c79250601f1984168c5b818110610885575090846001959493921061086c575b505050811b01600c5561012c565b015160001960f88460031b161c1916905538808061085e565b92936020600181928786015181550195019301610848565b909150600c8b5260208b208480850160051c820192602086106108e3575b9085949392910160051c01905b8181106108d55750610101565b8c81558493506001016108c8565b925081926108bb565b92607f16926100eb565b6001600160401b03811161090957604052565b634e487b7160e01b600052604160045260246000fd5b604081019081106001600160401b0382111761090957604052565b601f909101601f19168101906001600160401b0382119082101761090957604052565b6013546001600160401b03908116610a935760018060a01b036101c0818151169160405163288688f960e21b8152602081600481600080985af1908115610a88579085918591610a4a575b5016918260018060401b03196013541617601355511690813b156106c1578291604483926040519586938492631cd0704360e21b845260048401523060248401525af1908115610a3e5750916020917f27740e6ba23a94702c789d7c527564ec515fdd36289327fa98747cf1e17fcdbc93610a2f575b5060135416604051908152a1600190565b610a38906108f6565b38610a1e565b604051903d90823e3d90fd5b9150506020813d602011610a80575b81610a666020938361093a565b810103126106bd575184811681036106bd578490386109a8565b3d9150610a59565b6040513d86823e3d90fd5b50600090565b805160209081811015610b315750601f825111610ad25780825192015190808310610ac357501790565b82600019910360031b1b161790565b90604051809263305a27a960e01b82528060048301528251908160248401526000935b828510610b18575050604492506000838284010152601f80199101168101030190fd5b8481018201518686016044015293810193859350610af5565b906001600160401b03821161090957600f54926001938481811c91168015610c58575b83821014610c4257601f8111610c0b575b5081601f8411600114610ba35750928293918392600094610b98575b50501b916000199060031b1c191617600f5560ff90565b015192503880610b81565b919083601f198116600f60005284600020946000905b88838310610bf15750505010610bd8575b505050811b01600f5560ff90565b015160001960f88460031b161c19169055388080610bca565b858701518855909601959485019487935090810190610bb9565b600f60005284601f84600020920160051c820191601f860160051c015b828110610c36575050610b65565b60008155018590610c28565b634e487b7160e01b600052602260045260246000fd5b90607f1690610b54565b805160209081811015610ceb5750601f825111610c8c5780825192015190808310610ac357501790565b90604051809263305a27a960e01b82528060048301528251908160248401526000935b828510610cd2575050604492506000838284010152601f80199101168101030190fd5b8481018201518686016044015293810193859350610caf565b906001600160401b03821161090957601054926001938481811c91168015610dfc575b83821014610c4257601f8111610dc5575b5081601f8411600114610d5d5750928293918392600094610d52575b50501b916000199060031b1c19161760105560ff90565b015192503880610d3b565b919083601f198116601060005284600020946000905b88838310610dab5750505010610d92575b505050811b0160105560ff90565b015160001960f88460031b161c19169055388080610d84565b858701518855909601959485019487935090810190610d73565b601060005284601f84600020920160051c820191601f860160051c015b828110610df0575050610d1f565b60008155018590610de2565b90607f1690610d0e565b60005b8151811015610e3f5760008051602061648783398151915260208260051b8401015114610e3857600101610e09565b5050600190565b505060009056fe6080806040526004361015610028575b5036156100205761001e613101565b005b61001e613101565b60003560e01c90816306fdde03146123ad57508063095ea7b3146123875780631333db2e1461236e57806318160ddd146123505780631865c57d146122e25780631c478120146122665780631fe543e31461214a57806323b872dd1461211257806330ea4c3214612083578063313ce567146120675780633644e5151461204c578063419bbb7614611f1257806342966c6814611ef55780634bd8ec5e14611e415780635932840114611dfe5780636142b02714611dc9578063621ad8561461166c578063691f20d1146114275780636bd50cef1461137357806370a0823114611333578063715018a6146112c057806379cc6790146112905780637ecebe001461125657806384b0196e1461114057806389b94cca146110085780638bf13b0f14610fec5780638da5cb5b14610fc557806393d81d5814610f9a57806395d89b4114610e99578063a21a23e414610e6c578063a9059cbb14610e3b578063b63bdd5414610d95578063bf41dadb14610d74578063bff2fad314610d0f578063d4eec48414610cfa578063d505accf14610b2b578063d7194ccb14610973578063db006a7514610957578063dd62ed3e14610905578063ed042c9b146108c1578063f141b6bb14610622578063f2fde38b1461056b578063f516ec9f146102e7578063fe585b7f1461026f5763ff2d966514610224573861000f565b3461026a57606060031936011261026a5761026661025a610243612612565b61024b612629565b610253612657565b9133612fd1565b60405191829182612666565b0390f35b600080fd5b604060031936011261026a5761001e6102866125dc565b61028e6125f7565b61029734613d16565b60005490916bffffffffffffffffffffffff9182169082811682116102df5750905b81811690831610156102cf575060005b33613d67565b90816102da91612d37565b6102c9565b9050906102b9565b3461026a5760a060031936011261026a576103006125dc565b6103086125f7565b610310612640565b6064359063ffffffff821680920361026a5761032a612795565b92610333613d02565b67ffffffffffffffff926611c37937e0800084841661035c6702c68af0bb140000821115612916565b1061050d576001549460ff8660201c1660ff8216106104af577f1e18870fa6dcb675bbb26e264aeb27803736955e55186eba839862691393d94d9661010096837fffffffffffffffffffffffffffffffffffffffffffffffffffffff000000000064ff000000007fffffffffffffffff0000000000000000000000000000000000000000000000009760ff9977ffffffffffffffffffffffff0000000000000000000000006bffffffffffffffffffffffff8098169a8b9260c01b169260601b161717958660005560201b16921617179384600155604051963388527f0000000000000000000000000000000000000000000000000000000000000000166020880152817f000000000000000000000000000000000000000000000000000000000000000016604088015260608701528160601c16608086015260c01c60a085015260c084015260201c1660e0820152a1005b60646040517f08c379a000000000000000000000000000000000000000000000000000000000815260206004820152600160248201527f33000000000000000000000000000000000000000000000000000000000000006044820152fd5b60646040517f08c379a000000000000000000000000000000000000000000000000000000000815260206004820152600160248201527f32000000000000000000000000000000000000000000000000000000000000006044820152fd5b3461026a57602060031936011261026a576105846124b6565b61058c613d02565b6001600160a01b038091169081156105f157600e54827fffffffffffffffffffffffff0000000000000000000000000000000000000000821617600e55167f8be0079c531659141344cd1fd0a4f28419497f9722a3daafe3b4186f6b6457e0600080a3005b60246040517f1e4fbdf700000000000000000000000000000000000000000000000000000000815260006004820152fd5b3461026a57606060031936011261026a5760243561ffff808216906004359082840361026a576044359263ffffffff8085169283860361026a57610664613d02565b604051907e0122910000000000000000000000000000000000000000000000000000000082526000826004816001600160a01b037f0000000000000000000000000000000000000000000000000000000000000000165afa80156108b5576000906000936000916107ff575b506106db9088615433565b156107d5571683106107ab5760c883116107ab57168211610781577fa26c986b913b625bab6a879e2b105de49c7ed875781596e89edad16a3f4e87b694606094846012557fffffffffffffffffffffffffffffffffffff000000000000ffffffffffffffff69ffff00000000000000006dffffffff000000000000000000006013549360501b169360401b169116171760135560405192835260208301526040820152a1005b60046040517f98bdb2e0000000000000000000000000000000000000000000000000000000008152fd5b60046040517ffebcaec2000000000000000000000000000000000000000000000000000000008152fd5b60046040517f81255f6d000000000000000000000000000000000000000000000000000000008152fd5b935050503d806000843e6108138184612583565b82019160608184031261026a578051828116810361026a5760208083015192868416840361026a5760408101519067ffffffffffffffff821161026a57019480601f8701121561026a578551610868816125c4565b966108766040519889612583565b818852838089019260051b82010192831161026a578301905b8282106108a657505050506106db909193906106d0565b8151815290830190830161088f565b6040513d6000823e3d90fd5b3461026a57608060031936011261026a576108da6124b6565b6108e2612629565b906108eb612640565b60643590811515820361026a576102669361025a93612fd1565b3461026a57604060031936011261026a5761091e6124b6565b6109266124cc565b906001600160a01b03809116600052600a602052604060002091166000526020526020604060002054604051908152f35b3461026a57602060031936011261026a5761001e600435612e88565b3461026a57602060031936011261026a5767ffffffffffffffff610995612612565b168060005260076020526040600020600381018054906001600160a01b0391828116803303610aee5750600163ffffffff8260c01c1603610abd576109d98461489a565b15610a8c579378080000000000000000000000000000000000000000000000007fffffffff00000000ffffffffffffffffffffffffffffffffffffffffffffffff61001e961617825560056bffffffffffffffffffffffff610a40818754166003546127f8565b6003558554169401847fffffffffffffffffffffffffffffffffffffffff0000000000000000000000008254161790556000526007602052610a8560406000206148b9565b54166149cf565b602485604051907fa05db5930000000000000000000000000000000000000000000000000000000082526004820152fd5b602485604051907f2bc45a480000000000000000000000000000000000000000000000000000000082526004820152fd5b85606491604051917f4adf9acd00000000000000000000000000000000000000000000000000000000835260048301523360248301526044820152fd5b3461026a5760e060031936011261026a57610b446124b6565b610b4c6124cc565b6044359060643592610b5c612795565b93804211610cc9576001600160a01b0390818316958660005260116020526040600020908154916001830190556040519260208401927f6e71edae12b1b97f4d1f60370fef10105fa2faae0126114a169c64845d6126c98452896040860152858816606086015288608086015260a085015260c084015260c0835260e083019183831067ffffffffffffffff841117610c9a57610c5093610c4793604052519020610c05613b1a565b90604051917f190100000000000000000000000000000000000000000000000000000000000083526002830152602282015260c43591604260a43592206152c8565b9092919261534c565b16848103610c63575061001e9350614ac8565b60449085604051917f4b800e4600000000000000000000000000000000000000000000000000000000835260048301526024820152fd5b7f4e487b7100000000000000000000000000000000000000000000000000000000600052604160045260246000fd5b602490604051907f627913020000000000000000000000000000000000000000000000000000000082526004820152fd5b600060031936011261026a5761001e34613a58565b602060031936011261026a57610d6f610d266125dc565b610d636bffffffffffffffffffffffff918260005416610d57610d51610d4c83346127f8565b613d16565b91613a58565b83600054169033613d67565b600054166004546127f8565b600455005b3461026a57602060031936011261026a5761001e610d90612612565b612dd9565b3461026a57604060031936011261026a57610dae6124b6565b602435610db9613d02565b6001600160a01b038216918215610e11577f31a8092046a766d50c60467d927f8769a20162fd47024a64bb365aac647eb0df608061001e9460405190338252602082015260006040820152846060820152a13061392f565b60046040517fe6c4247b000000000000000000000000000000000000000000000000000000008152fd5b3461026a57604060031936011261026a57610e61610e576124b6565b602435903361392f565b602060405160018152f35b3461026a57600060031936011261026a57610e85613d02565b6020610e8f614704565b6040519015158152f35b3461026a57600060031936011261026a57604051600d54600082610ebc836127a5565b9182825260209360019085600182169182600014610f5c575050600114610eff575b50610eeb92500383612583565b610266604051928284938452830190612458565b849150600d6000527fd7b6990105719101dabeb77144f2a3385c8033acd3af97e9423a695e81ad1eb5906000915b858310610f44575050610eeb935082010185610ede565b80548389018501528794508693909201918101610f2d565b7fffffffffffffffffffffffffffffffffffffffffffffffffffffffffffffff001685820152610eeb95151560051b8501019250879150610ede9050565b3461026a57602060031936011261026a576020610e8f610fb86124b6565b610fc0613d02565b6145d7565b3461026a57600060031936011261026a5760206001600160a01b03600e5416604051908152f35b602060031936011261026a5761001e611003612612565b612d55565b3461026a57602060031936011261026a5767ffffffffffffffff61102a612612565b61103261297b565b5016600052600760205261020061104c6040600020612ada565b61113e60405180926101e09060606bffffffffffffffffffffffff91828151168552826020820151166020860152604081015167ffffffffffffffff8091166040870152838383015116838701528360808301511660808701528060a08301511660a08701528360c08301511660c08701528360e08301511660e0870152610100908183015116908601526101206001600160a01b0381830151169086015261014090818101519163ffffffff8093169087015261016082818301511690870152610180809101519182511690860152826020820151166101a0860152826040820151166101c0860152015116910152565bf35b3461026a57600060031936011261026a576111f761117d7f00000000000000000000000000000000000000000000000000000000000000006150d0565b6111a67f0000000000000000000000000000000000000000000000000000000000000000615208565b604051906111b38261254b565b600082526112056020916040519586957f0f00000000000000000000000000000000000000000000000000000000000000875260e0602088015260e0870190612458565b908582036040870152612458565b466060850152306080850152600060a085015283810360c08501526020808451928381520193019160005b82811061123f57505050500390f35b835185528695509381019392810192600101611230565b3461026a57602060031936011261026a576001600160a01b036112776124b6565b1660005260116020526020604060002054604051908152f35b3461026a57604060031936011261026a5761001e6112ac6124b6565b602435906112bb8233836137f4565b613c45565b3461026a57600060031936011261026a576112d9613d02565b60006001600160a01b03600e547fffffffffffffffffffffffff00000000000000000000000000000000000000008116600e55167f8be0079c531659141344cd1fd0a4f28419497f9722a3daafe3b4186f6b6457e08280a3005b3461026a57602060031936011261026a57602061136b6113516124b6565b6001600160a01b0316600052600960205260406000205490565b604051908152f35b3461026a57600060031936011261026a5760e060005460ff6bffffffffffffffffffffffff91600154906040519367ffffffffffffffff7f0000000000000000000000000000000000000000000000000000000000000000168552807f000000000000000000000000000000000000000000000000000000000000000016602086015280821660408601528160601c16606085015260c01c608084015263ffffffff811660a084015260201c1660c0820152f35b3461026a5760208060031936011261026a5760043567ffffffffffffffff8060135416604051907fa47c769600000000000000000000000000000000000000000000000000000000825260048201526000816024816001600160a01b037f0000000000000000000000000000000000000000000000000000000000000000165afa9182156108b5576000926115a8575b5050600454906114c982841115612916565b6bffffffffffffffffffffffff90816000541661520802828116908103611579578183168181106115345750505050505060607f2c8225b846d7db9ad756862fb7cbd9772bb99f17ab145624877338a8e55817c29160006040519133835282015260006040820152a1005b61001e9650611544868392612d2a565b1161155f575b50505081611557916127f8565b600455613a58565b6115579394509061156f91612d37565b169190848061154a565b7f4e487b7100000000000000000000000000000000000000000000000000000000600052601160045260246000fd5b9091503d806000843e6115bb8184612583565b82019060808383031261026a578251926bffffffffffffffffffffffff8416840361026a576115eb868201612d01565b506115f860408201612d16565b50606081015191821161026a570181601f8201121561026a578051858061161e836125c4565b61162b6040519182612583565b838152019160051b83010192831161026a5785809201905b838210611655575050505083806114b7565b82809161166184612d16565b815201910190611643565b602060031936011261026a576116806125dc565b61168934613d16565b9060025467ffffffffffffffff6001818316011667ffffffffffffffff198216176002556bffffffffffffffffffffffff6116c7610d4c8486614ebf565b1680611dba575b6116f46bffffffffffffffffffffffff84166bffffffffffffffffffffffff8616614f5a565b67ffffffffffffffff838116600101166000908152600760205260409020805477ffffffffffffffffffffffffffffffffffffffffffffffff164360c01b7fffffffffffffffff00000000000000000000000000000000000000000000000016178155939060028501805477ffffffffffffffffffffffffffffffffffffffffffffffff1667ffffffffffffffff861660010160c01b7fffffffffffffffff00000000000000000000000000000000000000000000000016179055337fffffffffffffffffffffffff000000000000000000000000000000000000000060038701541617600386015561192a7fffffffffffffffffffffffffffffffffffffffff0000000000000000000000006bffffffffffffffffffffffff8816818854161787556118756bffffffffffffffffffffffff6000541688907fffffffffffffffff000000000000000000000000ffffffffffffffffffffffff77ffffffffffffffffffffffff00000000000000000000000083549260601b169116179055565b60018701805477ffffffffffffffffffffffff000000000000000000000000606087901b81169184167fffffffffffffffff000000000000000000000000ffffffffffffffffffffffff90811692909217835560028a018054909416881780855560005492169116179091555b600054815477ffffffffffffffffffffffffffffffffffffffffffffffff167fffffffffffffffff000000000000000000000000000000000000000000000000909116179055565b780100000000000000000000000000000000000000000000000060038601547fffffffff0000000000000000ffffffffffffffffffffffffffffffffffffffff77ffffffff00000000000000000000000000000000000000008460a01b169116171760038601553360005260086020526040600020805468010000000000000000811015610c9a5760018101808355811015611d8b5763ffffffff93611a1267ffffffffffffffff928a94600052602060002090846001818c1601169160188260031b169160021c01919067ffffffffffffffff8084549260031b9316831b921b1916179055565b6bffffffffffffffffffffffff60005491818084169860405190611a358261252f565b8a8252826020830194818860601c168652604084019760c01c8852816040519a168a52600060208b015216604089015260608801528888166080880152600160a0880152511660c0860152511660e0840152511661010082015267ffffffffffffffff60018187160116907feb87ffbe69be596530037de78d6a6ca3317c12ce908c3c46e9cfa526531a177e6101203392a316611c4f5750506bffffffffffffffffffffffff61001e92166005540160055578040000000000000000000000000000000000000000000000007fffffffff00000000ffffffffffffffffffffffffffffffffffffffffffffffff600383015416176003820155611b6b81670de0b6b3a764000081546bffffffffffffffffffffffff600181600286015460601c16828460601c160194015460c01c911602040190565b806bffffffffffffffffffffffff8354161015611b89575b506148b9565b611bde90670de0b6b3a7640000611bd7600285015460c01c926bffffffffffffffffffffffff7f00000000000000000000000000000000000000000000000000000000000000001690612e3c565b0490614a6a565b6004820180547fffffffff000000000000000000000000ffffffffffffffffffffffffffffffff16608083901b7bffffffffffffffffffffffff00000000000000000000000000000000161790558015611b8357611c49906001600160a01b036003840154166154ac565b82611b83565b67ffffffffffffffff92506001916bffffffffffffffffffffffff61001e9583869415600014611cdb57507fc90468505eb2131f45874a6543cc8f26cdcf8665051cf5307268576b7d543b4160a08360005416604051908789818916011682526020820152600060408201526000606082015260006080820152a15b166003540160035516011661449d565b60a0817fc90468505eb2131f45874a6543cc8f26cdcf8665051cf5307268576b7d543b419260055411600014611d4c578060055403600555806004540160045584600054169060405191888a818a1601168352602083015260006040830152606082015260006080820152a1611ccb565b611d5c81888a818a160116615460565b85600054169160405192898b818b160116845260208401526000604084015260608301526080820152a1611ccb565b7f4e487b7100000000000000000000000000000000000000000000000000000000600052603260045260246000fd5b611dc48133613c45565b6116ce565b3461026a57606060031936011261026a5761026661025a611de8612612565b611df0612629565b611df8612657565b91612bc2565b3461026a57602060031936011261026a576001600160a01b03611e1f6124b6565b1660005260086020526040806000206001810154905482519182526020820152f35b3461026a57602060031936011261026a57611e5a6124b6565b611e62613d02565b7fffffffffffffff0000000000000000000000000000000000000000ffffffffff78ffffffffffffffffffffffffffffffffffffffff0000000000600154927f876ff6de70ea9815b366b60a114b80fdfbc06357da850cb734024fb7927f8b0360606001600160a01b0360405190338252808860281c16602083015284166040820152a160281b16911617600155600080f35b3461026a57602060031936011261026a5761001e60043533613c45565b3461026a57602060031936011261026a57611f2b6125dc565b6001600160a01b0360015460281c168015610e11576004546bffffffffffffffffffffffff831690818110612005576000828194611f6b839584956127f8565b6004557f31a8092046a766d50c60467d927f8769a20162fd47024a64bb365aac647eb0df6080604051338152836020820152846040820152856060820152a15af1611fb4612805565b5015611fbc57005b600480546040517fcf479181000000000000000000000000000000000000000000000000000000008152918201526bffffffffffffffffffffffff919091166024820152604490fd5b6040517fcf47918100000000000000000000000000000000000000000000000000000000815260048101919091526bffffffffffffffffffffffff84166024820152604490fd5b3461026a57600060031936011261026a57602061136b613b1a565b3461026a57600060031936011261026a57602060405160128152f35b3461026a57602060031936011261026a57600435600454906120a782821115612916565b6001600160a01b0380600e54163314159081612100575b506120d0576115578161001e936127f8565b60246040517f118cdaa7000000000000000000000000000000000000000000000000000000008152336004820152fd5b60015460281c163314159050836120be565b3461026a57606060031936011261026a57610e6161212e6124b6565b6121366124cc565b604435916121458333836137f4565b61392f565b3461026a57604060031936011261026a5760243567ffffffffffffffff811161026a573660238201121561026a57806004013590612187826125c4565b906121956040519283612583565b8282526020926024602084019160051b8301019136831161026a57602401905b82821061225757836001600160a01b037f00000000000000000000000000000000000000000000000000000000000000001633036121f95761001e90600435613766565b60646040517f08c379a000000000000000000000000000000000000000000000000000000000815260206004820152601960248201527f4f6e6c79436f6f7264696e61746f7243616e46756c66696c6c000000000000006044820152fd5b813581529084019084016121b5565b3461026a57600060031936011261026a5760a060135463ffffffff60125491604051926001600160a01b037f000000000000000000000000000000000000000000000000000000000000000016845267ffffffffffffffff82166020850152604084015261ffff8160401c16606084015260501c166080820152f35b3461026a57600060031936011261026a5761010067ffffffffffffffff60025416600354600454600554600654479130600052600960205260406000205493600b5495604051978852602088015260408701526060860152608085015260a084015260c083015260e0820152f35b3461026a57600060031936011261026a576020600b54604051908152f35b3461026a57600060031936011261026a5761001e612863565b3461026a57604060031936011261026a57610e616123a36124b6565b6024359033614ac8565b3461026a57600060031936011261026a57600c546000826123cd836127a5565b9182825260209360019085600182169182600014610f5c5750506001146123fb5750610eeb92500383612583565b849150600c6000527fdf6966c971051c3d54ec59162606531493a51404a002842f56009d7e5cf4a8c7906000915b858310612440575050610eeb935082010185610ede565b80548389018501528794508693909201918101612429565b919082519283825260005b8481106124a25750507fffffffffffffffffffffffffffffffffffffffffffffffffffffffffffffffe0601f8460006020809697860101520116010190565b602081830181015184830182015201612463565b600435906001600160a01b038216820361026a57565b602435906001600160a01b038216820361026a57565b6101a0810190811067ffffffffffffffff821117610c9a57604052565b6080810190811067ffffffffffffffff821117610c9a57604052565b67ffffffffffffffff8111610c9a57604052565b6060810190811067ffffffffffffffff821117610c9a57604052565b6020810190811067ffffffffffffffff821117610c9a57604052565b6040810190811067ffffffffffffffff821117610c9a57604052565b90601f7fffffffffffffffffffffffffffffffffffffffffffffffffffffffffffffffe0910116810190811067ffffffffffffffff821117610c9a57604052565b67ffffffffffffffff8111610c9a5760051b60200190565b600435906bffffffffffffffffffffffff8216820361026a57565b602435906bffffffffffffffffffffffff8216820361026a57565b6004359067ffffffffffffffff8216820361026a57565b6024359067ffffffffffffffff8216820361026a57565b6044359067ffffffffffffffff8216820361026a57565b60443590811515820361026a57565b602090602060408183019282815285518094520193019160005b82811061268e575050505090565b90919293826102008261278960019489516101e09060606bffffffffffffffffffffffff91828151168552826020820151166020860152604081015167ffffffffffffffff8091166040870152838383015116838701528360808301511660808701528060a08301511660a08701528360c08301511660c08701528360e08301511660e0870152610100908183015116908601526101206001600160a01b0381830151169086015261014090818101519163ffffffff8093169087015261016082818301511690870152610180809101519182511690860152826020820151166101a0860152826040820151166101c0860152015116910152565b01950193929101612680565b6084359060ff8216820361026a57565b90600182811c921680156127ee575b60208310146127bf57565b7f4e487b7100000000000000000000000000000000000000000000000000000000600052602260045260246000fd5b91607f16916127b4565b9190820391821161157957565b3d1561285e573d9067ffffffffffffffff8211610c9a576040519161285260207fffffffffffffffffffffffffffffffffffffffffffffffffffffffffffffffe0601f8401160184612583565b82523d6000602084013e565b606090565b60003381526008602052600160408220019081549182156129115781905561288d826006546127f8565b6006557f87e12c2565042763daa6bf5842ed2b6447f17f7e28f9a4905fe3959581396ead60408051338152846020820152a180808084335af16128ce612805565b50156128d75750565b60449060065490604051917fcf47918100000000000000000000000000000000000000000000000000000000835260048301526024820152fd5b505050565b1561291d57565b60646040517f08c379a000000000000000000000000000000000000000000000000000000000815260206004820152600160248201527f31000000000000000000000000000000000000000000000000000000000000006044820152fd5b60405190612988826124e2565b816101806000918281528260208201528260408201528260608201528260808201528260a08201528260c08201528260e082015282610100820152826101208201528261014082015282610160820152604051926129e5846124ff565b80845280602085015280604085015260608401520152565b90612a07826125c4565b612a146040519182612583565b8281527fffffffffffffffffffffffffffffffffffffffffffffffffffffffffffffffe0612a4282946125c4565b019060005b828110612a5357505050565b602090612a5e61297b565b82828501015201612a47565b90600167ffffffffffffffff8093160191821161157957565b91909167ffffffffffffffff8080941691160191821161157957565b67ffffffffffffffff918216908216039190821161157957565b805115611d8b5760200190565b8051821015611d8b5760209160051b010190565b9060405191612ae8836124e2565b6101808382546bffffffffffffffffffffffff908181168352818160601c16602084015260c01c604083015260018401548181166060840152818160601c16608084015260c01c60a0830152600284015481811660c0840152818160601c1660e084015260c01c61010083015260056003850154946001600160a01b03861661012085015263ffffffff8681809860a01c1661014087015260c01c166101608501528260405196612b98886124ff565b60048301549081168852818160201c16602089015260801c16604087015201541660608401520152565b9067ffffffffffffffff918260025416916000838584161015612ce957508284612bec8385612a83565b161115612cd95750815b612c0a84612c048486612a9f565b166129fd565b9415612c775750805b83831684821610612c25575050505090565b8360018282612c348195612a6a565b166000526007602052612c6d604060002084612c59612c538986612a9f565b92612ada565b911690612c66828c612ac6565b5289612ac6565b5001169050612c13565b815b84841685821610612c8c57505050505090565b8460018282612c9c819587612a9f565b166000526007602052612ccf604060002084612cbb612c538a86612a9f565b911690612cc8828d612ac6565b528a612ac6565b5001169050612c79565b612ce39082612a83565b91612bf6565b94505050505060405190612cfc8261254b565b815290565b519067ffffffffffffffff8216820361026a57565b51906001600160a01b038216820361026a57565b9190820180921161157957565b6bffffffffffffffffffffffff918216908216039190821161157957565b67ffffffffffffffff81166000526007602052600163ffffffff60036040600020015460c01c1603612dd6576bffffffffffffffffffffffff600054163410612dac57612daa90612da534613a58565b61449d565b565b60046040517f86b1569f000000000000000000000000000000000000000000000000000000008152fd5b50565b6001600160a01b0380600e54163314159081612e2a575b506120d05767ffffffffffffffff81166000526007602052600163ffffffff60036040600020015460c01c1603612dd657612daa9061449d565b60015460281c16331415905038612df0565b8181029291811591840414171561157957565b8115612e59570490565b7f4e487b7100000000000000000000000000000000000000000000000000000000600052601260045260246000fd5b8015612dd657600554612ea7612e9e8383612e3c565b600b5490612e4f565b9167ffffffffffffffff80600254169260ff60015460201c16827f0000000000000000000000000000000000000000000000000000000000000000160291821691820361157957612f0785612f02612f5b94612f6497612a83565b614a6a565b907f76cd0cedf979345ca241ce6de696a520a8efc860c6c10d9db2a7953307c237fc60a0612f3584896127f8565b9788946040519133835288602084015260408301526060820152846080820152a16127f8565b60055533613c45565b600080808084335af1612f75612805565b5015612f7e5750565b60449060055490604051917fcf47918100000000000000000000000000000000000000000000000000000000835260048301526024820152fd5b67ffffffffffffffff8091169081146115795760010190565b6001600160a01b03600091168152602090600860205260409060408120549267ffffffffffffffff9384861696818810156130eb5780828761301481948b612a83565b1611156130d357505061303161302c82985b896127f8565b6129fd565b97156130815750845b868582161061304d575050505050505090565b808561305b61307c93612a6a565b1684526007835261307685852087612cbb612c538b86612a9f565b50612fb8565b61303a565b8598979691929394955b868116838110156130c65790876130a56130c193856127f8565b168652600785526130768b89612cbb612c538b8b209386612a9f565b61308b565b5096985050505050505050565b613031916130e461302c928a612a83565b1698613026565b50505094505050505060405190612cfc8261254b565b61310a34613d16565b67ffffffffffffffff1960025467ffffffffffffffff90816001818316011692839116176002556bffffffffffffffffffffffff8093169261314b84614ff3565b6000848152600760209081526040808320805477ffffffffffffffffffffffffffffffffffffffffffffffff1643881660c01b7fffffffffffffffff0000000000000000000000000000000000000000000000001617815596909390929060028801805477ffffffffffffffffffffffffffffffffffffffffffffffff1660c086901b7fffffffffffffffff00000000000000000000000000000000000000000000000016178155946003890197337fffffffffffffffffffffffff00000000000000000000000000000000000000008a54161789557fffffffffffffffffffffffffffffffffffffffff000000000000000000000000928b848c5416178b5561329c898654168c907fffffffffffffffff000000000000000000000000ffffffffffffffffffffffff77ffffffffffffffffffffffff00000000000000000000000083549260601b169116179055565b60018b0180547fffffffffffffffff00000000000000000000000000000000000000000000000016731bc16d674ec80000000000000000000000000000178155885490941680895585547fffffffffffffffff000000000000000000000000ffffffffffffffffffffffff909116606091821c8b16821b77ffffffffffffffffffffffff000000000000000000000000161789559361337c908654815477ffffffffffffffffffffffffffffffffffffffffffffffff167fffffffffffffffff000000000000000000000000000000000000000000000000909116179055565b78010000000000000000000000000000000000000000000000008a547fffffffff0000000000000000ffffffffffffffffffffffffffffffffffffffff77ffffffff000000000000000000000000000000000000000063ffffffff85169460a01b16911617178a553385526008865282852080549068010000000000000000821015613739576001820180825582101561370c57613446918991885288882060188260031b169160021c01919067ffffffffffffffff8084549260031b9316831b921b1916179055565b868c8654938b8516948c88818c8c8b51916134608361252f565b8b83528387828501961c1685528c83019660c01c87528c51988952880152671bc16d674ec800008b8801528c8c880152886080880152600160a0880152511660c0860152511660e084015251166101008201527feb87ffbe69be596530037de78d6a6ca3317c12ce908c3c46e9cfa526531a177e6101203392a361364057505050505050612daa946005540160055578040000000000000000000000000000000000000000000000007fffffffff00000000ffffffffffffffffffffffffffffffffffffffffffffffff84541617835561356d84670de0b6b3a764000081546bffffffffffffffffffffffff600181600286015460601c16828460601c160194015460c01c911602040190565b9081838654161015613583575b505050506148b9565b61361991670de0b6b3a7640000611bd76135c5935460c01c92867f00000000000000000000000000000000000000000000000000000000000000001690612e3c565b91821660048501907fffffffff000000000000000000000000ffffffffffffffffffffffffffffffff7bffffffffffffffffffffffff0000000000000000000000000000000083549260801b169116179055565b80613626575b808061357a565b6001600160a01b036136399254166154ac565b388061361f565b8394959950612daa9a985060a0965096877fc90468505eb2131f45874a6543cc8f26cdcf8665051cf5307268576b7d543b4198156000146136a457509083918254168151968b88528701528501528301526080820152a15b6003540160035561449d565b809450600554116000146136e257908491846005540360055584600454016004558254168151968b88528701528501528301526080820152a1613698565b93906136ee848b615460565b948254168151968b88528701528501528301526080820152a1613698565b6024877f4e487b710000000000000000000000000000000000000000000000000000000081526032600452fd5b6024877f4e487b710000000000000000000000000000000000000000000000000000000081526041600452fd5b80600052601460205260406000209081549067ffffffffffffffff82169182156137ed577ff0fae454e29ad3220710f0dbfc0de63aa072447c86ae97d3c1e7133519b321119460609467ffffffffffffffff196137d8931690556137d36137cc82612ab9565b5185614b8b565b612ab9565b519060405192835260208301526040820152a1565b5050505050565b916001600160a01b0380931691600093838552600a6020526040938486209183169182875260205284862054927fffffffffffffffffffffffffffffffffffffffffffffffffffffffffffffffff8403613852575b50505050505050565b8484106138e6575080156138b6578115613886578552600a6020528385209085526020520391205538808080808080613849565b6024868651907f94280d620000000000000000000000000000000000000000000000000000000082526004820152fd5b6024868651907fe602df050000000000000000000000000000000000000000000000000000000082526004820152fd5b85517ffb8f41b20000000000000000000000000000000000000000000000000000000081526001600160a01b039190911660048201526024810184905260448101859052606490fd5b916001600160a01b03808416928315613a2757169283156139f65760009083825260096020526040822054908382106139ab575091604082827fddf252ad1be2c89b69c2b068fc378daa952ba7f163c4a11628f55a4df523b3ef95876020965260098652038282205586815220818154019055604051908152a3565b6040517fe450d38c0000000000000000000000000000000000000000000000000000000081526001600160a01b03919091166004820152602481019190915260448101839052606490fd5b60246040517fec442f0500000000000000000000000000000000000000000000000000000000815260006004820152fd5b60246040517f96c6fd1e00000000000000000000000000000000000000000000000000000000815260006004820152fd5b7f2c8225b846d7db9ad756862fb7cbd9772bb99f17ab145624877338a8e55817c2606060405133815283602082015260006040820152a160135467ffffffffffffffff167f00000000000000000000000000000000000000000000000000000000000000006001600160a01b0316803b1561026a57602460009260405194859384927f1376583800000000000000000000000000000000000000000000000000000000845260048401525af180156108b557613b115750565b612daa9061251b565b6001600160a01b037f000000000000000000000000000000000000000000000000000000000000000016301480613c1c575b15613b75577f000000000000000000000000000000000000000000000000000000000000000090565b60405160208101907f8b73c3c69bb8fe3d512ecc4cf759cc79239f7b179b0ffacaa9a75d522b39400f82527f000000000000000000000000000000000000000000000000000000000000000060408201527f000000000000000000000000000000000000000000000000000000000000000060608201524660808201523060a082015260a0815260c0810181811067ffffffffffffffff821117610c9a5760405251902090565b507f00000000000000000000000000000000000000000000000000000000000000004614613b4c565b91906001600160a01b038316908115613a275781600052600960205260406000205493818510613cb757506020817fddf252ad1be2c89b69c2b068fc378daa952ba7f163c4a11628f55a4df523b3ef92600095968587526009845203604086205580600b5403600b55604051908152a3565b6040517fe450d38c0000000000000000000000000000000000000000000000000000000081526001600160a01b03919091166004820152602481018590526044810191909152606490fd5b6001600160a01b03600e541633036120d057565b6bffffffffffffffffffffffff90818111613d2f571690565b604490604051907f6dfcc650000000000000000000000000000000000000000000000000000000008252606060048301526024820152fd5b9190926002549067ffffffffffffffff6001818416011667ffffffffffffffff198316176002556bffffffffffffffffffffffff613da8610d4c8388614ebf565b169081614485575b613de56bffffffffffffffffffffffff82166bffffffffffffffffffffffff86166bffffffffffffffffffffffff8916615060565b67ffffffffffffffff848116600101166000908152600760205260409020805477ffffffffffffffffffffffffffffffffffffffffffffffff164360c01b7fffffffffffffffff000000000000000000000000000000000000000000000000161781559560028701805477ffffffffffffffffffffffffffffffffffffffffffffffff1667ffffffffffffffff871660010160c01b7fffffffffffffffff000000000000000000000000000000000000000000000000161790556001600160a01b0381167fffffffffffffffffffffffff0000000000000000000000000000000000000000600389015416176003880155613fef7fffffffffffffffffffffffffffffffffffffffff0000000000000000000000006bffffffffffffffffffffffff8a16818a5416178955613f6e6bffffffffffffffffffffffff600054168a907fffffffffffffffff000000000000000000000000ffffffffffffffffffffffff77ffffffffffffffffffffffff00000000000000000000000083549260601b169116179055565b60018901805477ffffffffffffffffffffffff000000000000000000000000606088901b81166bffffffffffffffffffffffff8c169285167fffffffffffffffff000000000000000000000000ffffffffffffffffffffffff9081169390931717835560028c018054909416891780855560005492169116179091556118e2565b780100000000000000000000000000000000000000000000000060038801547fffffffff0000000000000000ffffffffffffffffffffffffffffffffffffffff77ffffffff00000000000000000000000000000000000000008560a01b169116171760038801556001600160a01b03811660005260086020526040600020805468010000000000000000811015610c9a5760018101808355811015611d8b5763ffffffff946140e067ffffffffffffffff928c94600052602060002090846001818d1601169160188260031b169160021c01919067ffffffffffffffff8084549260031b9316831b921b1916179055565b6bffffffffffffffffffffffff8981600054938185169a82604051926141058461252f565b8d8452816020850196818a60601c168852604086019960c01c8a52816040519c168c521660208b015216604089015260608801528989166080880152600160a0880152511660c0860152511660e084015251166101008201527feb87ffbe69be596530037de78d6a6ca3317c12ce908c3c46e9cfa526531a177e6101206001600160a01b0367ffffffffffffffff6001818b160116941692a316614328575050612daa926bffffffffffffffffffffffff80921660045401600455166005540160055578040000000000000000000000000000000000000000000000007fffffffff00000000ffffffffffffffffffffffffffffffffffffffffffffffff60038301541617600382015561424c81670de0b6b3a764000081546bffffffffffffffffffffffff600181600286015460601c16828460601c160194015460c01c911602040190565b806bffffffffffffffffffffffff835416101561426957506148b9565b6142b790670de0b6b3a7640000611bd7600285015460c01c926bffffffffffffffffffffffff7f00000000000000000000000000000000000000000000000000000000000000001690612e3c565b6004820180547fffffffff000000000000000000000000ffffffffffffffffffffffffffffffff16608083901b7bffffffffffffffffffffffff00000000000000000000000000000000161790558015611b8357614322906001600160a01b036003840154166154ac565b38611b83565b67ffffffffffffffff9350906bffffffffffffffffffffffff612daa957fc90468505eb2131f45874a6543cc8f26cdcf8665051cf5307268576b7d543b4160a0868896818660019a168211156000146143c45786915016600454016004558480600054169160405192898b818b160116845260208401521660408201526000606082015260006080820152a1166003540160035516011661449d565b86910316806005541160001461441957806005540360055585818301166004540160045585806000541692604051938a8c818c16011685526020850152166040830152606082015260006080820152a1611ccb565b818616614465576144348660005416898b818b160116615460565b905b86806000541693604051948b8d818d1601168652602086015216604084015260608301526080820152a1611ccb565b8582166004540160045561447f81898b818b160116615460565b90614436565b614498826001600160a01b038716613c45565b613db0565b90601254916013549067ffffffffffffffff9363ffffffff6040938451927f5d3b1d300000000000000000000000000000000000000000000000000000000084526004840152868116602484015261ffff81861c16604484015260501c166064820152600160848201526020600095818360a4818a6001600160a01b037f0000000000000000000000000000000000000000000000000000000000000000165af19283156145cd578793614598575b508487847fa990ada370c671616b9654533068ae76f9e9f21e952956edc8b9d578c1af6a5b98995260148452209316928367ffffffffffffffff198254161790558351928352820152a1565b9692508187813d83116145c6575b6145b08183612583565b810103126145c257955191958461454c565b8280fd5b503d6145a6565b85513d89823e3d90fd5b67ffffffffffffffff90816013541680156146fc576001600160a01b0391477f00000000000000000000000000000000000000000000000000000000000000008416803b1561026a576040517fd7ae1d3000000000000000000000000000000000000000000000000000000000815267ffffffffffffffff9490941660048501526001600160a01b03831660248501526000908490604490829084905af19283156108b5576146e5956146bf7f3bd852ee380dbce18b6ef1bb5eddd4f23559a838c997aa4676a3b745ad90811e9360609367ffffffffffffffff19976146ed575b50476127f8565b95601354946040519286168352876020840152166040820152a116601355600454612d2a565b600455600190565b6146f69061251b565b386146b8565b505050600090565b67ffffffffffffffff8060135416614894576001600160a01b037f000000000000000000000000000000000000000000000000000000000000000016604051907fa21a23e400000000000000000000000000000000000000000000000000000000825260009160208160048186865af190811561488957908491849161484d575b50168067ffffffffffffffff196013541617601355813b156145c2576040517f7341c10c00000000000000000000000000000000000000000000000000000000815267ffffffffffffffff919091166004820152306024820152919081908390604490829084905af19081156148415750916020917f27740e6ba23a94702c789d7c527564ec515fdd36289327fa98747cf1e17fcdbc93614832575b5060135416604051908152a1600190565b61483b9061251b565b38614821565b604051903d90823e3d90fd5b9150506020813d602011614881575b8161486960209383612583565b810103126145c25761487b8491612d01565b38614785565b3d915061485c565b6040513d85823e3d90fd5b50600090565b5460c01c60c881018091116115795743106148b457600190565b600090565b60038101546001600160a01b0381167f39cbf4a209b014b16bd16f4ed617501f2df769e4a480d974457b24e172e756ed6101806bffffffffffffffffffffffff8086541694600187015460028801549763ffffffff936005549060056149338a6001600160a01b0316600052600960205260406000205490565b9382600b5496604051956149468761252f565b865260208601968752604086019788526040519d8e528d602083831691015260601c1660408d0152828d1660608d0152878760a01c1660808d01528260048201548d60a08b83169101528d60c0838360201c1691015260801c1660e08d01520154166101008a015251610120890152516101408801525161016087015260c01c169460c01c93a4565b6001600160a01b031660009182808080848663ffffffff60015416f16149f3612805565b5015614a0157505050600190565b816040917f9cd50c4ae1f9e1e6fe910dd37ba6a6b9fcc5f9d9caba92513fe2f4aed5aff5a69385526008602052614a3e8160018588200154612d2a565b828652600860205260018487200155614a5981600654612d2a565b60065582519182526020820152a190565b67ffffffffffffffff90817f000000000000000000000000000000000000000000000000000000000000000016908115612e59577fffffffffffffffffffffffffffffffffffffffffffffffffffffffffffffffff01821604161c90565b6001600160a01b03809116918215614b5a5716918215614b295760207f8c5be1e5ebec7d5bd14f71427d1e84f3dd0314c0f7b2291e5b200ac8c7c3b9259183600052600a8252604060002085600052825280604060002055604051908152a3565b60246040517f94280d6200000000000000000000000000000000000000000000000000000000815260006004820152fd5b60246040517fe602df0500000000000000000000000000000000000000000000000000000000815260006004820152fd5b67ffffffffffffffff166000526007602052604060002090600382019163ffffffff600181855460c01c1603614eb9576bffffffffffffffffffffffff92838354169060035490818311614e8a5761ffff600191848694036003556005948554018555160116916004840192807fffffffffffffffffffffffffffffffffffffffffffffffffffffffff000000008554161784558654918260a01c161015600014614dcf575078020000000000000000000000000000000000000000000000007fffffffff00000000ffffffffffffffffffffffffffffffffffffffffffffffff86541617855583835416670de0b6b3a7640000600185019186835460601c16020494614ca0614c9a8661550b565b306154ac565b82549182871015614d09575050506001600160a01b0392612dd695928286610a85945403905580547fffffffffffffffffffffffffffffffff000000000000000000000000ffffffff6fffffffffffffffffffffffff000000008860201b1691161790556148b9565b85929650612dd69794614d3d614da09284610a859795995416809a0385558989600288015460c01c925460601c1691615595565b966001600160a01b0397614d54818a8a54166154ac565b82547fffffffff000000000000000000000000ffffffffffffffffffffffffffffffff16911660801b7bffffffffffffffffffffffff0000000000000000000000000000000016179055565b8101857fffffffffffffffffffffffffffffffffffffffff0000000000000000000000008254161790556148b9565b6001600160a01b03915094614e7e614e8594959378040000000000000000000000000000000000000000000000007fffffffff00000000ffffffffffffffffffffffffffffffffffffffffffffffff612daa9916178355614e2f8761550b565b9485167fffffffff000000000000000000000000ffffffffffffffffffffffffffffffff7bffffffffffffffffffffffff0000000000000000000000000000000083549260801b169116179055565b54166154ac565b6148b9565b7f4e487b7100000000000000000000000000000000000000000000000000000000600052600160045260246000fd5b50505050565b906bffffffffffffffffffffffff80911691683635c9adc5dea000008311156146fc57600554928315614f50577fffffffffffffffffffffffffffffffffffffffffffffffc9ca36523a21600000810190811161157957614f2d92614f249216612e3c565b600b5490612e3c565b90690de0b6b3a764000000008082029182040361157957614f4d91612e4f565b90565b50505050600b5490565b6000546bffffffffffffffffffffffff8082168015614fea57905b670de0b6b3a76400008360c01c8502049260601c160101808211156146fc57690de0b6b3a7640000000090818411614fe1578315614fd657614fbb938302920302612e4f565b6201000090818111614fd25763ffffffff91501690565b5090565b505050506201000090565b50505050600090565b50600090614f75565b6000546bffffffffffffffffffffffff808216801561505757905b670de0b6b3a76400008360c01c8502049260601c160101908181111561505057690de0b6b3a76400000000614fbb92671bc16d674ec800008302920302612e4f565b5050600090565b5060009061500e565b60005490916bffffffffffffffffffffffff90818316808210156150c6570390670de0b6b3a76400008360c01c8502049260601c160101808211156146fc57690de0b6b3a7640000000090818411614fe1578315614fd657614fbb938302920302612e4f565b5050600090614f75565b60ff81146151265760ff811690601f82116150fc57604051916150f283612567565b8252602082015290565b60046040517fb3512b0c000000000000000000000000000000000000000000000000000000008152fd5b50604051600f54816000615139836127a5565b808352926020906001908181169081156151c55750600114615164575b5050614f4d92500382612583565b915092600f6000527f8d1108e10bcb7c27dddfc02ed9d693a074039d026cf4ea4240b40f7d581ac802936000925b8284106151ad5750614f4d9450505081016020013880615156565b85548785018301529485019486945092810192615192565b905060209350614f4d9592507fffffffffffffffffffffffffffffffffffffffffffffffffffffffffffffff0091501682840152151560051b8201013880615156565b60ff811461522a5760ff811690601f82116150fc57604051916150f283612567565b5060405160105481600061523d836127a5565b808352926020906001908181169081156151c55750600114615267575050614f4d92500382612583565b91509260106000527f1b6847dc741a1b0cd08d278845f9d819d87b734759afb55fe2de5cb82a9ae672936000925b8284106152b05750614f4d9450505081016020013880615156565b85548785018301529485019486945092810192615295565b91907f7fffffffffffffffffffffffffffffff5d576e7357a4501ddfe92f46681b20a0841161534057926020929160ff608095604051948552168484015260408301526060820152600092839182805260015afa156148415780516001600160a01b0381161561533757918190565b50809160019190565b50505060009160039190565b6004811015615404578061535e575050565b600181036153905760046040517ff645eedf000000000000000000000000000000000000000000000000000000008152fd5b600281036153c957602482604051907ffce698f70000000000000000000000000000000000000000000000000000000082526004820152fd5b6003146153d35750565b602490604051907fd78bce0c0000000000000000000000000000000000000000000000000000000082526004820152fd5b7f4e487b7100000000000000000000000000000000000000000000000000000000600052602160045260246000fd5b60005b82518110156146fc578161544a8285612ac6565b511461545857600101615436565b505050600190565b670de0b6b3a7640000611bd76154a5936bffffffffffffffffffffffff7f00000000000000000000000000000000000000000000000000000000000000001690612e3c565b90612daa82305b6001600160a01b03169081156139f6577fddf252ad1be2c89b69c2b068fc378daa952ba7f163c4a11628f55a4df523b3ef6020826154ee600094600b54612d2a565b600b558484526009825260408420818154019055604051908152a3565b614f4d90670de0b6b3a7640000600261555783670de0b6b3a764000081546bffffffffffffffffffffffff600181600286015460601c16828460601c160194015460c01c911602040190565b92015460c01c916bffffffffffffffffffffffff7f000000000000000000000000000000000000000000000000000000000000000016020490614a6a565b9091670de0b6b3a76400009081811115614fe15781614f4d947ffffffffffffffffffffffffffffffffffffffffffffffffff21f494c589c00006bffffffffffffffffffffffff7f00000000000000000000000000000000000000000000000000000000000000001693010204020490614a6a56fea26469706673582212201083186a92a5aa8724bce9d5b2529470791a35a587163c4a75f57905f1ead5a264736f6c63430008190033cd65a78499993598be303c914c3e37b0103ead6b1f279d1dbfa0ef080e7141a4",
			"opcodes": "PUSH2 0x1E0 DUP1 PUSH1 0x40 MSTORE PUSH1 0x0 SWAP1 PUSH1 0x20 DUP2 PUSH2 0x64A7 DUP1 CODESIZE SUB DUP1 SWAP2 PUSH2 0x1E DUP3 DUP6 PUSH2 0x93A JUMP JUMPDEST DUP4 CODECOPY DUP2 ADD SUB SLT PUSH2 0x58A JUMPI MLOAD PUSH1 0x1 PUSH1 0x1 PUSH1 0xA0 SHL SUB DUP2 AND SWAP1 DUP2 SWAP1 SUB PUSH2 0x58A JUMPI PUSH1 0x40 MLOAD SWAP1 PUSH2 0x48 DUP3 PUSH2 0x91F JUMP JUMPDEST PUSH1 0x4 DUP3 MSTORE PUSH1 0x20 DUP3 ADD PUSH4 0xAA88AA9 PUSH1 0xE3 SHL SWAP3 DUP4 DUP3 MSTORE PUSH1 0x40 MLOAD SWAP3 PUSH2 0x69 DUP5 PUSH2 0x91F JUMP JUMPDEST PUSH1 0x13 DUP5 MSTORE PUSH32 0x596F7520446963652C20596F7520486F75736500000000000000000000000000 PUSH1 0x20 DUP6 ADD MSTORE PUSH1 0x40 MLOAD SWAP5 PUSH2 0xA0 DUP7 PUSH2 0x91F JUMP JUMPDEST PUSH1 0x4 DUP7 MSTORE PUSH1 0x20 DUP7 ADD MSTORE PUSH1 0x40 MLOAD SWAP5 PUSH2 0xB6 DUP7 PUSH2 0x91F JUMP JUMPDEST PUSH1 0x1 DUP7 MSTORE PUSH1 0x31 PUSH1 0xF8 SHL PUSH1 0x20 DUP8 ADD SWAP1 DUP2 MSTORE DUP6 MLOAD SWAP1 SWAP6 SWAP1 PUSH1 0x1 PUSH1 0x1 PUSH1 0x40 SHL SUB DUP2 GT PUSH2 0x7FB JUMPI PUSH1 0xC SLOAD SWAP2 PUSH1 0x1 DUP4 DUP2 SHR SWAP4 AND DUP1 ISZERO PUSH2 0x8EC JUMPI JUMPDEST PUSH1 0x20 DUP5 LT EQ PUSH2 0x7DD JUMPI DUP2 SWAP1 PUSH1 0x1F SWAP4 DUP5 DUP2 GT PUSH2 0x89D JUMPI JUMPDEST POP PUSH1 0x20 SWAP1 DUP5 DUP4 GT PUSH1 0x1 EQ PUSH2 0x81A JUMPI DUP12 SWAP3 PUSH2 0x80F JUMPI JUMPDEST POP POP DUP2 PUSH1 0x1 SHL SWAP2 PUSH1 0x0 NOT SWAP1 PUSH1 0x3 SHL SHR NOT AND OR PUSH1 0xC SSTORE JUMPDEST DUP2 MLOAD SWAP2 PUSH1 0x1 PUSH1 0x1 PUSH1 0x40 SHL SUB DUP4 GT PUSH2 0x7FB JUMPI PUSH1 0xD SLOAD PUSH1 0x1 DUP2 DUP2 SHR SWAP2 AND DUP1 ISZERO PUSH2 0x7F1 JUMPI JUMPDEST PUSH1 0x20 DUP3 LT EQ PUSH2 0x7DD JUMPI SWAP1 DUP2 DUP4 DUP6 SWAP5 SWAP4 GT PUSH2 0x78B JUMPI JUMPDEST POP PUSH1 0x20 SWAP2 DUP4 GT PUSH1 0x1 EQ PUSH2 0x708 JUMPI DUP10 SWAP3 PUSH2 0x6FD JUMPI JUMPDEST POP POP DUP2 PUSH1 0x1 SHL SWAP2 PUSH1 0x0 NOT SWAP1 PUSH1 0x3 SHL SHR NOT AND OR PUSH1 0xD SSTORE JUMPDEST DUP1 ISZERO PUSH2 0x6E4 JUMPI PUSH1 0xE DUP1 SLOAD PUSH1 0x1 PUSH1 0x1 PUSH1 0xA0 SHL SUB NOT DUP2 AND DUP4 OR SWAP1 SWAP2 SSTORE PUSH1 0x1 PUSH1 0x1 PUSH1 0xA0 SHL SUB AND PUSH32 0x8BE0079C531659141344CD1FD0A4F28419497F9722A3DAAFE3B4186F6B6457E0 DUP8 DUP1 LOG3 PUSH2 0x1DD DUP2 PUSH2 0xA99 JUMP JUMPDEST PUSH2 0x120 MSTORE PUSH2 0x1EA DUP5 PUSH2 0xC62 JUMP JUMPDEST PUSH2 0x140 MSTORE MLOAD SWAP1 KECCAK256 SWAP2 DUP3 PUSH1 0xE0 MSTORE MLOAD SWAP1 KECCAK256 SWAP1 DUP2 PUSH2 0x100 MSTORE CHAINID PUSH1 0xA0 MSTORE PUSH1 0x40 MLOAD SWAP2 PUSH1 0x20 DUP4 ADD SWAP2 PUSH32 0x8B73C3C69BB8FE3D512ECC4CF759CC79239F7B179B0FFACAA9A75D522B39400F DUP4 MSTORE PUSH1 0x40 DUP5 ADD MSTORE PUSH1 0x60 DUP4 ADD MSTORE CHAINID PUSH1 0x80 DUP4 ADD MSTORE ADDRESS PUSH1 0xA0 DUP4 ADD MSTORE PUSH1 0xA0 DUP3 MSTORE DUP2 PUSH1 0xC0 DUP2 ADD LT PUSH1 0x1 DUP1 PUSH1 0x40 SHL SUB PUSH1 0xC0 DUP5 ADD GT OR PUSH2 0x6D0 JUMPI PUSH1 0xC0 DUP3 ADD PUSH1 0x40 MSTORE DUP2 MLOAD SWAP1 KECCAK256 PUSH1 0x80 MSTORE ADDRESS PUSH1 0xC0 MSTORE PUSH3 0x33450 PUSH2 0x160 MSTORE PUSH10 0x69E10DE76676D0800000 PUSH2 0x180 MSTORE PUSH20 0x9632ADE542F12114F5E5AD4D6F8E47FB993955DA PUSH2 0x1A0 MSTORE PUSH20 0x9632ADE542F12114F5E5AD4D6F8E47FB993955DA PUSH2 0x1C0 MSTORE PUSH3 0x12291 PUSH1 0xE0 SHL PUSH1 0xC0 DUP3 ADD MSTORE DUP2 PUSH1 0xC0 DUP3 ADD PUSH1 0x4 PUSH1 0xC0 DUP5 ADD PUSH20 0x9632ADE542F12114F5E5AD4D6F8E47FB993955DA GAS STATICCALL DUP1 ISZERO PUSH2 0x6C5 JUMPI DUP3 SWAP1 DUP4 SWAP3 DUP5 SWAP2 PUSH2 0x5C4 JUMPI JUMPDEST POP PUSH2 0x304 SWAP1 PUSH2 0xE06 JUMP JUMPDEST ISZERO PUSH2 0x5B2 JUMPI PUSH2 0xFFFF AND PUSH1 0x3 LT PUSH2 0x5A0 JUMPI PUSH4 0xFFFFFFFF PUSH3 0x493E0 SWAP2 AND DUP2 GT PUSH2 0x58E JUMPI PUSH1 0x60 PUSH32 0xA26C986B913B625BAB6A879E2B105DE49C7ED875781596E89EDAD16A3F4E87B6 SWAP2 PUSH1 0x0 DUP1 MLOAD PUSH1 0x20 PUSH2 0x6487 DUP4 CODECOPY DUP2 MLOAD SWAP2 MSTORE SWAP1 DUP2 PUSH1 0x12 SSTORE PUSH13 0x493E000030000000000000000 PUSH14 0xFFFFFFFFFFFF0000000000000000 NOT PUSH1 0x13 SLOAD AND OR PUSH1 0x13 SSTORE PUSH1 0x40 MLOAD SWAP2 DUP3 MSTORE PUSH1 0x3 PUSH1 0x20 DUP4 ADD MSTORE PUSH1 0x40 DUP3 ADD MSTORE LOG1 PUSH2 0x39E PUSH2 0x95D JUMP JUMPDEST POP CALLVALUE PUSH2 0x4C1 JUMPI JUMPDEST PUSH31 0x6A94D74F43000000000000000000000000000000000000000110D9316EC000 SWAP1 SSTORE PUSH2 0x8FC PUSH4 0xFFFFFFFF NOT PUSH1 0x1 SLOAD AND OR PUSH1 0x1 SSTORE PUSH1 0x40 MLOAD PUSH2 0x5640 SWAP1 DUP2 PUSH2 0xE47 DUP3 CODECOPY PUSH1 0x80 MLOAD DUP2 PUSH2 0x3B53 ADD MSTORE PUSH1 0xA0 MLOAD DUP2 PUSH2 0x3C1F ADD MSTORE PUSH1 0xC0 MLOAD DUP2 PUSH2 0x3B24 ADD MSTORE PUSH1 0xE0 MLOAD DUP2 PUSH2 0x3BA2 ADD MSTORE PUSH2 0x100 MLOAD DUP2 PUSH2 0x3BC8 ADD MSTORE PUSH2 0x120 MLOAD DUP2 PUSH2 0x1159 ADD MSTORE PUSH2 0x140 MLOAD DUP2 PUSH2 0x1182 ADD MSTORE PUSH2 0x160 MLOAD DUP2 DUP2 DUP2 PUSH2 0x43A ADD MSTORE DUP2 DUP2 PUSH2 0x13AC ADD MSTORE DUP2 DUP2 PUSH2 0x2EC3 ADD MSTORE PUSH2 0x4A77 ADD MSTORE PUSH2 0x180 MLOAD DUP2 DUP2 DUP2 PUSH2 0x462 ADD MSTORE DUP2 DUP2 PUSH2 0x13D1 ADD MSTORE DUP2 DUP2 PUSH2 0x1BB1 ADD MSTORE DUP2 DUP2 PUSH2 0x359F ADD MSTORE DUP2 DUP2 PUSH2 0x4291 ADD MSTORE DUP2 DUP2 PUSH2 0x547F ADD MSTORE DUP2 DUP2 PUSH2 0x556D ADD MSTORE PUSH2 0x55DE ADD MSTORE PUSH2 0x1A0 MLOAD DUP2 PUSH2 0x21C7 ADD MSTORE PUSH2 0x1C0 MLOAD DUP2 DUP2 DUP2 PUSH2 0x69A ADD MSTORE DUP2 DUP2 PUSH2 0x1486 ADD MSTORE DUP2 DUP2 PUSH2 0x2293 ADD MSTORE DUP2 DUP2 PUSH2 0x3A9E ADD MSTORE DUP2 DUP2 PUSH2 0x451C ADD MSTORE DUP2 DUP2 PUSH2 0x45F8 ADD MSTORE PUSH2 0x4720 ADD MSTORE RETURN JUMPDEST PUSH32 0x2C8225B846D7DB9AD756862FB7CBD9772BB99F17AB145624877338A8E55817C2 PUSH1 0x60 PUSH1 0x40 MLOAD CALLER DUP2 MSTORE CALLVALUE PUSH1 0x20 DUP3 ADD MSTORE DUP4 PUSH1 0x40 DUP3 ADD MSTORE LOG1 PUSH2 0x1C0 MLOAD PUSH1 0x13 SLOAD PUSH1 0x1 PUSH1 0x1 PUSH1 0xA0 SHL SUB SWAP1 SWAP2 AND SWAP2 SWAP1 PUSH1 0x1 PUSH1 0x1 PUSH1 0x40 SHL SUB AND DUP3 EXTCODESIZE ISZERO PUSH2 0x58A JUMPI DUP2 SWAP1 PUSH1 0x24 PUSH1 0x40 MLOAD DUP1 SWAP6 DUP2 SWAP4 PUSH4 0x26ECB07 PUSH1 0xE3 SHL DUP4 MSTORE PUSH1 0x4 DUP4 ADD MSTORE CALLVALUE SWAP1 GAS CALL SWAP2 DUP3 ISZERO PUSH2 0x57D JUMPI PUSH31 0x6A94D74F43000000000000000000000000000000000000000110D9316EC000 SWAP3 PUSH2 0x56E JUMPI JUMPDEST POP SWAP1 POP PUSH2 0x3A5 JUMP JUMPDEST PUSH2 0x577 SWAP1 PUSH2 0x8F6 JUMP JUMPDEST CODESIZE PUSH2 0x566 JUMP JUMPDEST POP PUSH1 0x40 MLOAD SWAP1 RETURNDATASIZE SWAP1 DUP3 RETURNDATACOPY RETURNDATASIZE SWAP1 REVERT JUMPDEST POP DUP1 REVERT JUMPDEST PUSH1 0x40 MLOAD PUSH4 0x4C5ED97 PUSH1 0xE5 SHL DUP2 MSTORE PUSH1 0x4 SWAP1 REVERT JUMPDEST PUSH1 0x40 MLOAD PUSH4 0x7F5E5761 PUSH1 0xE1 SHL DUP2 MSTORE PUSH1 0x4 SWAP1 REVERT JUMPDEST PUSH1 0x40 MLOAD PUSH4 0x81255F6D PUSH1 0xE0 SHL DUP2 MSTORE PUSH1 0x4 SWAP1 REVERT JUMPDEST SWAP3 POP POP POP RETURNDATASIZE DUP1 DUP4 PUSH1 0xC0 DUP5 ADD RETURNDATACOPY PUSH2 0x5DD DUP2 PUSH1 0xC0 DUP5 ADD PUSH2 0x93A JUMP JUMPDEST DUP2 ADD SWAP1 PUSH1 0x60 DUP2 DUP4 SUB SLT PUSH2 0x6C1 JUMPI PUSH1 0xC0 DUP2 ADD MLOAD PUSH2 0xFFFF DUP2 AND DUP2 SUB PUSH2 0x6BD JUMPI PUSH1 0xE0 DUP3 ADD MLOAD SWAP2 PUSH4 0xFFFFFFFF DUP4 AND DUP4 SUB PUSH2 0x6B5 JUMPI PUSH2 0x100 DUP2 ADD MLOAD SWAP1 PUSH1 0x1 PUSH1 0x1 PUSH1 0x40 SHL SUB DUP3 GT PUSH2 0x6B9 JUMPI ADD SWAP3 PUSH1 0xC0 DUP2 ADD PUSH1 0xDF DUP6 ADD SLT ISZERO PUSH2 0x6B5 JUMPI PUSH1 0xC0 DUP5 ADD MLOAD SWAP4 PUSH1 0x1 PUSH1 0x1 PUSH1 0x40 SHL SUB DUP6 GT PUSH2 0x6A1 JUMPI DUP5 PUSH1 0x5 SHL SWAP1 PUSH1 0x40 MLOAD SWAP6 PUSH2 0x65C PUSH1 0x20 DUP5 ADD DUP9 PUSH2 0x93A JUMP JUMPDEST DUP7 MSTORE PUSH1 0xC0 PUSH1 0xE0 PUSH1 0x20 DUP9 ADD SWAP4 DUP4 ADD ADD SWAP4 ADD DUP4 GT PUSH2 0x69D JUMPI PUSH1 0xE0 ADD SWAP1 JUMPDEST DUP3 DUP3 LT PUSH2 0x68D JUMPI POP POP POP PUSH2 0x304 SWAP1 SWAP2 SWAP3 SWAP1 PUSH2 0x2FA JUMP JUMPDEST DUP2 MLOAD DUP2 MSTORE PUSH1 0x20 SWAP2 DUP3 ADD SWAP2 ADD PUSH2 0x677 JUMP JUMPDEST DUP7 DUP1 REVERT JUMPDEST PUSH4 0x4E487B71 PUSH1 0xE0 SHL DUP7 MSTORE PUSH1 0x41 PUSH1 0x4 MSTORE PUSH1 0x24 DUP7 REVERT JUMPDEST DUP5 DUP1 REVERT JUMPDEST DUP6 DUP1 REVERT JUMPDEST DUP4 DUP1 REVERT JUMPDEST DUP3 DUP1 REVERT JUMPDEST PUSH1 0x40 MLOAD RETURNDATASIZE DUP5 DUP3 RETURNDATACOPY RETURNDATASIZE SWAP1 REVERT JUMPDEST PUSH4 0x4E487B71 PUSH1 0xE0 SHL DUP4 MSTORE PUSH1 0x41 PUSH1 0x4 MSTORE PUSH1 0x24 DUP4 REVERT JUMPDEST PUSH1 0x40 MLOAD PUSH4 0x1E4FBDF7 PUSH1 0xE0 SHL DUP2 MSTORE PUSH1 0x4 DUP2 ADD DUP8 SWAP1 MSTORE PUSH1 0x24 SWAP1 REVERT JUMPDEST ADD MLOAD SWAP1 POP CODESIZE DUP1 PUSH2 0x177 JUMP JUMPDEST PUSH1 0xD DUP11 MSTORE PUSH32 0xD7B6990105719101DABEB77144F2A3385C8033ACD3AF97E9423A695E81AD1EB5 SWAP3 POP PUSH1 0x1F NOT DUP5 AND DUP11 JUMPDEST DUP2 DUP2 LT PUSH2 0x773 JUMPI POP SWAP1 DUP5 PUSH1 0x1 SWAP6 SWAP5 SWAP4 SWAP3 LT PUSH2 0x75A JUMPI JUMPDEST POP POP POP DUP2 SHL ADD PUSH1 0xD SSTORE PUSH2 0x18D JUMP JUMPDEST ADD MLOAD PUSH1 0x0 NOT PUSH1 0xF8 DUP5 PUSH1 0x3 SHL AND SHR NOT AND SWAP1 SSTORE CODESIZE DUP1 DUP1 PUSH2 0x74C JUMP JUMPDEST SWAP3 SWAP4 PUSH1 0x20 PUSH1 0x1 DUP2 SWAP3 DUP8 DUP7 ADD MLOAD DUP2 SSTORE ADD SWAP6 ADD SWAP4 ADD PUSH2 0x736 JUMP JUMPDEST SWAP1 SWAP2 SWAP3 POP PUSH1 0xD DUP11 MSTORE PUSH1 0x20 DUP11 KECCAK256 DUP4 DUP1 DUP7 ADD PUSH1 0x5 SHR DUP3 ADD SWAP3 PUSH1 0x20 DUP8 LT PUSH2 0x7D4 JUMPI JUMPDEST SWAP5 DUP7 SWAP6 SWAP5 SWAP4 SWAP3 SWAP2 SWAP5 ADD PUSH1 0x5 SHR ADD SWAP1 JUMPDEST DUP2 DUP2 LT PUSH2 0x7C6 JUMPI POP PUSH2 0x163 JUMP JUMPDEST DUP12 DUP2 SSTORE DUP6 SWAP5 POP PUSH1 0x1 ADD PUSH2 0x7B9 JUMP JUMPDEST SWAP3 POP DUP2 SWAP3 PUSH2 0x7AA JUMP JUMPDEST PUSH4 0x4E487B71 PUSH1 0xE0 SHL DUP11 MSTORE PUSH1 0x22 PUSH1 0x4 MSTORE PUSH1 0x24 DUP11 REVERT JUMPDEST SWAP1 PUSH1 0x7F AND SWAP1 PUSH2 0x14E JUMP JUMPDEST PUSH4 0x4E487B71 PUSH1 0xE0 SHL DUP10 MSTORE PUSH1 0x41 PUSH1 0x4 MSTORE PUSH1 0x24 DUP10 REVERT JUMPDEST ADD MLOAD SWAP1 POP CODESIZE DUP1 PUSH2 0x116 JUMP JUMPDEST PUSH1 0xC DUP13 MSTORE PUSH32 0xDF6966C971051C3D54EC59162606531493A51404A002842F56009D7E5CF4A8C7 SWAP3 POP PUSH1 0x1F NOT DUP5 AND DUP13 JUMPDEST DUP2 DUP2 LT PUSH2 0x885 JUMPI POP SWAP1 DUP5 PUSH1 0x1 SWAP6 SWAP5 SWAP4 SWAP3 LT PUSH2 0x86C JUMPI JUMPDEST POP POP POP DUP2 SHL ADD PUSH1 0xC SSTORE PUSH2 0x12C JUMP JUMPDEST ADD MLOAD PUSH1 0x0 NOT PUSH1 0xF8 DUP5 PUSH1 0x3 SHL AND SHR NOT AND SWAP1 SSTORE CODESIZE DUP1 DUP1 PUSH2 0x85E JUMP JUMPDEST SWAP3 SWAP4 PUSH1 0x20 PUSH1 0x1 DUP2 SWAP3 DUP8 DUP7 ADD MLOAD DUP2 SSTORE ADD SWAP6 ADD SWAP4 ADD PUSH2 0x848 JUMP JUMPDEST SWAP1 SWAP2 POP PUSH1 0xC DUP12 MSTORE PUSH1 0x20 DUP12 KECCAK256 DUP5 DUP1 DUP6 ADD PUSH1 0x5 SHR DUP3 ADD SWAP3 PUSH1 0x20 DUP7 LT PUSH2 0x8E3 JUMPI JUMPDEST SWAP1 DUP6 SWAP5 SWAP4 SWAP3 SWAP2 ADD PUSH1 0x5 SHR ADD SWAP1 JUMPDEST DUP2 DUP2 LT PUSH2 0x8D5 JUMPI POP PUSH2 0x101 JUMP JUMPDEST DUP13 DUP2 SSTORE DUP5 SWAP4 POP PUSH1 0x1 ADD PUSH2 0x8C8 JUMP JUMPDEST SWAP3 POP DUP2 SWAP3 PUSH2 0x8BB JUMP JUMPDEST SWAP3 PUSH1 0x7F AND SWAP3 PUSH2 0xEB JUMP JUMPDEST PUSH1 0x1 PUSH1 0x1 PUSH1 0x40 SHL SUB DUP2 GT PUSH2 0x909 JUMPI PUSH1 0x40 MSTORE JUMP JUMPDEST PUSH4 0x4E487B71 PUSH1 0xE0 SHL PUSH1 0x0 MSTORE PUSH1 0x41 PUSH1 0x4 MSTORE PUSH1 0x24 PUSH1 0x0 REVERT JUMPDEST PUSH1 0x40 DUP2 ADD SWAP1 DUP2 LT PUSH1 0x1 PUSH1 0x1 PUSH1 0x40 SHL SUB DUP3 GT OR PUSH2 0x909 JUMPI PUSH1 0x40 MSTORE JUMP JUMPDEST PUSH1 0x1F SWAP1 SWAP2 ADD PUSH1 0x1F NOT AND DUP2 ADD SWAP1 PUSH1 0x1 PUSH1 0x1 PUSH1 0x40 SHL SUB DUP3 GT SWAP1 DUP3 LT OR PUSH2 0x909 JUMPI PUSH1 0x40 MSTORE JUMP JUMPDEST PUSH1 0x13 SLOAD PUSH1 0x1 PUSH1 0x1 PUSH1 0x40 SHL SUB SWAP1 DUP2 AND PUSH2 0xA93 JUMPI PUSH1 0x1 DUP1 PUSH1 0xA0 SHL SUB PUSH2 0x1C0 DUP2 DUP2 MLOAD AND SWAP2 PUSH1 0x40 MLOAD PUSH4 0x288688F9 PUSH1 0xE2 SHL DUP2 MSTORE PUSH1 0x20 DUP2 PUSH1 0x4 DUP2 PUSH1 0x0 DUP1 SWAP9 GAS CALL SWAP1 DUP2 ISZERO PUSH2 0xA88 JUMPI SWAP1 DUP6 SWAP2 DUP6 SWAP2 PUSH2 0xA4A JUMPI JUMPDEST POP AND SWAP2 DUP3 PUSH1 0x1 DUP1 PUSH1 0x40 SHL SUB NOT PUSH1 0x13 SLOAD AND OR PUSH1 0x13 SSTORE MLOAD AND SWAP1 DUP2 EXTCODESIZE ISZERO PUSH2 0x6C1 JUMPI DUP3 SWAP2 PUSH1 0x44 DUP4 SWAP3 PUSH1 0x40 MLOAD SWAP6 DUP7 SWAP4 DUP5 SWAP3 PUSH4 0x1CD07043 PUSH1 0xE2 SHL DUP5 MSTORE PUSH1 0x4 DUP5 ADD MSTORE ADDRESS PUSH1 0x24 DUP5 ADD MSTORE GAS CALL SWAP1 DUP2 ISZERO PUSH2 0xA3E JUMPI POP SWAP2 PUSH1 0x20 SWAP2 PUSH32 0x27740E6BA23A94702C789D7C527564EC515FDD36289327FA98747CF1E17FCDBC SWAP4 PUSH2 0xA2F JUMPI JUMPDEST POP PUSH1 0x13 SLOAD AND PUSH1 0x40 MLOAD SWAP1 DUP2 MSTORE LOG1 PUSH1 0x1 SWAP1 JUMP JUMPDEST PUSH2 0xA38 SWAP1 PUSH2 0x8F6 JUMP JUMPDEST CODESIZE PUSH2 0xA1E JUMP JUMPDEST PUSH1 0x40 MLOAD SWAP1 RETURNDATASIZE SWAP1 DUP3 RETURNDATACOPY RETURNDATASIZE SWAP1 REVERT JUMPDEST SWAP2 POP POP PUSH1 0x20 DUP2 RETURNDATASIZE PUSH1 0x20 GT PUSH2 0xA80 JUMPI JUMPDEST DUP2 PUSH2 0xA66 PUSH1 0x20 SWAP4 DUP4 PUSH2 0x93A JUMP JUMPDEST DUP2 ADD SUB SLT PUSH2 0x6BD JUMPI MLOAD DUP5 DUP2 AND DUP2 SUB PUSH2 0x6BD JUMPI DUP5 SWAP1 CODESIZE PUSH2 0x9A8 JUMP JUMPDEST RETURNDATASIZE SWAP2 POP PUSH2 0xA59 JUMP JUMPDEST PUSH1 0x40 MLOAD RETURNDATASIZE DUP7 DUP3 RETURNDATACOPY RETURNDATASIZE SWAP1 REVERT JUMPDEST POP PUSH1 0x0 SWAP1 JUMP JUMPDEST DUP1 MLOAD PUSH1 0x20 SWAP1 DUP2 DUP2 LT ISZERO PUSH2 0xB31 JUMPI POP PUSH1 0x1F DUP3 MLOAD GT PUSH2 0xAD2 JUMPI DUP1 DUP3 MLOAD SWAP3 ADD MLOAD SWAP1 DUP1 DUP4 LT PUSH2 0xAC3 JUMPI POP OR SWAP1 JUMP JUMPDEST DUP3 PUSH1 0x0 NOT SWAP2 SUB PUSH1 0x3 SHL SHL AND OR SWAP1 JUMP JUMPDEST SWAP1 PUSH1 0x40 MLOAD DUP1 SWAP3 PUSH4 0x305A27A9 PUSH1 0xE0 SHL DUP3 MSTORE DUP1 PUSH1 0x4 DUP4 ADD MSTORE DUP3 MLOAD SWAP1 DUP2 PUSH1 0x24 DUP5 ADD MSTORE PUSH1 0x0 SWAP4 JUMPDEST DUP3 DUP6 LT PUSH2 0xB18 JUMPI POP POP PUSH1 0x44 SWAP3 POP PUSH1 0x0 DUP4 DUP3 DUP5 ADD ADD MSTORE PUSH1 0x1F DUP1 NOT SWAP2 ADD AND DUP2 ADD SUB ADD SWAP1 REVERT JUMPDEST DUP5 DUP2 ADD DUP3 ADD MLOAD DUP7 DUP7 ADD PUSH1 0x44 ADD MSTORE SWAP4 DUP2 ADD SWAP4 DUP6 SWAP4 POP PUSH2 0xAF5 JUMP JUMPDEST SWAP1 PUSH1 0x1 PUSH1 0x1 PUSH1 0x40 SHL SUB DUP3 GT PUSH2 0x909 JUMPI PUSH1 0xF SLOAD SWAP3 PUSH1 0x1 SWAP4 DUP5 DUP2 DUP2 SHR SWAP2 AND DUP1 ISZERO PUSH2 0xC58 JUMPI JUMPDEST DUP4 DUP3 LT EQ PUSH2 0xC42 JUMPI PUSH1 0x1F DUP2 GT PUSH2 0xC0B JUMPI JUMPDEST POP DUP2 PUSH1 0x1F DUP5 GT PUSH1 0x1 EQ PUSH2 0xBA3 JUMPI POP SWAP3 DUP3 SWAP4 SWAP2 DUP4 SWAP3 PUSH1 0x0 SWAP5 PUSH2 0xB98 JUMPI JUMPDEST POP POP SHL SWAP2 PUSH1 0x0 NOT SWAP1 PUSH1 0x3 SHL SHR NOT AND OR PUSH1 0xF SSTORE PUSH1 0xFF SWAP1 JUMP JUMPDEST ADD MLOAD SWAP3 POP CODESIZE DUP1 PUSH2 0xB81 JUMP JUMPDEST SWAP2 SWAP1 DUP4 PUSH1 0x1F NOT DUP2 AND PUSH1 0xF PUSH1 0x0 MSTORE DUP5 PUSH1 0x0 KECCAK256 SWAP5 PUSH1 0x0 SWAP1 JUMPDEST DUP9 DUP4 DUP4 LT PUSH2 0xBF1 JUMPI POP POP POP LT PUSH2 0xBD8 JUMPI JUMPDEST POP POP POP DUP2 SHL ADD PUSH1 0xF SSTORE PUSH1 0xFF SWAP1 JUMP JUMPDEST ADD MLOAD PUSH1 0x0 NOT PUSH1 0xF8 DUP5 PUSH1 0x3 SHL AND SHR NOT AND SWAP1 SSTORE CODESIZE DUP1 DUP1 PUSH2 0xBCA JUMP JUMPDEST DUP6 DUP8 ADD MLOAD DUP9 SSTORE SWAP1 SWAP7 ADD SWAP6 SWAP5 DUP6 ADD SWAP5 DUP8 SWAP4 POP SWAP1 DUP2 ADD SWAP1 PUSH2 0xBB9 JUMP JUMPDEST PUSH1 0xF PUSH1 0x0 MSTORE DUP5 PUSH1 0x1F DUP5 PUSH1 0x0 KECCAK256 SWAP3 ADD PUSH1 0x5 SHR DUP3 ADD SWAP2 PUSH1 0x1F DUP7 ADD PUSH1 0x5 SHR ADD JUMPDEST DUP3 DUP2 LT PUSH2 0xC36 JUMPI POP POP PUSH2 0xB65 JUMP JUMPDEST PUSH1 0x0 DUP2 SSTORE ADD DUP6 SWAP1 PUSH2 0xC28 JUMP JUMPDEST PUSH4 0x4E487B71 PUSH1 0xE0 SHL PUSH1 0x0 MSTORE PUSH1 0x22 PUSH1 0x4 MSTORE PUSH1 0x24 PUSH1 0x0 REVERT JUMPDEST SWAP1 PUSH1 0x7F AND SWAP1 PUSH2 0xB54 JUMP JUMPDEST DUP1 MLOAD PUSH1 0x20 SWAP1 DUP2 DUP2 LT ISZERO PUSH2 0xCEB JUMPI POP PUSH1 0x1F DUP3 MLOAD GT PUSH2 0xC8C JUMPI DUP1 DUP3 MLOAD SWAP3 ADD MLOAD SWAP1 DUP1 DUP4 LT PUSH2 0xAC3 JUMPI POP OR SWAP1 JUMP JUMPDEST SWAP1 PUSH1 0x40 MLOAD DUP1 SWAP3 PUSH4 0x305A27A9 PUSH1 0xE0 SHL DUP3 MSTORE DUP1 PUSH1 0x4 DUP4 ADD MSTORE DUP3 MLOAD SWAP1 DUP2 PUSH1 0x24 DUP5 ADD MSTORE PUSH1 0x0 SWAP4 JUMPDEST DUP3 DUP6 LT PUSH2 0xCD2 JUMPI POP POP PUSH1 0x44 SWAP3 POP PUSH1 0x0 DUP4 DUP3 DUP5 ADD ADD MSTORE PUSH1 0x1F DUP1 NOT SWAP2 ADD AND DUP2 ADD SUB ADD SWAP1 REVERT JUMPDEST DUP5 DUP2 ADD DUP3 ADD MLOAD DUP7 DUP7 ADD PUSH1 0x44 ADD MSTORE SWAP4 DUP2 ADD SWAP4 DUP6 SWAP4 POP PUSH2 0xCAF JUMP JUMPDEST SWAP1 PUSH1 0x1 PUSH1 0x1 PUSH1 0x40 SHL SUB DUP3 GT PUSH2 0x909 JUMPI PUSH1 0x10 SLOAD SWAP3 PUSH1 0x1 SWAP4 DUP5 DUP2 DUP2 SHR SWAP2 AND DUP1 ISZERO PUSH2 0xDFC JUMPI JUMPDEST DUP4 DUP3 LT EQ PUSH2 0xC42 JUMPI PUSH1 0x1F DUP2 GT PUSH2 0xDC5 JUMPI JUMPDEST POP DUP2 PUSH1 0x1F DUP5 GT PUSH1 0x1 EQ PUSH2 0xD5D JUMPI POP SWAP3 DUP3 SWAP4 SWAP2 DUP4 SWAP3 PUSH1 0x0 SWAP5 PUSH2 0xD52 JUMPI JUMPDEST POP POP SHL SWAP2 PUSH1 0x0 NOT SWAP1 PUSH1 0x3 SHL SHR NOT AND OR PUSH1 0x10 SSTORE PUSH1 0xFF SWAP1 JUMP JUMPDEST ADD MLOAD SWAP3 POP CODESIZE DUP1 PUSH2 0xD3B JUMP JUMPDEST SWAP2 SWAP1 DUP4 PUSH1 0x1F NOT DUP2 AND PUSH1 0x10 PUSH1 0x0 MSTORE DUP5 PUSH1 0x0 KECCAK256 SWAP5 PUSH1 0x0 SWAP1 JUMPDEST DUP9 DUP4 DUP4 LT PUSH2 0xDAB JUMPI POP POP POP LT PUSH2 0xD92 JUMPI JUMPDEST POP POP POP DUP2 SHL ADD PUSH1 0x10 SSTORE PUSH1 0xFF SWAP1 JUMP JUMPDEST ADD MLOAD PUSH1 0x0 NOT PUSH1 0xF8 DUP5 PUSH1 0x3 SHL AND SHR NOT AND SWAP1 SSTORE CODESIZE DUP1 DUP1 PUSH2 0xD84 JUMP JUMPDEST DUP6 DUP8 ADD MLOAD DUP9 SSTORE SWAP1 SWAP7 ADD SWAP6 SWAP5 DUP6 ADD SWAP5 DUP8 SWAP4 POP SWAP1 DUP2 ADD SWAP1 PUSH2 0xD73 JUMP JUMPDEST PUSH1 0x10 PUSH1 0x0 MSTORE DUP5 PUSH1 0x1F DUP5 PUSH1 0x0 KECCAK256 SWAP3 ADD PUSH1 0x5 SHR DUP3 ADD SWAP2 PUSH1 0x1F DUP7 ADD PUSH1 0x5 SHR ADD JUMPDEST DUP3 DUP2 LT PUSH2 0xDF0 JUMPI POP POP PUSH2 0xD1F JUMP JUMPDEST PUSH1 0x0 DUP2 SSTORE ADD DUP6 SWAP1 PUSH2 0xDE2 JUMP JUMPDEST SWAP1 PUSH1 0x7F AND SWAP1 PUSH2 0xD0E JUMP JUMPDEST PUSH1 0x0 JUMPDEST DUP2 MLOAD DUP2 LT ISZERO PUSH2 0xE3F JUMPI PUSH1 0x0 DUP1 MLOAD PUSH1 0x20 PUSH2 0x6487 DUP4 CODECOPY DUP2 MLOAD SWAP2 MSTORE PUSH1 0x20 DUP3 PUSH1 0x5 SHL DUP5 ADD ADD MLOAD EQ PUSH2 0xE38 JUMPI PUSH1 0x1 ADD PUSH2 0xE09 JUMP JUMPDEST POP POP PUSH1 0x1 SWAP1 JUMP JUMPDEST POP POP PUSH1 0x0 SWAP1 JUMP INVALID PUSH1 0x80 DUP1 PUSH1 0x40 MSTORE PUSH1 0x4 CALLDATASIZE LT ISZERO PUSH2 0x28 JUMPI JUMPDEST POP CALLDATASIZE ISZERO PUSH2 0x20 JUMPI PUSH2 0x1E PUSH2 0x3101 JUMP JUMPDEST STOP JUMPDEST PUSH2 0x1E PUSH2 0x3101 JUMP JUMPDEST PUSH1 0x0 CALLDATALOAD PUSH1 0xE0 SHR SWAP1 DUP2 PUSH4 0x6FDDE03 EQ PUSH2 0x23AD JUMPI POP DUP1 PUSH4 0x95EA7B3 EQ PUSH2 0x2387 JUMPI DUP1 PUSH4 0x1333DB2E EQ PUSH2 0x236E JUMPI DUP1 PUSH4 0x18160DDD EQ PUSH2 0x2350 JUMPI DUP1 PUSH4 0x1865C57D EQ PUSH2 0x22E2 JUMPI DUP1 PUSH4 0x1C478120 EQ PUSH2 0x2266 JUMPI DUP1 PUSH4 0x1FE543E3 EQ PUSH2 0x214A JUMPI DUP1 PUSH4 0x23B872DD EQ PUSH2 0x2112 JUMPI DUP1 PUSH4 0x30EA4C32 EQ PUSH2 0x2083 JUMPI DUP1 PUSH4 0x313CE567 EQ PUSH2 0x2067 JUMPI DUP1 PUSH4 0x3644E515 EQ PUSH2 0x204C JUMPI DUP1 PUSH4 0x419BBB76 EQ PUSH2 0x1F12 JUMPI DUP1 PUSH4 0x42966C68 EQ PUSH2 0x1EF5 JUMPI DUP1 PUSH4 0x4BD8EC5E EQ PUSH2 0x1E41 JUMPI DUP1 PUSH4 0x59328401 EQ PUSH2 0x1DFE JUMPI DUP1 PUSH4 0x6142B027 EQ PUSH2 0x1DC9 JUMPI DUP1 PUSH4 0x621AD856 EQ PUSH2 0x166C JUMPI DUP1 PUSH4 0x691F20D1 EQ PUSH2 0x1427 JUMPI DUP1 PUSH4 0x6BD50CEF EQ PUSH2 0x1373 JUMPI DUP1 PUSH4 0x70A08231 EQ PUSH2 0x1333 JUMPI DUP1 PUSH4 0x715018A6 EQ PUSH2 0x12C0 JUMPI DUP1 PUSH4 0x79CC6790 EQ PUSH2 0x1290 JUMPI DUP1 PUSH4 0x7ECEBE00 EQ PUSH2 0x1256 JUMPI DUP1 PUSH4 0x84B0196E EQ PUSH2 0x1140 JUMPI DUP1 PUSH4 0x89B94CCA EQ PUSH2 0x1008 JUMPI DUP1 PUSH4 0x8BF13B0F EQ PUSH2 0xFEC JUMPI DUP1 PUSH4 0x8DA5CB5B EQ PUSH2 0xFC5 JUMPI DUP1 PUSH4 0x93D81D58 EQ PUSH2 0xF9A JUMPI DUP1 PUSH4 0x95D89B41 EQ PUSH2 0xE99 JUMPI DUP1 PUSH4 0xA21A23E4 EQ PUSH2 0xE6C JUMPI DUP1 PUSH4 0xA9059CBB EQ PUSH2 0xE3B JUMPI DUP1 PUSH4 0xB63BDD54 EQ PUSH2 0xD95 JUMPI DUP1 PUSH4 0xBF41DADB EQ PUSH2 0xD74 JUMPI DUP1 PUSH4 0xBFF2FAD3 EQ PUSH2 0xD0F JUMPI DUP1 PUSH4 0xD4EEC484 EQ PUSH2 0xCFA JUMPI DUP1 PUSH4 0xD505ACCF EQ PUSH2 0xB2B JUMPI DUP1 PUSH4 0xD7194CCB EQ PUSH2 0x973 JUMPI DUP1 PUSH4 0xDB006A75 EQ PUSH2 0x957 JUMPI DUP1 PUSH4 0xDD62ED3E EQ PUSH2 0x905 JUMPI DUP1 PUSH4 0xED042C9B EQ PUSH2 0x8C1 JUMPI DUP1 PUSH4 0xF141B6BB EQ PUSH2 0x622 JUMPI DUP1 PUSH4 0xF2FDE38B EQ PUSH2 0x56B JUMPI DUP1 PUSH4 0xF516EC9F EQ PUSH2 0x2E7 JUMPI DUP1 PUSH4 0xFE585B7F EQ PUSH2 0x26F JUMPI PUSH4 0xFF2D9665 EQ PUSH2 0x224 JUMPI CODESIZE PUSH2 0xF JUMP JUMPDEST CALLVALUE PUSH2 0x26A JUMPI PUSH1 0x60 PUSH1 0x3 NOT CALLDATASIZE ADD SLT PUSH2 0x26A JUMPI PUSH2 0x266 PUSH2 0x25A PUSH2 0x243 PUSH2 0x2612 JUMP JUMPDEST PUSH2 0x24B PUSH2 0x2629 JUMP JUMPDEST PUSH2 0x253 PUSH2 0x2657 JUMP JUMPDEST SWAP2 CALLER PUSH2 0x2FD1 JUMP JUMPDEST PUSH1 0x40 MLOAD SWAP2 DUP3 SWAP2 DUP3 PUSH2 0x2666 JUMP JUMPDEST SUB SWAP1 RETURN JUMPDEST PUSH1 0x0 DUP1 REVERT JUMPDEST PUSH1 0x40 PUSH1 0x3 NOT CALLDATASIZE ADD SLT PUSH2 0x26A JUMPI PUSH2 0x1E PUSH2 0x286 PUSH2 0x25DC JUMP JUMPDEST PUSH2 0x28E PUSH2 0x25F7 JUMP JUMPDEST PUSH2 0x297 CALLVALUE PUSH2 0x3D16 JUMP JUMPDEST PUSH1 0x0 SLOAD SWAP1 SWAP2 PUSH12 0xFFFFFFFFFFFFFFFFFFFFFFFF SWAP2 DUP3 AND SWAP1 DUP3 DUP2 AND DUP3 GT PUSH2 0x2DF JUMPI POP SWAP1 JUMPDEST DUP2 DUP2 AND SWAP1 DUP4 AND LT ISZERO PUSH2 0x2CF JUMPI POP PUSH1 0x0 JUMPDEST CALLER PUSH2 0x3D67 JUMP JUMPDEST SWAP1 DUP2 PUSH2 0x2DA SWAP2 PUSH2 0x2D37 JUMP JUMPDEST PUSH2 0x2C9 JUMP JUMPDEST SWAP1 POP SWAP1 PUSH2 0x2B9 JUMP JUMPDEST CALLVALUE PUSH2 0x26A JUMPI PUSH1 0xA0 PUSH1 0x3 NOT CALLDATASIZE ADD SLT PUSH2 0x26A JUMPI PUSH2 0x300 PUSH2 0x25DC JUMP JUMPDEST PUSH2 0x308 PUSH2 0x25F7 JUMP JUMPDEST PUSH2 0x310 PUSH2 0x2640 JUMP JUMPDEST PUSH1 0x64 CALLDATALOAD SWAP1 PUSH4 0xFFFFFFFF DUP3 AND DUP1 SWAP3 SUB PUSH2 0x26A JUMPI PUSH2 0x32A PUSH2 0x2795 JUMP JUMPDEST SWAP3 PUSH2 0x333 PUSH2 0x3D02 JUMP JUMPDEST PUSH8 0xFFFFFFFFFFFFFFFF SWAP3 PUSH7 0x11C37937E08000 DUP5 DUP5 AND PUSH2 0x35C PUSH8 0x2C68AF0BB140000 DUP3 GT ISZERO PUSH2 0x2916 JUMP JUMPDEST LT PUSH2 0x50D JUMPI PUSH1 0x1 SLOAD SWAP5 PUSH1 0xFF DUP7 PUSH1 0x20 SHR AND PUSH1 0xFF DUP3 AND LT PUSH2 0x4AF JUMPI PUSH32 0x1E18870FA6DCB675BBB26E264AEB27803736955E55186EBA839862691393D94D SWAP7 PUSH2 0x100 SWAP7 DUP4 PUSH32 0xFFFFFFFFFFFFFFFFFFFFFFFFFFFFFFFFFFFFFFFFFFFFFFFFFFFFFF0000000000 PUSH5 0xFF00000000 PUSH32 0xFFFFFFFFFFFFFFFF000000000000000000000000000000000000000000000000 SWAP8 PUSH1 0xFF SWAP10 PUSH24 0xFFFFFFFFFFFFFFFFFFFFFFFF000000000000000000000000 PUSH12 0xFFFFFFFFFFFFFFFFFFFFFFFF DUP1 SWAP9 AND SWAP11 DUP12 SWAP3 PUSH1 0xC0 SHL AND SWAP3 PUSH1 0x60 SHL AND OR OR SWAP6 DUP7 PUSH1 0x0 SSTORE PUSH1 0x20 SHL AND SWAP3 AND OR OR SWAP4 DUP5 PUSH1 0x1 SSTORE PUSH1 0x40 MLOAD SWAP7 CALLER DUP9 MSTORE PUSH32 0x0 AND PUSH1 0x20 DUP9 ADD MSTORE DUP2 PUSH32 0x0 AND PUSH1 0x40 DUP9 ADD MSTORE PUSH1 0x60 DUP8 ADD MSTORE DUP2 PUSH1 0x60 SHR AND PUSH1 0x80 DUP7 ADD MSTORE PUSH1 0xC0 SHR PUSH1 0xA0 DUP6 ADD MSTORE PUSH1 0xC0 DUP5 ADD MSTORE PUSH1 0x20 SHR AND PUSH1 0xE0 DUP3 ADD MSTORE LOG1 STOP JUMPDEST PUSH1 0x64 PUSH1 0x40 MLOAD PUSH32 0x8C379A000000000000000000000000000000000000000000000000000000000 DUP2 MSTORE PUSH1 0x20 PUSH1 0x4 DUP3 ADD MSTORE PUSH1 0x1 PUSH1 0x24 DUP3 ADD MSTORE PUSH32 0x3300000000000000000000000000000000000000000000000000000000000000 PUSH1 0x44 DUP3 ADD MSTORE REVERT JUMPDEST PUSH1 0x64 PUSH1 0x40 MLOAD PUSH32 0x8C379A000000000000000000000000000000000000000000000000000000000 DUP2 MSTORE PUSH1 0x20 PUSH1 0x4 DUP3 ADD MSTORE PUSH1 0x1 PUSH1 0x24 DUP3 ADD MSTORE PUSH32 0x3200000000000000000000000000000000000000000000000000000000000000 PUSH1 0x44 DUP3 ADD MSTORE REVERT JUMPDEST CALLVALUE PUSH2 0x26A JUMPI PUSH1 0x20 PUSH1 0x3 NOT CALLDATASIZE ADD SLT PUSH2 0x26A JUMPI PUSH2 0x584 PUSH2 0x24B6 JUMP JUMPDEST PUSH2 0x58C PUSH2 0x3D02 JUMP JUMPDEST PUSH1 0x1 PUSH1 0x1 PUSH1 0xA0 SHL SUB DUP1 SWAP2 AND SWAP1 DUP2 ISZERO PUSH2 0x5F1 JUMPI PUSH1 0xE SLOAD DUP3 PUSH32 0xFFFFFFFFFFFFFFFFFFFFFFFF0000000000000000000000000000000000000000 DUP3 AND OR PUSH1 0xE SSTORE AND PUSH32 0x8BE0079C531659141344CD1FD0A4F28419497F9722A3DAAFE3B4186F6B6457E0 PUSH1 0x0 DUP1 LOG3 STOP JUMPDEST PUSH1 0x24 PUSH1 0x40 MLOAD PUSH32 0x1E4FBDF700000000000000000000000000000000000000000000000000000000 DUP2 MSTORE PUSH1 0x0 PUSH1 0x4 DUP3 ADD MSTORE REVERT JUMPDEST CALLVALUE PUSH2 0x26A JUMPI PUSH1 0x60 PUSH1 0x3 NOT CALLDATASIZE ADD SLT PUSH2 0x26A JUMPI PUSH1 0x24 CALLDATALOAD PUSH2 0xFFFF DUP1 DUP3 AND SWAP1 PUSH1 0x4 CALLDATALOAD SWAP1 DUP3 DUP5 SUB PUSH2 0x26A JUMPI PUSH1 0x44 CALLDATALOAD SWAP3 PUSH4 0xFFFFFFFF DUP1 DUP6 AND SWAP3 DUP4 DUP7 SUB PUSH2 0x26A JUMPI PUSH2 0x664 PUSH2 0x3D02 JUMP JUMPDEST PUSH1 0x40 MLOAD SWAP1 PUSH31 0x1229100000000000000000000000000000000000000000000000000000000 DUP3 MSTORE PUSH1 0x0 DUP3 PUSH1 0x4 DUP2 PUSH1 0x1 PUSH1 0x1 PUSH1 0xA0 SHL SUB PUSH32 0x0 AND GAS STATICCALL DUP1 ISZERO PUSH2 0x8B5 JUMPI PUSH1 0x0 SWAP1 PUSH1 0x0 SWAP4 PUSH1 0x0 SWAP2 PUSH2 0x7FF JUMPI JUMPDEST POP PUSH2 0x6DB SWAP1 DUP9 PUSH2 0x5433 JUMP JUMPDEST ISZERO PUSH2 0x7D5 JUMPI AND DUP4 LT PUSH2 0x7AB JUMPI PUSH1 0xC8 DUP4 GT PUSH2 0x7AB JUMPI AND DUP3 GT PUSH2 0x781 JUMPI PUSH32 0xA26C986B913B625BAB6A879E2B105DE49C7ED875781596E89EDAD16A3F4E87B6 SWAP5 PUSH1 0x60 SWAP5 DUP5 PUSH1 0x12 SSTORE PUSH32 0xFFFFFFFFFFFFFFFFFFFFFFFFFFFFFFFFFFFF000000000000FFFFFFFFFFFFFFFF PUSH10 0xFFFF0000000000000000 PUSH14 0xFFFFFFFF00000000000000000000 PUSH1 0x13 SLOAD SWAP4 PUSH1 0x50 SHL AND SWAP4 PUSH1 0x40 SHL AND SWAP2 AND OR OR PUSH1 0x13 SSTORE PUSH1 0x40 MLOAD SWAP3 DUP4 MSTORE PUSH1 0x20 DUP4 ADD MSTORE PUSH1 0x40 DUP3 ADD MSTORE LOG1 STOP JUMPDEST PUSH1 0x4 PUSH1 0x40 MLOAD PUSH32 0x98BDB2E000000000000000000000000000000000000000000000000000000000 DUP2 MSTORE REVERT JUMPDEST PUSH1 0x4 PUSH1 0x40 MLOAD PUSH32 0xFEBCAEC200000000000000000000000000000000000000000000000000000000 DUP2 MSTORE REVERT JUMPDEST PUSH1 0x4 PUSH1 0x40 MLOAD PUSH32 0x81255F6D00000000000000000000000000000000000000000000000000000000 DUP2 MSTORE REVERT JUMPDEST SWAP4 POP POP POP RETURNDATASIZE DUP1 PUSH1 0x0 DUP5 RETURNDATACOPY PUSH2 0x813 DUP2 DUP5 PUSH2 0x2583 JUMP JUMPDEST DUP3 ADD SWAP2 PUSH1 0x60 DUP2 DUP5 SUB SLT PUSH2 0x26A JUMPI DUP1 MLOAD DUP3 DUP2 AND DUP2 SUB PUSH2 0x26A JUMPI PUSH1 0x20 DUP1 DUP4 ADD MLOAD SWAP3 DUP7 DUP5 AND DUP5 SUB PUSH2 0x26A JUMPI PUSH1 0x40 DUP2 ADD MLOAD SWAP1 PUSH8 0xFFFFFFFFFFFFFFFF DUP3 GT PUSH2 0x26A JUMPI ADD SWAP5 DUP1 PUSH1 0x1F DUP8 ADD SLT ISZERO PUSH2 0x26A JUMPI DUP6 MLOAD PUSH2 0x868 DUP2 PUSH2 0x25C4 JUMP JUMPDEST SWAP7 PUSH2 0x876 PUSH1 0x40 MLOAD SWAP9 DUP10 PUSH2 0x2583 JUMP JUMPDEST DUP2 DUP9 MSTORE DUP4 DUP1 DUP10 ADD SWAP3 PUSH1 0x5 SHL DUP3 ADD ADD SWAP3 DUP4 GT PUSH2 0x26A JUMPI DUP4 ADD SWAP1 JUMPDEST DUP3 DUP3 LT PUSH2 0x8A6 JUMPI POP POP POP POP PUSH2 0x6DB SWAP1 SWAP2 SWAP4 SWAP1 PUSH2 0x6D0 JUMP JUMPDEST DUP2 MLOAD DUP2 MSTORE SWAP1 DUP4 ADD SWAP1 DUP4 ADD PUSH2 0x88F JUMP JUMPDEST PUSH1 0x40 MLOAD RETURNDATASIZE PUSH1 0x0 DUP3 RETURNDATACOPY RETURNDATASIZE SWAP1 REVERT JUMPDEST CALLVALUE PUSH2 0x26A JUMPI PUSH1 0x80 PUSH1 0x3 NOT CALLDATASIZE ADD SLT PUSH2 0x26A JUMPI PUSH2 0x8DA PUSH2 0x24B6 JUMP JUMPDEST PUSH2 0x8E2 PUSH2 0x2629 JUMP JUMPDEST SWAP1 PUSH2 0x8EB PUSH2 0x2640 JUMP JUMPDEST PUSH1 0x64 CALLDATALOAD SWAP1 DUP2 ISZERO ISZERO DUP3 SUB PUSH2 0x26A JUMPI PUSH2 0x266 SWAP4 PUSH2 0x25A SWAP4 PUSH2 0x2FD1 JUMP JUMPDEST CALLVALUE PUSH2 0x26A JUMPI PUSH1 0x40 PUSH1 0x3 NOT CALLDATASIZE ADD SLT PUSH2 0x26A JUMPI PUSH2 0x91E PUSH2 0x24B6 JUMP JUMPDEST PUSH2 0x926 PUSH2 0x24CC JUMP JUMPDEST SWAP1 PUSH1 0x1 PUSH1 0x1 PUSH1 0xA0 SHL SUB DUP1 SWAP2 AND PUSH1 0x0 MSTORE PUSH1 0xA PUSH1 0x20 MSTORE PUSH1 0x40 PUSH1 0x0 KECCAK256 SWAP2 AND PUSH1 0x0 MSTORE PUSH1 0x20 MSTORE PUSH1 0x20 PUSH1 0x40 PUSH1 0x0 KECCAK256 SLOAD PUSH1 0x40 MLOAD SWAP1 DUP2 MSTORE RETURN JUMPDEST CALLVALUE PUSH2 0x26A JUMPI PUSH1 0x20 PUSH1 0x3 NOT CALLDATASIZE ADD SLT PUSH2 0x26A JUMPI PUSH2 0x1E PUSH1 0x4 CALLDATALOAD PUSH2 0x2E88 JUMP JUMPDEST CALLVALUE PUSH2 0x26A JUMPI PUSH1 0x20 PUSH1 0x3 NOT CALLDATASIZE ADD SLT PUSH2 0x26A JUMPI PUSH8 0xFFFFFFFFFFFFFFFF PUSH2 0x995 PUSH2 0x2612 JUMP JUMPDEST AND DUP1 PUSH1 0x0 MSTORE PUSH1 0x7 PUSH1 0x20 MSTORE PUSH1 0x40 PUSH1 0x0 KECCAK256 PUSH1 0x3 DUP2 ADD DUP1 SLOAD SWAP1 PUSH1 0x1 PUSH1 0x1 PUSH1 0xA0 SHL SUB SWAP2 DUP3 DUP2 AND DUP1 CALLER SUB PUSH2 0xAEE JUMPI POP PUSH1 0x1 PUSH4 0xFFFFFFFF DUP3 PUSH1 0xC0 SHR AND SUB PUSH2 0xABD JUMPI PUSH2 0x9D9 DUP5 PUSH2 0x489A JUMP JUMPDEST ISZERO PUSH2 0xA8C JUMPI SWAP4 PUSH25 0x8000000000000000000000000000000000000000000000000 PUSH32 0xFFFFFFFF00000000FFFFFFFFFFFFFFFFFFFFFFFFFFFFFFFFFFFFFFFFFFFFFFFF PUSH2 0x1E SWAP7 AND OR DUP3 SSTORE PUSH1 0x5 PUSH12 0xFFFFFFFFFFFFFFFFFFFFFFFF PUSH2 0xA40 DUP2 DUP8 SLOAD AND PUSH1 0x3 SLOAD PUSH2 0x27F8 JUMP JUMPDEST PUSH1 0x3 SSTORE DUP6 SLOAD AND SWAP5 ADD DUP5 PUSH32 0xFFFFFFFFFFFFFFFFFFFFFFFFFFFFFFFFFFFFFFFF000000000000000000000000 DUP3 SLOAD AND OR SWAP1 SSTORE PUSH1 0x0 MSTORE PUSH1 0x7 PUSH1 0x20 MSTORE PUSH2 0xA85 PUSH1 0x40 PUSH1 0x0 KECCAK256 PUSH2 0x48B9 JUMP JUMPDEST SLOAD AND PUSH2 0x49CF JUMP JUMPDEST PUSH1 0x24 DUP6 PUSH1 0x40 MLOAD SWAP1 PUSH32 0xA05DB59300000000000000000000000000000000000000000000000000000000 DUP3 MSTORE PUSH1 0x4 DUP3 ADD MSTORE REVERT JUMPDEST PUSH1 0x24 DUP6 PUSH1 0x40 MLOAD SWAP1 PUSH32 0x2BC45A4800000000000000000000000000000000000000000000000000000000 DUP3 MSTORE PUSH1 0x4 DUP3 ADD MSTORE REVERT JUMPDEST DUP6 PUSH1 0x64 SWAP2 PUSH1 0x40 MLOAD SWAP2 PUSH32 0x4ADF9ACD00000000000000000000000000000000000000000000000000000000 DUP4 MSTORE PUSH1 0x4 DUP4 ADD MSTORE CALLER PUSH1 0x24 DUP4 ADD MSTORE PUSH1 0x44 DUP3 ADD MSTORE REVERT JUMPDEST CALLVALUE PUSH2 0x26A JUMPI PUSH1 0xE0 PUSH1 0x3 NOT CALLDATASIZE ADD SLT PUSH2 0x26A JUMPI PUSH2 0xB44 PUSH2 0x24B6 JUMP JUMPDEST PUSH2 0xB4C PUSH2 0x24CC JUMP JUMPDEST PUSH1 0x44 CALLDATALOAD SWAP1 PUSH1 0x64 CALLDATALOAD SWAP3 PUSH2 0xB5C PUSH2 0x2795 JUMP JUMPDEST SWAP4 DUP1 TIMESTAMP GT PUSH2 0xCC9 JUMPI PUSH1 0x1 PUSH1 0x1 PUSH1 0xA0 SHL SUB SWAP1 DUP2 DUP4 AND SWAP6 DUP7 PUSH1 0x0 MSTORE PUSH1 0x11 PUSH1 0x20 MSTORE PUSH1 0x40 PUSH1 0x0 KECCAK256 SWAP1 DUP2 SLOAD SWAP2 PUSH1 0x1 DUP4 ADD SWAP1 SSTORE PUSH1 0x40 MLOAD SWAP3 PUSH1 0x20 DUP5 ADD SWAP3 PUSH32 0x6E71EDAE12B1B97F4D1F60370FEF10105FA2FAAE0126114A169C64845D6126C9 DUP5 MSTORE DUP10 PUSH1 0x40 DUP7 ADD MSTORE DUP6 DUP9 AND PUSH1 0x60 DUP7 ADD MSTORE DUP9 PUSH1 0x80 DUP7 ADD MSTORE PUSH1 0xA0 DUP6 ADD MSTORE PUSH1 0xC0 DUP5 ADD MSTORE PUSH1 0xC0 DUP4 MSTORE PUSH1 0xE0 DUP4 ADD SWAP2 DUP4 DUP4 LT PUSH8 0xFFFFFFFFFFFFFFFF DUP5 GT OR PUSH2 0xC9A JUMPI PUSH2 0xC50 SWAP4 PUSH2 0xC47 SWAP4 PUSH1 0x40 MSTORE MLOAD SWAP1 KECCAK256 PUSH2 0xC05 PUSH2 0x3B1A JUMP JUMPDEST SWAP1 PUSH1 0x40 MLOAD SWAP2 PUSH32 0x1901000000000000000000000000000000000000000000000000000000000000 DUP4 MSTORE PUSH1 0x2 DUP4 ADD MSTORE PUSH1 0x22 DUP3 ADD MSTORE PUSH1 0xC4 CALLDATALOAD SWAP2 PUSH1 0x42 PUSH1 0xA4 CALLDATALOAD SWAP3 KECCAK256 PUSH2 0x52C8 JUMP JUMPDEST SWAP1 SWAP3 SWAP2 SWAP3 PUSH2 0x534C JUMP JUMPDEST AND DUP5 DUP2 SUB PUSH2 0xC63 JUMPI POP PUSH2 0x1E SWAP4 POP PUSH2 0x4AC8 JUMP JUMPDEST PUSH1 0x44 SWAP1 DUP6 PUSH1 0x40 MLOAD SWAP2 PUSH32 0x4B800E4600000000000000000000000000000000000000000000000000000000 DUP4 MSTORE PUSH1 0x4 DUP4 ADD MSTORE PUSH1 0x24 DUP3 ADD MSTORE REVERT JUMPDEST PUSH32 0x4E487B7100000000000000000000000000000000000000000000000000000000 PUSH1 0x0 MSTORE PUSH1 0x41 PUSH1 0x4 MSTORE PUSH1 0x24 PUSH1 0x0 REVERT JUMPDEST PUSH1 0x24 SWAP1 PUSH1 0x40 MLOAD SWAP1 PUSH32 0x6279130200000000000000000000000000000000000000000000000000000000 DUP3 MSTORE PUSH1 0x4 DUP3 ADD MSTORE REVERT JUMPDEST PUSH1 0x0 PUSH1 0x3 NOT CALLDATASIZE ADD SLT PUSH2 0x26A JUMPI PUSH2 0x1E CALLVALUE PUSH2 0x3A58 JUMP JUMPDEST PUSH1 0x20 PUSH1 0x3 NOT CALLDATASIZE ADD SLT PUSH2 0x26A JUMPI PUSH2 0xD6F PUSH2 0xD26 PUSH2 0x25DC JUMP JUMPDEST PUSH2 0xD63 PUSH12 0xFFFFFFFFFFFFFFFFFFFFFFFF SWAP2 DUP3 PUSH1 0x0 SLOAD AND PUSH2 0xD57 PUSH2 0xD51 PUSH2 0xD4C DUP4 CALLVALUE PUSH2 0x27F8 JUMP JUMPDEST PUSH2 0x3D16 JUMP JUMPDEST SWAP2 PUSH2 0x3A58 JUMP JUMPDEST DUP4 PUSH1 0x0 SLOAD AND SWAP1 CALLER PUSH2 0x3D67 JUMP JUMPDEST PUSH1 0x0 SLOAD AND PUSH1 0x4 SLOAD PUSH2 0x27F8 JUMP JUMPDEST PUSH1 0x4 SSTORE STOP JUMPDEST CALLVALUE PUSH2 0x26A JUMPI PUSH1 0x20 PUSH1 0x3 NOT CALLDATASIZE ADD SLT PUSH2 0x26A JUMPI PUSH2 0x1E PUSH2 0xD90 PUSH2 0x2612 JUMP JUMPDEST PUSH2 0x2DD9 JUMP JUMPDEST CALLVALUE PUSH2 0x26A JUMPI PUSH1 0x40 PUSH1 0x3 NOT CALLDATASIZE ADD SLT PUSH2 0x26A JUMPI PUSH2 0xDAE PUSH2 0x24B6 JUMP JUMPDEST PUSH1 0x24 CALLDATALOAD PUSH2 0xDB9 PUSH2 0x3D02 JUMP JUMPDEST PUSH1 0x1 PUSH1 0x1 PUSH1 0xA0 SHL SUB DUP3 AND SWAP2 DUP3 ISZERO PUSH2 0xE11 JUMPI PUSH32 0x31A8092046A766D50C60467D927F8769A20162FD47024A64BB365AAC647EB0DF PUSH1 0x80 PUSH2 0x1E SWAP5 PUSH1 0x40 MLOAD SWAP1 CALLER DUP3 MSTORE PUSH1 0x20 DUP3 ADD MSTORE PUSH1 0x0 PUSH1 0x40 DUP3 ADD MSTORE DUP5 PUSH1 0x60 DUP3 ADD MSTORE LOG1 ADDRESS PUSH2 0x392F JUMP JUMPDEST PUSH1 0x4 PUSH1 0x40 MLOAD PUSH32 0xE6C4247B00000000000000000000000000000000000000000000000000000000 DUP2 MSTORE REVERT JUMPDEST CALLVALUE PUSH2 0x26A JUMPI PUSH1 0x40 PUSH1 0x3 NOT CALLDATASIZE ADD SLT PUSH2 0x26A JUMPI PUSH2 0xE61 PUSH2 0xE57 PUSH2 0x24B6 JUMP JUMPDEST PUSH1 0x24 CALLDATALOAD SWAP1 CALLER PUSH2 0x392F JUMP JUMPDEST PUSH1 0x20 PUSH1 0x40 MLOAD PUSH1 0x1 DUP2 MSTORE RETURN JUMPDEST CALLVALUE PUSH2 0x26A JUMPI PUSH1 0x0 PUSH1 0x3 NOT CALLDATASIZE ADD SLT PUSH2 0x26A JUMPI PUSH2 0xE85 PUSH2 0x3D02 JUMP JUMPDEST PUSH1 0x20 PUSH2 0xE8F PUSH2 0x4704 JUMP JUMPDEST PUSH1 0x40 MLOAD SWAP1 ISZERO ISZERO DUP2 MSTORE RETURN JUMPDEST CALLVALUE PUSH2 0x26A JUMPI PUSH1 0x0 PUSH1 0x3 NOT CALLDATASIZE ADD SLT PUSH2 0x26A JUMPI PUSH1 0x40 MLOAD PUSH1 0xD SLOAD PUSH1 0x0 DUP3 PUSH2 0xEBC DUP4 PUSH2 0x27A5 JUMP JUMPDEST SWAP2 DUP3 DUP3 MSTORE PUSH1 0x20 SWAP4 PUSH1 0x1 SWAP1 DUP6 PUSH1 0x1 DUP3 AND SWAP2 DUP3 PUSH1 0x0 EQ PUSH2 0xF5C JUMPI POP POP PUSH1 0x1 EQ PUSH2 0xEFF JUMPI JUMPDEST POP PUSH2 0xEEB SWAP3 POP SUB DUP4 PUSH2 0x2583 JUMP JUMPDEST PUSH2 0x266 PUSH1 0x40 MLOAD SWAP3 DUP3 DUP5 SWAP4 DUP5 MSTORE DUP4 ADD SWAP1 PUSH2 0x2458 JUMP JUMPDEST DUP5 SWAP2 POP PUSH1 0xD PUSH1 0x0 MSTORE PUSH32 0xD7B6990105719101DABEB77144F2A3385C8033ACD3AF97E9423A695E81AD1EB5 SWAP1 PUSH1 0x0 SWAP2 JUMPDEST DUP6 DUP4 LT PUSH2 0xF44 JUMPI POP POP PUSH2 0xEEB SWAP4 POP DUP3 ADD ADD DUP6 PUSH2 0xEDE JUMP JUMPDEST DUP1 SLOAD DUP4 DUP10 ADD DUP6 ADD MSTORE DUP8 SWAP5 POP DUP7 SWAP4 SWAP1 SWAP3 ADD SWAP2 DUP2 ADD PUSH2 0xF2D JUMP JUMPDEST PUSH32 0xFFFFFFFFFFFFFFFFFFFFFFFFFFFFFFFFFFFFFFFFFFFFFFFFFFFFFFFFFFFFFF00 AND DUP6 DUP3 ADD MSTORE PUSH2 0xEEB SWAP6 ISZERO ISZERO PUSH1 0x5 SHL DUP6 ADD ADD SWAP3 POP DUP8 SWAP2 POP PUSH2 0xEDE SWAP1 POP JUMP JUMPDEST CALLVALUE PUSH2 0x26A JUMPI PUSH1 0x20 PUSH1 0x3 NOT CALLDATASIZE ADD SLT PUSH2 0x26A JUMPI PUSH1 0x20 PUSH2 0xE8F PUSH2 0xFB8 PUSH2 0x24B6 JUMP JUMPDEST PUSH2 0xFC0 PUSH2 0x3D02 JUMP JUMPDEST PUSH2 0x45D7 JUMP JUMPDEST CALLVALUE PUSH2 0x26A JUMPI PUSH1 0x0 PUSH1 0x3 NOT CALLDATASIZE ADD SLT PUSH2 0x26A JUMPI PUSH1 0x20 PUSH1 0x1 PUSH1 0x1 PUSH1 0xA0 SHL SUB PUSH1 0xE SLOAD AND PUSH1 0x40 MLOAD SWAP1 DUP2 MSTORE RETURN JUMPDEST PUSH1 0x20 PUSH1 0x3 NOT CALLDATASIZE ADD SLT PUSH2 0x26A JUMPI PUSH2 0x1E PUSH2 0x1003 PUSH2 0x2612 JUMP JUMPDEST PUSH2 0x2D55 JUMP JUMPDEST CALLVALUE PUSH2 0x26A JUMPI PUSH1 0x20 PUSH1 0x3 NOT CALLDATASIZE ADD SLT PUSH2 0x26A JUMPI PUSH8 0xFFFFFFFFFFFFFFFF PUSH2 0x102A PUSH2 0x2612 JUMP JUMPDEST PUSH2 0x1032 PUSH2 0x297B JUMP JUMPDEST POP AND PUSH1 0x0 MSTORE PUSH1 0x7 PUSH1 0x20 MSTORE PUSH2 0x200 PUSH2 0x104C PUSH1 0x40 PUSH1 0x0 KECCAK256 PUSH2 0x2ADA JUMP JUMPDEST PUSH2 0x113E PUSH1 0x40 MLOAD DUP1 SWAP3 PUSH2 0x1E0 SWAP1 PUSH1 0x60 PUSH12 0xFFFFFFFFFFFFFFFFFFFFFFFF SWAP2 DUP3 DUP2 MLOAD AND DUP6 MSTORE DUP3 PUSH1 0x20 DUP3 ADD MLOAD AND PUSH1 0x20 DUP7 ADD MSTORE PUSH1 0x40 DUP2 ADD MLOAD PUSH8 0xFFFFFFFFFFFFFFFF DUP1 SWAP2 AND PUSH1 0x40 DUP8 ADD MSTORE DUP4 DUP4 DUP4 ADD MLOAD AND DUP4 DUP8 ADD MSTORE DUP4 PUSH1 0x80 DUP4 ADD MLOAD AND PUSH1 0x80 DUP8 ADD MSTORE DUP1 PUSH1 0xA0 DUP4 ADD MLOAD AND PUSH1 0xA0 DUP8 ADD MSTORE DUP4 PUSH1 0xC0 DUP4 ADD MLOAD AND PUSH1 0xC0 DUP8 ADD MSTORE DUP4 PUSH1 0xE0 DUP4 ADD MLOAD AND PUSH1 0xE0 DUP8 ADD MSTORE PUSH2 0x100 SWAP1 DUP2 DUP4 ADD MLOAD AND SWAP1 DUP7 ADD MSTORE PUSH2 0x120 PUSH1 0x1 PUSH1 0x1 PUSH1 0xA0 SHL SUB DUP2 DUP4 ADD MLOAD AND SWAP1 DUP7 ADD MSTORE PUSH2 0x140 SWAP1 DUP2 DUP2 ADD MLOAD SWAP2 PUSH4 0xFFFFFFFF DUP1 SWAP4 AND SWAP1 DUP8 ADD MSTORE PUSH2 0x160 DUP3 DUP2 DUP4 ADD MLOAD AND SWAP1 DUP8 ADD MSTORE PUSH2 0x180 DUP1 SWAP2 ADD MLOAD SWAP2 DUP3 MLOAD AND SWAP1 DUP7 ADD MSTORE DUP3 PUSH1 0x20 DUP3 ADD MLOAD AND PUSH2 0x1A0 DUP7 ADD MSTORE DUP3 PUSH1 0x40 DUP3 ADD MLOAD AND PUSH2 0x1C0 DUP7 ADD MSTORE ADD MLOAD AND SWAP2 ADD MSTORE JUMP JUMPDEST RETURN JUMPDEST CALLVALUE PUSH2 0x26A JUMPI PUSH1 0x0 PUSH1 0x3 NOT CALLDATASIZE ADD SLT PUSH2 0x26A JUMPI PUSH2 0x11F7 PUSH2 0x117D PUSH32 0x0 PUSH2 0x50D0 JUMP JUMPDEST PUSH2 0x11A6 PUSH32 0x0 PUSH2 0x5208 JUMP JUMPDEST PUSH1 0x40 MLOAD SWAP1 PUSH2 0x11B3 DUP3 PUSH2 0x254B JUMP JUMPDEST PUSH1 0x0 DUP3 MSTORE PUSH2 0x1205 PUSH1 0x20 SWAP2 PUSH1 0x40 MLOAD SWAP6 DUP7 SWAP6 PUSH32 0xF00000000000000000000000000000000000000000000000000000000000000 DUP8 MSTORE PUSH1 0xE0 PUSH1 0x20 DUP9 ADD MSTORE PUSH1 0xE0 DUP8 ADD SWAP1 PUSH2 0x2458 JUMP JUMPDEST SWAP1 DUP6 DUP3 SUB PUSH1 0x40 DUP8 ADD MSTORE PUSH2 0x2458 JUMP JUMPDEST CHAINID PUSH1 0x60 DUP6 ADD MSTORE ADDRESS PUSH1 0x80 DUP6 ADD MSTORE PUSH1 0x0 PUSH1 0xA0 DUP6 ADD MSTORE DUP4 DUP2 SUB PUSH1 0xC0 DUP6 ADD MSTORE PUSH1 0x20 DUP1 DUP5 MLOAD SWAP3 DUP4 DUP2 MSTORE ADD SWAP4 ADD SWAP2 PUSH1 0x0 JUMPDEST DUP3 DUP2 LT PUSH2 0x123F JUMPI POP POP POP POP SUB SWAP1 RETURN JUMPDEST DUP4 MLOAD DUP6 MSTORE DUP7 SWAP6 POP SWAP4 DUP2 ADD SWAP4 SWAP3 DUP2 ADD SWAP3 PUSH1 0x1 ADD PUSH2 0x1230 JUMP JUMPDEST CALLVALUE PUSH2 0x26A JUMPI PUSH1 0x20 PUSH1 0x3 NOT CALLDATASIZE ADD SLT PUSH2 0x26A JUMPI PUSH1 0x1 PUSH1 0x1 PUSH1 0xA0 SHL SUB PUSH2 0x1277 PUSH2 0x24B6 JUMP JUMPDEST AND PUSH1 0x0 MSTORE PUSH1 0x11 PUSH1 0x20 MSTORE PUSH1 0x20 PUSH1 0x40 PUSH1 0x0 KECCAK256 SLOAD PUSH1 0x40 MLOAD SWAP1 DUP2 MSTORE RETURN JUMPDEST CALLVALUE PUSH2 0x26A JUMPI PUSH1 0x40 PUSH1 0x3 NOT CALLDATASIZE ADD SLT PUSH2 0x26A JUMPI PUSH2 0x1E PUSH2 0x12AC PUSH2 0x24B6 JUMP JUMPDEST PUSH1 0x24 CALLDATALOAD SWAP1 PUSH2 0x12BB DUP3 CALLER DUP4 PUSH2 0x37F4 JUMP JUMPDEST PUSH2 0x3C45 JUMP JUMPDEST CALLVALUE PUSH2 0x26A JUMPI PUSH1 0x0 PUSH1 0x3 NOT CALLDATASIZE ADD SLT PUSH2 0x26A JUMPI PUSH2 0x12D9 PUSH2 0x3D02 JUMP JUMPDEST PUSH1 0x0 PUSH1 0x1 PUSH1 0x1 PUSH1 0xA0 SHL SUB PUSH1 0xE SLOAD PUSH32 0xFFFFFFFFFFFFFFFFFFFFFFFF0000000000000000000000000000000000000000 DUP2 AND PUSH1 0xE SSTORE AND PUSH32 0x8BE0079C531659141344CD1FD0A4F28419497F9722A3DAAFE3B4186F6B6457E0 DUP3 DUP1 LOG3 STOP JUMPDEST CALLVALUE PUSH2 0x26A JUMPI PUSH1 0x20 PUSH1 0x3 NOT CALLDATASIZE ADD SLT PUSH2 0x26A JUMPI PUSH1 0x20 PUSH2 0x136B PUSH2 0x1351 PUSH2 0x24B6 JUMP JUMPDEST PUSH1 0x1 PUSH1 0x1 PUSH1 0xA0 SHL SUB AND PUSH1 0x0 MSTORE PUSH1 0x9 PUSH1 0x20 MSTORE PUSH1 0x40 PUSH1 0x0 KECCAK256 SLOAD SWAP1 JUMP JUMPDEST PUSH1 0x40 MLOAD SWAP1 DUP2 MSTORE RETURN JUMPDEST CALLVALUE PUSH2 0x26A JUMPI PUSH1 0x0 PUSH1 0x3 NOT CALLDATASIZE ADD SLT PUSH2 0x26A JUMPI PUSH1 0xE0 PUSH1 0x0 SLOAD PUSH1 0xFF PUSH12 0xFFFFFFFFFFFFFFFFFFFFFFFF SWAP2 PUSH1 0x1 SLOAD SWAP1 PUSH1 0x40 MLOAD SWAP4 PUSH8 0xFFFFFFFFFFFFFFFF PUSH32 0x0 AND DUP6 MSTORE DUP1 PUSH32 0x0 AND PUSH1 0x20 DUP7 ADD MSTORE DUP1 DUP3 AND PUSH1 0x40 DUP7 ADD MSTORE DUP2 PUSH1 0x60 SHR AND PUSH1 0x60 DUP6 ADD MSTORE PUSH1 0xC0 SHR PUSH1 0x80 DUP5 ADD MSTORE PUSH4 0xFFFFFFFF DUP2 AND PUSH1 0xA0 DUP5 ADD MSTORE PUSH1 0x20 SHR AND PUSH1 0xC0 DUP3 ADD MSTORE RETURN JUMPDEST CALLVALUE PUSH2 0x26A JUMPI PUSH1 0x20 DUP1 PUSH1 0x3 NOT CALLDATASIZE ADD SLT PUSH2 0x26A JUMPI PUSH1 0x4 CALLDATALOAD PUSH8 0xFFFFFFFFFFFFFFFF DUP1 PUSH1 0x13 SLOAD AND PUSH1 0x40 MLOAD SWAP1 PUSH32 0xA47C769600000000000000000000000000000000000000000000000000000000 DUP3 MSTORE PUSH1 0x4 DUP3 ADD MSTORE PUSH1 0x0 DUP2 PUSH1 0x24 DUP2 PUSH1 0x1 PUSH1 0x1 PUSH1 0xA0 SHL SUB PUSH32 0x0 AND GAS STATICCALL SWAP2 DUP3 ISZERO PUSH2 0x8B5 JUMPI PUSH1 0x0 SWAP3 PUSH2 0x15A8 JUMPI JUMPDEST POP POP PUSH1 0x4 SLOAD SWAP1 PUSH2 0x14C9 DUP3 DUP5 GT ISZERO PUSH2 0x2916 JUMP JUMPDEST PUSH12 0xFFFFFFFFFFFFFFFFFFFFFFFF SWAP1 DUP2 PUSH1 0x0 SLOAD AND PUSH2 0x5208 MUL DUP3 DUP2 AND SWAP1 DUP2 SUB PUSH2 0x1579 JUMPI DUP2 DUP4 AND DUP2 DUP2 LT PUSH2 0x1534 JUMPI POP POP POP POP POP POP PUSH1 0x60 PUSH32 0x2C8225B846D7DB9AD756862FB7CBD9772BB99F17AB145624877338A8E55817C2 SWAP2 PUSH1 0x0 PUSH1 0x40 MLOAD SWAP2 CALLER DUP4 MSTORE DUP3 ADD MSTORE PUSH1 0x0 PUSH1 0x40 DUP3 ADD MSTORE LOG1 STOP JUMPDEST PUSH2 0x1E SWAP7 POP PUSH2 0x1544 DUP7 DUP4 SWAP3 PUSH2 0x2D2A JUMP JUMPDEST GT PUSH2 0x155F JUMPI JUMPDEST POP POP POP DUP2 PUSH2 0x1557 SWAP2 PUSH2 0x27F8 JUMP JUMPDEST PUSH1 0x4 SSTORE PUSH2 0x3A58 JUMP JUMPDEST PUSH2 0x1557 SWAP4 SWAP5 POP SWAP1 PUSH2 0x156F SWAP2 PUSH2 0x2D37 JUMP JUMPDEST AND SWAP2 SWAP1 DUP5 DUP1 PUSH2 0x154A JUMP JUMPDEST PUSH32 0x4E487B7100000000000000000000000000000000000000000000000000000000 PUSH1 0x0 MSTORE PUSH1 0x11 PUSH1 0x4 MSTORE PUSH1 0x24 PUSH1 0x0 REVERT JUMPDEST SWAP1 SWAP2 POP RETURNDATASIZE DUP1 PUSH1 0x0 DUP5 RETURNDATACOPY PUSH2 0x15BB DUP2 DUP5 PUSH2 0x2583 JUMP JUMPDEST DUP3 ADD SWAP1 PUSH1 0x80 DUP4 DUP4 SUB SLT PUSH2 0x26A JUMPI DUP3 MLOAD SWAP3 PUSH12 0xFFFFFFFFFFFFFFFFFFFFFFFF DUP5 AND DUP5 SUB PUSH2 0x26A JUMPI PUSH2 0x15EB DUP7 DUP3 ADD PUSH2 0x2D01 JUMP JUMPDEST POP PUSH2 0x15F8 PUSH1 0x40 DUP3 ADD PUSH2 0x2D16 JUMP JUMPDEST POP PUSH1 0x60 DUP2 ADD MLOAD SWAP2 DUP3 GT PUSH2 0x26A JUMPI ADD DUP2 PUSH1 0x1F DUP3 ADD SLT ISZERO PUSH2 0x26A JUMPI DUP1 MLOAD DUP6 DUP1 PUSH2 0x161E DUP4 PUSH2 0x25C4 JUMP JUMPDEST PUSH2 0x162B PUSH1 0x40 MLOAD SWAP2 DUP3 PUSH2 0x2583 JUMP JUMPDEST DUP4 DUP2 MSTORE ADD SWAP2 PUSH1 0x5 SHL DUP4 ADD ADD SWAP3 DUP4 GT PUSH2 0x26A JUMPI DUP6 DUP1 SWAP3 ADD SWAP1 JUMPDEST DUP4 DUP3 LT PUSH2 0x1655 JUMPI POP POP POP POP DUP4 DUP1 PUSH2 0x14B7 JUMP JUMPDEST DUP3 DUP1 SWAP2 PUSH2 0x1661 DUP5 PUSH2 0x2D16 JUMP JUMPDEST DUP2 MSTORE ADD SWAP2 ADD SWAP1 PUSH2 0x1643 JUMP JUMPDEST PUSH1 0x20 PUSH1 0x3 NOT CALLDATASIZE ADD SLT PUSH2 0x26A JUMPI PUSH2 0x1680 PUSH2 0x25DC JUMP JUMPDEST PUSH2 0x1689 CALLVALUE PUSH2 0x3D16 JUMP JUMPDEST SWAP1 PUSH1 0x2 SLOAD PUSH8 0xFFFFFFFFFFFFFFFF PUSH1 0x1 DUP2 DUP4 AND ADD AND PUSH8 0xFFFFFFFFFFFFFFFF NOT DUP3 AND OR PUSH1 0x2 SSTORE PUSH12 0xFFFFFFFFFFFFFFFFFFFFFFFF PUSH2 0x16C7 PUSH2 0xD4C DUP5 DUP7 PUSH2 0x4EBF JUMP JUMPDEST AND DUP1 PUSH2 0x1DBA JUMPI JUMPDEST PUSH2 0x16F4 PUSH12 0xFFFFFFFFFFFFFFFFFFFFFFFF DUP5 AND PUSH12 0xFFFFFFFFFFFFFFFFFFFFFFFF DUP7 AND PUSH2 0x4F5A JUMP JUMPDEST PUSH8 0xFFFFFFFFFFFFFFFF DUP4 DUP2 AND PUSH1 0x1 ADD AND PUSH1 0x0 SWAP1 DUP2 MSTORE PUSH1 0x7 PUSH1 0x20 MSTORE PUSH1 0x40 SWAP1 KECCAK256 DUP1 SLOAD PUSH24 0xFFFFFFFFFFFFFFFFFFFFFFFFFFFFFFFFFFFFFFFFFFFFFFFF AND NUMBER PUSH1 0xC0 SHL PUSH32 0xFFFFFFFFFFFFFFFF000000000000000000000000000000000000000000000000 AND OR DUP2 SSTORE SWAP4 SWAP1 PUSH1 0x2 DUP6 ADD DUP1 SLOAD PUSH24 0xFFFFFFFFFFFFFFFFFFFFFFFFFFFFFFFFFFFFFFFFFFFFFFFF AND PUSH8 0xFFFFFFFFFFFFFFFF DUP7 AND PUSH1 0x1 ADD PUSH1 0xC0 SHL PUSH32 0xFFFFFFFFFFFFFFFF000000000000000000000000000000000000000000000000 AND OR SWAP1 SSTORE CALLER PUSH32 0xFFFFFFFFFFFFFFFFFFFFFFFF0000000000000000000000000000000000000000 PUSH1 0x3 DUP8 ADD SLOAD AND OR PUSH1 0x3 DUP7 ADD SSTORE PUSH2 0x192A PUSH32 0xFFFFFFFFFFFFFFFFFFFFFFFFFFFFFFFFFFFFFFFF000000000000000000000000 PUSH12 0xFFFFFFFFFFFFFFFFFFFFFFFF DUP9 AND DUP2 DUP9 SLOAD AND OR DUP8 SSTORE PUSH2 0x1875 PUSH12 0xFFFFFFFFFFFFFFFFFFFFFFFF PUSH1 0x0 SLOAD AND DUP9 SWAP1 PUSH32 0xFFFFFFFFFFFFFFFF000000000000000000000000FFFFFFFFFFFFFFFFFFFFFFFF PUSH24 0xFFFFFFFFFFFFFFFFFFFFFFFF000000000000000000000000 DUP4 SLOAD SWAP3 PUSH1 0x60 SHL AND SWAP2 AND OR SWAP1 SSTORE JUMP JUMPDEST PUSH1 0x1 DUP8 ADD DUP1 SLOAD PUSH24 0xFFFFFFFFFFFFFFFFFFFFFFFF000000000000000000000000 PUSH1 0x60 DUP8 SWAP1 SHL DUP2 AND SWAP2 DUP5 AND PUSH32 0xFFFFFFFFFFFFFFFF000000000000000000000000FFFFFFFFFFFFFFFFFFFFFFFF SWAP1 DUP2 AND SWAP3 SWAP1 SWAP3 OR DUP4 SSTORE PUSH1 0x2 DUP11 ADD DUP1 SLOAD SWAP1 SWAP5 AND DUP9 OR DUP1 DUP6 SSTORE PUSH1 0x0 SLOAD SWAP3 AND SWAP2 AND OR SWAP1 SWAP2 SSTORE JUMPDEST PUSH1 0x0 SLOAD DUP2 SLOAD PUSH24 0xFFFFFFFFFFFFFFFFFFFFFFFFFFFFFFFFFFFFFFFFFFFFFFFF AND PUSH32 0xFFFFFFFFFFFFFFFF000000000000000000000000000000000000000000000000 SWAP1 SWAP2 AND OR SWAP1 SSTORE JUMP JUMPDEST PUSH25 0x1000000000000000000000000000000000000000000000000 PUSH1 0x3 DUP7 ADD SLOAD PUSH32 0xFFFFFFFF0000000000000000FFFFFFFFFFFFFFFFFFFFFFFFFFFFFFFFFFFFFFFF PUSH24 0xFFFFFFFF0000000000000000000000000000000000000000 DUP5 PUSH1 0xA0 SHL AND SWAP2 AND OR OR PUSH1 0x3 DUP7 ADD SSTORE CALLER PUSH1 0x0 MSTORE PUSH1 0x8 PUSH1 0x20 MSTORE PUSH1 0x40 PUSH1 0x0 KECCAK256 DUP1 SLOAD PUSH9 0x10000000000000000 DUP2 LT ISZERO PUSH2 0xC9A JUMPI PUSH1 0x1 DUP2 ADD DUP1 DUP4 SSTORE DUP2 LT ISZERO PUSH2 0x1D8B JUMPI PUSH4 0xFFFFFFFF SWAP4 PUSH2 0x1A12 PUSH8 0xFFFFFFFFFFFFFFFF SWAP3 DUP11 SWAP5 PUSH1 0x0 MSTORE PUSH1 0x20 PUSH1 0x0 KECCAK256 SWAP1 DUP5 PUSH1 0x1 DUP2 DUP13 AND ADD AND SWAP2 PUSH1 0x18 DUP3 PUSH1 0x3 SHL AND SWAP2 PUSH1 0x2 SHR ADD SWAP2 SWAP1 PUSH8 0xFFFFFFFFFFFFFFFF DUP1 DUP5 SLOAD SWAP3 PUSH1 0x3 SHL SWAP4 AND DUP4 SHL SWAP3 SHL NOT AND OR SWAP1 SSTORE JUMP JUMPDEST PUSH12 0xFFFFFFFFFFFFFFFFFFFFFFFF PUSH1 0x0 SLOAD SWAP2 DUP2 DUP1 DUP5 AND SWAP9 PUSH1 0x40 MLOAD SWAP1 PUSH2 0x1A35 DUP3 PUSH2 0x252F JUMP JUMPDEST DUP11 DUP3 MSTORE DUP3 PUSH1 0x20 DUP4 ADD SWAP5 DUP2 DUP9 PUSH1 0x60 SHR AND DUP7 MSTORE PUSH1 0x40 DUP5 ADD SWAP8 PUSH1 0xC0 SHR DUP9 MSTORE DUP2 PUSH1 0x40 MLOAD SWAP11 AND DUP11 MSTORE PUSH1 0x0 PUSH1 0x20 DUP12 ADD MSTORE AND PUSH1 0x40 DUP10 ADD MSTORE PUSH1 0x60 DUP9 ADD MSTORE DUP9 DUP9 AND PUSH1 0x80 DUP9 ADD MSTORE PUSH1 0x1 PUSH1 0xA0 DUP9 ADD MSTORE MLOAD AND PUSH1 0xC0 DUP7 ADD MSTORE MLOAD AND PUSH1 0xE0 DUP5 ADD MSTORE MLOAD AND PUSH2 0x100 DUP3 ADD MSTORE PUSH8 0xFFFFFFFFFFFFFFFF PUSH1 0x1 DUP2 DUP8 AND ADD AND SWAP1 PUSH32 0xEB87FFBE69BE596530037DE78D6A6CA3317C12CE908C3C46E9CFA526531A177E PUSH2 0x120 CALLER SWAP3 LOG3 AND PUSH2 0x1C4F JUMPI POP POP PUSH12 0xFFFFFFFFFFFFFFFFFFFFFFFF PUSH2 0x1E SWAP3 AND PUSH1 0x5 SLOAD ADD PUSH1 0x5 SSTORE PUSH25 0x4000000000000000000000000000000000000000000000000 PUSH32 0xFFFFFFFF00000000FFFFFFFFFFFFFFFFFFFFFFFFFFFFFFFFFFFFFFFFFFFFFFFF PUSH1 0x3 DUP4 ADD SLOAD AND OR PUSH1 0x3 DUP3 ADD SSTORE PUSH2 0x1B6B DUP2 PUSH8 0xDE0B6B3A7640000 DUP2 SLOAD PUSH12 0xFFFFFFFFFFFFFFFFFFFFFFFF PUSH1 0x1 DUP2 PUSH1 0x2 DUP7 ADD SLOAD PUSH1 0x60 SHR AND DUP3 DUP5 PUSH1 0x60 SHR AND ADD SWAP5 ADD SLOAD PUSH1 0xC0 SHR SWAP2 AND MUL DIV ADD SWAP1 JUMP JUMPDEST DUP1 PUSH12 0xFFFFFFFFFFFFFFFFFFFFFFFF DUP4 SLOAD AND LT ISZERO PUSH2 0x1B89 JUMPI JUMPDEST POP PUSH2 0x48B9 JUMP JUMPDEST PUSH2 0x1BDE SWAP1 PUSH8 0xDE0B6B3A7640000 PUSH2 0x1BD7 PUSH1 0x2 DUP6 ADD SLOAD PUSH1 0xC0 SHR SWAP3 PUSH12 0xFFFFFFFFFFFFFFFFFFFFFFFF PUSH32 0x0 AND SWAP1 PUSH2 0x2E3C JUMP JUMPDEST DIV SWAP1 PUSH2 0x4A6A JUMP JUMPDEST PUSH1 0x4 DUP3 ADD DUP1 SLOAD PUSH32 0xFFFFFFFF000000000000000000000000FFFFFFFFFFFFFFFFFFFFFFFFFFFFFFFF AND PUSH1 0x80 DUP4 SWAP1 SHL PUSH28 0xFFFFFFFFFFFFFFFFFFFFFFFF00000000000000000000000000000000 AND OR SWAP1 SSTORE DUP1 ISZERO PUSH2 0x1B83 JUMPI PUSH2 0x1C49 SWAP1 PUSH1 0x1 PUSH1 0x1 PUSH1 0xA0 SHL SUB PUSH1 0x3 DUP5 ADD SLOAD AND PUSH2 0x54AC JUMP JUMPDEST DUP3 PUSH2 0x1B83 JUMP JUMPDEST PUSH8 0xFFFFFFFFFFFFFFFF SWAP3 POP PUSH1 0x1 SWAP2 PUSH12 0xFFFFFFFFFFFFFFFFFFFFFFFF PUSH2 0x1E SWAP6 DUP4 DUP7 SWAP5 ISZERO PUSH1 0x0 EQ PUSH2 0x1CDB JUMPI POP PUSH32 0xC90468505EB2131F45874A6543CC8F26CDCF8665051CF5307268576B7D543B41 PUSH1 0xA0 DUP4 PUSH1 0x0 SLOAD AND PUSH1 0x40 MLOAD SWAP1 DUP8 DUP10 DUP2 DUP10 AND ADD AND DUP3 MSTORE PUSH1 0x20 DUP3 ADD MSTORE PUSH1 0x0 PUSH1 0x40 DUP3 ADD MSTORE PUSH1 0x0 PUSH1 0x60 DUP3 ADD MSTORE PUSH1 0x0 PUSH1 0x80 DUP3 ADD MSTORE LOG1 JUMPDEST AND PUSH1 0x3 SLOAD ADD PUSH1 0x3 SSTORE AND ADD AND PUSH2 0x449D JUMP JUMPDEST PUSH1 0xA0 DUP2 PUSH32 0xC90468505EB2131F45874A6543CC8F26CDCF8665051CF5307268576B7D543B41 SWAP3 PUSH1 0x5 SLOAD GT PUSH1 0x0 EQ PUSH2 0x1D4C JUMPI DUP1 PUSH1 0x5 SLOAD SUB PUSH1 0x5 SSTORE DUP1 PUSH1 0x4 SLOAD ADD PUSH1 0x4 SSTORE DUP5 PUSH1 0x0 SLOAD AND SWAP1 PUSH1 0x40 MLOAD SWAP2 DUP9 DUP11 DUP2 DUP11 AND ADD AND DUP4 MSTORE PUSH1 0x20 DUP4 ADD MSTORE PUSH1 0x0 PUSH1 0x40 DUP4 ADD MSTORE PUSH1 0x60 DUP3 ADD MSTORE PUSH1 0x0 PUSH1 0x80 DUP3 ADD MSTORE LOG1 PUSH2 0x1CCB JUMP JUMPDEST PUSH2 0x1D5C DUP2 DUP9 DUP11 DUP2 DUP11 AND ADD AND PUSH2 0x5460 JUMP JUMPDEST DUP6 PUSH1 0x0 SLOAD AND SWAP2 PUSH1 0x40 MLOAD SWAP3 DUP10 DUP12 DUP2 DUP12 AND ADD AND DUP5 MSTORE PUSH1 0x20 DUP5 ADD MSTORE PUSH1 0x0 PUSH1 0x40 DUP5 ADD MSTORE PUSH1 0x60 DUP4 ADD MSTORE PUSH1 0x80 DUP3 ADD MSTORE LOG1 PUSH2 0x1CCB JUMP JUMPDEST PUSH32 0x4E487B7100000000000000000000000000000000000000000000000000000000 PUSH1 0x0 MSTORE PUSH1 0x32 PUSH1 0x4 MSTORE PUSH1 0x24 PUSH1 0x0 REVERT JUMPDEST PUSH2 0x1DC4 DUP2 CALLER PUSH2 0x3C45 JUMP JUMPDEST PUSH2 0x16CE JUMP JUMPDEST CALLVALUE PUSH2 0x26A JUMPI PUSH1 0x60 PUSH1 0x3 NOT CALLDATASIZE ADD SLT PUSH2 0x26A JUMPI PUSH2 0x266 PUSH2 0x25A PUSH2 0x1DE8 PUSH2 0x2612 JUMP JUMPDEST PUSH2 0x1DF0 PUSH2 0x2629 JUMP JUMPDEST PUSH2 0x1DF8 PUSH2 0x2657 JUMP JUMPDEST SWAP2 PUSH2 0x2BC2 JUMP JUMPDEST CALLVALUE PUSH2 0x26A JUMPI PUSH1 0x20 PUSH1 0x3 NOT CALLDATASIZE ADD SLT PUSH2 0x26A JUMPI PUSH1 0x1 PUSH1 0x1 PUSH1 0xA0 SHL SUB PUSH2 0x1E1F PUSH2 0x24B6 JUMP JUMPDEST AND PUSH1 0x0 MSTORE PUSH1 0x8 PUSH1 0x20 MSTORE PUSH1 0x40 DUP1 PUSH1 0x0 KECCAK256 PUSH1 0x1 DUP2 ADD SLOAD SWAP1 SLOAD DUP3 MLOAD SWAP2 DUP3 MSTORE PUSH1 0x20 DUP3 ADD MSTORE RETURN JUMPDEST CALLVALUE PUSH2 0x26A JUMPI PUSH1 0x20 PUSH1 0x3 NOT CALLDATASIZE ADD SLT PUSH2 0x26A JUMPI PUSH2 0x1E5A PUSH2 0x24B6 JUMP JUMPDEST PUSH2 0x1E62 PUSH2 0x3D02 JUMP JUMPDEST PUSH32 0xFFFFFFFFFFFFFF0000000000000000000000000000000000000000FFFFFFFFFF PUSH25 0xFFFFFFFFFFFFFFFFFFFFFFFFFFFFFFFFFFFFFFFF0000000000 PUSH1 0x1 SLOAD SWAP3 PUSH32 0x876FF6DE70EA9815B366B60A114B80FDFBC06357DA850CB734024FB7927F8B03 PUSH1 0x60 PUSH1 0x1 PUSH1 0x1 PUSH1 0xA0 SHL SUB PUSH1 0x40 MLOAD SWAP1 CALLER DUP3 MSTORE DUP1 DUP9 PUSH1 0x28 SHR AND PUSH1 0x20 DUP4 ADD MSTORE DUP5 AND PUSH1 0x40 DUP3 ADD MSTORE LOG1 PUSH1 0x28 SHL AND SWAP2 AND OR PUSH1 0x1 SSTORE PUSH1 0x0 DUP1 RETURN JUMPDEST CALLVALUE PUSH2 0x26A JUMPI PUSH1 0x20 PUSH1 0x3 NOT CALLDATASIZE ADD SLT PUSH2 0x26A JUMPI PUSH2 0x1E PUSH1 0x4 CALLDATALOAD CALLER PUSH2 0x3C45 JUMP JUMPDEST CALLVALUE PUSH2 0x26A JUMPI PUSH1 0x20 PUSH1 0x3 NOT CALLDATASIZE ADD SLT PUSH2 0x26A JUMPI PUSH2 0x1F2B PUSH2 0x25DC JUMP JUMPDEST PUSH1 0x1 PUSH1 0x1 PUSH1 0xA0 SHL SUB PUSH1 0x1 SLOAD PUSH1 0x28 SHR AND DUP1 ISZERO PUSH2 0xE11 JUMPI PUSH1 0x4 SLOAD PUSH12 0xFFFFFFFFFFFFFFFFFFFFFFFF DUP4 AND SWAP1 DUP2 DUP2 LT PUSH2 0x2005 JUMPI PUSH1 0x0 DUP3 DUP2 SWAP5 PUSH2 0x1F6B DUP4 SWAP6 DUP5 SWAP6 PUSH2 0x27F8 JUMP JUMPDEST PUSH1 0x4 SSTORE PUSH32 0x31A8092046A766D50C60467D927F8769A20162FD47024A64BB365AAC647EB0DF PUSH1 0x80 PUSH1 0x40 MLOAD CALLER DUP2 MSTORE DUP4 PUSH1 0x20 DUP3 ADD MSTORE DUP5 PUSH1 0x40 DUP3 ADD MSTORE DUP6 PUSH1 0x60 DUP3 ADD MSTORE LOG1 GAS CALL PUSH2 0x1FB4 PUSH2 0x2805 JUMP JUMPDEST POP ISZERO PUSH2 0x1FBC JUMPI STOP JUMPDEST PUSH1 0x4 DUP1 SLOAD PUSH1 0x40 MLOAD PUSH32 0xCF47918100000000000000000000000000000000000000000000000000000000 DUP2 MSTORE SWAP2 DUP3 ADD MSTORE PUSH12 0xFFFFFFFFFFFFFFFFFFFFFFFF SWAP2 SWAP1 SWAP2 AND PUSH1 0x24 DUP3 ADD MSTORE PUSH1 0x44 SWAP1 REVERT JUMPDEST PUSH1 0x40 MLOAD PUSH32 0xCF47918100000000000000000000000000000000000000000000000000000000 DUP2 MSTORE PUSH1 0x4 DUP2 ADD SWAP2 SWAP1 SWAP2 MSTORE PUSH12 0xFFFFFFFFFFFFFFFFFFFFFFFF DUP5 AND PUSH1 0x24 DUP3 ADD MSTORE PUSH1 0x44 SWAP1 REVERT JUMPDEST CALLVALUE PUSH2 0x26A JUMPI PUSH1 0x0 PUSH1 0x3 NOT CALLDATASIZE ADD SLT PUSH2 0x26A JUMPI PUSH1 0x20 PUSH2 0x136B PUSH2 0x3B1A JUMP JUMPDEST CALLVALUE PUSH2 0x26A JUMPI PUSH1 0x0 PUSH1 0x3 NOT CALLDATASIZE ADD SLT PUSH2 0x26A JUMPI PUSH1 0x20 PUSH1 0x40 MLOAD PUSH1 0x12 DUP2 MSTORE RETURN JUMPDEST CALLVALUE PUSH2 0x26A JUMPI PUSH1 0x20 PUSH1 0x3 NOT CALLDATASIZE ADD SLT PUSH2 0x26A JUMPI PUSH1 0x4 CALLDATALOAD PUSH1 0x4 SLOAD SWAP1 PUSH2 0x20A7 DUP3 DUP3 GT ISZERO PUSH2 0x2916 JUMP JUMPDEST PUSH1 0x1 PUSH1 0x1 PUSH1 0xA0 SHL SUB DUP1 PUSH1 0xE SLOAD AND CALLER EQ ISZERO SWAP1 DUP2 PUSH2 0x2100 JUMPI JUMPDEST POP PUSH2 0x20D0 JUMPI PUSH2 0x1557 DUP2 PUSH2 0x1E SWAP4 PUSH2 0x27F8 JUMP JUMPDEST PUSH1 0x24 PUSH1 0x40 MLOAD PUSH32 0x118CDAA700000000000000000000000000000000000000000000000000000000 DUP2 MSTORE CALLER PUSH1 0x4 DUP3 ADD MSTORE REVERT JUMPDEST PUSH1 0x1 SLOAD PUSH1 0x28 SHR AND CALLER EQ ISZERO SWAP1 POP DUP4 PUSH2 0x20BE JUMP JUMPDEST CALLVALUE PUSH2 0x26A JUMPI PUSH1 0x60 PUSH1 0x3 NOT CALLDATASIZE ADD SLT PUSH2 0x26A JUMPI PUSH2 0xE61 PUSH2 0x212E PUSH2 0x24B6 JUMP JUMPDEST PUSH2 0x2136 PUSH2 0x24CC JUMP JUMPDEST PUSH1 0x44 CALLDATALOAD SWAP2 PUSH2 0x2145 DUP4 CALLER DUP4 PUSH2 0x37F4 JUMP JUMPDEST PUSH2 0x392F JUMP JUMPDEST CALLVALUE PUSH2 0x26A JUMPI PUSH1 0x40 PUSH1 0x3 NOT CALLDATASIZE ADD SLT PUSH2 0x26A JUMPI PUSH1 0x24 CALLDATALOAD PUSH8 0xFFFFFFFFFFFFFFFF DUP2 GT PUSH2 0x26A JUMPI CALLDATASIZE PUSH1 0x23 DUP3 ADD SLT ISZERO PUSH2 0x26A JUMPI DUP1 PUSH1 0x4 ADD CALLDATALOAD SWAP1 PUSH2 0x2187 DUP3 PUSH2 0x25C4 JUMP JUMPDEST SWAP1 PUSH2 0x2195 PUSH1 0x40 MLOAD SWAP3 DUP4 PUSH2 0x2583 JUMP JUMPDEST DUP3 DUP3 MSTORE PUSH1 0x20 SWAP3 PUSH1 0x24 PUSH1 0x20 DUP5 ADD SWAP2 PUSH1 0x5 SHL DUP4 ADD ADD SWAP2 CALLDATASIZE DUP4 GT PUSH2 0x26A JUMPI PUSH1 0x24 ADD SWAP1 JUMPDEST DUP3 DUP3 LT PUSH2 0x2257 JUMPI DUP4 PUSH1 0x1 PUSH1 0x1 PUSH1 0xA0 SHL SUB PUSH32 0x0 AND CALLER SUB PUSH2 0x21F9 JUMPI PUSH2 0x1E SWAP1 PUSH1 0x4 CALLDATALOAD PUSH2 0x3766 JUMP JUMPDEST PUSH1 0x64 PUSH1 0x40 MLOAD PUSH32 0x8C379A000000000000000000000000000000000000000000000000000000000 DUP2 MSTORE PUSH1 0x20 PUSH1 0x4 DUP3 ADD MSTORE PUSH1 0x19 PUSH1 0x24 DUP3 ADD MSTORE PUSH32 0x4F6E6C79436F6F7264696E61746F7243616E46756C66696C6C00000000000000 PUSH1 0x44 DUP3 ADD MSTORE REVERT JUMPDEST DUP2 CALLDATALOAD DUP2 MSTORE SWAP1 DUP5 ADD SWAP1 DUP5 ADD PUSH2 0x21B5 JUMP JUMPDEST CALLVALUE PUSH2 0x26A JUMPI PUSH1 0x0 PUSH1 0x3 NOT CALLDATASIZE ADD SLT PUSH2 0x26A JUMPI PUSH1 0xA0 PUSH1 0x13 SLOAD PUSH4 0xFFFFFFFF PUSH1 0x12 SLOAD SWAP2 PUSH1 0x40 MLOAD SWAP3 PUSH1 0x1 PUSH1 0x1 PUSH1 0xA0 SHL SUB PUSH32 0x0 AND DUP5 MSTORE PUSH8 0xFFFFFFFFFFFFFFFF DUP3 AND PUSH1 0x20 DUP6 ADD MSTORE PUSH1 0x40 DUP5 ADD MSTORE PUSH2 0xFFFF DUP2 PUSH1 0x40 SHR AND PUSH1 0x60 DUP5 ADD MSTORE PUSH1 0x50 SHR AND PUSH1 0x80 DUP3 ADD MSTORE RETURN JUMPDEST CALLVALUE PUSH2 0x26A JUMPI PUSH1 0x0 PUSH1 0x3 NOT CALLDATASIZE ADD SLT PUSH2 0x26A JUMPI PUSH2 0x100 PUSH8 0xFFFFFFFFFFFFFFFF PUSH1 0x2 SLOAD AND PUSH1 0x3 SLOAD PUSH1 0x4 SLOAD PUSH1 0x5 SLOAD PUSH1 0x6 SLOAD SELFBALANCE SWAP2 ADDRESS PUSH1 0x0 MSTORE PUSH1 0x9 PUSH1 0x20 MSTORE PUSH1 0x40 PUSH1 0x0 KECCAK256 SLOAD SWAP4 PUSH1 0xB SLOAD SWAP6 PUSH1 0x40 MLOAD SWAP8 DUP9 MSTORE PUSH1 0x20 DUP9 ADD MSTORE PUSH1 0x40 DUP8 ADD MSTORE PUSH1 0x60 DUP7 ADD MSTORE PUSH1 0x80 DUP6 ADD MSTORE PUSH1 0xA0 DUP5 ADD MSTORE PUSH1 0xC0 DUP4 ADD MSTORE PUSH1 0xE0 DUP3 ADD MSTORE RETURN JUMPDEST CALLVALUE PUSH2 0x26A JUMPI PUSH1 0x0 PUSH1 0x3 NOT CALLDATASIZE ADD SLT PUSH2 0x26A JUMPI PUSH1 0x20 PUSH1 0xB SLOAD PUSH1 0x40 MLOAD SWAP1 DUP2 MSTORE RETURN JUMPDEST CALLVALUE PUSH2 0x26A JUMPI PUSH1 0x0 PUSH1 0x3 NOT CALLDATASIZE ADD SLT PUSH2 0x26A JUMPI PUSH2 0x1E PUSH2 0x2863 JUMP JUMPDEST CALLVALUE PUSH2 0x26A JUMPI PUSH1 0x40 PUSH1 0x3 NOT CALLDATASIZE ADD SLT PUSH2 0x26A JUMPI PUSH2 0xE61 PUSH2 0x23A3 PUSH2 0x24B6 JUMP JUMPDEST PUSH1 0x24 CALLDATALOAD SWAP1 CALLER PUSH2 0x4AC8 JUMP JUMPDEST CALLVALUE PUSH2 0x26A JUMPI PUSH1 0x0 PUSH1 0x3 NOT CALLDATASIZE ADD SLT PUSH2 0x26A JUMPI PUSH1 0xC SLOAD PUSH1 0x0 DUP3 PUSH2 0x23CD DUP4 PUSH2 0x27A5 JUMP JUMPDEST SWAP2 DUP3 DUP3 MSTORE PUSH1 0x20 SWAP4 PUSH1 0x1 SWAP1 DUP6 PUSH1 0x1 DUP3 AND SWAP2 DUP3 PUSH1 0x0 EQ PUSH2 0xF5C JUMPI POP POP PUSH1 0x1 EQ PUSH2 0x23FB JUMPI POP PUSH2 0xEEB SWAP3 POP SUB DUP4 PUSH2 0x2583 JUMP JUMPDEST DUP5 SWAP2 POP PUSH1 0xC PUSH1 0x0 MSTORE PUSH32 0xDF6966C971051C3D54EC59162606531493A51404A002842F56009D7E5CF4A8C7 SWAP1 PUSH1 0x0 SWAP2 JUMPDEST DUP6 DUP4 LT PUSH2 0x2440 JUMPI POP POP PUSH2 0xEEB SWAP4 POP DUP3 ADD ADD DUP6 PUSH2 0xEDE JUMP JUMPDEST DUP1 SLOAD DUP4 DUP10 ADD DUP6 ADD MSTORE DUP8 SWAP5 POP DUP7 SWAP4 SWAP1 SWAP3 ADD SWAP2 DUP2 ADD PUSH2 0x2429 JUMP JUMPDEST SWAP2 SWAP1 DUP3 MLOAD SWAP3 DUP4 DUP3 MSTORE PUSH1 0x0 JUMPDEST DUP5 DUP2 LT PUSH2 0x24A2 JUMPI POP POP PUSH32 0xFFFFFFFFFFFFFFFFFFFFFFFFFFFFFFFFFFFFFFFFFFFFFFFFFFFFFFFFFFFFFFE0 PUSH1 0x1F DUP5 PUSH1 0x0 PUSH1 0x20 DUP1 SWAP7 SWAP8 DUP7 ADD ADD MSTORE ADD AND ADD ADD SWAP1 JUMP JUMPDEST PUSH1 0x20 DUP2 DUP4 ADD DUP2 ADD MLOAD DUP5 DUP4 ADD DUP3 ADD MSTORE ADD PUSH2 0x2463 JUMP JUMPDEST PUSH1 0x4 CALLDATALOAD SWAP1 PUSH1 0x1 PUSH1 0x1 PUSH1 0xA0 SHL SUB DUP3 AND DUP3 SUB PUSH2 0x26A JUMPI JUMP JUMPDEST PUSH1 0x24 CALLDATALOAD SWAP1 PUSH1 0x1 PUSH1 0x1 PUSH1 0xA0 SHL SUB DUP3 AND DUP3 SUB PUSH2 0x26A JUMPI JUMP JUMPDEST PUSH2 0x1A0 DUP2 ADD SWAP1 DUP2 LT PUSH8 0xFFFFFFFFFFFFFFFF DUP3 GT OR PUSH2 0xC9A JUMPI PUSH1 0x40 MSTORE JUMP JUMPDEST PUSH1 0x80 DUP2 ADD SWAP1 DUP2 LT PUSH8 0xFFFFFFFFFFFFFFFF DUP3 GT OR PUSH2 0xC9A JUMPI PUSH1 0x40 MSTORE JUMP JUMPDEST PUSH8 0xFFFFFFFFFFFFFFFF DUP2 GT PUSH2 0xC9A JUMPI PUSH1 0x40 MSTORE JUMP JUMPDEST PUSH1 0x60 DUP2 ADD SWAP1 DUP2 LT PUSH8 0xFFFFFFFFFFFFFFFF DUP3 GT OR PUSH2 0xC9A JUMPI PUSH1 0x40 MSTORE JUMP JUMPDEST PUSH1 0x20 DUP2 ADD SWAP1 DUP2 LT PUSH8 0xFFFFFFFFFFFFFFFF DUP3 GT OR PUSH2 0xC9A JUMPI PUSH1 0x40 MSTORE JUMP JUMPDEST PUSH1 0x40 DUP2 ADD SWAP1 DUP2 LT PUSH8 0xFFFFFFFFFFFFFFFF DUP3 GT OR PUSH2 0xC9A JUMPI PUSH1 0x40 MSTORE JUMP JUMPDEST SWAP1 PUSH1 0x1F PUSH32 0xFFFFFFFFFFFFFFFFFFFFFFFFFFFFFFFFFFFFFFFFFFFFFFFFFFFFFFFFFFFFFFE0 SWAP2 ADD AND DUP2 ADD SWAP1 DUP2 LT PUSH8 0xFFFFFFFFFFFFFFFF DUP3 GT OR PUSH2 0xC9A JUMPI PUSH1 0x40 MSTORE JUMP JUMPDEST PUSH8 0xFFFFFFFFFFFFFFFF DUP2 GT PUSH2 0xC9A JUMPI PUSH1 0x5 SHL PUSH1 0x20 ADD SWAP1 JUMP JUMPDEST PUSH1 0x4 CALLDATALOAD SWAP1 PUSH12 0xFFFFFFFFFFFFFFFFFFFFFFFF DUP3 AND DUP3 SUB PUSH2 0x26A JUMPI JUMP JUMPDEST PUSH1 0x24 CALLDATALOAD SWAP1 PUSH12 0xFFFFFFFFFFFFFFFFFFFFFFFF DUP3 AND DUP3 SUB PUSH2 0x26A JUMPI JUMP JUMPDEST PUSH1 0x4 CALLDATALOAD SWAP1 PUSH8 0xFFFFFFFFFFFFFFFF DUP3 AND DUP3 SUB PUSH2 0x26A JUMPI JUMP JUMPDEST PUSH1 0x24 CALLDATALOAD SWAP1 PUSH8 0xFFFFFFFFFFFFFFFF DUP3 AND DUP3 SUB PUSH2 0x26A JUMPI JUMP JUMPDEST PUSH1 0x44 CALLDATALOAD SWAP1 PUSH8 0xFFFFFFFFFFFFFFFF DUP3 AND DUP3 SUB PUSH2 0x26A JUMPI JUMP JUMPDEST PUSH1 0x44 CALLDATALOAD SWAP1 DUP2 ISZERO ISZERO DUP3 SUB PUSH2 0x26A JUMPI JUMP JUMPDEST PUSH1 0x20 SWAP1 PUSH1 0x20 PUSH1 0x40 DUP2 DUP4 ADD SWAP3 DUP3 DUP2 MSTORE DUP6 MLOAD DUP1 SWAP5 MSTORE ADD SWAP4 ADD SWAP2 PUSH1 0x0 JUMPDEST DUP3 DUP2 LT PUSH2 0x268E JUMPI POP POP POP POP SWAP1 JUMP JUMPDEST SWAP1 SWAP2 SWAP3 SWAP4 DUP3 PUSH2 0x200 DUP3 PUSH2 0x2789 PUSH1 0x1 SWAP5 DUP10 MLOAD PUSH2 0x1E0 SWAP1 PUSH1 0x60 PUSH12 0xFFFFFFFFFFFFFFFFFFFFFFFF SWAP2 DUP3 DUP2 MLOAD AND DUP6 MSTORE DUP3 PUSH1 0x20 DUP3 ADD MLOAD AND PUSH1 0x20 DUP7 ADD MSTORE PUSH1 0x40 DUP2 ADD MLOAD PUSH8 0xFFFFFFFFFFFFFFFF DUP1 SWAP2 AND PUSH1 0x40 DUP8 ADD MSTORE DUP4 DUP4 DUP4 ADD MLOAD AND DUP4 DUP8 ADD MSTORE DUP4 PUSH1 0x80 DUP4 ADD MLOAD AND PUSH1 0x80 DUP8 ADD MSTORE DUP1 PUSH1 0xA0 DUP4 ADD MLOAD AND PUSH1 0xA0 DUP8 ADD MSTORE DUP4 PUSH1 0xC0 DUP4 ADD MLOAD AND PUSH1 0xC0 DUP8 ADD MSTORE DUP4 PUSH1 0xE0 DUP4 ADD MLOAD AND PUSH1 0xE0 DUP8 ADD MSTORE PUSH2 0x100 SWAP1 DUP2 DUP4 ADD MLOAD AND SWAP1 DUP7 ADD MSTORE PUSH2 0x120 PUSH1 0x1 PUSH1 0x1 PUSH1 0xA0 SHL SUB DUP2 DUP4 ADD MLOAD AND SWAP1 DUP7 ADD MSTORE PUSH2 0x140 SWAP1 DUP2 DUP2 ADD MLOAD SWAP2 PUSH4 0xFFFFFFFF DUP1 SWAP4 AND SWAP1 DUP8 ADD MSTORE PUSH2 0x160 DUP3 DUP2 DUP4 ADD MLOAD AND SWAP1 DUP8 ADD MSTORE PUSH2 0x180 DUP1 SWAP2 ADD MLOAD SWAP2 DUP3 MLOAD AND SWAP1 DUP7 ADD MSTORE DUP3 PUSH1 0x20 DUP3 ADD MLOAD AND PUSH2 0x1A0 DUP7 ADD MSTORE DUP3 PUSH1 0x40 DUP3 ADD MLOAD AND PUSH2 0x1C0 DUP7 ADD MSTORE ADD MLOAD AND SWAP2 ADD MSTORE JUMP JUMPDEST ADD SWAP6 ADD SWAP4 SWAP3 SWAP2 ADD PUSH2 0x2680 JUMP JUMPDEST PUSH1 0x84 CALLDATALOAD SWAP1 PUSH1 0xFF DUP3 AND DUP3 SUB PUSH2 0x26A JUMPI JUMP JUMPDEST SWAP1 PUSH1 0x1 DUP3 DUP2 SHR SWAP3 AND DUP1 ISZERO PUSH2 0x27EE JUMPI JUMPDEST PUSH1 0x20 DUP4 LT EQ PUSH2 0x27BF JUMPI JUMP JUMPDEST PUSH32 0x4E487B7100000000000000000000000000000000000000000000000000000000 PUSH1 0x0 MSTORE PUSH1 0x22 PUSH1 0x4 MSTORE PUSH1 0x24 PUSH1 0x0 REVERT JUMPDEST SWAP2 PUSH1 0x7F AND SWAP2 PUSH2 0x27B4 JUMP JUMPDEST SWAP2 SWAP1 DUP3 SUB SWAP2 DUP3 GT PUSH2 0x1579 JUMPI JUMP JUMPDEST RETURNDATASIZE ISZERO PUSH2 0x285E JUMPI RETURNDATASIZE SWAP1 PUSH8 0xFFFFFFFFFFFFFFFF DUP3 GT PUSH2 0xC9A JUMPI PUSH1 0x40 MLOAD SWAP2 PUSH2 0x2852 PUSH1 0x20 PUSH32 0xFFFFFFFFFFFFFFFFFFFFFFFFFFFFFFFFFFFFFFFFFFFFFFFFFFFFFFFFFFFFFFE0 PUSH1 0x1F DUP5 ADD AND ADD DUP5 PUSH2 0x2583 JUMP JUMPDEST DUP3 MSTORE RETURNDATASIZE PUSH1 0x0 PUSH1 0x20 DUP5 ADD RETURNDATACOPY JUMP JUMPDEST PUSH1 0x60 SWAP1 JUMP JUMPDEST PUSH1 0x0 CALLER DUP2 MSTORE PUSH1 0x8 PUSH1 0x20 MSTORE PUSH1 0x1 PUSH1 0x40 DUP3 KECCAK256 ADD SWAP1 DUP2 SLOAD SWAP2 DUP3 ISZERO PUSH2 0x2911 JUMPI DUP2 SWAP1 SSTORE PUSH2 0x288D DUP3 PUSH1 0x6 SLOAD PUSH2 0x27F8 JUMP JUMPDEST PUSH1 0x6 SSTORE PUSH32 0x87E12C2565042763DAA6BF5842ED2B6447F17F7E28F9A4905FE3959581396EAD PUSH1 0x40 DUP1 MLOAD CALLER DUP2 MSTORE DUP5 PUSH1 0x20 DUP3 ADD MSTORE LOG1 DUP1 DUP1 DUP1 DUP5 CALLER GAS CALL PUSH2 0x28CE PUSH2 0x2805 JUMP JUMPDEST POP ISZERO PUSH2 0x28D7 JUMPI POP JUMP JUMPDEST PUSH1 0x44 SWAP1 PUSH1 0x6 SLOAD SWAP1 PUSH1 0x40 MLOAD SWAP2 PUSH32 0xCF47918100000000000000000000000000000000000000000000000000000000 DUP4 MSTORE PUSH1 0x4 DUP4 ADD MSTORE PUSH1 0x24 DUP3 ADD MSTORE REVERT JUMPDEST POP POP POP JUMP JUMPDEST ISZERO PUSH2 0x291D JUMPI JUMP JUMPDEST PUSH1 0x64 PUSH1 0x40 MLOAD PUSH32 0x8C379A000000000000000000000000000000000000000000000000000000000 DUP2 MSTORE PUSH1 0x20 PUSH1 0x4 DUP3 ADD MSTORE PUSH1 0x1 PUSH1 0x24 DUP3 ADD MSTORE PUSH32 0x3100000000000000000000000000000000000000000000000000000000000000 PUSH1 0x44 DUP3 ADD MSTORE REVERT JUMPDEST PUSH1 0x40 MLOAD SWAP1 PUSH2 0x2988 DUP3 PUSH2 0x24E2 JUMP JUMPDEST DUP2 PUSH2 0x180 PUSH1 0x0 SWAP2 DUP3 DUP2 MSTORE DUP3 PUSH1 0x20 DUP3 ADD MSTORE DUP3 PUSH1 0x40 DUP3 ADD MSTORE DUP3 PUSH1 0x60 DUP3 ADD MSTORE DUP3 PUSH1 0x80 DUP3 ADD MSTORE DUP3 PUSH1 0xA0 DUP3 ADD MSTORE DUP3 PUSH1 0xC0 DUP3 ADD MSTORE DUP3 PUSH1 0xE0 DUP3 ADD MSTORE DUP3 PUSH2 0x100 DUP3 ADD MSTORE DUP3 PUSH2 0x120 DUP3 ADD MSTORE DUP3 PUSH2 0x140 DUP3 ADD MSTORE DUP3 PUSH2 0x160 DUP3 ADD MSTORE PUSH1 0x40 MLOAD SWAP3 PUSH2 0x29E5 DUP5 PUSH2 0x24FF JUMP JUMPDEST DUP1 DUP5 MSTORE DUP1 PUSH1 0x20 DUP6 ADD MSTORE DUP1 PUSH1 0x40 DUP6 ADD MSTORE PUSH1 0x60 DUP5 ADD MSTORE ADD MSTORE JUMP JUMPDEST SWAP1 PUSH2 0x2A07 DUP3 PUSH2 0x25C4 JUMP JUMPDEST PUSH2 0x2A14 PUSH1 0x40 MLOAD SWAP2 DUP3 PUSH2 0x2583 JUMP JUMPDEST DUP3 DUP2 MSTORE PUSH32 0xFFFFFFFFFFFFFFFFFFFFFFFFFFFFFFFFFFFFFFFFFFFFFFFFFFFFFFFFFFFFFFE0 PUSH2 0x2A42 DUP3 SWAP5 PUSH2 0x25C4 JUMP JUMPDEST ADD SWAP1 PUSH1 0x0 JUMPDEST DUP3 DUP2 LT PUSH2 0x2A53 JUMPI POP POP POP JUMP JUMPDEST PUSH1 0x20 SWAP1 PUSH2 0x2A5E PUSH2 0x297B JUMP JUMPDEST DUP3 DUP3 DUP6 ADD ADD MSTORE ADD PUSH2 0x2A47 JUMP JUMPDEST SWAP1 PUSH1 0x1 PUSH8 0xFFFFFFFFFFFFFFFF DUP1 SWAP4 AND ADD SWAP2 DUP3 GT PUSH2 0x1579 JUMPI JUMP JUMPDEST SWAP2 SWAP1 SWAP2 PUSH8 0xFFFFFFFFFFFFFFFF DUP1 DUP1 SWAP5 AND SWAP2 AND ADD SWAP2 DUP3 GT PUSH2 0x1579 JUMPI JUMP JUMPDEST PUSH8 0xFFFFFFFFFFFFFFFF SWAP2 DUP3 AND SWAP1 DUP3 AND SUB SWAP2 SWAP1 DUP3 GT PUSH2 0x1579 JUMPI JUMP JUMPDEST DUP1 MLOAD ISZERO PUSH2 0x1D8B JUMPI PUSH1 0x20 ADD SWAP1 JUMP JUMPDEST DUP1 MLOAD DUP3 LT ISZERO PUSH2 0x1D8B JUMPI PUSH1 0x20 SWAP2 PUSH1 0x5 SHL ADD ADD SWAP1 JUMP JUMPDEST SWAP1 PUSH1 0x40 MLOAD SWAP2 PUSH2 0x2AE8 DUP4 PUSH2 0x24E2 JUMP JUMPDEST PUSH2 0x180 DUP4 DUP3 SLOAD PUSH12 0xFFFFFFFFFFFFFFFFFFFFFFFF SWAP1 DUP2 DUP2 AND DUP4 MSTORE DUP2 DUP2 PUSH1 0x60 SHR AND PUSH1 0x20 DUP5 ADD MSTORE PUSH1 0xC0 SHR PUSH1 0x40 DUP4 ADD MSTORE PUSH1 0x1 DUP5 ADD SLOAD DUP2 DUP2 AND PUSH1 0x60 DUP5 ADD MSTORE DUP2 DUP2 PUSH1 0x60 SHR AND PUSH1 0x80 DUP5 ADD MSTORE PUSH1 0xC0 SHR PUSH1 0xA0 DUP4 ADD MSTORE PUSH1 0x2 DUP5 ADD SLOAD DUP2 DUP2 AND PUSH1 0xC0 DUP5 ADD MSTORE DUP2 DUP2 PUSH1 0x60 SHR AND PUSH1 0xE0 DUP5 ADD MSTORE PUSH1 0xC0 SHR PUSH2 0x100 DUP4 ADD MSTORE PUSH1 0x5 PUSH1 0x3 DUP6 ADD SLOAD SWAP5 PUSH1 0x1 PUSH1 0x1 PUSH1 0xA0 SHL SUB DUP7 AND PUSH2 0x120 DUP6 ADD MSTORE PUSH4 0xFFFFFFFF DUP7 DUP2 DUP1 SWAP9 PUSH1 0xA0 SHR AND PUSH2 0x140 DUP8 ADD MSTORE PUSH1 0xC0 SHR AND PUSH2 0x160 DUP6 ADD MSTORE DUP3 PUSH1 0x40 MLOAD SWAP7 PUSH2 0x2B98 DUP9 PUSH2 0x24FF JUMP JUMPDEST PUSH1 0x4 DUP4 ADD SLOAD SWAP1 DUP2 AND DUP9 MSTORE DUP2 DUP2 PUSH1 0x20 SHR AND PUSH1 0x20 DUP10 ADD MSTORE PUSH1 0x80 SHR AND PUSH1 0x40 DUP8 ADD MSTORE ADD SLOAD AND PUSH1 0x60 DUP5 ADD MSTORE ADD MSTORE JUMP JUMPDEST SWAP1 PUSH8 0xFFFFFFFFFFFFFFFF SWAP2 DUP3 PUSH1 0x2 SLOAD AND SWAP2 PUSH1 0x0 DUP4 DUP6 DUP5 AND LT ISZERO PUSH2 0x2CE9 JUMPI POP DUP3 DUP5 PUSH2 0x2BEC DUP4 DUP6 PUSH2 0x2A83 JUMP JUMPDEST AND GT ISZERO PUSH2 0x2CD9 JUMPI POP DUP2 JUMPDEST PUSH2 0x2C0A DUP5 PUSH2 0x2C04 DUP5 DUP7 PUSH2 0x2A9F JUMP JUMPDEST AND PUSH2 0x29FD JUMP JUMPDEST SWAP5 ISZERO PUSH2 0x2C77 JUMPI POP DUP1 JUMPDEST DUP4 DUP4 AND DUP5 DUP3 AND LT PUSH2 0x2C25 JUMPI POP POP POP POP SWAP1 JUMP JUMPDEST DUP4 PUSH1 0x1 DUP3 DUP3 PUSH2 0x2C34 DUP2 SWAP6 PUSH2 0x2A6A JUMP JUMPDEST AND PUSH1 0x0 MSTORE PUSH1 0x7 PUSH1 0x20 MSTORE PUSH2 0x2C6D PUSH1 0x40 PUSH1 0x0 KECCAK256 DUP5 PUSH2 0x2C59 PUSH2 0x2C53 DUP10 DUP7 PUSH2 0x2A9F JUMP JUMPDEST SWAP3 PUSH2 0x2ADA JUMP JUMPDEST SWAP2 AND SWAP1 PUSH2 0x2C66 DUP3 DUP13 PUSH2 0x2AC6 JUMP JUMPDEST MSTORE DUP10 PUSH2 0x2AC6 JUMP JUMPDEST POP ADD AND SWAP1 POP PUSH2 0x2C13 JUMP JUMPDEST DUP2 JUMPDEST DUP5 DUP5 AND DUP6 DUP3 AND LT PUSH2 0x2C8C JUMPI POP POP POP POP POP SWAP1 JUMP JUMPDEST DUP5 PUSH1 0x1 DUP3 DUP3 PUSH2 0x2C9C DUP2 SWAP6 DUP8 PUSH2 0x2A9F JUMP JUMPDEST AND PUSH1 0x0 MSTORE PUSH1 0x7 PUSH1 0x20 MSTORE PUSH2 0x2CCF PUSH1 0x40 PUSH1 0x0 KECCAK256 DUP5 PUSH2 0x2CBB PUSH2 0x2C53 DUP11 DUP7 PUSH2 0x2A9F JUMP JUMPDEST SWAP2 AND SWAP1 PUSH2 0x2CC8 DUP3 DUP14 PUSH2 0x2AC6 JUMP JUMPDEST MSTORE DUP11 PUSH2 0x2AC6 JUMP JUMPDEST POP ADD AND SWAP1 POP PUSH2 0x2C79 JUMP JUMPDEST PUSH2 0x2CE3 SWAP1 DUP3 PUSH2 0x2A83 JUMP JUMPDEST SWAP2 PUSH2 0x2BF6 JUMP JUMPDEST SWAP5 POP POP POP POP POP PUSH1 0x40 MLOAD SWAP1 PUSH2 0x2CFC DUP3 PUSH2 0x254B JUMP JUMPDEST DUP2 MSTORE SWAP1 JUMP JUMPDEST MLOAD SWAP1 PUSH8 0xFFFFFFFFFFFFFFFF DUP3 AND DUP3 SUB PUSH2 0x26A JUMPI JUMP JUMPDEST MLOAD SWAP1 PUSH1 0x1 PUSH1 0x1 PUSH1 0xA0 SHL SUB DUP3 AND DUP3 SUB PUSH2 0x26A JUMPI JUMP JUMPDEST SWAP2 SWAP1 DUP3 ADD DUP1 SWAP3 GT PUSH2 0x1579 JUMPI JUMP JUMPDEST PUSH12 0xFFFFFFFFFFFFFFFFFFFFFFFF SWAP2 DUP3 AND SWAP1 DUP3 AND SUB SWAP2 SWAP1 DUP3 GT PUSH2 0x1579 JUMPI JUMP JUMPDEST PUSH8 0xFFFFFFFFFFFFFFFF DUP2 AND PUSH1 0x0 MSTORE PUSH1 0x7 PUSH1 0x20 MSTORE PUSH1 0x1 PUSH4 0xFFFFFFFF PUSH1 0x3 PUSH1 0x40 PUSH1 0x0 KECCAK256 ADD SLOAD PUSH1 0xC0 SHR AND SUB PUSH2 0x2DD6 JUMPI PUSH12 0xFFFFFFFFFFFFFFFFFFFFFFFF PUSH1 0x0 SLOAD AND CALLVALUE LT PUSH2 0x2DAC JUMPI PUSH2 0x2DAA SWAP1 PUSH2 0x2DA5 CALLVALUE PUSH2 0x3A58 JUMP JUMPDEST PUSH2 0x449D JUMP JUMPDEST JUMP JUMPDEST PUSH1 0x4 PUSH1 0x40 MLOAD PUSH32 0x86B1569F00000000000000000000000000000000000000000000000000000000 DUP2 MSTORE REVERT JUMPDEST POP JUMP JUMPDEST PUSH1 0x1 PUSH1 0x1 PUSH1 0xA0 SHL SUB DUP1 PUSH1 0xE SLOAD AND CALLER EQ ISZERO SWAP1 DUP2 PUSH2 0x2E2A JUMPI JUMPDEST POP PUSH2 0x20D0 JUMPI PUSH8 0xFFFFFFFFFFFFFFFF DUP2 AND PUSH1 0x0 MSTORE PUSH1 0x7 PUSH1 0x20 MSTORE PUSH1 0x1 PUSH4 0xFFFFFFFF PUSH1 0x3 PUSH1 0x40 PUSH1 0x0 KECCAK256 ADD SLOAD PUSH1 0xC0 SHR AND SUB PUSH2 0x2DD6 JUMPI PUSH2 0x2DAA SWAP1 PUSH2 0x449D JUMP JUMPDEST PUSH1 0x1 SLOAD PUSH1 0x28 SHR AND CALLER EQ ISZERO SWAP1 POP CODESIZE PUSH2 0x2DF0 JUMP JUMPDEST DUP2 DUP2 MUL SWAP3 SWAP2 DUP2 ISZERO SWAP2 DUP5 DIV EQ OR ISZERO PUSH2 0x1579 JUMPI JUMP JUMPDEST DUP2 ISZERO PUSH2 0x2E59 JUMPI DIV SWAP1 JUMP JUMPDEST PUSH32 0x4E487B7100000000000000000000000000000000000000000000000000000000 PUSH1 0x0 MSTORE PUSH1 0x12 PUSH1 0x4 MSTORE PUSH1 0x24 PUSH1 0x0 REVERT JUMPDEST DUP1 ISZERO PUSH2 0x2DD6 JUMPI PUSH1 0x5 SLOAD PUSH2 0x2EA7 PUSH2 0x2E9E DUP4 DUP4 PUSH2 0x2E3C JUMP JUMPDEST PUSH1 0xB SLOAD SWAP1 PUSH2 0x2E4F JUMP JUMPDEST SWAP2 PUSH8 0xFFFFFFFFFFFFFFFF DUP1 PUSH1 0x2 SLOAD AND SWAP3 PUSH1 0xFF PUSH1 0x1 SLOAD PUSH1 0x20 SHR AND DUP3 PUSH32 0x0 AND MUL SWAP2 DUP3 AND SWAP2 DUP3 SUB PUSH2 0x1579 JUMPI PUSH2 0x2F07 DUP6 PUSH2 0x2F02 PUSH2 0x2F5B SWAP5 PUSH2 0x2F64 SWAP8 PUSH2 0x2A83 JUMP JUMPDEST PUSH2 0x4A6A JUMP JUMPDEST SWAP1 PUSH32 0x76CD0CEDF979345CA241CE6DE696A520A8EFC860C6C10D9DB2A7953307C237FC PUSH1 0xA0 PUSH2 0x2F35 DUP5 DUP10 PUSH2 0x27F8 JUMP JUMPDEST SWAP8 DUP9 SWAP5 PUSH1 0x40 MLOAD SWAP2 CALLER DUP4 MSTORE DUP9 PUSH1 0x20 DUP5 ADD MSTORE PUSH1 0x40 DUP4 ADD MSTORE PUSH1 0x60 DUP3 ADD MSTORE DUP5 PUSH1 0x80 DUP3 ADD MSTORE LOG1 PUSH2 0x27F8 JUMP JUMPDEST PUSH1 0x5 SSTORE CALLER PUSH2 0x3C45 JUMP JUMPDEST PUSH1 0x0 DUP1 DUP1 DUP1 DUP5 CALLER GAS CALL PUSH2 0x2F75 PUSH2 0x2805 JUMP JUMPDEST POP ISZERO PUSH2 0x2F7E JUMPI POP JUMP JUMPDEST PUSH1 0x44 SWAP1 PUSH1 0x5 SLOAD SWAP1 PUSH1 0x40 MLOAD SWAP2 PUSH32 0xCF47918100000000000000000000000000000000000000000000000000000000 DUP4 MSTORE PUSH1 0x4 DUP4 ADD MSTORE PUSH1 0x24 DUP3 ADD MSTORE REVERT JUMPDEST PUSH8 0xFFFFFFFFFFFFFFFF DUP1 SWAP2 AND SWAP1 DUP2 EQ PUSH2 0x1579 JUMPI PUSH1 0x1 ADD SWAP1 JUMP JUMPDEST PUSH1 0x1 PUSH1 0x1 PUSH1 0xA0 SHL SUB PUSH1 0x0 SWAP2 AND DUP2 MSTORE PUSH1 0x20 SWAP1 PUSH1 0x8 PUSH1 0x20 MSTORE PUSH1 0x40 SWAP1 PUSH1 0x40 DUP2 KECCAK256 SLOAD SWAP3 PUSH8 0xFFFFFFFFFFFFFFFF SWAP4 DUP5 DUP7 AND SWAP7 DUP2 DUP9 LT ISZERO PUSH2 0x30EB JUMPI DUP1 DUP3 DUP8 PUSH2 0x3014 DUP2 SWAP5 DUP12 PUSH2 0x2A83 JUMP JUMPDEST AND GT ISZERO PUSH2 0x30D3 JUMPI POP POP PUSH2 0x3031 PUSH2 0x302C DUP3 SWAP9 JUMPDEST DUP10 PUSH2 0x27F8 JUMP JUMPDEST PUSH2 0x29FD JUMP JUMPDEST SWAP8 ISZERO PUSH2 0x3081 JUMPI POP DUP5 JUMPDEST DUP7 DUP6 DUP3 AND LT PUSH2 0x304D JUMPI POP POP POP POP POP POP POP SWAP1 JUMP JUMPDEST DUP1 DUP6 PUSH2 0x305B PUSH2 0x307C SWAP4 PUSH2 0x2A6A JUMP JUMPDEST AND DUP5 MSTORE PUSH1 0x7 DUP4 MSTORE PUSH2 0x3076 DUP6 DUP6 KECCAK256 DUP8 PUSH2 0x2CBB PUSH2 0x2C53 DUP12 DUP7 PUSH2 0x2A9F JUMP JUMPDEST POP PUSH2 0x2FB8 JUMP JUMPDEST PUSH2 0x303A JUMP JUMPDEST DUP6 SWAP9 SWAP8 SWAP7 SWAP2 SWAP3 SWAP4 SWAP5 SWAP6 JUMPDEST DUP7 DUP2 AND DUP4 DUP2 LT ISZERO PUSH2 0x30C6 JUMPI SWAP1 DUP8 PUSH2 0x30A5 PUSH2 0x30C1 SWAP4 DUP6 PUSH2 0x27F8 JUMP JUMPDEST AND DUP7 MSTORE PUSH1 0x7 DUP6 MSTORE PUSH2 0x3076 DUP12 DUP10 PUSH2 0x2CBB PUSH2 0x2C53 DUP12 DUP12 KECCAK256 SWAP4 DUP7 PUSH2 0x2A9F JUMP JUMPDEST PUSH2 0x308B JUMP JUMPDEST POP SWAP7 SWAP9 POP POP POP POP POP POP POP POP JUMP JUMPDEST PUSH2 0x3031 SWAP2 PUSH2 0x30E4 PUSH2 0x302C SWAP3 DUP11 PUSH2 0x2A83 JUMP JUMPDEST AND SWAP9 PUSH2 0x3026 JUMP JUMPDEST POP POP POP SWAP5 POP POP POP POP POP PUSH1 0x40 MLOAD SWAP1 PUSH2 0x2CFC DUP3 PUSH2 0x254B JUMP JUMPDEST PUSH2 0x310A CALLVALUE PUSH2 0x3D16 JUMP JUMPDEST PUSH8 0xFFFFFFFFFFFFFFFF NOT PUSH1 0x2 SLOAD PUSH8 0xFFFFFFFFFFFFFFFF SWAP1 DUP2 PUSH1 0x1 DUP2 DUP4 AND ADD AND SWAP3 DUP4 SWAP2 AND OR PUSH1 0x2 SSTORE PUSH12 0xFFFFFFFFFFFFFFFFFFFFFFFF DUP1 SWAP4 AND SWAP3 PUSH2 0x314B DUP5 PUSH2 0x4FF3 JUMP JUMPDEST PUSH1 0x0 DUP5 DUP2 MSTORE PUSH1 0x7 PUSH1 0x20 SWAP1 DUP2 MSTORE PUSH1 0x40 DUP1 DUP4 KECCAK256 DUP1 SLOAD PUSH24 0xFFFFFFFFFFFFFFFFFFFFFFFFFFFFFFFFFFFFFFFFFFFFFFFF AND NUMBER DUP9 AND PUSH1 0xC0 SHL PUSH32 0xFFFFFFFFFFFFFFFF000000000000000000000000000000000000000000000000 AND OR DUP2 SSTORE SWAP7 SWAP1 SWAP4 SWAP1 SWAP3 SWAP1 PUSH1 0x2 DUP9 ADD DUP1 SLOAD PUSH24 0xFFFFFFFFFFFFFFFFFFFFFFFFFFFFFFFFFFFFFFFFFFFFFFFF AND PUSH1 0xC0 DUP7 SWAP1 SHL PUSH32 0xFFFFFFFFFFFFFFFF000000000000000000000000000000000000000000000000 AND OR DUP2 SSTORE SWAP5 PUSH1 0x3 DUP10 ADD SWAP8 CALLER PUSH32 0xFFFFFFFFFFFFFFFFFFFFFFFF0000000000000000000000000000000000000000 DUP11 SLOAD AND OR DUP10 SSTORE PUSH32 0xFFFFFFFFFFFFFFFFFFFFFFFFFFFFFFFFFFFFFFFF000000000000000000000000 SWAP3 DUP12 DUP5 DUP13 SLOAD AND OR DUP12 SSTORE PUSH2 0x329C DUP10 DUP7 SLOAD AND DUP13 SWAP1 PUSH32 0xFFFFFFFFFFFFFFFF000000000000000000000000FFFFFFFFFFFFFFFFFFFFFFFF PUSH24 0xFFFFFFFFFFFFFFFFFFFFFFFF000000000000000000000000 DUP4 SLOAD SWAP3 PUSH1 0x60 SHL AND SWAP2 AND OR SWAP1 SSTORE JUMP JUMPDEST PUSH1 0x1 DUP12 ADD DUP1 SLOAD PUSH32 0xFFFFFFFFFFFFFFFF000000000000000000000000000000000000000000000000 AND PUSH20 0x1BC16D674EC80000000000000000000000000000 OR DUP2 SSTORE DUP9 SLOAD SWAP1 SWAP5 AND DUP1 DUP10 SSTORE DUP6 SLOAD PUSH32 0xFFFFFFFFFFFFFFFF000000000000000000000000FFFFFFFFFFFFFFFFFFFFFFFF SWAP1 SWAP2 AND PUSH1 0x60 SWAP2 DUP3 SHR DUP12 AND DUP3 SHL PUSH24 0xFFFFFFFFFFFFFFFFFFFFFFFF000000000000000000000000 AND OR DUP10 SSTORE SWAP4 PUSH2 0x337C SWAP1 DUP7 SLOAD DUP2 SLOAD PUSH24 0xFFFFFFFFFFFFFFFFFFFFFFFFFFFFFFFFFFFFFFFFFFFFFFFF AND PUSH32 0xFFFFFFFFFFFFFFFF000000000000000000000000000000000000000000000000 SWAP1 SWAP2 AND OR SWAP1 SSTORE JUMP JUMPDEST PUSH25 0x1000000000000000000000000000000000000000000000000 DUP11 SLOAD PUSH32 0xFFFFFFFF0000000000000000FFFFFFFFFFFFFFFFFFFFFFFFFFFFFFFFFFFFFFFF PUSH24 0xFFFFFFFF0000000000000000000000000000000000000000 PUSH4 0xFFFFFFFF DUP6 AND SWAP5 PUSH1 0xA0 SHL AND SWAP2 AND OR OR DUP11 SSTORE CALLER DUP6 MSTORE PUSH1 0x8 DUP7 MSTORE DUP3 DUP6 KECCAK256 DUP1 SLOAD SWAP1 PUSH9 0x10000000000000000 DUP3 LT ISZERO PUSH2 0x3739 JUMPI PUSH1 0x1 DUP3 ADD DUP1 DUP3 SSTORE DUP3 LT ISZERO PUSH2 0x370C JUMPI PUSH2 0x3446 SWAP2 DUP10 SWAP2 DUP9 MSTORE DUP9 DUP9 KECCAK256 PUSH1 0x18 DUP3 PUSH1 0x3 SHL AND SWAP2 PUSH1 0x2 SHR ADD SWAP2 SWAP1 PUSH8 0xFFFFFFFFFFFFFFFF DUP1 DUP5 SLOAD SWAP3 PUSH1 0x3 SHL SWAP4 AND DUP4 SHL SWAP3 SHL NOT AND OR SWAP1 SSTORE JUMP JUMPDEST DUP7 DUP13 DUP7 SLOAD SWAP4 DUP12 DUP6 AND SWAP5 DUP13 DUP9 DUP2 DUP13 DUP13 DUP12 MLOAD SWAP2 PUSH2 0x3460 DUP4 PUSH2 0x252F JUMP JUMPDEST DUP12 DUP4 MSTORE DUP4 DUP8 DUP3 DUP6 ADD SWAP7 SHR AND DUP6 MSTORE DUP13 DUP4 ADD SWAP7 PUSH1 0xC0 SHR DUP8 MSTORE DUP13 MLOAD SWAP9 DUP10 MSTORE DUP9 ADD MSTORE PUSH8 0x1BC16D674EC80000 DUP12 DUP9 ADD MSTORE DUP13 DUP13 DUP9 ADD MSTORE DUP9 PUSH1 0x80 DUP9 ADD MSTORE PUSH1 0x1 PUSH1 0xA0 DUP9 ADD MSTORE MLOAD AND PUSH1 0xC0 DUP7 ADD MSTORE MLOAD AND PUSH1 0xE0 DUP5 ADD MSTORE MLOAD AND PUSH2 0x100 DUP3 ADD MSTORE PUSH32 0xEB87FFBE69BE596530037DE78D6A6CA3317C12CE908C3C46E9CFA526531A177E PUSH2 0x120 CALLER SWAP3 LOG3 PUSH2 0x3640 JUMPI POP POP POP POP POP POP PUSH2 0x2DAA SWAP5 PUSH1 0x5 SLOAD ADD PUSH1 0x5 SSTORE PUSH25 0x4000000000000000000000000000000000000000000000000 PUSH32 0xFFFFFFFF00000000FFFFFFFFFFFFFFFFFFFFFFFFFFFFFFFFFFFFFFFFFFFFFFFF DUP5 SLOAD AND OR DUP4 SSTORE PUSH2 0x356D DUP5 PUSH8 0xDE0B6B3A7640000 DUP2 SLOAD PUSH12 0xFFFFFFFFFFFFFFFFFFFFFFFF PUSH1 0x1 DUP2 PUSH1 0x2 DUP7 ADD SLOAD PUSH1 0x60 SHR AND DUP3 DUP5 PUSH1 0x60 SHR AND ADD SWAP5 ADD SLOAD PUSH1 0xC0 SHR SWAP2 AND MUL DIV ADD SWAP1 JUMP JUMPDEST SWAP1 DUP2 DUP4 DUP7 SLOAD AND LT ISZERO PUSH2 0x3583 JUMPI JUMPDEST POP POP POP POP PUSH2 0x48B9 JUMP JUMPDEST PUSH2 0x3619 SWAP2 PUSH8 0xDE0B6B3A7640000 PUSH2 0x1BD7 PUSH2 0x35C5 SWAP4 SLOAD PUSH1 0xC0 SHR SWAP3 DUP7 PUSH32 0x0 AND SWAP1 PUSH2 0x2E3C JUMP JUMPDEST SWAP2 DUP3 AND PUSH1 0x4 DUP6 ADD SWAP1 PUSH32 0xFFFFFFFF000000000000000000000000FFFFFFFFFFFFFFFFFFFFFFFFFFFFFFFF PUSH28 0xFFFFFFFFFFFFFFFFFFFFFFFF00000000000000000000000000000000 DUP4 SLOAD SWAP3 PUSH1 0x80 SHL AND SWAP2 AND OR SWAP1 SSTORE JUMP JUMPDEST DUP1 PUSH2 0x3626 JUMPI JUMPDEST DUP1 DUP1 PUSH2 0x357A JUMP JUMPDEST PUSH1 0x1 PUSH1 0x1 PUSH1 0xA0 SHL SUB PUSH2 0x3639 SWAP3 SLOAD AND PUSH2 0x54AC JUMP JUMPDEST CODESIZE DUP1 PUSH2 0x361F JUMP JUMPDEST DUP4 SWAP5 SWAP6 SWAP10 POP PUSH2 0x2DAA SWAP11 SWAP9 POP PUSH1 0xA0 SWAP7 POP SWAP7 DUP8 PUSH32 0xC90468505EB2131F45874A6543CC8F26CDCF8665051CF5307268576B7D543B41 SWAP9 ISZERO PUSH1 0x0 EQ PUSH2 0x36A4 JUMPI POP SWAP1 DUP4 SWAP2 DUP3 SLOAD AND DUP2 MLOAD SWAP7 DUP12 DUP9 MSTORE DUP8 ADD MSTORE DUP6 ADD MSTORE DUP4 ADD MSTORE PUSH1 0x80 DUP3 ADD MSTORE LOG1 JUMPDEST PUSH1 0x3 SLOAD ADD PUSH1 0x3 SSTORE PUSH2 0x449D JUMP JUMPDEST DUP1 SWAP5 POP PUSH1 0x5 SLOAD GT PUSH1 0x0 EQ PUSH2 0x36E2 JUMPI SWAP1 DUP5 SWAP2 DUP5 PUSH1 0x5 SLOAD SUB PUSH1 0x5 SSTORE DUP5 PUSH1 0x4 SLOAD ADD PUSH1 0x4 SSTORE DUP3 SLOAD AND DUP2 MLOAD SWAP7 DUP12 DUP9 MSTORE DUP8 ADD MSTORE DUP6 ADD MSTORE DUP4 ADD MSTORE PUSH1 0x80 DUP3 ADD MSTORE LOG1 PUSH2 0x3698 JUMP JUMPDEST SWAP4 SWAP1 PUSH2 0x36EE DUP5 DUP12 PUSH2 0x5460 JUMP JUMPDEST SWAP5 DUP3 SLOAD AND DUP2 MLOAD SWAP7 DUP12 DUP9 MSTORE DUP8 ADD MSTORE DUP6 ADD MSTORE DUP4 ADD MSTORE PUSH1 0x80 DUP3 ADD MSTORE LOG1 PUSH2 0x3698 JUMP JUMPDEST PUSH1 0x24 DUP8 PUSH32 0x4E487B7100000000000000000000000000000000000000000000000000000000 DUP2 MSTORE PUSH1 0x32 PUSH1 0x4 MSTORE REVERT JUMPDEST PUSH1 0x24 DUP8 PUSH32 0x4E487B7100000000000000000000000000000000000000000000000000000000 DUP2 MSTORE PUSH1 0x41 PUSH1 0x4 MSTORE REVERT JUMPDEST DUP1 PUSH1 0x0 MSTORE PUSH1 0x14 PUSH1 0x20 MSTORE PUSH1 0x40 PUSH1 0x0 KECCAK256 SWAP1 DUP2 SLOAD SWAP1 PUSH8 0xFFFFFFFFFFFFFFFF DUP3 AND SWAP2 DUP3 ISZERO PUSH2 0x37ED JUMPI PUSH32 0xF0FAE454E29AD3220710F0DBFC0DE63AA072447C86AE97D3C1E7133519B32111 SWAP5 PUSH1 0x60 SWAP5 PUSH8 0xFFFFFFFFFFFFFFFF NOT PUSH2 0x37D8 SWAP4 AND SWAP1 SSTORE PUSH2 0x37D3 PUSH2 0x37CC DUP3 PUSH2 0x2AB9 JUMP JUMPDEST MLOAD DUP6 PUSH2 0x4B8B JUMP JUMPDEST PUSH2 0x2AB9 JUMP JUMPDEST MLOAD SWAP1 PUSH1 0x40 MLOAD SWAP3 DUP4 MSTORE PUSH1 0x20 DUP4 ADD MSTORE PUSH1 0x40 DUP3 ADD MSTORE LOG1 JUMP JUMPDEST POP POP POP POP POP JUMP JUMPDEST SWAP2 PUSH1 0x1 PUSH1 0x1 PUSH1 0xA0 SHL SUB DUP1 SWAP4 AND SWAP2 PUSH1 0x0 SWAP4 DUP4 DUP6 MSTORE PUSH1 0xA PUSH1 0x20 MSTORE PUSH1 0x40 SWAP4 DUP5 DUP7 KECCAK256 SWAP2 DUP4 AND SWAP2 DUP3 DUP8 MSTORE PUSH1 0x20 MSTORE DUP5 DUP7 KECCAK256 SLOAD SWAP3 PUSH32 0xFFFFFFFFFFFFFFFFFFFFFFFFFFFFFFFFFFFFFFFFFFFFFFFFFFFFFFFFFFFFFFFF DUP5 SUB PUSH2 0x3852 JUMPI JUMPDEST POP POP POP POP POP POP POP JUMP JUMPDEST DUP5 DUP5 LT PUSH2 0x38E6 JUMPI POP DUP1 ISZERO PUSH2 0x38B6 JUMPI DUP2 ISZERO PUSH2 0x3886 JUMPI DUP6 MSTORE PUSH1 0xA PUSH1 0x20 MSTORE DUP4 DUP6 KECCAK256 SWAP1 DUP6 MSTORE PUSH1 0x20 MSTORE SUB SWAP2 KECCAK256 SSTORE CODESIZE DUP1 DUP1 DUP1 DUP1 DUP1 DUP1 PUSH2 0x3849 JUMP JUMPDEST PUSH1 0x24 DUP7 DUP7 MLOAD SWAP1 PUSH32 0x94280D6200000000000000000000000000000000000000000000000000000000 DUP3 MSTORE PUSH1 0x4 DUP3 ADD MSTORE REVERT JUMPDEST PUSH1 0x24 DUP7 DUP7 MLOAD SWAP1 PUSH32 0xE602DF0500000000000000000000000000000000000000000000000000000000 DUP3 MSTORE PUSH1 0x4 DUP3 ADD MSTORE REVERT JUMPDEST DUP6 MLOAD PUSH32 0xFB8F41B200000000000000000000000000000000000000000000000000000000 DUP2 MSTORE PUSH1 0x1 PUSH1 0x1 PUSH1 0xA0 SHL SUB SWAP2 SWAP1 SWAP2 AND PUSH1 0x4 DUP3 ADD MSTORE PUSH1 0x24 DUP2 ADD DUP5 SWAP1 MSTORE PUSH1 0x44 DUP2 ADD DUP6 SWAP1 MSTORE PUSH1 0x64 SWAP1 REVERT JUMPDEST SWAP2 PUSH1 0x1 PUSH1 0x1 PUSH1 0xA0 SHL SUB DUP1 DUP5 AND SWAP3 DUP4 ISZERO PUSH2 0x3A27 JUMPI AND SWAP3 DUP4 ISZERO PUSH2 0x39F6 JUMPI PUSH1 0x0 SWAP1 DUP4 DUP3 MSTORE PUSH1 0x9 PUSH1 0x20 MSTORE PUSH1 0x40 DUP3 KECCAK256 SLOAD SWAP1 DUP4 DUP3 LT PUSH2 0x39AB JUMPI POP SWAP2 PUSH1 0x40 DUP3 DUP3 PUSH32 0xDDF252AD1BE2C89B69C2B068FC378DAA952BA7F163C4A11628F55A4DF523B3EF SWAP6 DUP8 PUSH1 0x20 SWAP7 MSTORE PUSH1 0x9 DUP7 MSTORE SUB DUP3 DUP3 KECCAK256 SSTORE DUP7 DUP2 MSTORE KECCAK256 DUP2 DUP2 SLOAD ADD SWAP1 SSTORE PUSH1 0x40 MLOAD SWAP1 DUP2 MSTORE LOG3 JUMP JUMPDEST PUSH1 0x40 MLOAD PUSH32 0xE450D38C00000000000000000000000000000000000000000000000000000000 DUP2 MSTORE PUSH1 0x1 PUSH1 0x1 PUSH1 0xA0 SHL SUB SWAP2 SWAP1 SWAP2 AND PUSH1 0x4 DUP3 ADD MSTORE PUSH1 0x24 DUP2 ADD SWAP2 SWAP1 SWAP2 MSTORE PUSH1 0x44 DUP2 ADD DUP4 SWAP1 MSTORE PUSH1 0x64 SWAP1 REVERT JUMPDEST PUSH1 0x24 PUSH1 0x40 MLOAD PUSH32 0xEC442F0500000000000000000000000000000000000000000000000000000000 DUP2 MSTORE PUSH1 0x0 PUSH1 0x4 DUP3 ADD MSTORE REVERT JUMPDEST PUSH1 0x24 PUSH1 0x40 MLOAD PUSH32 0x96C6FD1E00000000000000000000000000000000000000000000000000000000 DUP2 MSTORE PUSH1 0x0 PUSH1 0x4 DUP3 ADD MSTORE REVERT JUMPDEST PUSH32 0x2C8225B846D7DB9AD756862FB7CBD9772BB99F17AB145624877338A8E55817C2 PUSH1 0x60 PUSH1 0x40 MLOAD CALLER DUP2 MSTORE DUP4 PUSH1 0x20 DUP3 ADD MSTORE PUSH1 0x0 PUSH1 0x40 DUP3 ADD MSTORE LOG1 PUSH1 0x13 SLOAD PUSH8 0xFFFFFFFFFFFFFFFF AND PUSH32 0x0 PUSH1 0x1 PUSH1 0x1 PUSH1 0xA0 SHL SUB AND DUP1 EXTCODESIZE ISZERO PUSH2 0x26A JUMPI PUSH1 0x24 PUSH1 0x0 SWAP3 PUSH1 0x40 MLOAD SWAP5 DUP6 SWAP4 DUP5 SWAP3 PUSH32 0x1376583800000000000000000000000000000000000000000000000000000000 DUP5 MSTORE PUSH1 0x4 DUP5 ADD MSTORE GAS CALL DUP1 ISZERO PUSH2 0x8B5 JUMPI PUSH2 0x3B11 JUMPI POP JUMP JUMPDEST PUSH2 0x2DAA SWAP1 PUSH2 0x251B JUMP JUMPDEST PUSH1 0x1 PUSH1 0x1 PUSH1 0xA0 SHL SUB PUSH32 0x0 AND ADDRESS EQ DUP1 PUSH2 0x3C1C JUMPI JUMPDEST ISZERO PUSH2 0x3B75 JUMPI PUSH32 0x0 SWAP1 JUMP JUMPDEST PUSH1 0x40 MLOAD PUSH1 0x20 DUP2 ADD SWAP1 PUSH32 0x8B73C3C69BB8FE3D512ECC4CF759CC79239F7B179B0FFACAA9A75D522B39400F DUP3 MSTORE PUSH32 0x0 PUSH1 0x40 DUP3 ADD MSTORE PUSH32 0x0 PUSH1 0x60 DUP3 ADD MSTORE CHAINID PUSH1 0x80 DUP3 ADD MSTORE ADDRESS PUSH1 0xA0 DUP3 ADD MSTORE PUSH1 0xA0 DUP2 MSTORE PUSH1 0xC0 DUP2 ADD DUP2 DUP2 LT PUSH8 0xFFFFFFFFFFFFFFFF DUP3 GT OR PUSH2 0xC9A JUMPI PUSH1 0x40 MSTORE MLOAD SWAP1 KECCAK256 SWAP1 JUMP JUMPDEST POP PUSH32 0x0 CHAINID EQ PUSH2 0x3B4C JUMP JUMPDEST SWAP2 SWAP1 PUSH1 0x1 PUSH1 0x1 PUSH1 0xA0 SHL SUB DUP4 AND SWAP1 DUP2 ISZERO PUSH2 0x3A27 JUMPI DUP2 PUSH1 0x0 MSTORE PUSH1 0x9 PUSH1 0x20 MSTORE PUSH1 0x40 PUSH1 0x0 KECCAK256 SLOAD SWAP4 DUP2 DUP6 LT PUSH2 0x3CB7 JUMPI POP PUSH1 0x20 DUP2 PUSH32 0xDDF252AD1BE2C89B69C2B068FC378DAA952BA7F163C4A11628F55A4DF523B3EF SWAP3 PUSH1 0x0 SWAP6 SWAP7 DUP6 DUP8 MSTORE PUSH1 0x9 DUP5 MSTORE SUB PUSH1 0x40 DUP7 KECCAK256 SSTORE DUP1 PUSH1 0xB SLOAD SUB PUSH1 0xB SSTORE PUSH1 0x40 MLOAD SWAP1 DUP2 MSTORE LOG3 JUMP JUMPDEST PUSH1 0x40 MLOAD PUSH32 0xE450D38C00000000000000000000000000000000000000000000000000000000 DUP2 MSTORE PUSH1 0x1 PUSH1 0x1 PUSH1 0xA0 SHL SUB SWAP2 SWAP1 SWAP2 AND PUSH1 0x4 DUP3 ADD MSTORE PUSH1 0x24 DUP2 ADD DUP6 SWAP1 MSTORE PUSH1 0x44 DUP2 ADD SWAP2 SWAP1 SWAP2 MSTORE PUSH1 0x64 SWAP1 REVERT JUMPDEST PUSH1 0x1 PUSH1 0x1 PUSH1 0xA0 SHL SUB PUSH1 0xE SLOAD AND CALLER SUB PUSH2 0x20D0 JUMPI JUMP JUMPDEST PUSH12 0xFFFFFFFFFFFFFFFFFFFFFFFF SWAP1 DUP2 DUP2 GT PUSH2 0x3D2F JUMPI AND SWAP1 JUMP JUMPDEST PUSH1 0x44 SWAP1 PUSH1 0x40 MLOAD SWAP1 PUSH32 0x6DFCC65000000000000000000000000000000000000000000000000000000000 DUP3 MSTORE PUSH1 0x60 PUSH1 0x4 DUP4 ADD MSTORE PUSH1 0x24 DUP3 ADD MSTORE REVERT JUMPDEST SWAP2 SWAP1 SWAP3 PUSH1 0x2 SLOAD SWAP1 PUSH8 0xFFFFFFFFFFFFFFFF PUSH1 0x1 DUP2 DUP5 AND ADD AND PUSH8 0xFFFFFFFFFFFFFFFF NOT DUP4 AND OR PUSH1 0x2 SSTORE PUSH12 0xFFFFFFFFFFFFFFFFFFFFFFFF PUSH2 0x3DA8 PUSH2 0xD4C DUP4 DUP9 PUSH2 0x4EBF JUMP JUMPDEST AND SWAP1 DUP2 PUSH2 0x4485 JUMPI JUMPDEST PUSH2 0x3DE5 PUSH12 0xFFFFFFFFFFFFFFFFFFFFFFFF DUP3 AND PUSH12 0xFFFFFFFFFFFFFFFFFFFFFFFF DUP7 AND PUSH12 0xFFFFFFFFFFFFFFFFFFFFFFFF DUP10 AND PUSH2 0x5060 JUMP JUMPDEST PUSH8 0xFFFFFFFFFFFFFFFF DUP5 DUP2 AND PUSH1 0x1 ADD AND PUSH1 0x0 SWAP1 DUP2 MSTORE PUSH1 0x7 PUSH1 0x20 MSTORE PUSH1 0x40 SWAP1 KECCAK256 DUP1 SLOAD PUSH24 0xFFFFFFFFFFFFFFFFFFFFFFFFFFFFFFFFFFFFFFFFFFFFFFFF AND NUMBER PUSH1 0xC0 SHL PUSH32 0xFFFFFFFFFFFFFFFF000000000000000000000000000000000000000000000000 AND OR DUP2 SSTORE SWAP6 PUSH1 0x2 DUP8 ADD DUP1 SLOAD PUSH24 0xFFFFFFFFFFFFFFFFFFFFFFFFFFFFFFFFFFFFFFFFFFFFFFFF AND PUSH8 0xFFFFFFFFFFFFFFFF DUP8 AND PUSH1 0x1 ADD PUSH1 0xC0 SHL PUSH32 0xFFFFFFFFFFFFFFFF000000000000000000000000000000000000000000000000 AND OR SWAP1 SSTORE PUSH1 0x1 PUSH1 0x1 PUSH1 0xA0 SHL SUB DUP2 AND PUSH32 0xFFFFFFFFFFFFFFFFFFFFFFFF0000000000000000000000000000000000000000 PUSH1 0x3 DUP10 ADD SLOAD AND OR PUSH1 0x3 DUP9 ADD SSTORE PUSH2 0x3FEF PUSH32 0xFFFFFFFFFFFFFFFFFFFFFFFFFFFFFFFFFFFFFFFF000000000000000000000000 PUSH12 0xFFFFFFFFFFFFFFFFFFFFFFFF DUP11 AND DUP2 DUP11 SLOAD AND OR DUP10 SSTORE PUSH2 0x3F6E PUSH12 0xFFFFFFFFFFFFFFFFFFFFFFFF PUSH1 0x0 SLOAD AND DUP11 SWAP1 PUSH32 0xFFFFFFFFFFFFFFFF000000000000000000000000FFFFFFFFFFFFFFFFFFFFFFFF PUSH24 0xFFFFFFFFFFFFFFFFFFFFFFFF000000000000000000000000 DUP4 SLOAD SWAP3 PUSH1 0x60 SHL AND SWAP2 AND OR SWAP1 SSTORE JUMP JUMPDEST PUSH1 0x1 DUP10 ADD DUP1 SLOAD PUSH24 0xFFFFFFFFFFFFFFFFFFFFFFFF000000000000000000000000 PUSH1 0x60 DUP9 SWAP1 SHL DUP2 AND PUSH12 0xFFFFFFFFFFFFFFFFFFFFFFFF DUP13 AND SWAP3 DUP6 AND PUSH32 0xFFFFFFFFFFFFFFFF000000000000000000000000FFFFFFFFFFFFFFFFFFFFFFFF SWAP1 DUP2 AND SWAP4 SWAP1 SWAP4 OR OR DUP4 SSTORE PUSH1 0x2 DUP13 ADD DUP1 SLOAD SWAP1 SWAP5 AND DUP10 OR DUP1 DUP6 SSTORE PUSH1 0x0 SLOAD SWAP3 AND SWAP2 AND OR SWAP1 SWAP2 SSTORE PUSH2 0x18E2 JUMP JUMPDEST PUSH25 0x1000000000000000000000000000000000000000000000000 PUSH1 0x3 DUP9 ADD SLOAD PUSH32 0xFFFFFFFF0000000000000000FFFFFFFFFFFFFFFFFFFFFFFFFFFFFFFFFFFFFFFF PUSH24 0xFFFFFFFF0000000000000000000000000000000000000000 DUP6 PUSH1 0xA0 SHL AND SWAP2 AND OR OR PUSH1 0x3 DUP9 ADD SSTORE PUSH1 0x1 PUSH1 0x1 PUSH1 0xA0 SHL SUB DUP2 AND PUSH1 0x0 MSTORE PUSH1 0x8 PUSH1 0x20 MSTORE PUSH1 0x40 PUSH1 0x0 KECCAK256 DUP1 SLOAD PUSH9 0x10000000000000000 DUP2 LT ISZERO PUSH2 0xC9A JUMPI PUSH1 0x1 DUP2 ADD DUP1 DUP4 SSTORE DUP2 LT ISZERO PUSH2 0x1D8B JUMPI PUSH4 0xFFFFFFFF SWAP5 PUSH2 0x40E0 PUSH8 0xFFFFFFFFFFFFFFFF SWAP3 DUP13 SWAP5 PUSH1 0x0 MSTORE PUSH1 0x20 PUSH1 0x0 KECCAK256 SWAP1 DUP5 PUSH1 0x1 DUP2 DUP14 AND ADD AND SWAP2 PUSH1 0x18 DUP3 PUSH1 0x3 SHL AND SWAP2 PUSH1 0x2 SHR ADD SWAP2 SWAP1 PUSH8 0xFFFFFFFFFFFFFFFF DUP1 DUP5 SLOAD SWAP3 PUSH1 0x3 SHL SWAP4 AND DUP4 SHL SWAP3 SHL NOT AND OR SWAP1 SSTORE JUMP JUMPDEST PUSH12 0xFFFFFFFFFFFFFFFFFFFFFFFF DUP10 DUP2 PUSH1 0x0 SLOAD SWAP4 DUP2 DUP6 AND SWAP11 DUP3 PUSH1 0x40 MLOAD SWAP3 PUSH2 0x4105 DUP5 PUSH2 0x252F JUMP JUMPDEST DUP14 DUP5 MSTORE DUP2 PUSH1 0x20 DUP6 ADD SWAP7 DUP2 DUP11 PUSH1 0x60 SHR AND DUP9 MSTORE PUSH1 0x40 DUP7 ADD SWAP10 PUSH1 0xC0 SHR DUP11 MSTORE DUP2 PUSH1 0x40 MLOAD SWAP13 AND DUP13 MSTORE AND PUSH1 0x20 DUP12 ADD MSTORE AND PUSH1 0x40 DUP10 ADD MSTORE PUSH1 0x60 DUP9 ADD MSTORE DUP10 DUP10 AND PUSH1 0x80 DUP9 ADD MSTORE PUSH1 0x1 PUSH1 0xA0 DUP9 ADD MSTORE MLOAD AND PUSH1 0xC0 DUP7 ADD MSTORE MLOAD AND PUSH1 0xE0 DUP5 ADD MSTORE MLOAD AND PUSH2 0x100 DUP3 ADD MSTORE PUSH32 0xEB87FFBE69BE596530037DE78D6A6CA3317C12CE908C3C46E9CFA526531A177E PUSH2 0x120 PUSH1 0x1 PUSH1 0x1 PUSH1 0xA0 SHL SUB PUSH8 0xFFFFFFFFFFFFFFFF PUSH1 0x1 DUP2 DUP12 AND ADD AND SWAP5 AND SWAP3 LOG3 AND PUSH2 0x4328 JUMPI POP POP PUSH2 0x2DAA SWAP3 PUSH12 0xFFFFFFFFFFFFFFFFFFFFFFFF DUP1 SWAP3 AND PUSH1 0x4 SLOAD ADD PUSH1 0x4 SSTORE AND PUSH1 0x5 SLOAD ADD PUSH1 0x5 SSTORE PUSH25 0x4000000000000000000000000000000000000000000000000 PUSH32 0xFFFFFFFF00000000FFFFFFFFFFFFFFFFFFFFFFFFFFFFFFFFFFFFFFFFFFFFFFFF PUSH1 0x3 DUP4 ADD SLOAD AND OR PUSH1 0x3 DUP3 ADD SSTORE PUSH2 0x424C DUP2 PUSH8 0xDE0B6B3A7640000 DUP2 SLOAD PUSH12 0xFFFFFFFFFFFFFFFFFFFFFFFF PUSH1 0x1 DUP2 PUSH1 0x2 DUP7 ADD SLOAD PUSH1 0x60 SHR AND DUP3 DUP5 PUSH1 0x60 SHR AND ADD SWAP5 ADD SLOAD PUSH1 0xC0 SHR SWAP2 AND MUL DIV ADD SWAP1 JUMP JUMPDEST DUP1 PUSH12 0xFFFFFFFFFFFFFFFFFFFFFFFF DUP4 SLOAD AND LT ISZERO PUSH2 0x4269 JUMPI POP PUSH2 0x48B9 JUMP JUMPDEST PUSH2 0x42B7 SWAP1 PUSH8 0xDE0B6B3A7640000 PUSH2 0x1BD7 PUSH1 0x2 DUP6 ADD SLOAD PUSH1 0xC0 SHR SWAP3 PUSH12 0xFFFFFFFFFFFFFFFFFFFFFFFF PUSH32 0x0 AND SWAP1 PUSH2 0x2E3C JUMP JUMPDEST PUSH1 0x4 DUP3 ADD DUP1 SLOAD PUSH32 0xFFFFFFFF000000000000000000000000FFFFFFFFFFFFFFFFFFFFFFFFFFFFFFFF AND PUSH1 0x80 DUP4 SWAP1 SHL PUSH28 0xFFFFFFFFFFFFFFFFFFFFFFFF00000000000000000000000000000000 AND OR SWAP1 SSTORE DUP1 ISZERO PUSH2 0x1B83 JUMPI PUSH2 0x4322 SWAP1 PUSH1 0x1 PUSH1 0x1 PUSH1 0xA0 SHL SUB PUSH1 0x3 DUP5 ADD SLOAD AND PUSH2 0x54AC JUMP JUMPDEST CODESIZE PUSH2 0x1B83 JUMP JUMPDEST PUSH8 0xFFFFFFFFFFFFFFFF SWAP4 POP SWAP1 PUSH12 0xFFFFFFFFFFFFFFFFFFFFFFFF PUSH2 0x2DAA SWAP6 PUSH32 0xC90468505EB2131F45874A6543CC8F26CDCF8665051CF5307268576B7D543B41 PUSH1 0xA0 DUP7 DUP9 SWAP7 DUP2 DUP7 PUSH1 0x1 SWAP11 AND DUP3 GT ISZERO PUSH1 0x0 EQ PUSH2 0x43C4 JUMPI DUP7 SWAP2 POP AND PUSH1 0x4 SLOAD ADD PUSH1 0x4 SSTORE DUP5 DUP1 PUSH1 0x0 SLOAD AND SWAP2 PUSH1 0x40 MLOAD SWAP3 DUP10 DUP12 DUP2 DUP12 AND ADD AND DUP5 MSTORE PUSH1 0x20 DUP5 ADD MSTORE AND PUSH1 0x40 DUP3 ADD MSTORE PUSH1 0x0 PUSH1 0x60 DUP3 ADD MSTORE PUSH1 0x0 PUSH1 0x80 DUP3 ADD MSTORE LOG1 AND PUSH1 0x3 SLOAD ADD PUSH1 0x3 SSTORE AND ADD AND PUSH2 0x449D JUMP JUMPDEST DUP7 SWAP2 SUB AND DUP1 PUSH1 0x5 SLOAD GT PUSH1 0x0 EQ PUSH2 0x4419 JUMPI DUP1 PUSH1 0x5 SLOAD SUB PUSH1 0x5 SSTORE DUP6 DUP2 DUP4 ADD AND PUSH1 0x4 SLOAD ADD PUSH1 0x4 SSTORE DUP6 DUP1 PUSH1 0x0 SLOAD AND SWAP3 PUSH1 0x40 MLOAD SWAP4 DUP11 DUP13 DUP2 DUP13 AND ADD AND DUP6 MSTORE PUSH1 0x20 DUP6 ADD MSTORE AND PUSH1 0x40 DUP4 ADD MSTORE PUSH1 0x60 DUP3 ADD MSTORE PUSH1 0x0 PUSH1 0x80 DUP3 ADD MSTORE LOG1 PUSH2 0x1CCB JUMP JUMPDEST DUP2 DUP7 AND PUSH2 0x4465 JUMPI PUSH2 0x4434 DUP7 PUSH1 0x0 SLOAD AND DUP10 DUP12 DUP2 DUP12 AND ADD AND PUSH2 0x5460 JUMP JUMPDEST SWAP1 JUMPDEST DUP7 DUP1 PUSH1 0x0 SLOAD AND SWAP4 PUSH1 0x40 MLOAD SWAP5 DUP12 DUP14 DUP2 DUP14 AND ADD AND DUP7 MSTORE PUSH1 0x20 DUP7 ADD MSTORE AND PUSH1 0x40 DUP5 ADD MSTORE PUSH1 0x60 DUP4 ADD MSTORE PUSH1 0x80 DUP3 ADD MSTORE LOG1 PUSH2 0x1CCB JUMP JUMPDEST DUP6 DUP3 AND PUSH1 0x4 SLOAD ADD PUSH1 0x4 SSTORE PUSH2 0x447F DUP2 DUP10 DUP12 DUP2 DUP12 AND ADD AND PUSH2 0x5460 JUMP JUMPDEST SWAP1 PUSH2 0x4436 JUMP JUMPDEST PUSH2 0x4498 DUP3 PUSH1 0x1 PUSH1 0x1 PUSH1 0xA0 SHL SUB DUP8 AND PUSH2 0x3C45 JUMP JUMPDEST PUSH2 0x3DB0 JUMP JUMPDEST SWAP1 PUSH1 0x12 SLOAD SWAP2 PUSH1 0x13 SLOAD SWAP1 PUSH8 0xFFFFFFFFFFFFFFFF SWAP4 PUSH4 0xFFFFFFFF PUSH1 0x40 SWAP4 DUP5 MLOAD SWAP3 PUSH32 0x5D3B1D3000000000000000000000000000000000000000000000000000000000 DUP5 MSTORE PUSH1 0x4 DUP5 ADD MSTORE DUP7 DUP2 AND PUSH1 0x24 DUP5 ADD MSTORE PUSH2 0xFFFF DUP2 DUP7 SHR AND PUSH1 0x44 DUP5 ADD MSTORE PUSH1 0x50 SHR AND PUSH1 0x64 DUP3 ADD MSTORE PUSH1 0x1 PUSH1 0x84 DUP3 ADD MSTORE PUSH1 0x20 PUSH1 0x0 SWAP6 DUP2 DUP4 PUSH1 0xA4 DUP2 DUP11 PUSH1 0x1 PUSH1 0x1 PUSH1 0xA0 SHL SUB PUSH32 0x0 AND GAS CALL SWAP3 DUP4 ISZERO PUSH2 0x45CD JUMPI DUP8 SWAP4 PUSH2 0x4598 JUMPI JUMPDEST POP DUP5 DUP8 DUP5 PUSH32 0xA990ADA370C671616B9654533068AE76F9E9F21E952956EDC8B9D578C1AF6A5B SWAP9 SWAP10 MSTORE PUSH1 0x14 DUP5 MSTORE KECCAK256 SWAP4 AND SWAP3 DUP4 PUSH8 0xFFFFFFFFFFFFFFFF NOT DUP3 SLOAD AND OR SWAP1 SSTORE DUP4 MLOAD SWAP3 DUP4 MSTORE DUP3 ADD MSTORE LOG1 JUMP JUMPDEST SWAP7 SWAP3 POP DUP2 DUP8 DUP2 RETURNDATASIZE DUP4 GT PUSH2 0x45C6 JUMPI JUMPDEST PUSH2 0x45B0 DUP2 DUP4 PUSH2 0x2583 JUMP JUMPDEST DUP2 ADD SUB SLT PUSH2 0x45C2 JUMPI SWAP6 MLOAD SWAP2 SWAP6 DUP5 PUSH2 0x454C JUMP JUMPDEST DUP3 DUP1 REVERT JUMPDEST POP RETURNDATASIZE PUSH2 0x45A6 JUMP JUMPDEST DUP6 MLOAD RETURNDATASIZE DUP10 DUP3 RETURNDATACOPY RETURNDATASIZE SWAP1 REVERT JUMPDEST PUSH8 0xFFFFFFFFFFFFFFFF SWAP1 DUP2 PUSH1 0x13 SLOAD AND DUP1 ISZERO PUSH2 0x46FC JUMPI PUSH1 0x1 PUSH1 0x1 PUSH1 0xA0 SHL SUB SWAP2 SELFBALANCE PUSH32 0x0 DUP5 AND DUP1 EXTCODESIZE ISZERO PUSH2 0x26A JUMPI PUSH1 0x40 MLOAD PUSH32 0xD7AE1D3000000000000000000000000000000000000000000000000000000000 DUP2 MSTORE PUSH8 0xFFFFFFFFFFFFFFFF SWAP5 SWAP1 SWAP5 AND PUSH1 0x4 DUP6 ADD MSTORE PUSH1 0x1 PUSH1 0x1 PUSH1 0xA0 SHL SUB DUP4 AND PUSH1 0x24 DUP6 ADD MSTORE PUSH1 0x0 SWAP1 DUP5 SWAP1 PUSH1 0x44 SWAP1 DUP3 SWAP1 DUP5 SWAP1 GAS CALL SWAP3 DUP4 ISZERO PUSH2 0x8B5 JUMPI PUSH2 0x46E5 SWAP6 PUSH2 0x46BF PUSH32 0x3BD852EE380DBCE18B6EF1BB5EDDD4F23559A838C997AA4676A3B745AD90811E SWAP4 PUSH1 0x60 SWAP4 PUSH8 0xFFFFFFFFFFFFFFFF NOT SWAP8 PUSH2 0x46ED JUMPI JUMPDEST POP SELFBALANCE PUSH2 0x27F8 JUMP JUMPDEST SWAP6 PUSH1 0x13 SLOAD SWAP5 PUSH1 0x40 MLOAD SWAP3 DUP7 AND DUP4 MSTORE DUP8 PUSH1 0x20 DUP5 ADD MSTORE AND PUSH1 0x40 DUP3 ADD MSTORE LOG1 AND PUSH1 0x13 SSTORE PUSH1 0x4 SLOAD PUSH2 0x2D2A JUMP JUMPDEST PUSH1 0x4 SSTORE PUSH1 0x1 SWAP1 JUMP JUMPDEST PUSH2 0x46F6 SWAP1 PUSH2 0x251B JUMP JUMPDEST CODESIZE PUSH2 0x46B8 JUMP JUMPDEST POP POP POP PUSH1 0x0 SWAP1 JUMP JUMPDEST PUSH8 0xFFFFFFFFFFFFFFFF DUP1 PUSH1 0x13 SLOAD AND PUSH2 0x4894 JUMPI PUSH1 0x1 PUSH1 0x1 PUSH1 0xA0 SHL SUB PUSH32 0x0 AND PUSH1 0x40 MLOAD SWAP1 PUSH32 0xA21A23E400000000000000000000000000000000000000000000000000000000 DUP3 MSTORE PUSH1 0x0 SWAP2 PUSH1 0x20 DUP2 PUSH1 0x4 DUP2 DUP7 DUP7 GAS CALL SWAP1 DUP2 ISZERO PUSH2 0x4889 JUMPI SWAP1 DUP5 SWAP2 DUP5 SWAP2 PUSH2 0x484D JUMPI JUMPDEST POP AND DUP1 PUSH8 0xFFFFFFFFFFFFFFFF NOT PUSH1 0x13 SLOAD AND OR PUSH1 0x13 SSTORE DUP2 EXTCODESIZE ISZERO PUSH2 0x45C2 JUMPI PUSH1 0x40 MLOAD PUSH32 0x7341C10C00000000000000000000000000000000000000000000000000000000 DUP2 MSTORE PUSH8 0xFFFFFFFFFFFFFFFF SWAP2 SWAP1 SWAP2 AND PUSH1 0x4 DUP3 ADD MSTORE ADDRESS PUSH1 0x24 DUP3 ADD MSTORE SWAP2 SWAP1 DUP2 SWAP1 DUP4 SWAP1 PUSH1 0x44 SWAP1 DUP3 SWAP1 DUP5 SWAP1 GAS CALL SWAP1 DUP2 ISZERO PUSH2 0x4841 JUMPI POP SWAP2 PUSH1 0x20 SWAP2 PUSH32 0x27740E6BA23A94702C789D7C527564EC515FDD36289327FA98747CF1E17FCDBC SWAP4 PUSH2 0x4832 JUMPI JUMPDEST POP PUSH1 0x13 SLOAD AND PUSH1 0x40 MLOAD SWAP1 DUP2 MSTORE LOG1 PUSH1 0x1 SWAP1 JUMP JUMPDEST PUSH2 0x483B SWAP1 PUSH2 0x251B JUMP JUMPDEST CODESIZE PUSH2 0x4821 JUMP JUMPDEST PUSH1 0x40 MLOAD SWAP1 RETURNDATASIZE SWAP1 DUP3 RETURNDATACOPY RETURNDATASIZE SWAP1 REVERT JUMPDEST SWAP2 POP POP PUSH1 0x20 DUP2 RETURNDATASIZE PUSH1 0x20 GT PUSH2 0x4881 JUMPI JUMPDEST DUP2 PUSH2 0x4869 PUSH1 0x20 SWAP4 DUP4 PUSH2 0x2583 JUMP JUMPDEST DUP2 ADD SUB SLT PUSH2 0x45C2 JUMPI PUSH2 0x487B DUP5 SWAP2 PUSH2 0x2D01 JUMP JUMPDEST CODESIZE PUSH2 0x4785 JUMP JUMPDEST RETURNDATASIZE SWAP2 POP PUSH2 0x485C JUMP JUMPDEST PUSH1 0x40 MLOAD RETURNDATASIZE DUP6 DUP3 RETURNDATACOPY RETURNDATASIZE SWAP1 REVERT JUMPDEST POP PUSH1 0x0 SWAP1 JUMP JUMPDEST SLOAD PUSH1 0xC0 SHR PUSH1 0xC8 DUP2 ADD DUP1 SWAP2 GT PUSH2 0x1579 JUMPI NUMBER LT PUSH2 0x48B4 JUMPI PUSH1 0x1 SWAP1 JUMP JUMPDEST PUSH1 0x0 SWAP1 JUMP JUMPDEST PUSH1 0x3 DUP2 ADD SLOAD PUSH1 0x1 PUSH1 0x1 PUSH1 0xA0 SHL SUB DUP2 AND PUSH32 0x39CBF4A209B014B16BD16F4ED617501F2DF769E4A480D974457B24E172E756ED PUSH2 0x180 PUSH12 0xFFFFFFFFFFFFFFFFFFFFFFFF DUP1 DUP7 SLOAD AND SWAP5 PUSH1 0x1 DUP8 ADD SLOAD PUSH1 0x2 DUP9 ADD SLOAD SWAP8 PUSH4 0xFFFFFFFF SWAP4 PUSH1 0x5 SLOAD SWAP1 PUSH1 0x5 PUSH2 0x4933 DUP11 PUSH1 0x1 PUSH1 0x1 PUSH1 0xA0 SHL SUB AND PUSH1 0x0 MSTORE PUSH1 0x9 PUSH1 0x20 MSTORE PUSH1 0x40 PUSH1 0x0 KECCAK256 SLOAD SWAP1 JUMP JUMPDEST SWAP4 DUP3 PUSH1 0xB SLOAD SWAP7 PUSH1 0x40 MLOAD SWAP6 PUSH2 0x4946 DUP8 PUSH2 0x252F JUMP JUMPDEST DUP7 MSTORE PUSH1 0x20 DUP7 ADD SWAP7 DUP8 MSTORE PUSH1 0x40 DUP7 ADD SWAP8 DUP9 MSTORE PUSH1 0x40 MLOAD SWAP14 DUP15 MSTORE DUP14 PUSH1 0x20 DUP4 DUP4 AND SWAP2 ADD MSTORE PUSH1 0x60 SHR AND PUSH1 0x40 DUP14 ADD MSTORE DUP3 DUP14 AND PUSH1 0x60 DUP14 ADD MSTORE DUP8 DUP8 PUSH1 0xA0 SHR AND PUSH1 0x80 DUP14 ADD MSTORE DUP3 PUSH1 0x4 DUP3 ADD SLOAD DUP14 PUSH1 0xA0 DUP12 DUP4 AND SWAP2 ADD MSTORE DUP14 PUSH1 0xC0 DUP4 DUP4 PUSH1 0x20 SHR AND SWAP2 ADD MSTORE PUSH1 0x80 SHR AND PUSH1 0xE0 DUP14 ADD MSTORE ADD SLOAD AND PUSH2 0x100 DUP11 ADD MSTORE MLOAD PUSH2 0x120 DUP10 ADD MSTORE MLOAD PUSH2 0x140 DUP9 ADD MSTORE MLOAD PUSH2 0x160 DUP8 ADD MSTORE PUSH1 0xC0 SHR AND SWAP5 PUSH1 0xC0 SHR SWAP4 LOG4 JUMP JUMPDEST PUSH1 0x1 PUSH1 0x1 PUSH1 0xA0 SHL SUB AND PUSH1 0x0 SWAP2 DUP3 DUP1 DUP1 DUP1 DUP5 DUP7 PUSH4 0xFFFFFFFF PUSH1 0x1 SLOAD AND CALL PUSH2 0x49F3 PUSH2 0x2805 JUMP JUMPDEST POP ISZERO PUSH2 0x4A01 JUMPI POP POP POP PUSH1 0x1 SWAP1 JUMP JUMPDEST DUP2 PUSH1 0x40 SWAP2 PUSH32 0x9CD50C4AE1F9E1E6FE910DD37BA6A6B9FCC5F9D9CABA92513FE2F4AED5AFF5A6 SWAP4 DUP6 MSTORE PUSH1 0x8 PUSH1 0x20 MSTORE PUSH2 0x4A3E DUP2 PUSH1 0x1 DUP6 DUP9 KECCAK256 ADD SLOAD PUSH2 0x2D2A JUMP JUMPDEST DUP3 DUP7 MSTORE PUSH1 0x8 PUSH1 0x20 MSTORE PUSH1 0x1 DUP5 DUP8 KECCAK256 ADD SSTORE PUSH2 0x4A59 DUP2 PUSH1 0x6 SLOAD PUSH2 0x2D2A JUMP JUMPDEST PUSH1 0x6 SSTORE DUP3 MLOAD SWAP2 DUP3 MSTORE PUSH1 0x20 DUP3 ADD MSTORE LOG1 SWAP1 JUMP JUMPDEST PUSH8 0xFFFFFFFFFFFFFFFF SWAP1 DUP2 PUSH32 0x0 AND SWAP1 DUP2 ISZERO PUSH2 0x2E59 JUMPI PUSH32 0xFFFFFFFFFFFFFFFFFFFFFFFFFFFFFFFFFFFFFFFFFFFFFFFFFFFFFFFFFFFFFFFF ADD DUP3 AND DIV AND SHR SWAP1 JUMP JUMPDEST PUSH1 0x1 PUSH1 0x1 PUSH1 0xA0 SHL SUB DUP1 SWAP2 AND SWAP2 DUP3 ISZERO PUSH2 0x4B5A JUMPI AND SWAP2 DUP3 ISZERO PUSH2 0x4B29 JUMPI PUSH1 0x20 PUSH32 0x8C5BE1E5EBEC7D5BD14F71427D1E84F3DD0314C0F7B2291E5B200AC8C7C3B925 SWAP2 DUP4 PUSH1 0x0 MSTORE PUSH1 0xA DUP3 MSTORE PUSH1 0x40 PUSH1 0x0 KECCAK256 DUP6 PUSH1 0x0 MSTORE DUP3 MSTORE DUP1 PUSH1 0x40 PUSH1 0x0 KECCAK256 SSTORE PUSH1 0x40 MLOAD SWAP1 DUP2 MSTORE LOG3 JUMP JUMPDEST PUSH1 0x24 PUSH1 0x40 MLOAD PUSH32 0x94280D6200000000000000000000000000000000000000000000000000000000 DUP2 MSTORE PUSH1 0x0 PUSH1 0x4 DUP3 ADD MSTORE REVERT JUMPDEST PUSH1 0x24 PUSH1 0x40 MLOAD PUSH32 0xE602DF0500000000000000000000000000000000000000000000000000000000 DUP2 MSTORE PUSH1 0x0 PUSH1 0x4 DUP3 ADD MSTORE REVERT JUMPDEST PUSH8 0xFFFFFFFFFFFFFFFF AND PUSH1 0x0 MSTORE PUSH1 0x7 PUSH1 0x20 MSTORE PUSH1 0x40 PUSH1 0x0 KECCAK256 SWAP1 PUSH1 0x3 DUP3 ADD SWAP2 PUSH4 0xFFFFFFFF PUSH1 0x1 DUP2 DUP6 SLOAD PUSH1 0xC0 SHR AND SUB PUSH2 0x4EB9 JUMPI PUSH12 0xFFFFFFFFFFFFFFFFFFFFFFFF SWAP3 DUP4 DUP4 SLOAD AND SWAP1 PUSH1 0x3 SLOAD SWAP1 DUP2 DUP4 GT PUSH2 0x4E8A JUMPI PUSH2 0xFFFF PUSH1 0x1 SWAP2 DUP5 DUP7 SWAP5 SUB PUSH1 0x3 SSTORE PUSH1 0x5 SWAP5 DUP6 SLOAD ADD DUP6 SSTORE AND ADD AND SWAP2 PUSH1 0x4 DUP5 ADD SWAP3 DUP1 PUSH32 0xFFFFFFFFFFFFFFFFFFFFFFFFFFFFFFFFFFFFFFFFFFFFFFFFFFFFFFFF00000000 DUP6 SLOAD AND OR DUP5 SSTORE DUP7 SLOAD SWAP2 DUP3 PUSH1 0xA0 SHR AND LT ISZERO PUSH1 0x0 EQ PUSH2 0x4DCF JUMPI POP PUSH25 0x2000000000000000000000000000000000000000000000000 PUSH32 0xFFFFFFFF00000000FFFFFFFFFFFFFFFFFFFFFFFFFFFFFFFFFFFFFFFFFFFFFFFF DUP7 SLOAD AND OR DUP6 SSTORE DUP4 DUP4 SLOAD AND PUSH8 0xDE0B6B3A7640000 PUSH1 0x1 DUP6 ADD SWAP2 DUP7 DUP4 SLOAD PUSH1 0x60 SHR AND MUL DIV SWAP5 PUSH2 0x4CA0 PUSH2 0x4C9A DUP7 PUSH2 0x550B JUMP JUMPDEST ADDRESS PUSH2 0x54AC JUMP JUMPDEST DUP3 SLOAD SWAP2 DUP3 DUP8 LT ISZERO PUSH2 0x4D09 JUMPI POP POP POP PUSH1 0x1 PUSH1 0x1 PUSH1 0xA0 SHL SUB SWAP3 PUSH2 0x2DD6 SWAP6 SWAP3 DUP3 DUP7 PUSH2 0xA85 SWAP5 SLOAD SUB SWAP1 SSTORE DUP1 SLOAD PUSH32 0xFFFFFFFFFFFFFFFFFFFFFFFFFFFFFFFF000000000000000000000000FFFFFFFF PUSH16 0xFFFFFFFFFFFFFFFFFFFFFFFF00000000 DUP9 PUSH1 0x20 SHL AND SWAP2 AND OR SWAP1 SSTORE PUSH2 0x48B9 JUMP JUMPDEST DUP6 SWAP3 SWAP7 POP PUSH2 0x2DD6 SWAP8 SWAP5 PUSH2 0x4D3D PUSH2 0x4DA0 SWAP3 DUP5 PUSH2 0xA85 SWAP8 SWAP6 SWAP10 SLOAD AND DUP1 SWAP11 SUB DUP6 SSTORE DUP10 DUP10 PUSH1 0x2 DUP9 ADD SLOAD PUSH1 0xC0 SHR SWAP3 SLOAD PUSH1 0x60 SHR AND SWAP2 PUSH2 0x5595 JUMP JUMPDEST SWAP7 PUSH1 0x1 PUSH1 0x1 PUSH1 0xA0 SHL SUB SWAP8 PUSH2 0x4D54 DUP2 DUP11 DUP11 SLOAD AND PUSH2 0x54AC JUMP JUMPDEST DUP3 SLOAD PUSH32 0xFFFFFFFF000000000000000000000000FFFFFFFFFFFFFFFFFFFFFFFFFFFFFFFF AND SWAP2 AND PUSH1 0x80 SHL PUSH28 0xFFFFFFFFFFFFFFFFFFFFFFFF00000000000000000000000000000000 AND OR SWAP1 SSTORE JUMP JUMPDEST DUP2 ADD DUP6 PUSH32 0xFFFFFFFFFFFFFFFFFFFFFFFFFFFFFFFFFFFFFFFF000000000000000000000000 DUP3 SLOAD AND OR SWAP1 SSTORE PUSH2 0x48B9 JUMP JUMPDEST PUSH1 0x1 PUSH1 0x1 PUSH1 0xA0 SHL SUB SWAP2 POP SWAP5 PUSH2 0x4E7E PUSH2 0x4E85 SWAP5 SWAP6 SWAP4 PUSH25 0x4000000000000000000000000000000000000000000000000 PUSH32 0xFFFFFFFF00000000FFFFFFFFFFFFFFFFFFFFFFFFFFFFFFFFFFFFFFFFFFFFFFFF PUSH2 0x2DAA SWAP10 AND OR DUP4 SSTORE PUSH2 0x4E2F DUP8 PUSH2 0x550B JUMP JUMPDEST SWAP5 DUP6 AND PUSH32 0xFFFFFFFF000000000000000000000000FFFFFFFFFFFFFFFFFFFFFFFFFFFFFFFF PUSH28 0xFFFFFFFFFFFFFFFFFFFFFFFF00000000000000000000000000000000 DUP4 SLOAD SWAP3 PUSH1 0x80 SHL AND SWAP2 AND OR SWAP1 SSTORE JUMP JUMPDEST SLOAD AND PUSH2 0x54AC JUMP JUMPDEST PUSH2 0x48B9 JUMP JUMPDEST PUSH32 0x4E487B7100000000000000000000000000000000000000000000000000000000 PUSH1 0x0 MSTORE PUSH1 0x1 PUSH1 0x4 MSTORE PUSH1 0x24 PUSH1 0x0 REVERT JUMPDEST POP POP POP POP JUMP JUMPDEST SWAP1 PUSH12 0xFFFFFFFFFFFFFFFFFFFFFFFF DUP1 SWAP2 AND SWAP2 PUSH9 0x3635C9ADC5DEA00000 DUP4 GT ISZERO PUSH2 0x46FC JUMPI PUSH1 0x5 SLOAD SWAP3 DUP4 ISZERO PUSH2 0x4F50 JUMPI PUSH32 0xFFFFFFFFFFFFFFFFFFFFFFFFFFFFFFFFFFFFFFFFFFFFFFC9CA36523A21600000 DUP2 ADD SWAP1 DUP2 GT PUSH2 0x1579 JUMPI PUSH2 0x4F2D SWAP3 PUSH2 0x4F24 SWAP3 AND PUSH2 0x2E3C JUMP JUMPDEST PUSH1 0xB SLOAD SWAP1 PUSH2 0x2E3C JUMP JUMPDEST SWAP1 PUSH10 0xDE0B6B3A76400000000 DUP1 DUP3 MUL SWAP2 DUP3 DIV SUB PUSH2 0x1579 JUMPI PUSH2 0x4F4D SWAP2 PUSH2 0x2E4F JUMP JUMPDEST SWAP1 JUMP JUMPDEST POP POP POP POP PUSH1 0xB SLOAD SWAP1 JUMP JUMPDEST PUSH1 0x0 SLOAD PUSH12 0xFFFFFFFFFFFFFFFFFFFFFFFF DUP1 DUP3 AND DUP1 ISZERO PUSH2 0x4FEA JUMPI SWAP1 JUMPDEST PUSH8 0xDE0B6B3A7640000 DUP4 PUSH1 0xC0 SHR DUP6 MUL DIV SWAP3 PUSH1 0x60 SHR AND ADD ADD DUP1 DUP3 GT ISZERO PUSH2 0x46FC JUMPI PUSH10 0xDE0B6B3A76400000000 SWAP1 DUP2 DUP5 GT PUSH2 0x4FE1 JUMPI DUP4 ISZERO PUSH2 0x4FD6 JUMPI PUSH2 0x4FBB SWAP4 DUP4 MUL SWAP3 SUB MUL PUSH2 0x2E4F JUMP JUMPDEST PUSH3 0x10000 SWAP1 DUP2 DUP2 GT PUSH2 0x4FD2 JUMPI PUSH4 0xFFFFFFFF SWAP2 POP AND SWAP1 JUMP JUMPDEST POP SWAP1 JUMP JUMPDEST POP POP POP POP PUSH3 0x10000 SWAP1 JUMP JUMPDEST POP POP POP POP PUSH1 0x0 SWAP1 JUMP JUMPDEST POP PUSH1 0x0 SWAP1 PUSH2 0x4F75 JUMP JUMPDEST PUSH1 0x0 SLOAD PUSH12 0xFFFFFFFFFFFFFFFFFFFFFFFF DUP1 DUP3 AND DUP1 ISZERO PUSH2 0x5057 JUMPI SWAP1 JUMPDEST PUSH8 0xDE0B6B3A7640000 DUP4 PUSH1 0xC0 SHR DUP6 MUL DIV SWAP3 PUSH1 0x60 SHR AND ADD ADD SWAP1 DUP2 DUP2 GT ISZERO PUSH2 0x5050 JUMPI PUSH10 0xDE0B6B3A76400000000 PUSH2 0x4FBB SWAP3 PUSH8 0x1BC16D674EC80000 DUP4 MUL SWAP3 SUB MUL PUSH2 0x2E4F JUMP JUMPDEST POP POP PUSH1 0x0 SWAP1 JUMP JUMPDEST POP PUSH1 0x0 SWAP1 PUSH2 0x500E JUMP JUMPDEST PUSH1 0x0 SLOAD SWAP1 SWAP2 PUSH12 0xFFFFFFFFFFFFFFFFFFFFFFFF SWAP1 DUP2 DUP4 AND DUP1 DUP3 LT ISZERO PUSH2 0x50C6 JUMPI SUB SWAP1 PUSH8 0xDE0B6B3A7640000 DUP4 PUSH1 0xC0 SHR DUP6 MUL DIV SWAP3 PUSH1 0x60 SHR AND ADD ADD DUP1 DUP3 GT ISZERO PUSH2 0x46FC JUMPI PUSH10 0xDE0B6B3A76400000000 SWAP1 DUP2 DUP5 GT PUSH2 0x4FE1 JUMPI DUP4 ISZERO PUSH2 0x4FD6 JUMPI PUSH2 0x4FBB SWAP4 DUP4 MUL SWAP3 SUB MUL PUSH2 0x2E4F JUMP JUMPDEST POP POP PUSH1 0x0 SWAP1 PUSH2 0x4F75 JUMP JUMPDEST PUSH1 0xFF DUP2 EQ PUSH2 0x5126 JUMPI PUSH1 0xFF DUP2 AND SWAP1 PUSH1 0x1F DUP3 GT PUSH2 0x50FC JUMPI PUSH1 0x40 MLOAD SWAP2 PUSH2 0x50F2 DUP4 PUSH2 0x2567 JUMP JUMPDEST DUP3 MSTORE PUSH1 0x20 DUP3 ADD MSTORE SWAP1 JUMP JUMPDEST PUSH1 0x4 PUSH1 0x40 MLOAD PUSH32 0xB3512B0C00000000000000000000000000000000000000000000000000000000 DUP2 MSTORE REVERT JUMPDEST POP PUSH1 0x40 MLOAD PUSH1 0xF SLOAD DUP2 PUSH1 0x0 PUSH2 0x5139 DUP4 PUSH2 0x27A5 JUMP JUMPDEST DUP1 DUP4 MSTORE SWAP3 PUSH1 0x20 SWAP1 PUSH1 0x1 SWAP1 DUP2 DUP2 AND SWAP1 DUP2 ISZERO PUSH2 0x51C5 JUMPI POP PUSH1 0x1 EQ PUSH2 0x5164 JUMPI JUMPDEST POP POP PUSH2 0x4F4D SWAP3 POP SUB DUP3 PUSH2 0x2583 JUMP JUMPDEST SWAP2 POP SWAP3 PUSH1 0xF PUSH1 0x0 MSTORE PUSH32 0x8D1108E10BCB7C27DDDFC02ED9D693A074039D026CF4EA4240B40F7D581AC802 SWAP4 PUSH1 0x0 SWAP3 JUMPDEST DUP3 DUP5 LT PUSH2 0x51AD JUMPI POP PUSH2 0x4F4D SWAP5 POP POP POP DUP2 ADD PUSH1 0x20 ADD CODESIZE DUP1 PUSH2 0x5156 JUMP JUMPDEST DUP6 SLOAD DUP8 DUP6 ADD DUP4 ADD MSTORE SWAP5 DUP6 ADD SWAP5 DUP7 SWAP5 POP SWAP3 DUP2 ADD SWAP3 PUSH2 0x5192 JUMP JUMPDEST SWAP1 POP PUSH1 0x20 SWAP4 POP PUSH2 0x4F4D SWAP6 SWAP3 POP PUSH32 0xFFFFFFFFFFFFFFFFFFFFFFFFFFFFFFFFFFFFFFFFFFFFFFFFFFFFFFFFFFFFFF00 SWAP2 POP AND DUP3 DUP5 ADD MSTORE ISZERO ISZERO PUSH1 0x5 SHL DUP3 ADD ADD CODESIZE DUP1 PUSH2 0x5156 JUMP JUMPDEST PUSH1 0xFF DUP2 EQ PUSH2 0x522A JUMPI PUSH1 0xFF DUP2 AND SWAP1 PUSH1 0x1F DUP3 GT PUSH2 0x50FC JUMPI PUSH1 0x40 MLOAD SWAP2 PUSH2 0x50F2 DUP4 PUSH2 0x2567 JUMP JUMPDEST POP PUSH1 0x40 MLOAD PUSH1 0x10 SLOAD DUP2 PUSH1 0x0 PUSH2 0x523D DUP4 PUSH2 0x27A5 JUMP JUMPDEST DUP1 DUP4 MSTORE SWAP3 PUSH1 0x20 SWAP1 PUSH1 0x1 SWAP1 DUP2 DUP2 AND SWAP1 DUP2 ISZERO PUSH2 0x51C5 JUMPI POP PUSH1 0x1 EQ PUSH2 0x5267 JUMPI POP POP PUSH2 0x4F4D SWAP3 POP SUB DUP3 PUSH2 0x2583 JUMP JUMPDEST SWAP2 POP SWAP3 PUSH1 0x10 PUSH1 0x0 MSTORE PUSH32 0x1B6847DC741A1B0CD08D278845F9D819D87B734759AFB55FE2DE5CB82A9AE672 SWAP4 PUSH1 0x0 SWAP3 JUMPDEST DUP3 DUP5 LT PUSH2 0x52B0 JUMPI POP PUSH2 0x4F4D SWAP5 POP POP POP DUP2 ADD PUSH1 0x20 ADD CODESIZE DUP1 PUSH2 0x5156 JUMP JUMPDEST DUP6 SLOAD DUP8 DUP6 ADD DUP4 ADD MSTORE SWAP5 DUP6 ADD SWAP5 DUP7 SWAP5 POP SWAP3 DUP2 ADD SWAP3 PUSH2 0x5295 JUMP JUMPDEST SWAP2 SWAP1 PUSH32 0x7FFFFFFFFFFFFFFFFFFFFFFFFFFFFFFF5D576E7357A4501DDFE92F46681B20A0 DUP5 GT PUSH2 0x5340 JUMPI SWAP3 PUSH1 0x20 SWAP3 SWAP2 PUSH1 0xFF PUSH1 0x80 SWAP6 PUSH1 0x40 MLOAD SWAP5 DUP6 MSTORE AND DUP5 DUP5 ADD MSTORE PUSH1 0x40 DUP4 ADD MSTORE PUSH1 0x60 DUP3 ADD MSTORE PUSH1 0x0 SWAP3 DUP4 SWAP2 DUP3 DUP1 MSTORE PUSH1 0x1 GAS STATICCALL ISZERO PUSH2 0x4841 JUMPI DUP1 MLOAD PUSH1 0x1 PUSH1 0x1 PUSH1 0xA0 SHL SUB DUP2 AND ISZERO PUSH2 0x5337 JUMPI SWAP2 DUP2 SWAP1 JUMP JUMPDEST POP DUP1 SWAP2 PUSH1 0x1 SWAP2 SWAP1 JUMP JUMPDEST POP POP POP PUSH1 0x0 SWAP2 PUSH1 0x3 SWAP2 SWAP1 JUMP JUMPDEST PUSH1 0x4 DUP2 LT ISZERO PUSH2 0x5404 JUMPI DUP1 PUSH2 0x535E JUMPI POP POP JUMP JUMPDEST PUSH1 0x1 DUP2 SUB PUSH2 0x5390 JUMPI PUSH1 0x4 PUSH1 0x40 MLOAD PUSH32 0xF645EEDF00000000000000000000000000000000000000000000000000000000 DUP2 MSTORE REVERT JUMPDEST PUSH1 0x2 DUP2 SUB PUSH2 0x53C9 JUMPI PUSH1 0x24 DUP3 PUSH1 0x40 MLOAD SWAP1 PUSH32 0xFCE698F700000000000000000000000000000000000000000000000000000000 DUP3 MSTORE PUSH1 0x4 DUP3 ADD MSTORE REVERT JUMPDEST PUSH1 0x3 EQ PUSH2 0x53D3 JUMPI POP JUMP JUMPDEST PUSH1 0x24 SWAP1 PUSH1 0x40 MLOAD SWAP1 PUSH32 0xD78BCE0C00000000000000000000000000000000000000000000000000000000 DUP3 MSTORE PUSH1 0x4 DUP3 ADD MSTORE REVERT JUMPDEST PUSH32 0x4E487B7100000000000000000000000000000000000000000000000000000000 PUSH1 0x0 MSTORE PUSH1 0x21 PUSH1 0x4 MSTORE PUSH1 0x24 PUSH1 0x0 REVERT JUMPDEST PUSH1 0x0 JUMPDEST DUP3 MLOAD DUP2 LT ISZERO PUSH2 0x46FC JUMPI DUP2 PUSH2 0x544A DUP3 DUP6 PUSH2 0x2AC6 JUMP JUMPDEST MLOAD EQ PUSH2 0x5458 JUMPI PUSH1 0x1 ADD PUSH2 0x5436 JUMP JUMPDEST POP POP POP PUSH1 0x1 SWAP1 JUMP JUMPDEST PUSH8 0xDE0B6B3A7640000 PUSH2 0x1BD7 PUSH2 0x54A5 SWAP4 PUSH12 0xFFFFFFFFFFFFFFFFFFFFFFFF PUSH32 0x0 AND SWAP1 PUSH2 0x2E3C JUMP JUMPDEST SWAP1 PUSH2 0x2DAA DUP3 ADDRESS JUMPDEST PUSH1 0x1 PUSH1 0x1 PUSH1 0xA0 SHL SUB AND SWAP1 DUP2 ISZERO PUSH2 0x39F6 JUMPI PUSH32 0xDDF252AD1BE2C89B69C2B068FC378DAA952BA7F163C4A11628F55A4DF523B3EF PUSH1 0x20 DUP3 PUSH2 0x54EE PUSH1 0x0 SWAP5 PUSH1 0xB SLOAD PUSH2 0x2D2A JUMP JUMPDEST PUSH1 0xB SSTORE DUP5 DUP5 MSTORE PUSH1 0x9 DUP3 MSTORE PUSH1 0x40 DUP5 KECCAK256 DUP2 DUP2 SLOAD ADD SWAP1 SSTORE PUSH1 0x40 MLOAD SWAP1 DUP2 MSTORE LOG3 JUMP JUMPDEST PUSH2 0x4F4D SWAP1 PUSH8 0xDE0B6B3A7640000 PUSH1 0x2 PUSH2 0x5557 DUP4 PUSH8 0xDE0B6B3A7640000 DUP2 SLOAD PUSH12 0xFFFFFFFFFFFFFFFFFFFFFFFF PUSH1 0x1 DUP2 PUSH1 0x2 DUP7 ADD SLOAD PUSH1 0x60 SHR AND DUP3 DUP5 PUSH1 0x60 SHR AND ADD SWAP5 ADD SLOAD PUSH1 0xC0 SHR SWAP2 AND MUL DIV ADD SWAP1 JUMP JUMPDEST SWAP3 ADD SLOAD PUSH1 0xC0 SHR SWAP2 PUSH12 0xFFFFFFFFFFFFFFFFFFFFFFFF PUSH32 0x0 AND MUL DIV SWAP1 PUSH2 0x4A6A JUMP JUMPDEST SWAP1 SWAP2 PUSH8 0xDE0B6B3A7640000 SWAP1 DUP2 DUP2 GT ISZERO PUSH2 0x4FE1 JUMPI DUP2 PUSH2 0x4F4D SWAP5 PUSH32 0xFFFFFFFFFFFFFFFFFFFFFFFFFFFFFFFFFFFFFFFFFFFFFFFFF21F494C589C0000 PUSH12 0xFFFFFFFFFFFFFFFFFFFFFFFF PUSH32 0x0 AND SWAP4 ADD MUL DIV MUL DIV SWAP1 PUSH2 0x4A6A JUMP INVALID LOG2 PUSH5 0x6970667358 0x22 SLT KECCAK256 LT DUP4 XOR PUSH11 0x92A5AA8724BCE9D5B25294 PUSH17 0x791A35A587163C4A75F57905F1EAD5A264 PUSH20 0x6F6C63430008190033CD65A78499993598BE303C SWAP2 0x4C RETURNDATACOPY CALLDATACOPY 0xB0 LT RETURNDATACOPY 0xAD PUSH12 0x1F279D1DBFA0EF080E7141A4 "
		},
		"gasEstimates": {
			"creation": {
				"codeDepositCost": "4416000",
				"executionCost": "infinite",
				"totalCost": "infinite"
			},
			"external": {
				"": "infinite",
				"DOMAIN_SEPARATOR()": "infinite",
				"allowance(address,address)": "3393",
				"approve(address,uint256)": "24368",
				"balanceOf(address)": "2842",
				"burn(uint256)": "50848",
				"burnFrom(address,uint256)": "75795",
				"cancelSubscription(address)": "infinite",
				"claimCredit()": "infinite",
				"createSubscription()": "infinite",
				"decimals()": "353",
				"eip712Domain()": "infinite",
				"getConfiguration()": "infinite",
				"getOracleConfiguration()": "infinite",
				"getPlayerInfo(address)": "4844",
				"getState()": "15151",
				"getSubmission(uint64)": "infinite",
				"makeOracleDeposit()": "infinite",
				"makeOracleDepositFromTreasury(uint256)": "infinite",
				"name()": "infinite",
				"nonces(address)": "2893",
				"owner()": "2848",
				"ownerMakeOracleDepositFromTreasury(uint256)": "infinite",
				"ownerRequestRandom(uint64)": "infinite",
				"permit(address,address,uint256,uint256,uint8,bytes32,bytes32)": "infinite",
				"play(uint96)": "infinite",
				"playWithFee(uint96,uint96)": "infinite",
				"playWithOracleDeposit(uint96)": "infinite",
				"queryMySubmissions(uint64,uint64,bool)": "infinite",
				"queryPlayerSubmissions(address,uint64,uint64,bool)": "infinite",
				"querySubmissions(uint64,uint64,bool)": "infinite",
				"rawFulfillRandomWords(uint256,uint256[])": "infinite",
				"redeem(uint256)": "infinite",
				"refund(uint64)": "5506",
				"renounceOwnership()": "28479",
				"setConfiguration(uint96,uint96,uint64,uint32,uint8)": "infinite",
				"setOracleConfiguration(bytes32,uint16,uint32)": "infinite",
				"symbol()": "infinite",
				"totalSupply()": "2324",
				"transfer(address,uint256)": "51420",
				"transferFrom(address,address,uint256)": "75660",
				"transferOwnership(address)": "29048",
				"updateTrasuryCoinsWithdrawAddress(address)": "28505",
				"userRequestRandom(uint64)": "infinite",
				"withdrawTreasuryCoins(uint96)": "infinite",
				"withdrawTreasuryTokens(address,uint256)": "55478"
			}
		},
		"methodIdentifiers": {
			"DOMAIN_SEPARATOR()": "3644e515",
			"allowance(address,address)": "dd62ed3e",
			"approve(address,uint256)": "095ea7b3",
			"balanceOf(address)": "70a08231",
			"burn(uint256)": "42966c68",
			"burnFrom(address,uint256)": "79cc6790",
			"cancelSubscription(address)": "93d81d58",
			"claimCredit()": "1333db2e",
			"createSubscription()": "a21a23e4",
			"decimals()": "313ce567",
			"eip712Domain()": "84b0196e",
			"getConfiguration()": "6bd50cef",
			"getOracleConfiguration()": "1c478120",
			"getPlayerInfo(address)": "59328401",
			"getState()": "1865c57d",
			"getSubmission(uint64)": "89b94cca",
			"makeOracleDeposit()": "d4eec484",
			"makeOracleDepositFromTreasury(uint256)": "691f20d1",
			"name()": "06fdde03",
			"nonces(address)": "7ecebe00",
			"owner()": "8da5cb5b",
			"ownerMakeOracleDepositFromTreasury(uint256)": "30ea4c32",
			"ownerRequestRandom(uint64)": "bf41dadb",
			"permit(address,address,uint256,uint256,uint8,bytes32,bytes32)": "d505accf",
			"play(uint96)": "621ad856",
			"playWithFee(uint96,uint96)": "fe585b7f",
			"playWithOracleDeposit(uint96)": "bff2fad3",
			"queryMySubmissions(uint64,uint64,bool)": "ff2d9665",
			"queryPlayerSubmissions(address,uint64,uint64,bool)": "ed042c9b",
			"querySubmissions(uint64,uint64,bool)": "6142b027",
			"rawFulfillRandomWords(uint256,uint256[])": "1fe543e3",
			"redeem(uint256)": "db006a75",
			"refund(uint64)": "d7194ccb",
			"renounceOwnership()": "715018a6",
			"setConfiguration(uint96,uint96,uint64,uint32,uint8)": "f516ec9f",
			"setOracleConfiguration(bytes32,uint16,uint32)": "f141b6bb",
			"symbol()": "95d89b41",
			"totalSupply()": "18160ddd",
			"transfer(address,uint256)": "a9059cbb",
			"transferFrom(address,address,uint256)": "23b872dd",
			"transferOwnership(address)": "f2fde38b",
			"updateTrasuryCoinsWithdrawAddress(address)": "4bd8ec5e",
			"userRequestRandom(uint64)": "8bf13b0f",
			"withdrawTreasuryCoins(uint96)": "419bbb76",
			"withdrawTreasuryTokens(address,uint256)": "b63bdd54"
		}
	},
	"abi": [
		{
			"inputs": [
				{
					"internalType": "address",
					"name": "initialOwner",
					"type": "address"
				}
			],
			"stateMutability": "payable",
			"type": "constructor"
		},
		{
			"inputs": [],
			"name": "ECDSAInvalidSignature",
			"type": "error"
		},
		{
			"inputs": [
				{
					"internalType": "uint256",
					"name": "length",
					"type": "uint256"
				}
			],
			"name": "ECDSAInvalidSignatureLength",
			"type": "error"
		},
		{
			"inputs": [
				{
					"internalType": "bytes32",
					"name": "s",
					"type": "bytes32"
				}
			],
			"name": "ECDSAInvalidSignatureS",
			"type": "error"
		},
		{
			"inputs": [
				{
					"internalType": "address",
					"name": "spender",
					"type": "address"
				},
				{
					"internalType": "uint256",
					"name": "allowance",
					"type": "uint256"
				},
				{
					"internalType": "uint256",
					"name": "needed",
					"type": "uint256"
				}
			],
			"name": "ERC20InsufficientAllowance",
			"type": "error"
		},
		{
			"inputs": [
				{
					"internalType": "address",
					"name": "sender",
					"type": "address"
				},
				{
					"internalType": "uint256",
					"name": "balance",
					"type": "uint256"
				},
				{
					"internalType": "uint256",
					"name": "needed",
					"type": "uint256"
				}
			],
			"name": "ERC20InsufficientBalance",
			"type": "error"
		},
		{
			"inputs": [
				{
					"internalType": "address",
					"name": "approver",
					"type": "address"
				}
			],
			"name": "ERC20InvalidApprover",
			"type": "error"
		},
		{
			"inputs": [
				{
					"internalType": "address",
					"name": "receiver",
					"type": "address"
				}
			],
			"name": "ERC20InvalidReceiver",
			"type": "error"
		},
		{
			"inputs": [
				{
					"internalType": "address",
					"name": "sender",
					"type": "address"
				}
			],
			"name": "ERC20InvalidSender",
			"type": "error"
		},
		{
			"inputs": [
				{
					"internalType": "address",
					"name": "spender",
					"type": "address"
				}
			],
			"name": "ERC20InvalidSpender",
			"type": "error"
		},
		{
			"inputs": [
				{
					"internalType": "uint256",
					"name": "deadline",
					"type": "uint256"
				}
			],
			"name": "ERC2612ExpiredSignature",
			"type": "error"
		},
		{
			"inputs": [
				{
					"internalType": "address",
					"name": "signer",
					"type": "address"
				},
				{
					"internalType": "address",
					"name": "owner",
					"type": "address"
				}
			],
			"name": "ERC2612InvalidSigner",
			"type": "error"
		},
		{
			"inputs": [
				{
					"internalType": "uint256",
					"name": "balance",
					"type": "uint256"
				},
				{
					"internalType": "uint256",
					"name": "payment",
					"type": "uint256"
				}
			],
			"name": "InsufficientBalance",
			"type": "error"
		},
		{
			"inputs": [],
			"name": "InsufficientProjectFeeAmount",
			"type": "error"
		},
		{
			"inputs": [
				{
					"internalType": "address",
					"name": "account",
					"type": "address"
				},
				{
					"internalType": "uint256",
					"name": "currentNonce",
					"type": "uint256"
				}
			],
			"name": "InvalidAccountNonce",
			"type": "error"
		},
		{
			"inputs": [],
			"name": "InvalidAddress",
			"type": "error"
		},
		{
			"inputs": [],
			"name": "InvalidGasLimit",
			"type": "error"
		},
		{
			"inputs": [],
			"name": "InvalidKeyHash",
			"type": "error"
		},
		{
			"inputs": [
				{
					"internalType": "uint64",
					"name": "submissionId",
					"type": "uint64"
				},
				{
					"internalType": "address",
					"name": "initiator",
					"type": "address"
				},
				{
					"internalType": "address",
					"name": "expectedInitiator",
					"type": "address"
				}
			],
			"name": "InvalidRefundInitiator",
			"type": "error"
		},
		{
			"inputs": [],
			"name": "InvalidRequestConfirmations",
			"type": "error"
		},
		{
			"inputs": [],
			"name": "InvalidShortString",
			"type": "error"
		},
		{
			"inputs": [
				{
					"internalType": "address",
					"name": "owner",
					"type": "address"
				}
			],
			"name": "OwnableInvalidOwner",
			"type": "error"
		},
		{
			"inputs": [
				{
					"internalType": "address",
					"name": "account",
					"type": "address"
				}
			],
			"name": "OwnableUnauthorizedAccount",
			"type": "error"
		},
		{
			"inputs": [
				{
					"internalType": "uint8",
					"name": "bits",
					"type": "uint8"
				},
				{
					"internalType": "uint256",
					"name": "value",
					"type": "uint256"
				}
			],
			"name": "SafeCastOverflowedUintDowncast",
			"type": "error"
		},
		{
			"inputs": [
				{
					"internalType": "string",
					"name": "str",
					"type": "string"
				}
			],
			"name": "StringTooLong",
			"type": "error"
		},
		{
			"inputs": [
				{
					"internalType": "uint64",
					"name": "submissionId",
					"type": "uint64"
				}
			],
			"name": "SubmissionAlreadyProcessed",
			"type": "error"
		},
		{
			"inputs": [
				{
					"internalType": "uint64",
					"name": "submissionId",
					"type": "uint64"
				}
			],
			"name": "SubmissionBeingProcessed",
			"type": "error"
		},
		{
			"anonymous": false,
			"inputs": [
				{
					"indexed": true,
					"internalType": "address",
					"name": "owner",
					"type": "address"
				},
				{
					"indexed": true,
					"internalType": "address",
					"name": "spender",
					"type": "address"
				},
				{
					"indexed": false,
					"internalType": "uint256",
					"name": "value",
					"type": "uint256"
				}
			],
			"name": "Approval",
			"type": "event"
		},
		{
			"anonymous": false,
			"inputs": [
				{
					"indexed": false,
					"internalType": "address",
					"name": "owner",
					"type": "address"
				},
				{
					"indexed": false,
					"internalType": "uint64",
					"name": "submissionsPerEpoch",
					"type": "uint64"
				},
				{
					"indexed": false,
					"internalType": "uint96",
					"name": "maxRewardTokensPerEth",
					"type": "uint96"
				},
				{
					"indexed": false,
					"internalType": "uint96",
					"name": "projectFee",
					"type": "uint96"
				},
				{
					"indexed": false,
					"internalType": "uint96",
					"name": "houseEdgeFixed",
					"type": "uint96"
				},
				{
					"indexed": false,
					"internalType": "uint96",
					"name": "houseEdgeRate",
					"type": "uint96"
				},
				{
					"indexed": false,
					"internalType": "uint32",
					"name": "transferGasLimit",
					"type": "uint32"
				},
				{
					"indexed": false,
					"internalType": "uint8",
					"name": "redemptionEpochForwardOffset",
					"type": "uint8"
				}
			],
			"name": "ConfigurationChanged",
			"type": "event"
		},
		{
			"anonymous": false,
			"inputs": [
				{
					"indexed": false,
					"internalType": "address",
					"name": "player",
					"type": "address"
				},
				{
					"indexed": false,
					"internalType": "uint256",
					"name": "amount",
					"type": "uint256"
				}
			],
			"name": "CreditClaimed",
			"type": "event"
		},
		{
			"anonymous": false,
			"inputs": [
				{
					"indexed": false,
					"internalType": "address",
					"name": "player",
					"type": "address"
				},
				{
					"indexed": false,
					"internalType": "uint256",
					"name": "amount",
					"type": "uint256"
				}
			],
			"name": "CreditIssued",
			"type": "event"
		},
		{
			"anonymous": false,
			"inputs": [],
			"name": "EIP712DomainChanged",
			"type": "event"
		},
		{
			"anonymous": false,
			"inputs": [
				{
					"indexed": false,
					"internalType": "bytes32",
					"name": "keyHash",
					"type": "bytes32"
				},
				{
					"indexed": false,
					"internalType": "uint16",
					"name": "requestConfirmations",
					"type": "uint16"
				},
				{
					"indexed": false,
					"internalType": "uint32",
					"name": "callbackGasLimit",
					"type": "uint32"
				}
			],
			"name": "OracleConfigurationChanged",
			"type": "event"
		},
		{
			"anonymous": false,
			"inputs": [
				{
					"indexed": false,
					"internalType": "address",
					"name": "actor",
					"type": "address"
				},
				{
					"indexed": false,
					"internalType": "uint256",
					"name": "amountFromActor",
					"type": "uint256"
				},
				{
					"indexed": false,
					"internalType": "uint256",
					"name": "amountFromTreasury",
					"type": "uint256"
				}
			],
			"name": "OracleDepositMade",
			"type": "event"
		},
		{
			"anonymous": false,
			"inputs": [
				{
					"indexed": false,
					"internalType": "uint64",
					"name": "subId",
					"type": "uint64"
				},
				{
					"indexed": false,
					"internalType": "uint256",
					"name": "subscriptionRefundAmount",
					"type": "uint256"
				},
				{
					"indexed": false,
					"internalType": "address",
					"name": "refundedTo",
					"type": "address"
				}
			],
			"name": "OracleSubscriptionCanclled",
			"type": "event"
		},
		{
			"anonymous": false,
			"inputs": [
				{
					"indexed": false,
					"internalType": "uint64",
					"name": "subId",
					"type": "uint64"
				}
			],
			"name": "OracleSubscriptionCreated",
			"type": "event"
		},
		{
			"anonymous": false,
			"inputs": [
				{
					"indexed": true,
					"internalType": "address",
					"name": "player",
					"type": "address"
				},
				{
					"indexed": false,
					"internalType": "uint96",
					"name": "wager",
					"type": "uint96"
				},
				{
					"indexed": false,
					"internalType": "uint96",
					"name": "prepaidProjectFee",
					"type": "uint96"
				},
				{
					"indexed": true,
					"internalType": "uint64",
					"name": "submissionId",
					"type": "uint64"
				},
				{
					"indexed": false,
					"internalType": "uint96",
					"name": "multiplier",
					"type": "uint96"
				},
				{
					"indexed": false,
					"internalType": "uint96",
					"name": "multiplierBoostTokens",
					"type": "uint96"
				},
				{
					"indexed": false,
					"internalType": "uint32",
					"name": "bet",
					"type": "uint32"
				},
				{
					"indexed": true,
					"internalType": "uint32",
					"name": "status",
					"type": "uint32"
				},
				{
					"components": [
						{
							"internalType": "uint32",
							"name": "roll",
							"type": "uint32"
						},
						{
							"internalType": "uint96",
							"name": "payoutCoins",
							"type": "uint96"
						},
						{
							"internalType": "uint96",
							"name": "payoutTokens",
							"type": "uint96"
						},
						{
							"internalType": "uint96",
							"name": "refundCoins",
							"type": "uint96"
						}
					],
					"indexed": false,
					"internalType": "struct IUDICE.SubmissionOutcome",
					"name": "outcome",
					"type": "tuple"
				},
				{
					"components": [
						{
							"internalType": "uint256",
							"name": "rewardPool",
							"type": "uint256"
						},
						{
							"internalType": "uint256",
							"name": "playerTokenBalance",
							"type": "uint256"
						},
						{
							"internalType": "uint256",
							"name": "totalTokenSupply",
							"type": "uint256"
						}
					],
					"indexed": false,
					"internalType": "struct IUDICE.SubmissionEventState",
					"name": "state",
					"type": "tuple"
				}
			],
			"name": "Outcome",
			"type": "event"
		},
		{
			"anonymous": false,
			"inputs": [
				{
					"indexed": false,
					"internalType": "uint64[]",
					"name": "submissionIds",
					"type": "uint64[]"
				},
				{
					"indexed": false,
					"internalType": "uint32[]",
					"name": "submissionStatuses",
					"type": "uint32[]"
				}
			],
			"name": "OwnerRequestedRefunds",
			"type": "event"
		},
		{
			"anonymous": false,
			"inputs": [
				{
					"indexed": true,
					"internalType": "address",
					"name": "previousOwner",
					"type": "address"
				},
				{
					"indexed": true,
					"internalType": "address",
					"name": "newOwner",
					"type": "address"
				}
			],
			"name": "OwnershipTransferred",
			"type": "event"
		},
		{
			"anonymous": false,
			"inputs": [
				{
					"indexed": false,
					"internalType": "uint64",
					"name": "submissionId",
					"type": "uint64"
				},
				{
					"indexed": false,
					"internalType": "uint96",
					"name": "projectFee",
					"type": "uint96"
				},
				{
					"indexed": false,
					"internalType": "uint96",
					"name": "prepaidProjectFee",
					"type": "uint96"
				},
				{
					"indexed": false,
					"internalType": "uint96",
					"name": "onTheHouseProjectFee",
					"type": "uint96"
				},
				{
					"indexed": false,
					"internalType": "uint256",
					"name": "tokensInLieuOfOnTheHouseProjectFee",
					"type": "uint256"
				}
			],
			"name": "ProjectFeeCharged",
			"type": "event"
		},
		{
			"anonymous": false,
			"inputs": [
				{
					"indexed": false,
					"internalType": "address",
					"name": "player",
					"type": "address"
				},
				{
					"indexed": false,
					"internalType": "uint256",
					"name": "burntTokens",
					"type": "uint256"
				},
				{
					"indexed": false,
					"internalType": "uint256",
					"name": "tokensValue",
					"type": "uint256"
				},
				{
					"indexed": false,
					"internalType": "uint256",
					"name": "withdrawTax",
					"type": "uint256"
				},
				{
					"indexed": false,
					"internalType": "uint256",
					"name": "payoutCoins",
					"type": "uint256"
				}
			],
			"name": "Redeemed",
			"type": "event"
		},
		{
			"anonymous": false,
			"inputs": [
				{
					"indexed": false,
					"internalType": "uint64",
					"name": "submissionId",
					"type": "uint64"
				},
				{
					"indexed": false,
					"internalType": "uint256",
					"name": "requestId",
					"type": "uint256"
				},
				{
					"indexed": false,
					"internalType": "uint256",
					"name": "randomWord",
					"type": "uint256"
				}
			],
			"name": "SubmissionRandomReceived",
			"type": "event"
		},
		{
			"anonymous": false,
			"inputs": [
				{
					"indexed": false,
					"internalType": "uint64",
					"name": "submissionId",
					"type": "uint64"
				},
				{
					"indexed": false,
					"internalType": "uint256",
					"name": "requestId",
					"type": "uint256"
				}
			],
			"name": "SubmissionRandomRequested",
			"type": "event"
		},
		{
			"anonymous": false,
			"inputs": [
				{
					"indexed": true,
					"internalType": "address",
					"name": "player",
					"type": "address"
				},
				{
					"indexed": false,
					"internalType": "uint96",
					"name": "wager",
					"type": "uint96"
				},
				{
					"indexed": false,
					"internalType": "uint96",
					"name": "prepaidProjectFee",
					"type": "uint96"
				},
				{
					"indexed": true,
					"internalType": "uint64",
					"name": "submissionId",
					"type": "uint64"
				},
				{
					"indexed": false,
					"internalType": "uint96",
					"name": "multiplier",
					"type": "uint96"
				},
				{
					"indexed": false,
					"internalType": "uint96",
					"name": "multiplierBoostTokens",
					"type": "uint96"
				},
				{
					"indexed": false,
					"internalType": "uint32",
					"name": "bet",
					"type": "uint32"
				},
				{
					"indexed": false,
					"internalType": "uint32",
					"name": "status",
					"type": "uint32"
				},
				{
					"components": [
						{
							"internalType": "uint96",
							"name": "projectFee",
							"type": "uint96"
						},
						{
							"internalType": "uint96",
							"name": "houseEdgeFixed",
							"type": "uint96"
						},
						{
							"internalType": "uint64",
							"name": "houseEdgeRate",
							"type": "uint64"
						}
					],
					"indexed": false,
					"internalType": "struct IUDICE.SubmissionEventConfig",
					"name": "config",
					"type": "tuple"
				}
			],
			"name": "Submitted",
			"type": "event"
		},
		{
			"anonymous": false,
			"inputs": [
				{
					"indexed": true,
					"internalType": "address",
					"name": "from",
					"type": "address"
				},
				{
					"indexed": true,
					"internalType": "address",
					"name": "to",
					"type": "address"
				},
				{
					"indexed": false,
					"internalType": "uint256",
					"name": "value",
					"type": "uint256"
				}
			],
			"name": "Transfer",
			"type": "event"
		},
		{
			"anonymous": false,
			"inputs": [
				{
					"indexed": false,
					"internalType": "address",
					"name": "owner",
					"type": "address"
				},
				{
					"indexed": false,
					"internalType": "address",
					"name": "oldAddress",
					"type": "address"
				},
				{
					"indexed": false,
					"internalType": "address",
					"name": "newAddress",
					"type": "address"
				}
			],
			"name": "TreasuryCoinsWithdrawAddressChange",
			"type": "event"
		},
		{
			"anonymous": false,
			"inputs": [
				{
					"indexed": false,
					"internalType": "address",
					"name": "owner",
					"type": "address"
				},
				{
					"indexed": false,
					"internalType": "address",
					"name": "to",
					"type": "address"
				},
				{
					"indexed": false,
					"internalType": "uint256",
					"name": "coins",
					"type": "uint256"
				},
				{
					"indexed": false,
					"internalType": "uint256",
					"name": "tokens",
					"type": "uint256"
				}
			],
			"name": "TreasuryWithdrawn",
			"type": "event"
		},
		{
			"stateMutability": "payable",
			"type": "fallback"
		},
		{
			"inputs": [],
			"name": "DOMAIN_SEPARATOR",
			"outputs": [
				{
					"internalType": "bytes32",
					"name": "",
					"type": "bytes32"
				}
			],
			"stateMutability": "view",
			"type": "function"
		},
		{
			"inputs": [
				{
					"internalType": "address",
					"name": "owner",
					"type": "address"
				},
				{
					"internalType": "address",
					"name": "spender",
					"type": "address"
				}
			],
			"name": "allowance",
			"outputs": [
				{
					"internalType": "uint256",
					"name": "",
					"type": "uint256"
				}
			],
			"stateMutability": "view",
			"type": "function"
		},
		{
			"inputs": [
				{
					"internalType": "address",
					"name": "spender",
					"type": "address"
				},
				{
					"internalType": "uint256",
					"name": "value",
					"type": "uint256"
				}
			],
			"name": "approve",
			"outputs": [
				{
					"internalType": "bool",
					"name": "",
					"type": "bool"
				}
			],
			"stateMutability": "nonpayable",
			"type": "function"
		},
		{
			"inputs": [
				{
					"internalType": "address",
					"name": "account",
					"type": "address"
				}
			],
			"name": "balanceOf",
			"outputs": [
				{
					"internalType": "uint256",
					"name": "",
					"type": "uint256"
				}
			],
			"stateMutability": "view",
			"type": "function"
		},
		{
			"inputs": [
				{
					"internalType": "uint256",
					"name": "value",
					"type": "uint256"
				}
			],
			"name": "burn",
			"outputs": [],
			"stateMutability": "nonpayable",
			"type": "function"
		},
		{
			"inputs": [
				{
					"internalType": "address",
					"name": "account",
					"type": "address"
				},
				{
					"internalType": "uint256",
					"name": "value",
					"type": "uint256"
				}
			],
			"name": "burnFrom",
			"outputs": [],
			"stateMutability": "nonpayable",
			"type": "function"
		},
		{
			"inputs": [
				{
					"internalType": "address",
					"name": "refundTo",
					"type": "address"
				}
			],
			"name": "cancelSubscription",
			"outputs": [
				{
					"internalType": "bool",
					"name": "",
					"type": "bool"
				}
			],
			"stateMutability": "nonpayable",
			"type": "function"
		},
		{
			"inputs": [],
			"name": "claimCredit",
			"outputs": [],
			"stateMutability": "nonpayable",
			"type": "function"
		},
		{
			"inputs": [],
			"name": "createSubscription",
			"outputs": [
				{
					"internalType": "bool",
					"name": "",
					"type": "bool"
				}
			],
			"stateMutability": "nonpayable",
			"type": "function"
		},
		{
			"inputs": [],
			"name": "decimals",
			"outputs": [
				{
					"internalType": "uint8",
					"name": "",
					"type": "uint8"
				}
			],
			"stateMutability": "view",
			"type": "function"
		},
		{
			"inputs": [],
			"name": "eip712Domain",
			"outputs": [
				{
					"internalType": "bytes1",
					"name": "fields",
					"type": "bytes1"
				},
				{
					"internalType": "string",
					"name": "name",
					"type": "string"
				},
				{
					"internalType": "string",
					"name": "version",
					"type": "string"
				},
				{
					"internalType": "uint256",
					"name": "chainId",
					"type": "uint256"
				},
				{
					"internalType": "address",
					"name": "verifyingContract",
					"type": "address"
				},
				{
					"internalType": "bytes32",
					"name": "salt",
					"type": "bytes32"
				},
				{
					"internalType": "uint256[]",
					"name": "extensions",
					"type": "uint256[]"
				}
			],
			"stateMutability": "view",
			"type": "function"
		},
		{
			"inputs": [],
			"name": "getConfiguration",
			"outputs": [
				{
					"internalType": "uint256",
					"name": "submissionsPerEpoch",
					"type": "uint256"
				},
				{
					"internalType": "uint256",
					"name": "maxRewardTokensPerEth",
					"type": "uint256"
				},
				{
					"internalType": "uint256",
					"name": "projectFee",
					"type": "uint256"
				},
				{
					"internalType": "uint256",
					"name": "houseEdgeFixed",
					"type": "uint256"
				},
				{
					"internalType": "uint256",
					"name": "houseEdgeRate",
					"type": "uint256"
				},
				{
					"internalType": "uint256",
					"name": "transferGasLimit",
					"type": "uint256"
				},
				{
					"internalType": "uint8",
					"name": "redemptionEpochForwardOffset",
					"type": "uint8"
				}
			],
			"stateMutability": "view",
			"type": "function"
		},
		{
			"inputs": [],
			"name": "getOracleConfiguration",
			"outputs": [
				{
					"internalType": "address",
					"name": "vrfCoordinator",
					"type": "address"
				},
				{
					"internalType": "uint64",
					"name": "subId",
					"type": "uint64"
				},
				{
					"internalType": "bytes32",
					"name": "keyHash",
					"type": "bytes32"
				},
				{
					"internalType": "uint16",
					"name": "requestConfirmations",
					"type": "uint16"
				},
				{
					"internalType": "uint32",
					"name": "callbackGasLimit",
					"type": "uint32"
				}
			],
			"stateMutability": "view",
			"type": "function"
		},
		{
			"inputs": [
				{
					"internalType": "address",
					"name": "player",
					"type": "address"
				}
			],
			"name": "getPlayerInfo",
			"outputs": [
				{
					"internalType": "uint256",
					"name": "credit",
					"type": "uint256"
				},
				{
					"internalType": "uint256",
					"name": "submissionsCount",
					"type": "uint256"
				}
			],
			"stateMutability": "view",
			"type": "function"
		},
		{
			"inputs": [],
			"name": "getState",
			"outputs": [
				{
					"internalType": "uint256",
					"name": "submissionsCount",
					"type": "uint256"
				},
				{
					"internalType": "uint256",
					"name": "pendingPool",
					"type": "uint256"
				},
				{
					"internalType": "uint256",
					"name": "treasuryPool",
					"type": "uint256"
				},
				{
					"internalType": "uint256",
					"name": "rewardPool",
					"type": "uint256"
				},
				{
					"internalType": "uint256",
					"name": "creditPool",
					"type": "uint256"
				},
				{
					"internalType": "uint256",
					"name": "balance",
					"type": "uint256"
				},
				{
					"internalType": "uint256",
					"name": "treasuryTokens",
					"type": "uint256"
				},
				{
					"internalType": "uint256",
					"name": "totalSupply",
					"type": "uint256"
				}
			],
			"stateMutability": "view",
			"type": "function"
		},
		{
			"inputs": [
				{
					"internalType": "uint64",
					"name": "submissionId",
					"type": "uint64"
				}
			],
			"name": "getSubmission",
			"outputs": [
				{
					"components": [
						{
							"internalType": "uint96",
							"name": "wager",
							"type": "uint96"
						},
						{
							"internalType": "uint96",
							"name": "projectFee",
							"type": "uint96"
						},
						{
							"internalType": "uint64",
							"name": "blockNumber",
							"type": "uint64"
						},
						{
							"internalType": "uint96",
							"name": "prepaidProjectFee",
							"type": "uint96"
						},
						{
							"internalType": "uint96",
							"name": "multiplier",
							"type": "uint96"
						},
						{
							"internalType": "uint64",
							"name": "houseEdgeRate",
							"type": "uint64"
						},
						{
							"internalType": "uint96",
							"name": "multiplierBoostTokens",
							"type": "uint96"
						},
						{
							"internalType": "uint96",
							"name": "houseEdgeFixed",
							"type": "uint96"
						},
						{
							"internalType": "uint64",
							"name": "submissionId",
							"type": "uint64"
						},
						{
							"internalType": "address payable",
							"name": "player",
							"type": "address"
						},
						{
							"internalType": "uint32",
							"name": "bet",
							"type": "uint32"
						},
						{
							"internalType": "uint32",
							"name": "status",
							"type": "uint32"
						},
						{
							"components": [
								{
									"internalType": "uint32",
									"name": "roll",
									"type": "uint32"
								},
								{
									"internalType": "uint96",
									"name": "payoutCoins",
									"type": "uint96"
								},
								{
									"internalType": "uint96",
									"name": "payoutTokens",
									"type": "uint96"
								},
								{
									"internalType": "uint96",
									"name": "refundCoins",
									"type": "uint96"
								}
							],
							"internalType": "struct IUDICE.SubmissionOutcome",
							"name": "outcome",
							"type": "tuple"
						}
					],
					"internalType": "struct IUDICE.Submission",
					"name": "",
					"type": "tuple"
				}
			],
			"stateMutability": "view",
			"type": "function"
		},
		{
			"inputs": [],
			"name": "makeOracleDeposit",
			"outputs": [],
			"stateMutability": "payable",
			"type": "function"
		},
		{
			"inputs": [
				{
					"internalType": "uint256",
					"name": "amount",
					"type": "uint256"
				}
			],
			"name": "makeOracleDepositFromTreasury",
			"outputs": [],
			"stateMutability": "nonpayable",
			"type": "function"
		},
		{
			"inputs": [],
			"name": "name",
			"outputs": [
				{
					"internalType": "string",
					"name": "",
					"type": "string"
				}
			],
			"stateMutability": "view",
			"type": "function"
		},
		{
			"inputs": [
				{
					"internalType": "address",
					"name": "owner",
					"type": "address"
				}
			],
			"name": "nonces",
			"outputs": [
				{
					"internalType": "uint256",
					"name": "",
					"type": "uint256"
				}
			],
			"stateMutability": "view",
			"type": "function"
		},
		{
			"inputs": [],
			"name": "owner",
			"outputs": [
				{
					"internalType": "address",
					"name": "",
					"type": "address"
				}
			],
			"stateMutability": "view",
			"type": "function"
		},
		{
			"inputs": [
				{
					"internalType": "uint256",
					"name": "amount",
					"type": "uint256"
				}
			],
			"name": "ownerMakeOracleDepositFromTreasury",
			"outputs": [],
			"stateMutability": "nonpayable",
			"type": "function"
		},
		{
			"inputs": [
				{
					"internalType": "uint64",
					"name": "submissionId",
					"type": "uint64"
				}
			],
			"name": "ownerRequestRandom",
			"outputs": [],
			"stateMutability": "nonpayable",
			"type": "function"
		},
		{
			"inputs": [
				{
					"internalType": "address",
					"name": "owner",
					"type": "address"
				},
				{
					"internalType": "address",
					"name": "spender",
					"type": "address"
				},
				{
					"internalType": "uint256",
					"name": "value",
					"type": "uint256"
				},
				{
					"internalType": "uint256",
					"name": "deadline",
					"type": "uint256"
				},
				{
					"internalType": "uint8",
					"name": "v",
					"type": "uint8"
				},
				{
					"internalType": "bytes32",
					"name": "r",
					"type": "bytes32"
				},
				{
					"internalType": "bytes32",
					"name": "s",
					"type": "bytes32"
				}
			],
			"name": "permit",
			"outputs": [],
			"stateMutability": "nonpayable",
			"type": "function"
		},
		{
			"inputs": [
				{
					"internalType": "uint96",
					"name": "multiplier",
					"type": "uint96"
				}
			],
			"name": "play",
			"outputs": [],
			"stateMutability": "payable",
			"type": "function"
		},
		{
			"inputs": [
				{
					"internalType": "uint96",
					"name": "multiplier",
					"type": "uint96"
				},
				{
					"internalType": "uint96",
					"name": "prepaidProjectFee",
					"type": "uint96"
				}
			],
			"name": "playWithFee",
			"outputs": [],
			"stateMutability": "payable",
			"type": "function"
		},
		{
			"inputs": [
				{
					"internalType": "uint96",
					"name": "multiplier",
					"type": "uint96"
				}
			],
			"name": "playWithOracleDeposit",
			"outputs": [],
			"stateMutability": "payable",
			"type": "function"
		},
		{
			"inputs": [
				{
					"internalType": "uint64",
					"name": "offset",
					"type": "uint64"
				},
				{
					"internalType": "uint64",
					"name": "limit",
					"type": "uint64"
				},
				{
					"internalType": "bool",
					"name": "ascend",
					"type": "bool"
				}
			],
			"name": "queryMySubmissions",
			"outputs": [
				{
					"components": [
						{
							"internalType": "uint96",
							"name": "wager",
							"type": "uint96"
						},
						{
							"internalType": "uint96",
							"name": "projectFee",
							"type": "uint96"
						},
						{
							"internalType": "uint64",
							"name": "blockNumber",
							"type": "uint64"
						},
						{
							"internalType": "uint96",
							"name": "prepaidProjectFee",
							"type": "uint96"
						},
						{
							"internalType": "uint96",
							"name": "multiplier",
							"type": "uint96"
						},
						{
							"internalType": "uint64",
							"name": "houseEdgeRate",
							"type": "uint64"
						},
						{
							"internalType": "uint96",
							"name": "multiplierBoostTokens",
							"type": "uint96"
						},
						{
							"internalType": "uint96",
							"name": "houseEdgeFixed",
							"type": "uint96"
						},
						{
							"internalType": "uint64",
							"name": "submissionId",
							"type": "uint64"
						},
						{
							"internalType": "address payable",
							"name": "player",
							"type": "address"
						},
						{
							"internalType": "uint32",
							"name": "bet",
							"type": "uint32"
						},
						{
							"internalType": "uint32",
							"name": "status",
							"type": "uint32"
						},
						{
							"components": [
								{
									"internalType": "uint32",
									"name": "roll",
									"type": "uint32"
								},
								{
									"internalType": "uint96",
									"name": "payoutCoins",
									"type": "uint96"
								},
								{
									"internalType": "uint96",
									"name": "payoutTokens",
									"type": "uint96"
								},
								{
									"internalType": "uint96",
									"name": "refundCoins",
									"type": "uint96"
								}
							],
							"internalType": "struct IUDICE.SubmissionOutcome",
							"name": "outcome",
							"type": "tuple"
						}
					],
					"internalType": "struct IUDICE.Submission[]",
					"name": "items",
					"type": "tuple[]"
				}
			],
			"stateMutability": "view",
			"type": "function"
		},
		{
			"inputs": [
				{
					"internalType": "address",
					"name": "player",
					"type": "address"
				},
				{
					"internalType": "uint64",
					"name": "offset",
					"type": "uint64"
				},
				{
					"internalType": "uint64",
					"name": "limit",
					"type": "uint64"
				},
				{
					"internalType": "bool",
					"name": "ascend",
					"type": "bool"
				}
			],
			"name": "queryPlayerSubmissions",
			"outputs": [
				{
					"components": [
						{
							"internalType": "uint96",
							"name": "wager",
							"type": "uint96"
						},
						{
							"internalType": "uint96",
							"name": "projectFee",
							"type": "uint96"
						},
						{
							"internalType": "uint64",
							"name": "blockNumber",
							"type": "uint64"
						},
						{
							"internalType": "uint96",
							"name": "prepaidProjectFee",
							"type": "uint96"
						},
						{
							"internalType": "uint96",
							"name": "multiplier",
							"type": "uint96"
						},
						{
							"internalType": "uint64",
							"name": "houseEdgeRate",
							"type": "uint64"
						},
						{
							"internalType": "uint96",
							"name": "multiplierBoostTokens",
							"type": "uint96"
						},
						{
							"internalType": "uint96",
							"name": "houseEdgeFixed",
							"type": "uint96"
						},
						{
							"internalType": "uint64",
							"name": "submissionId",
							"type": "uint64"
						},
						{
							"internalType": "address payable",
							"name": "player",
							"type": "address"
						},
						{
							"internalType": "uint32",
							"name": "bet",
							"type": "uint32"
						},
						{
							"internalType": "uint32",
							"name": "status",
							"type": "uint32"
						},
						{
							"components": [
								{
									"internalType": "uint32",
									"name": "roll",
									"type": "uint32"
								},
								{
									"internalType": "uint96",
									"name": "payoutCoins",
									"type": "uint96"
								},
								{
									"internalType": "uint96",
									"name": "payoutTokens",
									"type": "uint96"
								},
								{
									"internalType": "uint96",
									"name": "refundCoins",
									"type": "uint96"
								}
							],
							"internalType": "struct IUDICE.SubmissionOutcome",
							"name": "outcome",
							"type": "tuple"
						}
					],
					"internalType": "struct IUDICE.Submission[]",
					"name": "items",
					"type": "tuple[]"
				}
			],
			"stateMutability": "view",
			"type": "function"
		},
		{
			"inputs": [
				{
					"internalType": "uint64",
					"name": "offset",
					"type": "uint64"
				},
				{
					"internalType": "uint64",
					"name": "limit",
					"type": "uint64"
				},
				{
					"internalType": "bool",
					"name": "ascend",
					"type": "bool"
				}
			],
			"name": "querySubmissions",
			"outputs": [
				{
					"components": [
						{
							"internalType": "uint96",
							"name": "wager",
							"type": "uint96"
						},
						{
							"internalType": "uint96",
							"name": "projectFee",
							"type": "uint96"
						},
						{
							"internalType": "uint64",
							"name": "blockNumber",
							"type": "uint64"
						},
						{
							"internalType": "uint96",
							"name": "prepaidProjectFee",
							"type": "uint96"
						},
						{
							"internalType": "uint96",
							"name": "multiplier",
							"type": "uint96"
						},
						{
							"internalType": "uint64",
							"name": "houseEdgeRate",
							"type": "uint64"
						},
						{
							"internalType": "uint96",
							"name": "multiplierBoostTokens",
							"type": "uint96"
						},
						{
							"internalType": "uint96",
							"name": "houseEdgeFixed",
							"type": "uint96"
						},
						{
							"internalType": "uint64",
							"name": "submissionId",
							"type": "uint64"
						},
						{
							"internalType": "address payable",
							"name": "player",
							"type": "address"
						},
						{
							"internalType": "uint32",
							"name": "bet",
							"type": "uint32"
						},
						{
							"internalType": "uint32",
							"name": "status",
							"type": "uint32"
						},
						{
							"components": [
								{
									"internalType": "uint32",
									"name": "roll",
									"type": "uint32"
								},
								{
									"internalType": "uint96",
									"name": "payoutCoins",
									"type": "uint96"
								},
								{
									"internalType": "uint96",
									"name": "payoutTokens",
									"type": "uint96"
								},
								{
									"internalType": "uint96",
									"name": "refundCoins",
									"type": "uint96"
								}
							],
							"internalType": "struct IUDICE.SubmissionOutcome",
							"name": "outcome",
							"type": "tuple"
						}
					],
					"internalType": "struct IUDICE.Submission[]",
					"name": "items",
					"type": "tuple[]"
				}
			],
			"stateMutability": "view",
			"type": "function"
		},
		{
			"inputs": [
				{
					"internalType": "uint256",
					"name": "requestId",
					"type": "uint256"
				},
				{
					"internalType": "uint256[]",
					"name": "randomWords",
					"type": "uint256[]"
				}
			],
			"name": "rawFulfillRandomWords",
			"outputs": [],
			"stateMutability": "nonpayable",
			"type": "function"
		},
		{
			"inputs": [
				{
					"internalType": "uint256",
					"name": "tokens",
					"type": "uint256"
				}
			],
			"name": "redeem",
			"outputs": [],
			"stateMutability": "nonpayable",
			"type": "function"
		},
		{
			"inputs": [
				{
					"internalType": "uint64",
					"name": "submissionId",
					"type": "uint64"
				}
			],
			"name": "refund",
			"outputs": [],
			"stateMutability": "nonpayable",
			"type": "function"
		},
		{
			"inputs": [],
			"name": "renounceOwnership",
			"outputs": [],
			"stateMutability": "nonpayable",
			"type": "function"
		},
		{
			"inputs": [
				{
					"internalType": "uint96",
					"name": "projectFee",
					"type": "uint96"
				},
				{
					"internalType": "uint96",
					"name": "houseEdgeFixed",
					"type": "uint96"
				},
				{
					"internalType": "uint64",
					"name": "houseEdgeRate",
					"type": "uint64"
				},
				{
					"internalType": "uint32",
					"name": "transferGasLimit",
					"type": "uint32"
				},
				{
					"internalType": "uint8",
					"name": "redemptionEpochForwardOffset",
					"type": "uint8"
				}
			],
			"name": "setConfiguration",
			"outputs": [],
			"stateMutability": "nonpayable",
			"type": "function"
		},
		{
			"inputs": [
				{
					"internalType": "bytes32",
					"name": "keyHash",
					"type": "bytes32"
				},
				{
					"internalType": "uint16",
					"name": "requestConfirmations",
					"type": "uint16"
				},
				{
					"internalType": "uint32",
					"name": "callbackGasLimit",
					"type": "uint32"
				}
			],
			"name": "setOracleConfiguration",
			"outputs": [],
			"stateMutability": "nonpayable",
			"type": "function"
		},
		{
			"inputs": [],
			"name": "symbol",
			"outputs": [
				{
					"internalType": "string",
					"name": "",
					"type": "string"
				}
			],
			"stateMutability": "view",
			"type": "function"
		},
		{
			"inputs": [],
			"name": "totalSupply",
			"outputs": [
				{
					"internalType": "uint256",
					"name": "",
					"type": "uint256"
				}
			],
			"stateMutability": "view",
			"type": "function"
		},
		{
			"inputs": [
				{
					"internalType": "address",
					"name": "to",
					"type": "address"
				},
				{
					"internalType": "uint256",
					"name": "value",
					"type": "uint256"
				}
			],
			"name": "transfer",
			"outputs": [
				{
					"internalType": "bool",
					"name": "",
					"type": "bool"
				}
			],
			"stateMutability": "nonpayable",
			"type": "function"
		},
		{
			"inputs": [
				{
					"internalType": "address",
					"name": "from",
					"type": "address"
				},
				{
					"internalType": "address",
					"name": "to",
					"type": "address"
				},
				{
					"internalType": "uint256",
					"name": "value",
					"type": "uint256"
				}
			],
			"name": "transferFrom",
			"outputs": [
				{
					"internalType": "bool",
					"name": "",
					"type": "bool"
				}
			],
			"stateMutability": "nonpayable",
			"type": "function"
		},
		{
			"inputs": [
				{
					"internalType": "address",
					"name": "newOwner",
					"type": "address"
				}
			],
			"name": "transferOwnership",
			"outputs": [],
			"stateMutability": "nonpayable",
			"type": "function"
		},
		{
			"inputs": [
				{
					"internalType": "address",
					"name": "recipient",
					"type": "address"
				}
			],
			"name": "updateTrasuryCoinsWithdrawAddress",
			"outputs": [],
			"stateMutability": "nonpayable",
			"type": "function"
		},
		{
			"inputs": [
				{
					"internalType": "uint64",
					"name": "submissionId",
					"type": "uint64"
				}
			],
			"name": "userRequestRandom",
			"outputs": [],
			"stateMutability": "payable",
			"type": "function"
		},
		{
			"inputs": [
				{
					"internalType": "uint96",
					"name": "amount",
					"type": "uint96"
				}
			],
			"name": "withdrawTreasuryCoins",
			"outputs": [],
			"stateMutability": "nonpayable",
			"type": "function"
		},
		{
			"inputs": [
				{
					"internalType": "address",
					"name": "to",
					"type": "address"
				},
				{
					"internalType": "uint256",
					"name": "amount",
					"type": "uint256"
				}
			],
			"name": "withdrawTreasuryTokens",
			"outputs": [],
			"stateMutability": "nonpayable",
			"type": "function"
		},
		{
			"stateMutability": "payable",
			"type": "receive"
		}
	]
}